{
	"src/DappsStakingMock.sol": {
		"DappsStakingMock": {
			"abi": [
				{
					"inputs": [],
					"stateMutability": "nonpayable",
					"type": "constructor"
				},
				{
					"anonymous": false,
					"inputs": [
						{
							"indexed": true,
							"internalType": "address",
							"name": "previousOwner",
							"type": "address"
						},
						{
							"indexed": true,
							"internalType": "address",
							"name": "newOwner",
							"type": "address"
						}
					],
					"name": "OwnershipTransferred",
					"type": "event"
				},
				{
					"inputs": [
						{
							"internalType": "address",
							"name": "",
							"type": "address"
						},
						{
							"internalType": "uint128",
							"name": "",
							"type": "uint128"
						}
					],
					"name": "bond_and_stake",
					"outputs": [],
					"stateMutability": "payable",
					"type": "function"
				},
				{
					"inputs": [
						{
							"internalType": "address",
							"name": "",
							"type": "address"
						}
					],
					"name": "claim_staker",
					"outputs": [],
					"stateMutability": "nonpayable",
					"type": "function"
				},
				{
					"inputs": [],
					"name": "era",
					"outputs": [
						{
							"internalType": "uint256",
							"name": "",
							"type": "uint256"
						}
					],
					"stateMutability": "view",
					"type": "function"
				},
				{
					"inputs": [],
					"name": "eraDuration",
					"outputs": [
						{
							"internalType": "uint256",
							"name": "",
							"type": "uint256"
						}
					],
					"stateMutability": "view",
					"type": "function"
				},
				{
					"inputs": [],
					"name": "owner",
					"outputs": [
						{
							"internalType": "address",
							"name": "",
							"type": "address"
						}
					],
					"stateMutability": "view",
					"type": "function"
				},
				{
					"inputs": [],
					"name": "read_current_era",
					"outputs": [
						{
							"internalType": "uint256",
							"name": "",
							"type": "uint256"
						}
					],
					"stateMutability": "view",
					"type": "function"
				},
				{
					"inputs": [],
					"name": "read_unbonding_period",
					"outputs": [
						{
							"internalType": "uint256",
							"name": "",
							"type": "uint256"
						}
					],
					"stateMutability": "view",
					"type": "function"
				},
				{
					"inputs": [],
					"name": "renounceOwnership",
					"outputs": [],
					"stateMutability": "nonpayable",
					"type": "function"
				},
				{
					"inputs": [
						{
							"internalType": "uint256",
							"name": "_duration",
							"type": "uint256"
						}
					],
					"name": "setEraDuration",
					"outputs": [],
					"stateMutability": "nonpayable",
					"type": "function"
				},
				{
					"inputs": [],
					"name": "stakerRewards",
					"outputs": [
						{
							"internalType": "uint256",
							"name": "",
							"type": "uint256"
						}
					],
					"stateMutability": "view",
					"type": "function"
				},
				{
					"inputs": [],
					"name": "start",
					"outputs": [
						{
							"internalType": "uint256",
							"name": "",
							"type": "uint256"
						}
					],
					"stateMutability": "view",
					"type": "function"
				},
				{
					"inputs": [
						{
							"internalType": "address",
							"name": "newOwner",
							"type": "address"
						}
					],
					"name": "transferOwnership",
					"outputs": [],
					"stateMutability": "nonpayable",
					"type": "function"
				},
				{
					"inputs": [
						{
							"internalType": "address",
							"name": "",
							"type": "address"
						},
						{
							"internalType": "uint128",
							"name": "amount",
							"type": "uint128"
						}
					],
					"name": "unbond_and_unstake",
					"outputs": [],
					"stateMutability": "nonpayable",
					"type": "function"
				},
				{
					"inputs": [
						{
							"internalType": "uint256",
							"name": "",
							"type": "uint256"
						}
					],
					"name": "unstakes",
					"outputs": [
						{
							"internalType": "uint128",
							"name": "amount",
							"type": "uint128"
						},
						{
							"internalType": "uint128",
							"name": "startEra",
							"type": "uint128"
						}
					],
					"stateMutability": "view",
					"type": "function"
				},
				{
					"inputs": [],
					"name": "unstakesSum",
					"outputs": [
						{
							"internalType": "uint256",
							"name": "",
							"type": "uint256"
						}
					],
					"stateMutability": "view",
					"type": "function"
				},
				{
					"inputs": [],
					"name": "withdraw_unbonded",
					"outputs": [],
					"stateMutability": "nonpayable",
					"type": "function"
				},
				{
					"stateMutability": "payable",
					"type": "receive"
				}
			],
			"devdoc": {
				"kind": "dev",
				"methods": {
					"owner()": {
						"details": "Returns the address of the current owner."
					},
					"read_current_era()": {
						"returns": {
							"_0": "era, The current era"
						}
					},
					"read_unbonding_period()": {
						"returns": {
							"_0": "period, The unbonding period in eras"
						}
					},
					"renounceOwnership()": {
						"details": "Leaves the contract without owner. It will not be possible to call `onlyOwner` functions anymore. Can only be called by the current owner. NOTE: Renouncing ownership will leave the contract without an owner, thereby removing any functionality that is only available to the owner."
					},
					"transferOwnership(address)": {
						"details": "Transfers ownership of the contract to a new account (`newOwner`). Can only be called by the current owner."
					}
				},
				"version": 1
			},
			"evm": {
				"assembly": "    /* \"src/DappsStakingMock.sol\":149:2301  contract DappsStakingMock is Ownable {... */\n  mstore(0x40, 0x80)\n    /* \"src/DappsStakingMock.sol\":213:216  100 */\n  0x64\n    /* \"src/DappsStakingMock.sol\":192:216  uint256 public era = 100 */\n  0x01\n  sstore\n    /* \"src/DappsStakingMock.sol\":277:279  60 */\n  0x3c\n    /* \"src/DappsStakingMock.sol\":248:279  uint256 public eraDuration = 60 */\n  0x03\n  sstore\n    /* \"src/DappsStakingMock.sol\":462:516  constructor() {... */\n  callvalue\n  dup1\n  iszero\n  tag_1\n  jumpi\n  0x00\n  dup1\n  revert\ntag_1:\n  pop\n    /* \"@openzeppelin/contracts/access/Ownable.sol\":936:968  _transferOwnership(_msgSender()) */\n  tag_5\n    /* \"@openzeppelin/contracts/access/Ownable.sol\":955:967  _msgSender() */\n  tag_6\n    /* \"@openzeppelin/contracts/access/Ownable.sol\":955:965  _msgSender */\n  shl(0x20, tag_7)\n    /* \"@openzeppelin/contracts/access/Ownable.sol\":955:967  _msgSender() */\n  0x20\n  shr\n  jump\t// in\ntag_6:\n    /* \"@openzeppelin/contracts/access/Ownable.sol\":936:954  _transferOwnership */\n  shl(0x20, tag_8)\n    /* \"@openzeppelin/contracts/access/Ownable.sol\":936:968  _transferOwnership(_msgSender()) */\n  0x20\n  shr\n  jump\t// in\ntag_5:\n    /* \"src/DappsStakingMock.sol\":494:509  block.timestamp */\n  timestamp\n    /* \"src/DappsStakingMock.sol\":486:491  start */\n  0x02\n    /* \"src/DappsStakingMock.sol\":486:509  start = block.timestamp */\n  dup2\n  swap1\n  sstore\n  pop\n    /* \"src/DappsStakingMock.sol\":149:2301  contract DappsStakingMock is Ownable {... */\n  jump(tag_10)\n    /* \"@openzeppelin/contracts/utils/Context.sol\":640:736  function _msgSender() internal view virtual returns (address) {... */\ntag_7:\n    /* \"@openzeppelin/contracts/utils/Context.sol\":693:700  address */\n  0x00\n    /* \"@openzeppelin/contracts/utils/Context.sol\":719:729  msg.sender */\n  caller\n    /* \"@openzeppelin/contracts/utils/Context.sol\":712:729  return msg.sender */\n  swap1\n  pop\n    /* \"@openzeppelin/contracts/utils/Context.sol\":640:736  function _msgSender() internal view virtual returns (address) {... */\n  swap1\n  jump\t// out\n    /* \"@openzeppelin/contracts/access/Ownable.sol\":2433:2620  function _transferOwnership(address newOwner) internal virtual {... */\ntag_8:\n    /* \"@openzeppelin/contracts/access/Ownable.sol\":2506:2522  address oldOwner */\n  0x00\n    /* \"@openzeppelin/contracts/access/Ownable.sol\":2525:2531  _owner */\n  dup1\n  0x00\n  swap1\n  sload\n  swap1\n  0x0100\n  exp\n  swap1\n  div\n  0xffffffffffffffffffffffffffffffffffffffff\n  and\n    /* \"@openzeppelin/contracts/access/Ownable.sol\":2506:2531  address oldOwner = _owner */\n  swap1\n  pop\n    /* \"@openzeppelin/contracts/access/Ownable.sol\":2550:2558  newOwner */\n  dup2\n    /* \"@openzeppelin/contracts/access/Ownable.sol\":2541:2547  _owner */\n  0x00\n  dup1\n    /* \"@openzeppelin/contracts/access/Ownable.sol\":2541:2558  _owner = newOwner */\n  0x0100\n  exp\n  dup2\n  sload\n  dup2\n  0xffffffffffffffffffffffffffffffffffffffff\n  mul\n  not\n  and\n  swap1\n  dup4\n  0xffffffffffffffffffffffffffffffffffffffff\n  and\n  mul\n  or\n  swap1\n  sstore\n  pop\n    /* \"@openzeppelin/contracts/access/Ownable.sol\":2604:2612  newOwner */\n  dup2\n    /* \"@openzeppelin/contracts/access/Ownable.sol\":2573:2613  OwnershipTransferred(oldOwner, newOwner) */\n  0xffffffffffffffffffffffffffffffffffffffff\n  and\n    /* \"@openzeppelin/contracts/access/Ownable.sol\":2594:2602  oldOwner */\n  dup2\n    /* \"@openzeppelin/contracts/access/Ownable.sol\":2573:2613  OwnershipTransferred(oldOwner, newOwner) */\n  0xffffffffffffffffffffffffffffffffffffffff\n  and\n  0x8be0079c531659141344cd1fd0a4f28419497f9722a3daafe3b4186f6b6457e0\n  mload(0x40)\n  mload(0x40)\n  dup1\n  swap2\n  sub\n  swap1\n  log3\n    /* \"@openzeppelin/contracts/access/Ownable.sol\":2433:2620  function _transferOwnership(address newOwner) internal virtual {... */\n  pop\n  pop\n  jump\t// out\n    /* \"src/DappsStakingMock.sol\":149:2301  contract DappsStakingMock is Ownable {... */\ntag_10:\n  dataSize(sub_0)\n  dup1\n  dataOffset(sub_0)\n  0x00\n  codecopy\n  0x00\n  return\nstop\n\nsub_0: assembly {\n        /* \"src/DappsStakingMock.sol\":149:2301  contract DappsStakingMock is Ownable {... */\n      mstore(0x40, 0x80)\n      jumpi(tag_1, lt(calldatasize, 0x04))\n      shr(0xe0, calldataload(0x00))\n      dup1\n      0xa0b9d8be\n      gt\n      tag_19\n      jumpi\n      dup1\n      0xd97c94ac\n      gt\n      tag_20\n      jumpi\n      dup1\n      0xd97c94ac\n      eq\n      tag_15\n      jumpi\n      dup1\n      0xdb62b201\n      eq\n      tag_16\n      jumpi\n      dup1\n      0xe608d80b\n      eq\n      tag_17\n      jumpi\n      dup1\n      0xf2fde38b\n      eq\n      tag_18\n      jumpi\n      jump(tag_2)\n    tag_20:\n      dup1\n      0xa0b9d8be\n      eq\n      tag_11\n      jumpi\n      dup1\n      0xbe9a6555\n      eq\n      tag_12\n      jumpi\n      dup1\n      0xc7841dd2\n      eq\n      tag_13\n      jumpi\n      dup1\n      0xcfb9cfba\n      eq\n      tag_14\n      jumpi\n      jump(tag_2)\n    tag_19:\n      dup1\n      0x715018a6\n      gt\n      tag_21\n      jumpi\n      dup1\n      0x715018a6\n      eq\n      tag_7\n      jumpi\n      dup1\n      0x77441b70\n      eq\n      tag_8\n      jumpi\n      dup1\n      0x77a0fe02\n      eq\n      tag_9\n      jumpi\n      dup1\n      0x8da5cb5b\n      eq\n      tag_10\n      jumpi\n      jump(tag_2)\n    tag_21:\n      dup1\n      0x27d970\n      eq\n      tag_3\n      jumpi\n      dup1\n      0x143e55e0\n      eq\n      tag_4\n      jumpi\n      dup1\n      0x4455a38f\n      eq\n      tag_5\n      jumpi\n      dup1\n      0x52b73e41\n      eq\n      tag_6\n      jumpi\n      jump(tag_2)\n    tag_1:\n      jumpi(tag_2, calldatasize)\n      stop\n    tag_2:\n      0x00\n      dup1\n      revert\n        /* \"src/DappsStakingMock.sol\":285:311  uint256 public unstakesSum */\n    tag_3:\n      callvalue\n      dup1\n      iszero\n      tag_24\n      jumpi\n      0x00\n      dup1\n      revert\n    tag_24:\n      pop\n      tag_25\n      tag_26\n      jump\t// in\n    tag_25:\n      mload(0x40)\n      tag_27\n      swap2\n      swap1\n      tag_28\n      jump\t// in\n    tag_27:\n      mload(0x40)\n      dup1\n      swap2\n      sub\n      swap1\n      return\n        /* \"src/DappsStakingMock.sol\":192:216  uint256 public era = 100 */\n    tag_4:\n      callvalue\n      dup1\n      iszero\n      tag_29\n      jumpi\n      0x00\n      dup1\n      revert\n    tag_29:\n      pop\n      tag_30\n      tag_31\n      jump\t// in\n    tag_30:\n      mload(0x40)\n      tag_32\n      swap2\n      swap1\n      tag_28\n      jump\t// in\n    tag_32:\n      mload(0x40)\n      dup1\n      swap2\n      sub\n      swap1\n      return\n        /* \"src/DappsStakingMock.sol\":248:279  uint256 public eraDuration = 60 */\n    tag_5:\n      callvalue\n      dup1\n      iszero\n      tag_33\n      jumpi\n      0x00\n      dup1\n      revert\n    tag_33:\n      pop\n      tag_34\n      tag_35\n      jump\t// in\n    tag_34:\n      mload(0x40)\n      tag_36\n      swap2\n      swap1\n      tag_28\n      jump\t// in\n    tag_36:\n      mload(0x40)\n      dup1\n      swap2\n      sub\n      swap1\n      return\n        /* \"src/DappsStakingMock.sol\":577:638  function bond_and_stake(address, uint128) external payable {} */\n    tag_6:\n      tag_37\n      0x04\n      dup1\n      calldatasize\n      sub\n      dup2\n      add\n      swap1\n      tag_38\n      swap2\n      swap1\n      tag_39\n      jump\t// in\n    tag_38:\n      tag_40\n      jump\t// in\n    tag_37:\n      stop\n        /* \"@openzeppelin/contracts/access/Ownable.sol\":1831:1932  function renounceOwnership() public virtual onlyOwner {... */\n    tag_7:\n      callvalue\n      dup1\n      iszero\n      tag_41\n      jumpi\n      0x00\n      dup1\n      revert\n    tag_41:\n      pop\n      tag_42\n      tag_43\n      jump\t// in\n    tag_42:\n      stop\n        /* \"src/DappsStakingMock.sol\":430:455  Unstake[] public unstakes */\n    tag_8:\n      callvalue\n      dup1\n      iszero\n      tag_44\n      jumpi\n      0x00\n      dup1\n      revert\n    tag_44:\n      pop\n      tag_45\n      0x04\n      dup1\n      calldatasize\n      sub\n      dup2\n      add\n      swap1\n      tag_46\n      swap2\n      swap1\n      tag_47\n      jump\t// in\n    tag_46:\n      tag_48\n      jump\t// in\n    tag_45:\n      mload(0x40)\n      tag_49\n      swap3\n      swap2\n      swap1\n      tag_50\n      jump\t// in\n    tag_49:\n      mload(0x40)\n      dup1\n      swap2\n      sub\n      swap1\n      return\n        /* \"src/DappsStakingMock.sol\":1074:1442  function withdraw_unbonded() external {... */\n    tag_9:\n      callvalue\n      dup1\n      iszero\n      tag_51\n      jumpi\n      0x00\n      dup1\n      revert\n    tag_51:\n      pop\n      tag_52\n      tag_53\n      jump\t// in\n    tag_52:\n      stop\n        /* \"@openzeppelin/contracts/access/Ownable.sol\":1201:1286  function owner() public view virtual returns (address) {... */\n    tag_10:\n      callvalue\n      dup1\n      iszero\n      tag_54\n      jumpi\n      0x00\n      dup1\n      revert\n    tag_54:\n      pop\n      tag_55\n      tag_56\n      jump\t// in\n    tag_55:\n      mload(0x40)\n      tag_57\n      swap2\n      swap1\n      tag_58\n      jump\t// in\n    tag_57:\n      mload(0x40)\n      dup1\n      swap2\n      sub\n      swap1\n      return\n        /* \"src/DappsStakingMock.sol\":1601:1738  function claim_staker(address) external onlyOwner {... */\n    tag_11:\n      callvalue\n      dup1\n      iszero\n      tag_59\n      jumpi\n      0x00\n      dup1\n      revert\n    tag_59:\n      pop\n      tag_60\n      0x04\n      dup1\n      calldatasize\n      sub\n      dup2\n      add\n      swap1\n      tag_61\n      swap2\n      swap1\n      tag_62\n      jump\t// in\n    tag_61:\n      tag_63\n      jump\t// in\n    tag_60:\n      stop\n        /* \"src/DappsStakingMock.sol\":222:242  uint256 public start */\n    tag_12:\n      callvalue\n      dup1\n      iszero\n      tag_64\n      jumpi\n      0x00\n      dup1\n      revert\n    tag_64:\n      pop\n      tag_65\n      tag_66\n      jump\t// in\n    tag_65:\n      mload(0x40)\n      tag_67\n      swap2\n      swap1\n      tag_28\n      jump\t// in\n    tag_67:\n      mload(0x40)\n      dup1\n      swap2\n      sub\n      swap1\n      return\n        /* \"src/DappsStakingMock.sol\":723:990  function unbond_and_unstake(address, uint128 amount) external {... */\n    tag_13:\n      callvalue\n      dup1\n      iszero\n      tag_68\n      jumpi\n      0x00\n      dup1\n      revert\n    tag_68:\n      pop\n      tag_69\n      0x04\n      dup1\n      calldatasize\n      sub\n      dup2\n      add\n      swap1\n      tag_70\n      swap2\n      swap1\n      tag_39\n      jump\t// in\n    tag_70:\n      tag_71\n      jump\t// in\n    tag_69:\n      stop\n        /* \"src/DappsStakingMock.sol\":317:345  uint256 public stakerRewards */\n    tag_14:\n      callvalue\n      dup1\n      iszero\n      tag_72\n      jumpi\n      0x00\n      dup1\n      revert\n    tag_72:\n      pop\n      tag_73\n      tag_74\n      jump\t// in\n    tag_73:\n      mload(0x40)\n      tag_75\n      swap2\n      swap1\n      tag_28\n      jump\t// in\n    tag_75:\n      mload(0x40)\n      dup1\n      swap2\n      sub\n      swap1\n      return\n        /* \"src/DappsStakingMock.sol\":2174:2264  function setEraDuration(uint256 _duration) public {... */\n    tag_15:\n      callvalue\n      dup1\n      iszero\n      tag_76\n      jumpi\n      0x00\n      dup1\n      revert\n    tag_76:\n      pop\n      tag_77\n      0x04\n      dup1\n      calldatasize\n      sub\n      dup2\n      add\n      swap1\n      tag_78\n      swap2\n      swap1\n      tag_47\n      jump\t// in\n    tag_78:\n      tag_79\n      jump\t// in\n    tag_77:\n      stop\n        /* \"src/DappsStakingMock.sol\":2077:2168  function read_unbonding_period() external view returns (uint256) {... */\n    tag_16:\n      callvalue\n      dup1\n      iszero\n      tag_80\n      jumpi\n      0x00\n      dup1\n      revert\n    tag_80:\n      pop\n      tag_81\n      tag_82\n      jump\t// in\n    tag_81:\n      mload(0x40)\n      tag_83\n      swap2\n      swap1\n      tag_28\n      jump\t// in\n    tag_83:\n      mload(0x40)\n      dup1\n      swap2\n      sub\n      swap1\n      return\n        /* \"src/DappsStakingMock.sol\":1815:1970  function read_current_era() public view returns (uint256) {... */\n    tag_17:\n      callvalue\n      dup1\n      iszero\n      tag_84\n      jumpi\n      0x00\n      dup1\n      revert\n    tag_84:\n      pop\n      tag_85\n      tag_86\n      jump\t// in\n    tag_85:\n      mload(0x40)\n      tag_87\n      swap2\n      swap1\n      tag_28\n      jump\t// in\n    tag_87:\n      mload(0x40)\n      dup1\n      swap2\n      sub\n      swap1\n      return\n        /* \"@openzeppelin/contracts/access/Ownable.sol\":2081:2279  function transferOwnership(address newOwner) public virtual onlyOwner {... */\n    tag_18:\n      callvalue\n      dup1\n      iszero\n      tag_88\n      jumpi\n      0x00\n      dup1\n      revert\n    tag_88:\n      pop\n      tag_89\n      0x04\n      dup1\n      calldatasize\n      sub\n      dup2\n      add\n      swap1\n      tag_90\n      swap2\n      swap1\n      tag_62\n      jump\t// in\n    tag_90:\n      tag_91\n      jump\t// in\n    tag_89:\n      stop\n        /* \"src/DappsStakingMock.sol\":285:311  uint256 public unstakesSum */\n    tag_26:\n      sload(0x04)\n      dup2\n      jump\t// out\n        /* \"src/DappsStakingMock.sol\":192:216  uint256 public era = 100 */\n    tag_31:\n      sload(0x01)\n      dup2\n      jump\t// out\n        /* \"src/DappsStakingMock.sol\":248:279  uint256 public eraDuration = 60 */\n    tag_35:\n      sload(0x03)\n      dup2\n      jump\t// out\n        /* \"src/DappsStakingMock.sol\":577:638  function bond_and_stake(address, uint128) external payable {} */\n    tag_40:\n      pop\n      pop\n      jump\t// out\n        /* \"@openzeppelin/contracts/access/Ownable.sol\":1831:1932  function renounceOwnership() public virtual onlyOwner {... */\n    tag_43:\n        /* \"@openzeppelin/contracts/access/Ownable.sol\":1094:1107  _checkOwner() */\n      tag_94\n        /* \"@openzeppelin/contracts/access/Ownable.sol\":1094:1105  _checkOwner */\n      tag_95\n        /* \"@openzeppelin/contracts/access/Ownable.sol\":1094:1107  _checkOwner() */\n      jump\t// in\n    tag_94:\n        /* \"@openzeppelin/contracts/access/Ownable.sol\":1895:1925  _transferOwnership(address(0)) */\n      tag_97\n        /* \"@openzeppelin/contracts/access/Ownable.sol\":1922:1923  0 */\n      0x00\n        /* \"@openzeppelin/contracts/access/Ownable.sol\":1895:1913  _transferOwnership */\n      tag_98\n        /* \"@openzeppelin/contracts/access/Ownable.sol\":1895:1925  _transferOwnership(address(0)) */\n      jump\t// in\n    tag_97:\n        /* \"@openzeppelin/contracts/access/Ownable.sol\":1831:1932  function renounceOwnership() public virtual onlyOwner {... */\n      jump\t// out\n        /* \"src/DappsStakingMock.sol\":430:455  Unstake[] public unstakes */\n    tag_48:\n      0x06\n      dup2\n      dup2\n      sload\n      dup2\n      lt\n      tag_99\n      jumpi\n      0x00\n      dup1\n      revert\n    tag_99:\n      swap1\n      0x00\n      mstore\n      keccak256(0x00, 0x20)\n      add\n      0x00\n      swap2\n      pop\n      swap1\n      pop\n      dup1\n      0x00\n      add\n      0x00\n      swap1\n      sload\n      swap1\n      0x0100\n      exp\n      swap1\n      div\n      0xffffffffffffffffffffffffffffffff\n      and\n      swap1\n      dup1\n      0x00\n      add\n      0x10\n      swap1\n      sload\n      swap1\n      0x0100\n      exp\n      swap1\n      div\n      0xffffffffffffffffffffffffffffffff\n      and\n      swap1\n      pop\n      dup3\n      jump\t// out\n        /* \"src/DappsStakingMock.sol\":1074:1442  function withdraw_unbonded() external {... */\n    tag_53:\n        /* \"src/DappsStakingMock.sol\":1127:1136  uint256 i */\n      0x00\n        /* \"src/DappsStakingMock.sol\":1122:1436  for (uint256 i; i < unstakes.length; i++) {... */\n    tag_102:\n        /* \"src/DappsStakingMock.sol\":1142:1150  unstakes */\n      0x06\n        /* \"src/DappsStakingMock.sol\":1142:1157  unstakes.length */\n      dup1\n      sload\n      swap1\n      pop\n        /* \"src/DappsStakingMock.sol\":1138:1139  i */\n      dup2\n        /* \"src/DappsStakingMock.sol\":1138:1157  i < unstakes.length */\n      lt\n        /* \"src/DappsStakingMock.sol\":1122:1436  for (uint256 i; i < unstakes.length; i++) {... */\n      iszero\n      tag_103\n      jumpi\n        /* \"src/DappsStakingMock.sol\":1224:1226  10 */\n      0x0a\n        /* \"src/DappsStakingMock.sol\":1200:1208  unstakes */\n      0x06\n        /* \"src/DappsStakingMock.sol\":1209:1210  i */\n      dup3\n        /* \"src/DappsStakingMock.sol\":1200:1211  unstakes[i] */\n      dup2\n      sload\n      dup2\n      lt\n      tag_105\n      jumpi\n      mstore(0x00, 0x4e487b7100000000000000000000000000000000000000000000000000000000)\n      mstore(0x04, 0x32)\n      revert(0x00, 0x24)\n    tag_105:\n      swap1\n      0x00\n      mstore\n      keccak256(0x00, 0x20)\n      add\n        /* \"src/DappsStakingMock.sol\":1200:1220  unstakes[i].startEra */\n      0x00\n      add\n      0x10\n      swap1\n      sload\n      swap1\n      0x0100\n      exp\n      swap1\n      div\n      0xffffffffffffffffffffffffffffffff\n      and\n        /* \"src/DappsStakingMock.sol\":1182:1220  block.timestamp - unstakes[i].startEra */\n      0xffffffffffffffffffffffffffffffff\n      and\n        /* \"src/DappsStakingMock.sol\":1182:1197  block.timestamp */\n      timestamp\n        /* \"src/DappsStakingMock.sol\":1182:1220  block.timestamp - unstakes[i].startEra */\n      tag_107\n      swap2\n      swap1\n      tag_108\n      jump\t// in\n    tag_107:\n        /* \"src/DappsStakingMock.sol\":1182:1226  block.timestamp - unstakes[i].startEra >= 10 */\n      lt\n      iszero\n        /* \"src/DappsStakingMock.sol\":1182:1252  block.timestamp - unstakes[i].startEra >= 10 && unstakes[i].amount > 0 */\n      dup1\n      iszero\n      tag_109\n      jumpi\n      pop\n        /* \"src/DappsStakingMock.sol\":1251:1252  0 */\n      0x00\n        /* \"src/DappsStakingMock.sol\":1230:1238  unstakes */\n      0x06\n        /* \"src/DappsStakingMock.sol\":1239:1240  i */\n      dup3\n        /* \"src/DappsStakingMock.sol\":1230:1241  unstakes[i] */\n      dup2\n      sload\n      dup2\n      lt\n      tag_110\n      jumpi\n      mstore(0x00, 0x4e487b7100000000000000000000000000000000000000000000000000000000)\n      mstore(0x04, 0x32)\n      revert(0x00, 0x24)\n    tag_110:\n      swap1\n      0x00\n      mstore\n      keccak256(0x00, 0x20)\n      add\n        /* \"src/DappsStakingMock.sol\":1230:1248  unstakes[i].amount */\n      0x00\n      add\n      0x00\n      swap1\n      sload\n      swap1\n      0x0100\n      exp\n      swap1\n      div\n      0xffffffffffffffffffffffffffffffff\n      and\n        /* \"src/DappsStakingMock.sol\":1230:1252  unstakes[i].amount > 0 */\n      0xffffffffffffffffffffffffffffffff\n      and\n      gt\n        /* \"src/DappsStakingMock.sol\":1182:1252  block.timestamp - unstakes[i].startEra >= 10 && unstakes[i].amount > 0 */\n    tag_109:\n        /* \"src/DappsStakingMock.sol\":1178:1426  if (block.timestamp - unstakes[i].startEra >= 10 && unstakes[i].amount > 0) {... */\n      iszero\n      tag_112\n      jumpi\n        /* \"src/DappsStakingMock.sol\":1280:1290  msg.sender */\n      caller\n        /* \"src/DappsStakingMock.sol\":1272:1300  payable(msg.sender).transfer */\n      0xffffffffffffffffffffffffffffffffffffffff\n      and\n        /* \"src/DappsStakingMock.sol\":1272:1320  payable(msg.sender).transfer(unstakes[i].amount) */\n      0x08fc\n        /* \"src/DappsStakingMock.sol\":1301:1309  unstakes */\n      0x06\n        /* \"src/DappsStakingMock.sol\":1310:1311  i */\n      dup4\n        /* \"src/DappsStakingMock.sol\":1301:1312  unstakes[i] */\n      dup2\n      sload\n      dup2\n      lt\n      tag_113\n      jumpi\n      mstore(0x00, 0x4e487b7100000000000000000000000000000000000000000000000000000000)\n      mstore(0x04, 0x32)\n      revert(0x00, 0x24)\n    tag_113:\n      swap1\n      0x00\n      mstore\n      keccak256(0x00, 0x20)\n      add\n        /* \"src/DappsStakingMock.sol\":1301:1319  unstakes[i].amount */\n      0x00\n      add\n      0x00\n      swap1\n      sload\n      swap1\n      0x0100\n      exp\n      swap1\n      div\n      0xffffffffffffffffffffffffffffffff\n      and\n        /* \"src/DappsStakingMock.sol\":1272:1320  payable(msg.sender).transfer(unstakes[i].amount) */\n      0xffffffffffffffffffffffffffffffff\n      and\n      swap1\n      dup2\n      iszero\n      mul\n      swap1\n      mload(0x40)\n      0x00\n      mload(0x40)\n      dup1\n      dup4\n      sub\n      dup2\n      dup6\n      dup9\n      dup9\n      call\n      swap4\n      pop\n      pop\n      pop\n      pop\n      iszero\n      dup1\n      iszero\n      tag_116\n      jumpi\n      returndatasize\n      0x00\n      dup1\n      returndatacopy\n      revert(0x00, returndatasize)\n    tag_116:\n      pop\n        /* \"src/DappsStakingMock.sol\":1353:1361  unstakes */\n      0x06\n        /* \"src/DappsStakingMock.sol\":1362:1363  i */\n      dup2\n        /* \"src/DappsStakingMock.sol\":1353:1364  unstakes[i] */\n      dup2\n      sload\n      dup2\n      lt\n      tag_117\n      jumpi\n      mstore(0x00, 0x4e487b7100000000000000000000000000000000000000000000000000000000)\n      mstore(0x04, 0x32)\n      revert(0x00, 0x24)\n    tag_117:\n      swap1\n      0x00\n      mstore\n      keccak256(0x00, 0x20)\n      add\n        /* \"src/DappsStakingMock.sol\":1353:1371  unstakes[i].amount */\n      0x00\n      add\n      0x00\n      swap1\n      sload\n      swap1\n      0x0100\n      exp\n      swap1\n      div\n      0xffffffffffffffffffffffffffffffff\n      and\n        /* \"src/DappsStakingMock.sol\":1338:1371  unstakesSum -= unstakes[i].amount */\n      0xffffffffffffffffffffffffffffffff\n      and\n        /* \"src/DappsStakingMock.sol\":1338:1349  unstakesSum */\n      0x04\n      0x00\n        /* \"src/DappsStakingMock.sol\":1338:1371  unstakesSum -= unstakes[i].amount */\n      dup3\n      dup3\n      sload\n      tag_119\n      swap2\n      swap1\n      tag_108\n      jump\t// in\n    tag_119:\n      swap3\n      pop\n      pop\n      dup2\n      swap1\n      sstore\n      pop\n        /* \"src/DappsStakingMock.sol\":1410:1411  0 */\n      0x00\n        /* \"src/DappsStakingMock.sol\":1389:1397  unstakes */\n      0x06\n        /* \"src/DappsStakingMock.sol\":1398:1399  i */\n      dup3\n        /* \"src/DappsStakingMock.sol\":1389:1400  unstakes[i] */\n      dup2\n      sload\n      dup2\n      lt\n      tag_120\n      jumpi\n      mstore(0x00, 0x4e487b7100000000000000000000000000000000000000000000000000000000)\n      mstore(0x04, 0x32)\n      revert(0x00, 0x24)\n    tag_120:\n      swap1\n      0x00\n      mstore\n      keccak256(0x00, 0x20)\n      add\n        /* \"src/DappsStakingMock.sol\":1389:1407  unstakes[i].amount */\n      0x00\n      add\n      0x00\n        /* \"src/DappsStakingMock.sol\":1389:1411  unstakes[i].amount = 0 */\n      0x0100\n      exp\n      dup2\n      sload\n      dup2\n      0xffffffffffffffffffffffffffffffff\n      mul\n      not\n      and\n      swap1\n      dup4\n      0xffffffffffffffffffffffffffffffff\n      and\n      mul\n      or\n      swap1\n      sstore\n      pop\n        /* \"src/DappsStakingMock.sol\":1178:1426  if (block.timestamp - unstakes[i].startEra >= 10 && unstakes[i].amount > 0) {... */\n    tag_112:\n        /* \"src/DappsStakingMock.sol\":1159:1162  i++ */\n      dup1\n      dup1\n      tag_122\n      swap1\n      tag_123\n      jump\t// in\n    tag_122:\n      swap2\n      pop\n      pop\n        /* \"src/DappsStakingMock.sol\":1122:1436  for (uint256 i; i < unstakes.length; i++) {... */\n      jump(tag_102)\n    tag_103:\n      pop\n        /* \"src/DappsStakingMock.sol\":1074:1442  function withdraw_unbonded() external {... */\n      jump\t// out\n        /* \"@openzeppelin/contracts/access/Ownable.sol\":1201:1286  function owner() public view virtual returns (address) {... */\n    tag_56:\n        /* \"@openzeppelin/contracts/access/Ownable.sol\":1247:1254  address */\n      0x00\n        /* \"@openzeppelin/contracts/access/Ownable.sol\":1273:1279  _owner */\n      dup1\n      0x00\n      swap1\n      sload\n      swap1\n      0x0100\n      exp\n      swap1\n      div\n      0xffffffffffffffffffffffffffffffffffffffff\n      and\n        /* \"@openzeppelin/contracts/access/Ownable.sol\":1266:1279  return _owner */\n      swap1\n      pop\n        /* \"@openzeppelin/contracts/access/Ownable.sol\":1201:1286  function owner() public view virtual returns (address) {... */\n      swap1\n      jump\t// out\n        /* \"src/DappsStakingMock.sol\":1601:1738  function claim_staker(address) external onlyOwner {... */\n    tag_63:\n        /* \"@openzeppelin/contracts/access/Ownable.sol\":1094:1107  _checkOwner() */\n      tag_126\n        /* \"@openzeppelin/contracts/access/Ownable.sol\":1094:1105  _checkOwner */\n      tag_95\n        /* \"@openzeppelin/contracts/access/Ownable.sol\":1094:1107  _checkOwner() */\n      jump\t// in\n    tag_126:\n        /* \"src/DappsStakingMock.sol\":1669:1679  msg.sender */\n      caller\n        /* \"src/DappsStakingMock.sol\":1661:1689  payable(msg.sender).transfer */\n      0xffffffffffffffffffffffffffffffffffffffff\n      and\n        /* \"src/DappsStakingMock.sol\":1661:1704  payable(msg.sender).transfer(stakerRewards) */\n      0x08fc\n        /* \"src/DappsStakingMock.sol\":1690:1703  stakerRewards */\n      sload(0x05)\n        /* \"src/DappsStakingMock.sol\":1661:1704  payable(msg.sender).transfer(stakerRewards) */\n      swap1\n      dup2\n      iszero\n      mul\n      swap1\n      mload(0x40)\n      0x00\n      mload(0x40)\n      dup1\n      dup4\n      sub\n      dup2\n      dup6\n      dup9\n      dup9\n      call\n      swap4\n      pop\n      pop\n      pop\n      pop\n      iszero\n      dup1\n      iszero\n      tag_129\n      jumpi\n      returndatasize\n      0x00\n      dup1\n      returndatacopy\n      revert(0x00, returndatasize)\n    tag_129:\n      pop\n        /* \"src/DappsStakingMock.sol\":1730:1731  0 */\n      0x00\n        /* \"src/DappsStakingMock.sol\":1714:1727  stakerRewards */\n      0x05\n        /* \"src/DappsStakingMock.sol\":1714:1731  stakerRewards = 0 */\n      dup2\n      swap1\n      sstore\n      pop\n        /* \"src/DappsStakingMock.sol\":1601:1738  function claim_staker(address) external onlyOwner {... */\n      pop\n      jump\t// out\n        /* \"src/DappsStakingMock.sol\":222:242  uint256 public start */\n    tag_66:\n      sload(0x02)\n      dup2\n      jump\t// out\n        /* \"src/DappsStakingMock.sol\":723:990  function unbond_and_unstake(address, uint128 amount) external {... */\n    tag_71:\n        /* \"src/DappsStakingMock.sol\":810:816  amount */\n      dup1\n        /* \"src/DappsStakingMock.sol\":795:816  unstakesSum += amount */\n      0xffffffffffffffffffffffffffffffff\n      and\n        /* \"src/DappsStakingMock.sol\":795:806  unstakesSum */\n      0x04\n      0x00\n        /* \"src/DappsStakingMock.sol\":795:816  unstakesSum += amount */\n      dup3\n      dup3\n      sload\n      tag_131\n      swap2\n      swap1\n      tag_132\n      jump\t// in\n    tag_131:\n      swap3\n      pop\n      pop\n      dup2\n      swap1\n      sstore\n      pop\n        /* \"src/DappsStakingMock.sol\":845:866  address(this).balance */\n      selfbalance\n        /* \"src/DappsStakingMock.sol\":830:841  unstakesSum */\n      sload(0x04)\n        /* \"src/DappsStakingMock.sol\":830:866  unstakesSum <= address(this).balance */\n      gt\n        /* \"src/DappsStakingMock.sol\":826:984  if (unstakesSum <= address(this).balance) {... */\n      tag_133\n      jumpi\n        /* \"src/DappsStakingMock.sol\":882:890  unstakes */\n      0x06\n        /* \"src/DappsStakingMock.sol\":896:940  Unstake(amount, uint128(read_current_era())) */\n      mload(0x40)\n      dup1\n      0x40\n      add\n      0x40\n      mstore\n      dup1\n        /* \"src/DappsStakingMock.sol\":904:910  amount */\n      dup4\n        /* \"src/DappsStakingMock.sol\":896:940  Unstake(amount, uint128(read_current_era())) */\n      0xffffffffffffffffffffffffffffffff\n      and\n      dup2\n      mstore\n      0x20\n      add\n        /* \"src/DappsStakingMock.sol\":920:938  read_current_era() */\n      tag_134\n        /* \"src/DappsStakingMock.sol\":920:936  read_current_era */\n      tag_86\n        /* \"src/DappsStakingMock.sol\":920:938  read_current_era() */\n      jump\t// in\n    tag_134:\n        /* \"src/DappsStakingMock.sol\":896:940  Unstake(amount, uint128(read_current_era())) */\n      0xffffffffffffffffffffffffffffffff\n      and\n      dup2\n      mstore\n      pop\n        /* \"src/DappsStakingMock.sol\":882:941  unstakes.push(Unstake(amount, uint128(read_current_era()))) */\n      swap1\n      dup1\n      0x01\n      dup2\n      sload\n      add\n      dup1\n      dup3\n      sstore\n      dup1\n      swap2\n      pop\n      pop\n      0x01\n      swap1\n      sub\n      swap1\n      0x00\n      mstore\n      keccak256(0x00, 0x20)\n      add\n      0x00\n      swap1\n      swap2\n      swap1\n      swap2\n      swap1\n      swap2\n      pop\n      0x00\n      dup3\n      add\n      mload\n      dup2\n      0x00\n      add\n      exp(0x0100, 0x00)\n      dup2\n      sload\n      dup2\n      0xffffffffffffffffffffffffffffffff\n      mul\n      not\n      and\n      swap1\n      dup4\n      0xffffffffffffffffffffffffffffffff\n      and\n      mul\n      or\n      swap1\n      sstore\n      pop\n      0x20\n      dup3\n      add\n      mload\n      dup2\n      0x00\n      add\n      exp(0x0100, 0x10)\n      dup2\n      sload\n      dup2\n      0xffffffffffffffffffffffffffffffff\n      mul\n      not\n      and\n      swap1\n      dup4\n      0xffffffffffffffffffffffffffffffff\n      and\n      mul\n      or\n      swap1\n      sstore\n      pop\n      pop\n      pop\n        /* \"src/DappsStakingMock.sol\":972:973  1 */\n      0x01\n        /* \"src/DappsStakingMock.sol\":955:968  stakerRewards */\n      0x05\n      0x00\n        /* \"src/DappsStakingMock.sol\":955:973  stakerRewards += 1 */\n      dup3\n      dup3\n      sload\n      tag_136\n      swap2\n      swap1\n      tag_132\n      jump\t// in\n    tag_136:\n      swap3\n      pop\n      pop\n      dup2\n      swap1\n      sstore\n      pop\n        /* \"src/DappsStakingMock.sol\":826:984  if (unstakesSum <= address(this).balance) {... */\n    tag_133:\n        /* \"src/DappsStakingMock.sol\":723:990  function unbond_and_unstake(address, uint128 amount) external {... */\n      pop\n      pop\n      jump\t// out\n        /* \"src/DappsStakingMock.sol\":317:345  uint256 public stakerRewards */\n    tag_74:\n      sload(0x05)\n      dup2\n      jump\t// out\n        /* \"src/DappsStakingMock.sol\":2174:2264  function setEraDuration(uint256 _duration) public {... */\n    tag_79:\n        /* \"src/DappsStakingMock.sol\":2248:2257  _duration */\n      dup1\n        /* \"src/DappsStakingMock.sol\":2234:2245  eraDuration */\n      0x03\n        /* \"src/DappsStakingMock.sol\":2234:2257  eraDuration = _duration */\n      dup2\n      swap1\n      sstore\n      pop\n        /* \"src/DappsStakingMock.sol\":2174:2264  function setEraDuration(uint256 _duration) public {... */\n      pop\n      jump\t// out\n        /* \"src/DappsStakingMock.sol\":2077:2168  function read_unbonding_period() external view returns (uint256) {... */\n    tag_82:\n        /* \"src/DappsStakingMock.sol\":2133:2140  uint256 */\n      0x00\n        /* \"src/DappsStakingMock.sol\":2159:2161  10 */\n      0x0a\n        /* \"src/DappsStakingMock.sol\":2152:2161  return 10 */\n      swap1\n      pop\n        /* \"src/DappsStakingMock.sol\":2077:2168  function read_unbonding_period() external view returns (uint256) {... */\n      swap1\n      jump\t// out\n        /* \"src/DappsStakingMock.sol\":1815:1970  function read_current_era() public view returns (uint256) {... */\n    tag_86:\n        /* \"src/DappsStakingMock.sol\":1864:1871  uint256 */\n      0x00\n        /* \"src/DappsStakingMock.sol\":1924:1935  eraDuration */\n      sload(0x03)\n        /* \"src/DappsStakingMock.sol\":1915:1920  start */\n      sload(0x02)\n        /* \"src/DappsStakingMock.sol\":1897:1912  block.timestamp */\n      timestamp\n        /* \"src/DappsStakingMock.sol\":1897:1920  block.timestamp - start */\n      tag_140\n      swap2\n      swap1\n      tag_108\n      jump\t// in\n    tag_140:\n        /* \"src/DappsStakingMock.sol\":1896:1935  (block.timestamp - start) / eraDuration */\n      tag_141\n      swap2\n      swap1\n      tag_142\n      jump\t// in\n    tag_141:\n        /* \"src/DappsStakingMock.sol\":1890:1893  era */\n      sload(0x01)\n        /* \"src/DappsStakingMock.sol\":1890:1935  era + (block.timestamp - start) / eraDuration */\n      tag_143\n      swap2\n      swap1\n      tag_132\n      jump\t// in\n    tag_143:\n        /* \"src/DappsStakingMock.sol\":1883:1935  return era + (block.timestamp - start) / eraDuration */\n      swap1\n      pop\n        /* \"src/DappsStakingMock.sol\":1815:1970  function read_current_era() public view returns (uint256) {... */\n      swap1\n      jump\t// out\n        /* \"@openzeppelin/contracts/access/Ownable.sol\":2081:2279  function transferOwnership(address newOwner) public virtual onlyOwner {... */\n    tag_91:\n        /* \"@openzeppelin/contracts/access/Ownable.sol\":1094:1107  _checkOwner() */\n      tag_145\n        /* \"@openzeppelin/contracts/access/Ownable.sol\":1094:1105  _checkOwner */\n      tag_95\n        /* \"@openzeppelin/contracts/access/Ownable.sol\":1094:1107  _checkOwner() */\n      jump\t// in\n    tag_145:\n        /* \"@openzeppelin/contracts/access/Ownable.sol\":2189:2190  0 */\n      0x00\n        /* \"@openzeppelin/contracts/access/Ownable.sol\":2169:2191  newOwner != address(0) */\n      0xffffffffffffffffffffffffffffffffffffffff\n      and\n        /* \"@openzeppelin/contracts/access/Ownable.sol\":2169:2177  newOwner */\n      dup2\n        /* \"@openzeppelin/contracts/access/Ownable.sol\":2169:2191  newOwner != address(0) */\n      0xffffffffffffffffffffffffffffffffffffffff\n      and\n      eq\n      iszero\n        /* \"@openzeppelin/contracts/access/Ownable.sol\":2161:2234  require(newOwner != address(0), \"Ownable: new owner is the zero address\") */\n      tag_147\n      jumpi\n      mload(0x40)\n      0x08c379a000000000000000000000000000000000000000000000000000000000\n      dup2\n      mstore\n      0x04\n      add\n      tag_148\n      swap1\n      tag_149\n      jump\t// in\n    tag_148:\n      mload(0x40)\n      dup1\n      swap2\n      sub\n      swap1\n      revert\n    tag_147:\n        /* \"@openzeppelin/contracts/access/Ownable.sol\":2244:2272  _transferOwnership(newOwner) */\n      tag_150\n        /* \"@openzeppelin/contracts/access/Ownable.sol\":2263:2271  newOwner */\n      dup2\n        /* \"@openzeppelin/contracts/access/Ownable.sol\":2244:2262  _transferOwnership */\n      tag_98\n        /* \"@openzeppelin/contracts/access/Ownable.sol\":2244:2272  _transferOwnership(newOwner) */\n      jump\t// in\n    tag_150:\n        /* \"@openzeppelin/contracts/access/Ownable.sol\":2081:2279  function transferOwnership(address newOwner) public virtual onlyOwner {... */\n      pop\n      jump\t// out\n        /* \"@openzeppelin/contracts/access/Ownable.sol\":1359:1489  function _checkOwner() internal view virtual {... */\n    tag_95:\n        /* \"@openzeppelin/contracts/access/Ownable.sol\":1433:1445  _msgSender() */\n      tag_152\n        /* \"@openzeppelin/contracts/access/Ownable.sol\":1433:1443  _msgSender */\n      tag_153\n        /* \"@openzeppelin/contracts/access/Ownable.sol\":1433:1445  _msgSender() */\n      jump\t// in\n    tag_152:\n        /* \"@openzeppelin/contracts/access/Ownable.sol\":1422:1445  owner() == _msgSender() */\n      0xffffffffffffffffffffffffffffffffffffffff\n      and\n        /* \"@openzeppelin/contracts/access/Ownable.sol\":1422:1429  owner() */\n      tag_154\n        /* \"@openzeppelin/contracts/access/Ownable.sol\":1422:1427  owner */\n      tag_56\n        /* \"@openzeppelin/contracts/access/Ownable.sol\":1422:1429  owner() */\n      jump\t// in\n    tag_154:\n        /* \"@openzeppelin/contracts/access/Ownable.sol\":1422:1445  owner() == _msgSender() */\n      0xffffffffffffffffffffffffffffffffffffffff\n      and\n      eq\n        /* \"@openzeppelin/contracts/access/Ownable.sol\":1414:1482  require(owner() == _msgSender(), \"Ownable: caller is not the owner\") */\n      tag_155\n      jumpi\n      mload(0x40)\n      0x08c379a000000000000000000000000000000000000000000000000000000000\n      dup2\n      mstore\n      0x04\n      add\n      tag_156\n      swap1\n      tag_157\n      jump\t// in\n    tag_156:\n      mload(0x40)\n      dup1\n      swap2\n      sub\n      swap1\n      revert\n    tag_155:\n        /* \"@openzeppelin/contracts/access/Ownable.sol\":1359:1489  function _checkOwner() internal view virtual {... */\n      jump\t// out\n        /* \"@openzeppelin/contracts/access/Ownable.sol\":2433:2620  function _transferOwnership(address newOwner) internal virtual {... */\n    tag_98:\n        /* \"@openzeppelin/contracts/access/Ownable.sol\":2506:2522  address oldOwner */\n      0x00\n        /* \"@openzeppelin/contracts/access/Ownable.sol\":2525:2531  _owner */\n      dup1\n      0x00\n      swap1\n      sload\n      swap1\n      0x0100\n      exp\n      swap1\n      div\n      0xffffffffffffffffffffffffffffffffffffffff\n      and\n        /* \"@openzeppelin/contracts/access/Ownable.sol\":2506:2531  address oldOwner = _owner */\n      swap1\n      pop\n        /* \"@openzeppelin/contracts/access/Ownable.sol\":2550:2558  newOwner */\n      dup2\n        /* \"@openzeppelin/contracts/access/Ownable.sol\":2541:2547  _owner */\n      0x00\n      dup1\n        /* \"@openzeppelin/contracts/access/Ownable.sol\":2541:2558  _owner = newOwner */\n      0x0100\n      exp\n      dup2\n      sload\n      dup2\n      0xffffffffffffffffffffffffffffffffffffffff\n      mul\n      not\n      and\n      swap1\n      dup4\n      0xffffffffffffffffffffffffffffffffffffffff\n      and\n      mul\n      or\n      swap1\n      sstore\n      pop\n        /* \"@openzeppelin/contracts/access/Ownable.sol\":2604:2612  newOwner */\n      dup2\n        /* \"@openzeppelin/contracts/access/Ownable.sol\":2573:2613  OwnershipTransferred(oldOwner, newOwner) */\n      0xffffffffffffffffffffffffffffffffffffffff\n      and\n        /* \"@openzeppelin/contracts/access/Ownable.sol\":2594:2602  oldOwner */\n      dup2\n        /* \"@openzeppelin/contracts/access/Ownable.sol\":2573:2613  OwnershipTransferred(oldOwner, newOwner) */\n      0xffffffffffffffffffffffffffffffffffffffff\n      and\n      0x8be0079c531659141344cd1fd0a4f28419497f9722a3daafe3b4186f6b6457e0\n      mload(0x40)\n      mload(0x40)\n      dup1\n      swap2\n      sub\n      swap1\n      log3\n        /* \"@openzeppelin/contracts/access/Ownable.sol\":2433:2620  function _transferOwnership(address newOwner) internal virtual {... */\n      pop\n      pop\n      jump\t// out\n        /* \"@openzeppelin/contracts/utils/Context.sol\":640:736  function _msgSender() internal view virtual returns (address) {... */\n    tag_153:\n        /* \"@openzeppelin/contracts/utils/Context.sol\":693:700  address */\n      0x00\n        /* \"@openzeppelin/contracts/utils/Context.sol\":719:729  msg.sender */\n      caller\n        /* \"@openzeppelin/contracts/utils/Context.sol\":712:729  return msg.sender */\n      swap1\n      pop\n        /* \"@openzeppelin/contracts/utils/Context.sol\":640:736  function _msgSender() internal view virtual returns (address) {... */\n      swap1\n      jump\t// out\n        /* \"#utility.yul\":7:146   */\n    tag_161:\n        /* \"#utility.yul\":53:58   */\n      0x00\n        /* \"#utility.yul\":91:97   */\n      dup2\n        /* \"#utility.yul\":78:98   */\n      calldataload\n        /* \"#utility.yul\":69:98   */\n      swap1\n      pop\n        /* \"#utility.yul\":107:140   */\n      tag_163\n        /* \"#utility.yul\":134:139   */\n      dup2\n        /* \"#utility.yul\":107:140   */\n      tag_164\n      jump\t// in\n    tag_163:\n        /* \"#utility.yul\":59:146   */\n      swap3\n      swap2\n      pop\n      pop\n      jump\t// out\n        /* \"#utility.yul\":152:291   */\n    tag_165:\n        /* \"#utility.yul\":198:203   */\n      0x00\n        /* \"#utility.yul\":236:242   */\n      dup2\n        /* \"#utility.yul\":223:243   */\n      calldataload\n        /* \"#utility.yul\":214:243   */\n      swap1\n      pop\n        /* \"#utility.yul\":252:285   */\n      tag_167\n        /* \"#utility.yul\":279:284   */\n      dup2\n        /* \"#utility.yul\":252:285   */\n      tag_168\n      jump\t// in\n    tag_167:\n        /* \"#utility.yul\":204:291   */\n      swap3\n      swap2\n      pop\n      pop\n      jump\t// out\n        /* \"#utility.yul\":297:436   */\n    tag_169:\n        /* \"#utility.yul\":343:348   */\n      0x00\n        /* \"#utility.yul\":381:387   */\n      dup2\n        /* \"#utility.yul\":368:388   */\n      calldataload\n        /* \"#utility.yul\":359:388   */\n      swap1\n      pop\n        /* \"#utility.yul\":397:430   */\n      tag_171\n        /* \"#utility.yul\":424:429   */\n      dup2\n        /* \"#utility.yul\":397:430   */\n      tag_172\n      jump\t// in\n    tag_171:\n        /* \"#utility.yul\":349:436   */\n      swap3\n      swap2\n      pop\n      pop\n      jump\t// out\n        /* \"#utility.yul\":442:704   */\n    tag_62:\n        /* \"#utility.yul\":501:507   */\n      0x00\n        /* \"#utility.yul\":550:552   */\n      0x20\n        /* \"#utility.yul\":538:547   */\n      dup3\n        /* \"#utility.yul\":529:536   */\n      dup5\n        /* \"#utility.yul\":525:548   */\n      sub\n        /* \"#utility.yul\":521:553   */\n      slt\n        /* \"#utility.yul\":518:520   */\n      iszero\n      tag_174\n      jumpi\n        /* \"#utility.yul\":566:567   */\n      0x00\n        /* \"#utility.yul\":563:564   */\n      dup1\n        /* \"#utility.yul\":556:568   */\n      revert\n        /* \"#utility.yul\":518:520   */\n    tag_174:\n        /* \"#utility.yul\":609:610   */\n      0x00\n        /* \"#utility.yul\":634:687   */\n      tag_175\n        /* \"#utility.yul\":679:686   */\n      dup5\n        /* \"#utility.yul\":670:676   */\n      dup3\n        /* \"#utility.yul\":659:668   */\n      dup6\n        /* \"#utility.yul\":655:677   */\n      add\n        /* \"#utility.yul\":634:687   */\n      tag_161\n      jump\t// in\n    tag_175:\n        /* \"#utility.yul\":624:687   */\n      swap2\n      pop\n        /* \"#utility.yul\":580:697   */\n      pop\n        /* \"#utility.yul\":508:704   */\n      swap3\n      swap2\n      pop\n      pop\n      jump\t// out\n        /* \"#utility.yul\":710:1117   */\n    tag_39:\n        /* \"#utility.yul\":778:784   */\n      0x00\n        /* \"#utility.yul\":786:792   */\n      dup1\n        /* \"#utility.yul\":835:837   */\n      0x40\n        /* \"#utility.yul\":823:832   */\n      dup4\n        /* \"#utility.yul\":814:821   */\n      dup6\n        /* \"#utility.yul\":810:833   */\n      sub\n        /* \"#utility.yul\":806:838   */\n      slt\n        /* \"#utility.yul\":803:805   */\n      iszero\n      tag_177\n      jumpi\n        /* \"#utility.yul\":851:852   */\n      0x00\n        /* \"#utility.yul\":848:849   */\n      dup1\n        /* \"#utility.yul\":841:853   */\n      revert\n        /* \"#utility.yul\":803:805   */\n    tag_177:\n        /* \"#utility.yul\":894:895   */\n      0x00\n        /* \"#utility.yul\":919:972   */\n      tag_178\n        /* \"#utility.yul\":964:971   */\n      dup6\n        /* \"#utility.yul\":955:961   */\n      dup3\n        /* \"#utility.yul\":944:953   */\n      dup7\n        /* \"#utility.yul\":940:962   */\n      add\n        /* \"#utility.yul\":919:972   */\n      tag_161\n      jump\t// in\n    tag_178:\n        /* \"#utility.yul\":909:972   */\n      swap3\n      pop\n        /* \"#utility.yul\":865:982   */\n      pop\n        /* \"#utility.yul\":1021:1023   */\n      0x20\n        /* \"#utility.yul\":1047:1100   */\n      tag_179\n        /* \"#utility.yul\":1092:1099   */\n      dup6\n        /* \"#utility.yul\":1083:1089   */\n      dup3\n        /* \"#utility.yul\":1072:1081   */\n      dup7\n        /* \"#utility.yul\":1068:1090   */\n      add\n        /* \"#utility.yul\":1047:1100   */\n      tag_165\n      jump\t// in\n    tag_179:\n        /* \"#utility.yul\":1037:1100   */\n      swap2\n      pop\n        /* \"#utility.yul\":992:1110   */\n      pop\n        /* \"#utility.yul\":793:1117   */\n      swap3\n      pop\n      swap3\n      swap1\n      pop\n      jump\t// out\n        /* \"#utility.yul\":1123:1385   */\n    tag_47:\n        /* \"#utility.yul\":1182:1188   */\n      0x00\n        /* \"#utility.yul\":1231:1233   */\n      0x20\n        /* \"#utility.yul\":1219:1228   */\n      dup3\n        /* \"#utility.yul\":1210:1217   */\n      dup5\n        /* \"#utility.yul\":1206:1229   */\n      sub\n        /* \"#utility.yul\":1202:1234   */\n      slt\n        /* \"#utility.yul\":1199:1201   */\n      iszero\n      tag_181\n      jumpi\n        /* \"#utility.yul\":1247:1248   */\n      0x00\n        /* \"#utility.yul\":1244:1245   */\n      dup1\n        /* \"#utility.yul\":1237:1249   */\n      revert\n        /* \"#utility.yul\":1199:1201   */\n    tag_181:\n        /* \"#utility.yul\":1290:1291   */\n      0x00\n        /* \"#utility.yul\":1315:1368   */\n      tag_182\n        /* \"#utility.yul\":1360:1367   */\n      dup5\n        /* \"#utility.yul\":1351:1357   */\n      dup3\n        /* \"#utility.yul\":1340:1349   */\n      dup6\n        /* \"#utility.yul\":1336:1358   */\n      add\n        /* \"#utility.yul\":1315:1368   */\n      tag_169\n      jump\t// in\n    tag_182:\n        /* \"#utility.yul\":1305:1368   */\n      swap2\n      pop\n        /* \"#utility.yul\":1261:1378   */\n      pop\n        /* \"#utility.yul\":1189:1385   */\n      swap3\n      swap2\n      pop\n      pop\n      jump\t// out\n        /* \"#utility.yul\":1391:1509   */\n    tag_183:\n        /* \"#utility.yul\":1478:1502   */\n      tag_185\n        /* \"#utility.yul\":1496:1501   */\n      dup2\n        /* \"#utility.yul\":1478:1502   */\n      tag_186\n      jump\t// in\n    tag_185:\n        /* \"#utility.yul\":1473:1476   */\n      dup3\n        /* \"#utility.yul\":1466:1503   */\n      mstore\n        /* \"#utility.yul\":1456:1509   */\n      pop\n      pop\n      jump\t// out\n        /* \"#utility.yul\":1515:1881   */\n    tag_187:\n        /* \"#utility.yul\":1657:1660   */\n      0x00\n        /* \"#utility.yul\":1678:1745   */\n      tag_189\n        /* \"#utility.yul\":1742:1744   */\n      0x26\n        /* \"#utility.yul\":1737:1740   */\n      dup4\n        /* \"#utility.yul\":1678:1745   */\n      tag_190\n      jump\t// in\n    tag_189:\n        /* \"#utility.yul\":1671:1745   */\n      swap2\n      pop\n        /* \"#utility.yul\":1754:1847   */\n      tag_191\n        /* \"#utility.yul\":1843:1846   */\n      dup3\n        /* \"#utility.yul\":1754:1847   */\n      tag_192\n      jump\t// in\n    tag_191:\n        /* \"#utility.yul\":1872:1874   */\n      0x40\n        /* \"#utility.yul\":1867:1870   */\n      dup3\n        /* \"#utility.yul\":1863:1875   */\n      add\n        /* \"#utility.yul\":1856:1875   */\n      swap1\n      pop\n        /* \"#utility.yul\":1661:1881   */\n      swap2\n      swap1\n      pop\n      jump\t// out\n        /* \"#utility.yul\":1887:2253   */\n    tag_193:\n        /* \"#utility.yul\":2029:2032   */\n      0x00\n        /* \"#utility.yul\":2050:2117   */\n      tag_195\n        /* \"#utility.yul\":2114:2116   */\n      0x20\n        /* \"#utility.yul\":2109:2112   */\n      dup4\n        /* \"#utility.yul\":2050:2117   */\n      tag_190\n      jump\t// in\n    tag_195:\n        /* \"#utility.yul\":2043:2117   */\n      swap2\n      pop\n        /* \"#utility.yul\":2126:2219   */\n      tag_196\n        /* \"#utility.yul\":2215:2218   */\n      dup3\n        /* \"#utility.yul\":2126:2219   */\n      tag_197\n      jump\t// in\n    tag_196:\n        /* \"#utility.yul\":2244:2246   */\n      0x20\n        /* \"#utility.yul\":2239:2242   */\n      dup3\n        /* \"#utility.yul\":2235:2247   */\n      add\n        /* \"#utility.yul\":2228:2247   */\n      swap1\n      pop\n        /* \"#utility.yul\":2033:2253   */\n      swap2\n      swap1\n      pop\n      jump\t// out\n        /* \"#utility.yul\":2259:2377   */\n    tag_198:\n        /* \"#utility.yul\":2346:2370   */\n      tag_200\n        /* \"#utility.yul\":2364:2369   */\n      dup2\n        /* \"#utility.yul\":2346:2370   */\n      tag_201\n      jump\t// in\n    tag_200:\n        /* \"#utility.yul\":2341:2344   */\n      dup3\n        /* \"#utility.yul\":2334:2371   */\n      mstore\n        /* \"#utility.yul\":2324:2377   */\n      pop\n      pop\n      jump\t// out\n        /* \"#utility.yul\":2383:2501   */\n    tag_202:\n        /* \"#utility.yul\":2470:2494   */\n      tag_204\n        /* \"#utility.yul\":2488:2493   */\n      dup2\n        /* \"#utility.yul\":2470:2494   */\n      tag_205\n      jump\t// in\n    tag_204:\n        /* \"#utility.yul\":2465:2468   */\n      dup3\n        /* \"#utility.yul\":2458:2495   */\n      mstore\n        /* \"#utility.yul\":2448:2501   */\n      pop\n      pop\n      jump\t// out\n        /* \"#utility.yul\":2507:2729   */\n    tag_58:\n        /* \"#utility.yul\":2600:2604   */\n      0x00\n        /* \"#utility.yul\":2638:2640   */\n      0x20\n        /* \"#utility.yul\":2627:2636   */\n      dup3\n        /* \"#utility.yul\":2623:2641   */\n      add\n        /* \"#utility.yul\":2615:2641   */\n      swap1\n      pop\n        /* \"#utility.yul\":2651:2722   */\n      tag_207\n        /* \"#utility.yul\":2719:2720   */\n      0x00\n        /* \"#utility.yul\":2708:2717   */\n      dup4\n        /* \"#utility.yul\":2704:2721   */\n      add\n        /* \"#utility.yul\":2695:2701   */\n      dup5\n        /* \"#utility.yul\":2651:2722   */\n      tag_183\n      jump\t// in\n    tag_207:\n        /* \"#utility.yul\":2605:2729   */\n      swap3\n      swap2\n      pop\n      pop\n      jump\t// out\n        /* \"#utility.yul\":2735:3154   */\n    tag_149:\n        /* \"#utility.yul\":2901:2905   */\n      0x00\n        /* \"#utility.yul\":2939:2941   */\n      0x20\n        /* \"#utility.yul\":2928:2937   */\n      dup3\n        /* \"#utility.yul\":2924:2942   */\n      add\n        /* \"#utility.yul\":2916:2942   */\n      swap1\n      pop\n        /* \"#utility.yul\":2988:2997   */\n      dup2\n        /* \"#utility.yul\":2982:2986   */\n      dup2\n        /* \"#utility.yul\":2978:2998   */\n      sub\n        /* \"#utility.yul\":2974:2975   */\n      0x00\n        /* \"#utility.yul\":2963:2972   */\n      dup4\n        /* \"#utility.yul\":2959:2976   */\n      add\n        /* \"#utility.yul\":2952:2999   */\n      mstore\n        /* \"#utility.yul\":3016:3147   */\n      tag_209\n        /* \"#utility.yul\":3142:3146   */\n      dup2\n        /* \"#utility.yul\":3016:3147   */\n      tag_187\n      jump\t// in\n    tag_209:\n        /* \"#utility.yul\":3008:3147   */\n      swap1\n      pop\n        /* \"#utility.yul\":2906:3154   */\n      swap2\n      swap1\n      pop\n      jump\t// out\n        /* \"#utility.yul\":3160:3579   */\n    tag_157:\n        /* \"#utility.yul\":3326:3330   */\n      0x00\n        /* \"#utility.yul\":3364:3366   */\n      0x20\n        /* \"#utility.yul\":3353:3362   */\n      dup3\n        /* \"#utility.yul\":3349:3367   */\n      add\n        /* \"#utility.yul\":3341:3367   */\n      swap1\n      pop\n        /* \"#utility.yul\":3413:3422   */\n      dup2\n        /* \"#utility.yul\":3407:3411   */\n      dup2\n        /* \"#utility.yul\":3403:3423   */\n      sub\n        /* \"#utility.yul\":3399:3400   */\n      0x00\n        /* \"#utility.yul\":3388:3397   */\n      dup4\n        /* \"#utility.yul\":3384:3401   */\n      add\n        /* \"#utility.yul\":3377:3424   */\n      mstore\n        /* \"#utility.yul\":3441:3572   */\n      tag_211\n        /* \"#utility.yul\":3567:3571   */\n      dup2\n        /* \"#utility.yul\":3441:3572   */\n      tag_193\n      jump\t// in\n    tag_211:\n        /* \"#utility.yul\":3433:3572   */\n      swap1\n      pop\n        /* \"#utility.yul\":3331:3579   */\n      swap2\n      swap1\n      pop\n      jump\t// out\n        /* \"#utility.yul\":3585:3917   */\n    tag_50:\n        /* \"#utility.yul\":3706:3710   */\n      0x00\n        /* \"#utility.yul\":3744:3746   */\n      0x40\n        /* \"#utility.yul\":3733:3742   */\n      dup3\n        /* \"#utility.yul\":3729:3747   */\n      add\n        /* \"#utility.yul\":3721:3747   */\n      swap1\n      pop\n        /* \"#utility.yul\":3757:3828   */\n      tag_213\n        /* \"#utility.yul\":3825:3826   */\n      0x00\n        /* \"#utility.yul\":3814:3823   */\n      dup4\n        /* \"#utility.yul\":3810:3827   */\n      add\n        /* \"#utility.yul\":3801:3807   */\n      dup6\n        /* \"#utility.yul\":3757:3828   */\n      tag_198\n      jump\t// in\n    tag_213:\n        /* \"#utility.yul\":3838:3910   */\n      tag_214\n        /* \"#utility.yul\":3906:3908   */\n      0x20\n        /* \"#utility.yul\":3895:3904   */\n      dup4\n        /* \"#utility.yul\":3891:3909   */\n      add\n        /* \"#utility.yul\":3882:3888   */\n      dup5\n        /* \"#utility.yul\":3838:3910   */\n      tag_198\n      jump\t// in\n    tag_214:\n        /* \"#utility.yul\":3711:3917   */\n      swap4\n      swap3\n      pop\n      pop\n      pop\n      jump\t// out\n        /* \"#utility.yul\":3923:4145   */\n    tag_28:\n        /* \"#utility.yul\":4016:4020   */\n      0x00\n        /* \"#utility.yul\":4054:4056   */\n      0x20\n        /* \"#utility.yul\":4043:4052   */\n      dup3\n        /* \"#utility.yul\":4039:4057   */\n      add\n        /* \"#utility.yul\":4031:4057   */\n      swap1\n      pop\n        /* \"#utility.yul\":4067:4138   */\n      tag_216\n        /* \"#utility.yul\":4135:4136   */\n      0x00\n        /* \"#utility.yul\":4124:4133   */\n      dup4\n        /* \"#utility.yul\":4120:4137   */\n      add\n        /* \"#utility.yul\":4111:4117   */\n      dup5\n        /* \"#utility.yul\":4067:4138   */\n      tag_202\n      jump\t// in\n    tag_216:\n        /* \"#utility.yul\":4021:4145   */\n      swap3\n      swap2\n      pop\n      pop\n      jump\t// out\n        /* \"#utility.yul\":4151:4320   */\n    tag_190:\n        /* \"#utility.yul\":4235:4246   */\n      0x00\n        /* \"#utility.yul\":4269:4275   */\n      dup3\n        /* \"#utility.yul\":4264:4267   */\n      dup3\n        /* \"#utility.yul\":4257:4276   */\n      mstore\n        /* \"#utility.yul\":4309:4313   */\n      0x20\n        /* \"#utility.yul\":4304:4307   */\n      dup3\n        /* \"#utility.yul\":4300:4314   */\n      add\n        /* \"#utility.yul\":4285:4314   */\n      swap1\n      pop\n        /* \"#utility.yul\":4247:4320   */\n      swap3\n      swap2\n      pop\n      pop\n      jump\t// out\n        /* \"#utility.yul\":4326:4631   */\n    tag_132:\n        /* \"#utility.yul\":4366:4369   */\n      0x00\n        /* \"#utility.yul\":4385:4405   */\n      tag_219\n        /* \"#utility.yul\":4403:4404   */\n      dup3\n        /* \"#utility.yul\":4385:4405   */\n      tag_205\n      jump\t// in\n    tag_219:\n        /* \"#utility.yul\":4380:4405   */\n      swap2\n      pop\n        /* \"#utility.yul\":4419:4439   */\n      tag_220\n        /* \"#utility.yul\":4437:4438   */\n      dup4\n        /* \"#utility.yul\":4419:4439   */\n      tag_205\n      jump\t// in\n    tag_220:\n        /* \"#utility.yul\":4414:4439   */\n      swap3\n      pop\n        /* \"#utility.yul\":4573:4574   */\n      dup3\n        /* \"#utility.yul\":4505:4571   */\n      0xffffffffffffffffffffffffffffffffffffffffffffffffffffffffffffffff\n        /* \"#utility.yul\":4501:4575   */\n      sub\n        /* \"#utility.yul\":4498:4499   */\n      dup3\n        /* \"#utility.yul\":4495:4576   */\n      gt\n        /* \"#utility.yul\":4492:4494   */\n      iszero\n      tag_221\n      jumpi\n        /* \"#utility.yul\":4579:4597   */\n      tag_222\n      tag_223\n      jump\t// in\n    tag_222:\n        /* \"#utility.yul\":4492:4494   */\n    tag_221:\n        /* \"#utility.yul\":4623:4624   */\n      dup3\n        /* \"#utility.yul\":4620:4621   */\n      dup3\n        /* \"#utility.yul\":4616:4625   */\n      add\n        /* \"#utility.yul\":4609:4625   */\n      swap1\n      pop\n        /* \"#utility.yul\":4370:4631   */\n      swap3\n      swap2\n      pop\n      pop\n      jump\t// out\n        /* \"#utility.yul\":4637:4822   */\n    tag_142:\n        /* \"#utility.yul\":4677:4678   */\n      0x00\n        /* \"#utility.yul\":4694:4714   */\n      tag_225\n        /* \"#utility.yul\":4712:4713   */\n      dup3\n        /* \"#utility.yul\":4694:4714   */\n      tag_205\n      jump\t// in\n    tag_225:\n        /* \"#utility.yul\":4689:4714   */\n      swap2\n      pop\n        /* \"#utility.yul\":4728:4748   */\n      tag_226\n        /* \"#utility.yul\":4746:4747   */\n      dup4\n        /* \"#utility.yul\":4728:4748   */\n      tag_205\n      jump\t// in\n    tag_226:\n        /* \"#utility.yul\":4723:4748   */\n      swap3\n      pop\n        /* \"#utility.yul\":4767:4768   */\n      dup3\n        /* \"#utility.yul\":4757:4759   */\n      tag_227\n      jumpi\n        /* \"#utility.yul\":4772:4790   */\n      tag_228\n      tag_229\n      jump\t// in\n    tag_228:\n        /* \"#utility.yul\":4757:4759   */\n    tag_227:\n        /* \"#utility.yul\":4814:4815   */\n      dup3\n        /* \"#utility.yul\":4811:4812   */\n      dup3\n        /* \"#utility.yul\":4807:4816   */\n      div\n        /* \"#utility.yul\":4802:4816   */\n      swap1\n      pop\n        /* \"#utility.yul\":4679:4822   */\n      swap3\n      swap2\n      pop\n      pop\n      jump\t// out\n        /* \"#utility.yul\":4828:5019   */\n    tag_108:\n        /* \"#utility.yul\":4868:4872   */\n      0x00\n        /* \"#utility.yul\":4888:4908   */\n      tag_231\n        /* \"#utility.yul\":4906:4907   */\n      dup3\n        /* \"#utility.yul\":4888:4908   */\n      tag_205\n      jump\t// in\n    tag_231:\n        /* \"#utility.yul\":4883:4908   */\n      swap2\n      pop\n        /* \"#utility.yul\":4922:4942   */\n      tag_232\n        /* \"#utility.yul\":4940:4941   */\n      dup4\n        /* \"#utility.yul\":4922:4942   */\n      tag_205\n      jump\t// in\n    tag_232:\n        /* \"#utility.yul\":4917:4942   */\n      swap3\n      pop\n        /* \"#utility.yul\":4961:4962   */\n      dup3\n        /* \"#utility.yul\":4958:4959   */\n      dup3\n        /* \"#utility.yul\":4955:4963   */\n      lt\n        /* \"#utility.yul\":4952:4954   */\n      iszero\n      tag_233\n      jumpi\n        /* \"#utility.yul\":4966:4984   */\n      tag_234\n      tag_223\n      jump\t// in\n    tag_234:\n        /* \"#utility.yul\":4952:4954   */\n    tag_233:\n        /* \"#utility.yul\":5011:5012   */\n      dup3\n        /* \"#utility.yul\":5008:5009   */\n      dup3\n        /* \"#utility.yul\":5004:5013   */\n      sub\n        /* \"#utility.yul\":4996:5013   */\n      swap1\n      pop\n        /* \"#utility.yul\":4873:5019   */\n      swap3\n      swap2\n      pop\n      pop\n      jump\t// out\n        /* \"#utility.yul\":5025:5121   */\n    tag_186:\n        /* \"#utility.yul\":5062:5069   */\n      0x00\n        /* \"#utility.yul\":5091:5115   */\n      tag_236\n        /* \"#utility.yul\":5109:5114   */\n      dup3\n        /* \"#utility.yul\":5091:5115   */\n      tag_237\n      jump\t// in\n    tag_236:\n        /* \"#utility.yul\":5080:5115   */\n      swap1\n      pop\n        /* \"#utility.yul\":5070:5121   */\n      swap2\n      swap1\n      pop\n      jump\t// out\n        /* \"#utility.yul\":5127:5245   */\n    tag_201:\n        /* \"#utility.yul\":5164:5171   */\n      0x00\n        /* \"#utility.yul\":5204:5238   */\n      0xffffffffffffffffffffffffffffffff\n        /* \"#utility.yul\":5197:5202   */\n      dup3\n        /* \"#utility.yul\":5193:5239   */\n      and\n        /* \"#utility.yul\":5182:5239   */\n      swap1\n      pop\n        /* \"#utility.yul\":5172:5245   */\n      swap2\n      swap1\n      pop\n      jump\t// out\n        /* \"#utility.yul\":5251:5377   */\n    tag_237:\n        /* \"#utility.yul\":5288:5295   */\n      0x00\n        /* \"#utility.yul\":5328:5370   */\n      0xffffffffffffffffffffffffffffffffffffffff\n        /* \"#utility.yul\":5321:5326   */\n      dup3\n        /* \"#utility.yul\":5317:5371   */\n      and\n        /* \"#utility.yul\":5306:5371   */\n      swap1\n      pop\n        /* \"#utility.yul\":5296:5377   */\n      swap2\n      swap1\n      pop\n      jump\t// out\n        /* \"#utility.yul\":5383:5460   */\n    tag_205:\n        /* \"#utility.yul\":5420:5427   */\n      0x00\n        /* \"#utility.yul\":5449:5454   */\n      dup2\n        /* \"#utility.yul\":5438:5454   */\n      swap1\n      pop\n        /* \"#utility.yul\":5428:5460   */\n      swap2\n      swap1\n      pop\n      jump\t// out\n        /* \"#utility.yul\":5466:5699   */\n    tag_123:\n        /* \"#utility.yul\":5505:5508   */\n      0x00\n        /* \"#utility.yul\":5528:5552   */\n      tag_242\n        /* \"#utility.yul\":5546:5551   */\n      dup3\n        /* \"#utility.yul\":5528:5552   */\n      tag_205\n      jump\t// in\n    tag_242:\n        /* \"#utility.yul\":5519:5552   */\n      swap2\n      pop\n        /* \"#utility.yul\":5574:5640   */\n      0xffffffffffffffffffffffffffffffffffffffffffffffffffffffffffffffff\n        /* \"#utility.yul\":5567:5572   */\n      dup3\n        /* \"#utility.yul\":5564:5641   */\n      eq\n        /* \"#utility.yul\":5561:5563   */\n      iszero\n      tag_243\n      jumpi\n        /* \"#utility.yul\":5644:5662   */\n      tag_244\n      tag_223\n      jump\t// in\n    tag_244:\n        /* \"#utility.yul\":5561:5563   */\n    tag_243:\n        /* \"#utility.yul\":5691:5692   */\n      0x01\n        /* \"#utility.yul\":5684:5689   */\n      dup3\n        /* \"#utility.yul\":5680:5693   */\n      add\n        /* \"#utility.yul\":5673:5693   */\n      swap1\n      pop\n        /* \"#utility.yul\":5509:5699   */\n      swap2\n      swap1\n      pop\n      jump\t// out\n        /* \"#utility.yul\":5705:5885   */\n    tag_223:\n        /* \"#utility.yul\":5753:5830   */\n      0x4e487b7100000000000000000000000000000000000000000000000000000000\n        /* \"#utility.yul\":5750:5751   */\n      0x00\n        /* \"#utility.yul\":5743:5831   */\n      mstore\n        /* \"#utility.yul\":5850:5854   */\n      0x11\n        /* \"#utility.yul\":5847:5848   */\n      0x04\n        /* \"#utility.yul\":5840:5855   */\n      mstore\n        /* \"#utility.yul\":5874:5878   */\n      0x24\n        /* \"#utility.yul\":5871:5872   */\n      0x00\n        /* \"#utility.yul\":5864:5879   */\n      revert\n        /* \"#utility.yul\":5891:6071   */\n    tag_229:\n        /* \"#utility.yul\":5939:6016   */\n      0x4e487b7100000000000000000000000000000000000000000000000000000000\n        /* \"#utility.yul\":5936:5937   */\n      0x00\n        /* \"#utility.yul\":5929:6017   */\n      mstore\n        /* \"#utility.yul\":6036:6040   */\n      0x12\n        /* \"#utility.yul\":6033:6034   */\n      0x04\n        /* \"#utility.yul\":6026:6041   */\n      mstore\n        /* \"#utility.yul\":6060:6064   */\n      0x24\n        /* \"#utility.yul\":6057:6058   */\n      0x00\n        /* \"#utility.yul\":6050:6065   */\n      revert\n        /* \"#utility.yul\":6077:6302   */\n    tag_192:\n        /* \"#utility.yul\":6217:6251   */\n      0x4f776e61626c653a206e6577206f776e657220697320746865207a65726f2061\n        /* \"#utility.yul\":6213:6214   */\n      0x00\n        /* \"#utility.yul\":6205:6211   */\n      dup3\n        /* \"#utility.yul\":6201:6215   */\n      add\n        /* \"#utility.yul\":6194:6252   */\n      mstore\n        /* \"#utility.yul\":6286:6294   */\n      0x6464726573730000000000000000000000000000000000000000000000000000\n        /* \"#utility.yul\":6281:6283   */\n      0x20\n        /* \"#utility.yul\":6273:6279   */\n      dup3\n        /* \"#utility.yul\":6269:6284   */\n      add\n        /* \"#utility.yul\":6262:6295   */\n      mstore\n        /* \"#utility.yul\":6183:6302   */\n      pop\n      jump\t// out\n        /* \"#utility.yul\":6308:6490   */\n    tag_197:\n        /* \"#utility.yul\":6448:6482   */\n      0x4f776e61626c653a2063616c6c6572206973206e6f7420746865206f776e6572\n        /* \"#utility.yul\":6444:6445   */\n      0x00\n        /* \"#utility.yul\":6436:6442   */\n      dup3\n        /* \"#utility.yul\":6432:6446   */\n      add\n        /* \"#utility.yul\":6425:6483   */\n      mstore\n        /* \"#utility.yul\":6414:6490   */\n      pop\n      jump\t// out\n        /* \"#utility.yul\":6496:6618   */\n    tag_164:\n        /* \"#utility.yul\":6569:6593   */\n      tag_250\n        /* \"#utility.yul\":6587:6592   */\n      dup2\n        /* \"#utility.yul\":6569:6593   */\n      tag_186\n      jump\t// in\n    tag_250:\n        /* \"#utility.yul\":6562:6567   */\n      dup2\n        /* \"#utility.yul\":6559:6594   */\n      eq\n        /* \"#utility.yul\":6549:6551   */\n      tag_251\n      jumpi\n        /* \"#utility.yul\":6608:6609   */\n      0x00\n        /* \"#utility.yul\":6605:6606   */\n      dup1\n        /* \"#utility.yul\":6598:6610   */\n      revert\n        /* \"#utility.yul\":6549:6551   */\n    tag_251:\n        /* \"#utility.yul\":6539:6618   */\n      pop\n      jump\t// out\n        /* \"#utility.yul\":6624:6746   */\n    tag_168:\n        /* \"#utility.yul\":6697:6721   */\n      tag_253\n        /* \"#utility.yul\":6715:6720   */\n      dup2\n        /* \"#utility.yul\":6697:6721   */\n      tag_201\n      jump\t// in\n    tag_253:\n        /* \"#utility.yul\":6690:6695   */\n      dup2\n        /* \"#utility.yul\":6687:6722   */\n      eq\n        /* \"#utility.yul\":6677:6679   */\n      tag_254\n      jumpi\n        /* \"#utility.yul\":6736:6737   */\n      0x00\n        /* \"#utility.yul\":6733:6734   */\n      dup1\n        /* \"#utility.yul\":6726:6738   */\n      revert\n        /* \"#utility.yul\":6677:6679   */\n    tag_254:\n        /* \"#utility.yul\":6667:6746   */\n      pop\n      jump\t// out\n        /* \"#utility.yul\":6752:6874   */\n    tag_172:\n        /* \"#utility.yul\":6825:6849   */\n      tag_256\n        /* \"#utility.yul\":6843:6848   */\n      dup2\n        /* \"#utility.yul\":6825:6849   */\n      tag_205\n      jump\t// in\n    tag_256:\n        /* \"#utility.yul\":6818:6823   */\n      dup2\n        /* \"#utility.yul\":6815:6850   */\n      eq\n        /* \"#utility.yul\":6805:6807   */\n      tag_257\n      jumpi\n        /* \"#utility.yul\":6864:6865   */\n      0x00\n        /* \"#utility.yul\":6861:6862   */\n      dup1\n        /* \"#utility.yul\":6854:6866   */\n      revert\n        /* \"#utility.yul\":6805:6807   */\n    tag_257:\n        /* \"#utility.yul\":6795:6874   */\n      pop\n      jump\t// out\n\n    auxdata: 0xa2646970667358221220b6f9419114243f22230b8b4e63ba72cfc047412b555312477c3e748c17f1c40d64736f6c63430008040033\n}\n",
				"bytecode": {
					"linkReferences": {},
					"object": "60806040526064600155603c60035534801561001a57600080fd5b5061003761002c61004360201b60201c565b61004b60201b60201c565b4260028190555061010f565b600033905090565b60008060009054906101000a900473ffffffffffffffffffffffffffffffffffffffff169050816000806101000a81548173ffffffffffffffffffffffffffffffffffffffff021916908373ffffffffffffffffffffffffffffffffffffffff1602179055508173ffffffffffffffffffffffffffffffffffffffff168173ffffffffffffffffffffffffffffffffffffffff167f8be0079c531659141344cd1fd0a4f28419497f9722a3daafe3b4186f6b6457e060405160405180910390a35050565b610f8b8061011e6000396000f3fe6080604052600436106100f65760003560e01c8063a0b9d8be1161008a578063d97c94ac11610059578063d97c94ac146102de578063db62b20114610307578063e608d80b14610332578063f2fde38b1461035d576100fd565b8063a0b9d8be14610236578063be9a65551461025f578063c7841dd21461028a578063cfb9cfba146102b3576100fd565b8063715018a6116100c6578063715018a61461019f57806377441b70146101b657806377a0fe02146101f45780638da5cb5b1461020b576100fd565b806227d97014610102578063143e55e01461012d5780634455a38f1461015857806352b73e4114610183576100fd565b366100fd57005b600080fd5b34801561010e57600080fd5b50610117610386565b6040516101249190610cb2565b60405180910390f35b34801561013957600080fd5b5061014261038c565b60405161014f9190610cb2565b60405180910390f35b34801561016457600080fd5b5061016d610392565b60405161017a9190610cb2565b60405180910390f35b61019d60048036038101906101989190610b56565b610398565b005b3480156101ab57600080fd5b506101b461039c565b005b3480156101c257600080fd5b506101dd60048036038101906101d89190610b92565b6103b0565b6040516101eb929190610c89565b60405180910390f35b34801561020057600080fd5b50610209610418565b005b34801561021757600080fd5b50610220610713565b60405161022d9190610c2e565b60405180910390f35b34801561024257600080fd5b5061025d60048036038101906102589190610b2d565b61073c565b005b34801561026b57600080fd5b50610274610798565b6040516102819190610cb2565b60405180910390f35b34801561029657600080fd5b506102b160048036038101906102ac9190610b56565b61079e565b005b3480156102bf57600080fd5b506102c86108d8565b6040516102d59190610cb2565b60405180910390f35b3480156102ea57600080fd5b5061030560048036038101906103009190610b92565b6108de565b005b34801561031357600080fd5b5061031c6108e8565b6040516103299190610cb2565b60405180910390f35b34801561033e57600080fd5b506103476108f1565b6040516103549190610cb2565b60405180910390f35b34801561036957600080fd5b50610384600480360381019061037f9190610b2d565b610920565b005b60045481565b60015481565b60035481565b5050565b6103a46109a4565b6103ae6000610a22565b565b600681815481106103c057600080fd5b906000526020600020016000915090508060000160009054906101000a90046fffffffffffffffffffffffffffffffff16908060000160109054906101000a90046fffffffffffffffffffffffffffffffff16905082565b60005b60068054905081101561071057600a60068281548110610464577f4e487b7100000000000000000000000000000000000000000000000000000000600052603260045260246000fd5b9060005260206000200160000160109054906101000a90046fffffffffffffffffffffffffffffffff166fffffffffffffffffffffffffffffffff16426104ab9190610d65565b1015801561052e57506000600682815481106104f0577f4e487b7100000000000000000000000000000000000000000000000000000000600052603260045260246000fd5b9060005260206000200160000160009054906101000a90046fffffffffffffffffffffffffffffffff166fffffffffffffffffffffffffffffffff16115b156106fd573373ffffffffffffffffffffffffffffffffffffffff166108fc60068381548110610587577f4e487b7100000000000000000000000000000000000000000000000000000000600052603260045260246000fd5b9060005260206000200160000160009054906101000a90046fffffffffffffffffffffffffffffffff166fffffffffffffffffffffffffffffffff169081150290604051600060405180830381858888f193505050501580156105ee573d6000803e3d6000fd5b5060068181548110610629577f4e487b7100000000000000000000000000000000000000000000000000000000600052603260045260246000fd5b9060005260206000200160000160009054906101000a90046fffffffffffffffffffffffffffffffff166fffffffffffffffffffffffffffffffff16600460008282546106769190610d65565b925050819055506000600682815481106106b9577f4e487b7100000000000000000000000000000000000000000000000000000000600052603260045260246000fd5b9060005260206000200160000160006101000a8154816fffffffffffffffffffffffffffffffff02191690836fffffffffffffffffffffffffffffffff1602179055505b808061070890610df1565b91505061041b565b50565b60008060009054906101000a900473ffffffffffffffffffffffffffffffffffffffff16905090565b6107446109a4565b3373ffffffffffffffffffffffffffffffffffffffff166108fc6005549081150290604051600060405180830381858888f1935050505015801561078c573d6000803e3d6000fd5b50600060058190555050565b60025481565b806fffffffffffffffffffffffffffffffff16600460008282546107c29190610cde565b9250508190555047600454116108d45760066040518060400160405280836fffffffffffffffffffffffffffffffff1681526020016107ff6108f1565b6fffffffffffffffffffffffffffffffff168152509080600181540180825580915050600190039060005260206000200160009091909190915060008201518160000160006101000a8154816fffffffffffffffffffffffffffffffff02191690836fffffffffffffffffffffffffffffffff16021790555060208201518160000160106101000a8154816fffffffffffffffffffffffffffffffff02191690836fffffffffffffffffffffffffffffffff16021790555050506001600560008282546108cc9190610cde565b925050819055505b5050565b60055481565b8060038190555050565b6000600a905090565b6000600354600254426109049190610d65565b61090e9190610d34565b60015461091b9190610cde565b905090565b6109286109a4565b600073ffffffffffffffffffffffffffffffffffffffff168173ffffffffffffffffffffffffffffffffffffffff161415610998576040517f08c379a000000000000000000000000000000000000000000000000000000000815260040161098f90610c49565b60405180910390fd5b6109a181610a22565b50565b6109ac610ae6565b73ffffffffffffffffffffffffffffffffffffffff166109ca610713565b73ffffffffffffffffffffffffffffffffffffffff1614610a20576040517f08c379a0000000000000000000000000000000000000000000000000000000008152600401610a1790610c69565b60405180910390fd5b565b60008060009054906101000a900473ffffffffffffffffffffffffffffffffffffffff169050816000806101000a81548173ffffffffffffffffffffffffffffffffffffffff021916908373ffffffffffffffffffffffffffffffffffffffff1602179055508173ffffffffffffffffffffffffffffffffffffffff168173ffffffffffffffffffffffffffffffffffffffff167f8be0079c531659141344cd1fd0a4f28419497f9722a3daafe3b4186f6b6457e060405160405180910390a35050565b600033905090565b600081359050610afd81610f10565b92915050565b600081359050610b1281610f27565b92915050565b600081359050610b2781610f3e565b92915050565b600060208284031215610b3f57600080fd5b6000610b4d84828501610aee565b91505092915050565b60008060408385031215610b6957600080fd5b6000610b7785828601610aee565b9250506020610b8885828601610b03565b9150509250929050565b600060208284031215610ba457600080fd5b6000610bb284828501610b18565b91505092915050565b610bc481610d99565b82525050565b6000610bd7602683610ccd565b9150610be282610e98565b604082019050919050565b6000610bfa602083610ccd565b9150610c0582610ee7565b602082019050919050565b610c1981610dab565b82525050565b610c2881610de7565b82525050565b6000602082019050610c436000830184610bbb565b92915050565b60006020820190508181036000830152610c6281610bca565b9050919050565b60006020820190508181036000830152610c8281610bed565b9050919050565b6000604082019050610c9e6000830185610c10565b610cab6020830184610c10565b9392505050565b6000602082019050610cc76000830184610c1f565b92915050565b600082825260208201905092915050565b6000610ce982610de7565b9150610cf483610de7565b9250827fffffffffffffffffffffffffffffffffffffffffffffffffffffffffffffffff03821115610d2957610d28610e3a565b5b828201905092915050565b6000610d3f82610de7565b9150610d4a83610de7565b925082610d5a57610d59610e69565b5b828204905092915050565b6000610d7082610de7565b9150610d7b83610de7565b925082821015610d8e57610d8d610e3a565b5b828203905092915050565b6000610da482610dc7565b9050919050565b60006fffffffffffffffffffffffffffffffff82169050919050565b600073ffffffffffffffffffffffffffffffffffffffff82169050919050565b6000819050919050565b6000610dfc82610de7565b91507fffffffffffffffffffffffffffffffffffffffffffffffffffffffffffffffff821415610e2f57610e2e610e3a565b5b600182019050919050565b7f4e487b7100000000000000000000000000000000000000000000000000000000600052601160045260246000fd5b7f4e487b7100000000000000000000000000000000000000000000000000000000600052601260045260246000fd5b7f4f776e61626c653a206e6577206f776e657220697320746865207a65726f206160008201527f6464726573730000000000000000000000000000000000000000000000000000602082015250565b7f4f776e61626c653a2063616c6c6572206973206e6f7420746865206f776e6572600082015250565b610f1981610d99565b8114610f2457600080fd5b50565b610f3081610dab565b8114610f3b57600080fd5b50565b610f4781610de7565b8114610f5257600080fd5b5056fea2646970667358221220b6f9419114243f22230b8b4e63ba72cfc047412b555312477c3e748c17f1c40d64736f6c63430008040033",
					"opcodes": "PUSH1 0x80 PUSH1 0x40 MSTORE PUSH1 0x64 PUSH1 0x1 SSTORE PUSH1 0x3C PUSH1 0x3 SSTORE CALLVALUE DUP1 ISZERO PUSH2 0x1A JUMPI PUSH1 0x0 DUP1 REVERT JUMPDEST POP PUSH2 0x37 PUSH2 0x2C PUSH2 0x43 PUSH1 0x20 SHL PUSH1 0x20 SHR JUMP JUMPDEST PUSH2 0x4B PUSH1 0x20 SHL PUSH1 0x20 SHR JUMP JUMPDEST TIMESTAMP PUSH1 0x2 DUP2 SWAP1 SSTORE POP PUSH2 0x10F JUMP JUMPDEST PUSH1 0x0 CALLER SWAP1 POP SWAP1 JUMP JUMPDEST PUSH1 0x0 DUP1 PUSH1 0x0 SWAP1 SLOAD SWAP1 PUSH2 0x100 EXP SWAP1 DIV PUSH20 0xFFFFFFFFFFFFFFFFFFFFFFFFFFFFFFFFFFFFFFFF AND SWAP1 POP DUP2 PUSH1 0x0 DUP1 PUSH2 0x100 EXP DUP2 SLOAD DUP2 PUSH20 0xFFFFFFFFFFFFFFFFFFFFFFFFFFFFFFFFFFFFFFFF MUL NOT AND SWAP1 DUP4 PUSH20 0xFFFFFFFFFFFFFFFFFFFFFFFFFFFFFFFFFFFFFFFF AND MUL OR SWAP1 SSTORE POP DUP2 PUSH20 0xFFFFFFFFFFFFFFFFFFFFFFFFFFFFFFFFFFFFFFFF AND DUP2 PUSH20 0xFFFFFFFFFFFFFFFFFFFFFFFFFFFFFFFFFFFFFFFF AND PUSH32 0x8BE0079C531659141344CD1FD0A4F28419497F9722A3DAAFE3B4186F6B6457E0 PUSH1 0x40 MLOAD PUSH1 0x40 MLOAD DUP1 SWAP2 SUB SWAP1 LOG3 POP POP JUMP JUMPDEST PUSH2 0xF8B DUP1 PUSH2 0x11E PUSH1 0x0 CODECOPY PUSH1 0x0 RETURN INVALID PUSH1 0x80 PUSH1 0x40 MSTORE PUSH1 0x4 CALLDATASIZE LT PUSH2 0xF6 JUMPI PUSH1 0x0 CALLDATALOAD PUSH1 0xE0 SHR DUP1 PUSH4 0xA0B9D8BE GT PUSH2 0x8A JUMPI DUP1 PUSH4 0xD97C94AC GT PUSH2 0x59 JUMPI DUP1 PUSH4 0xD97C94AC EQ PUSH2 0x2DE JUMPI DUP1 PUSH4 0xDB62B201 EQ PUSH2 0x307 JUMPI DUP1 PUSH4 0xE608D80B EQ PUSH2 0x332 JUMPI DUP1 PUSH4 0xF2FDE38B EQ PUSH2 0x35D JUMPI PUSH2 0xFD JUMP JUMPDEST DUP1 PUSH4 0xA0B9D8BE EQ PUSH2 0x236 JUMPI DUP1 PUSH4 0xBE9A6555 EQ PUSH2 0x25F JUMPI DUP1 PUSH4 0xC7841DD2 EQ PUSH2 0x28A JUMPI DUP1 PUSH4 0xCFB9CFBA EQ PUSH2 0x2B3 JUMPI PUSH2 0xFD JUMP JUMPDEST DUP1 PUSH4 0x715018A6 GT PUSH2 0xC6 JUMPI DUP1 PUSH4 0x715018A6 EQ PUSH2 0x19F JUMPI DUP1 PUSH4 0x77441B70 EQ PUSH2 0x1B6 JUMPI DUP1 PUSH4 0x77A0FE02 EQ PUSH2 0x1F4 JUMPI DUP1 PUSH4 0x8DA5CB5B EQ PUSH2 0x20B JUMPI PUSH2 0xFD JUMP JUMPDEST DUP1 PUSH3 0x27D970 EQ PUSH2 0x102 JUMPI DUP1 PUSH4 0x143E55E0 EQ PUSH2 0x12D JUMPI DUP1 PUSH4 0x4455A38F EQ PUSH2 0x158 JUMPI DUP1 PUSH4 0x52B73E41 EQ PUSH2 0x183 JUMPI PUSH2 0xFD JUMP JUMPDEST CALLDATASIZE PUSH2 0xFD JUMPI STOP JUMPDEST PUSH1 0x0 DUP1 REVERT JUMPDEST CALLVALUE DUP1 ISZERO PUSH2 0x10E JUMPI PUSH1 0x0 DUP1 REVERT JUMPDEST POP PUSH2 0x117 PUSH2 0x386 JUMP JUMPDEST PUSH1 0x40 MLOAD PUSH2 0x124 SWAP2 SWAP1 PUSH2 0xCB2 JUMP JUMPDEST PUSH1 0x40 MLOAD DUP1 SWAP2 SUB SWAP1 RETURN JUMPDEST CALLVALUE DUP1 ISZERO PUSH2 0x139 JUMPI PUSH1 0x0 DUP1 REVERT JUMPDEST POP PUSH2 0x142 PUSH2 0x38C JUMP JUMPDEST PUSH1 0x40 MLOAD PUSH2 0x14F SWAP2 SWAP1 PUSH2 0xCB2 JUMP JUMPDEST PUSH1 0x40 MLOAD DUP1 SWAP2 SUB SWAP1 RETURN JUMPDEST CALLVALUE DUP1 ISZERO PUSH2 0x164 JUMPI PUSH1 0x0 DUP1 REVERT JUMPDEST POP PUSH2 0x16D PUSH2 0x392 JUMP JUMPDEST PUSH1 0x40 MLOAD PUSH2 0x17A SWAP2 SWAP1 PUSH2 0xCB2 JUMP JUMPDEST PUSH1 0x40 MLOAD DUP1 SWAP2 SUB SWAP1 RETURN JUMPDEST PUSH2 0x19D PUSH1 0x4 DUP1 CALLDATASIZE SUB DUP2 ADD SWAP1 PUSH2 0x198 SWAP2 SWAP1 PUSH2 0xB56 JUMP JUMPDEST PUSH2 0x398 JUMP JUMPDEST STOP JUMPDEST CALLVALUE DUP1 ISZERO PUSH2 0x1AB JUMPI PUSH1 0x0 DUP1 REVERT JUMPDEST POP PUSH2 0x1B4 PUSH2 0x39C JUMP JUMPDEST STOP JUMPDEST CALLVALUE DUP1 ISZERO PUSH2 0x1C2 JUMPI PUSH1 0x0 DUP1 REVERT JUMPDEST POP PUSH2 0x1DD PUSH1 0x4 DUP1 CALLDATASIZE SUB DUP2 ADD SWAP1 PUSH2 0x1D8 SWAP2 SWAP1 PUSH2 0xB92 JUMP JUMPDEST PUSH2 0x3B0 JUMP JUMPDEST PUSH1 0x40 MLOAD PUSH2 0x1EB SWAP3 SWAP2 SWAP1 PUSH2 0xC89 JUMP JUMPDEST PUSH1 0x40 MLOAD DUP1 SWAP2 SUB SWAP1 RETURN JUMPDEST CALLVALUE DUP1 ISZERO PUSH2 0x200 JUMPI PUSH1 0x0 DUP1 REVERT JUMPDEST POP PUSH2 0x209 PUSH2 0x418 JUMP JUMPDEST STOP JUMPDEST CALLVALUE DUP1 ISZERO PUSH2 0x217 JUMPI PUSH1 0x0 DUP1 REVERT JUMPDEST POP PUSH2 0x220 PUSH2 0x713 JUMP JUMPDEST PUSH1 0x40 MLOAD PUSH2 0x22D SWAP2 SWAP1 PUSH2 0xC2E JUMP JUMPDEST PUSH1 0x40 MLOAD DUP1 SWAP2 SUB SWAP1 RETURN JUMPDEST CALLVALUE DUP1 ISZERO PUSH2 0x242 JUMPI PUSH1 0x0 DUP1 REVERT JUMPDEST POP PUSH2 0x25D PUSH1 0x4 DUP1 CALLDATASIZE SUB DUP2 ADD SWAP1 PUSH2 0x258 SWAP2 SWAP1 PUSH2 0xB2D JUMP JUMPDEST PUSH2 0x73C JUMP JUMPDEST STOP JUMPDEST CALLVALUE DUP1 ISZERO PUSH2 0x26B JUMPI PUSH1 0x0 DUP1 REVERT JUMPDEST POP PUSH2 0x274 PUSH2 0x798 JUMP JUMPDEST PUSH1 0x40 MLOAD PUSH2 0x281 SWAP2 SWAP1 PUSH2 0xCB2 JUMP JUMPDEST PUSH1 0x40 MLOAD DUP1 SWAP2 SUB SWAP1 RETURN JUMPDEST CALLVALUE DUP1 ISZERO PUSH2 0x296 JUMPI PUSH1 0x0 DUP1 REVERT JUMPDEST POP PUSH2 0x2B1 PUSH1 0x4 DUP1 CALLDATASIZE SUB DUP2 ADD SWAP1 PUSH2 0x2AC SWAP2 SWAP1 PUSH2 0xB56 JUMP JUMPDEST PUSH2 0x79E JUMP JUMPDEST STOP JUMPDEST CALLVALUE DUP1 ISZERO PUSH2 0x2BF JUMPI PUSH1 0x0 DUP1 REVERT JUMPDEST POP PUSH2 0x2C8 PUSH2 0x8D8 JUMP JUMPDEST PUSH1 0x40 MLOAD PUSH2 0x2D5 SWAP2 SWAP1 PUSH2 0xCB2 JUMP JUMPDEST PUSH1 0x40 MLOAD DUP1 SWAP2 SUB SWAP1 RETURN JUMPDEST CALLVALUE DUP1 ISZERO PUSH2 0x2EA JUMPI PUSH1 0x0 DUP1 REVERT JUMPDEST POP PUSH2 0x305 PUSH1 0x4 DUP1 CALLDATASIZE SUB DUP2 ADD SWAP1 PUSH2 0x300 SWAP2 SWAP1 PUSH2 0xB92 JUMP JUMPDEST PUSH2 0x8DE JUMP JUMPDEST STOP JUMPDEST CALLVALUE DUP1 ISZERO PUSH2 0x313 JUMPI PUSH1 0x0 DUP1 REVERT JUMPDEST POP PUSH2 0x31C PUSH2 0x8E8 JUMP JUMPDEST PUSH1 0x40 MLOAD PUSH2 0x329 SWAP2 SWAP1 PUSH2 0xCB2 JUMP JUMPDEST PUSH1 0x40 MLOAD DUP1 SWAP2 SUB SWAP1 RETURN JUMPDEST CALLVALUE DUP1 ISZERO PUSH2 0x33E JUMPI PUSH1 0x0 DUP1 REVERT JUMPDEST POP PUSH2 0x347 PUSH2 0x8F1 JUMP JUMPDEST PUSH1 0x40 MLOAD PUSH2 0x354 SWAP2 SWAP1 PUSH2 0xCB2 JUMP JUMPDEST PUSH1 0x40 MLOAD DUP1 SWAP2 SUB SWAP1 RETURN JUMPDEST CALLVALUE DUP1 ISZERO PUSH2 0x369 JUMPI PUSH1 0x0 DUP1 REVERT JUMPDEST POP PUSH2 0x384 PUSH1 0x4 DUP1 CALLDATASIZE SUB DUP2 ADD SWAP1 PUSH2 0x37F SWAP2 SWAP1 PUSH2 0xB2D JUMP JUMPDEST PUSH2 0x920 JUMP JUMPDEST STOP JUMPDEST PUSH1 0x4 SLOAD DUP2 JUMP JUMPDEST PUSH1 0x1 SLOAD DUP2 JUMP JUMPDEST PUSH1 0x3 SLOAD DUP2 JUMP JUMPDEST POP POP JUMP JUMPDEST PUSH2 0x3A4 PUSH2 0x9A4 JUMP JUMPDEST PUSH2 0x3AE PUSH1 0x0 PUSH2 0xA22 JUMP JUMPDEST JUMP JUMPDEST PUSH1 0x6 DUP2 DUP2 SLOAD DUP2 LT PUSH2 0x3C0 JUMPI PUSH1 0x0 DUP1 REVERT JUMPDEST SWAP1 PUSH1 0x0 MSTORE PUSH1 0x20 PUSH1 0x0 KECCAK256 ADD PUSH1 0x0 SWAP2 POP SWAP1 POP DUP1 PUSH1 0x0 ADD PUSH1 0x0 SWAP1 SLOAD SWAP1 PUSH2 0x100 EXP SWAP1 DIV PUSH16 0xFFFFFFFFFFFFFFFFFFFFFFFFFFFFFFFF AND SWAP1 DUP1 PUSH1 0x0 ADD PUSH1 0x10 SWAP1 SLOAD SWAP1 PUSH2 0x100 EXP SWAP1 DIV PUSH16 0xFFFFFFFFFFFFFFFFFFFFFFFFFFFFFFFF AND SWAP1 POP DUP3 JUMP JUMPDEST PUSH1 0x0 JUMPDEST PUSH1 0x6 DUP1 SLOAD SWAP1 POP DUP2 LT ISZERO PUSH2 0x710 JUMPI PUSH1 0xA PUSH1 0x6 DUP3 DUP2 SLOAD DUP2 LT PUSH2 0x464 JUMPI PUSH32 0x4E487B7100000000000000000000000000000000000000000000000000000000 PUSH1 0x0 MSTORE PUSH1 0x32 PUSH1 0x4 MSTORE PUSH1 0x24 PUSH1 0x0 REVERT JUMPDEST SWAP1 PUSH1 0x0 MSTORE PUSH1 0x20 PUSH1 0x0 KECCAK256 ADD PUSH1 0x0 ADD PUSH1 0x10 SWAP1 SLOAD SWAP1 PUSH2 0x100 EXP SWAP1 DIV PUSH16 0xFFFFFFFFFFFFFFFFFFFFFFFFFFFFFFFF AND PUSH16 0xFFFFFFFFFFFFFFFFFFFFFFFFFFFFFFFF AND TIMESTAMP PUSH2 0x4AB SWAP2 SWAP1 PUSH2 0xD65 JUMP JUMPDEST LT ISZERO DUP1 ISZERO PUSH2 0x52E JUMPI POP PUSH1 0x0 PUSH1 0x6 DUP3 DUP2 SLOAD DUP2 LT PUSH2 0x4F0 JUMPI PUSH32 0x4E487B7100000000000000000000000000000000000000000000000000000000 PUSH1 0x0 MSTORE PUSH1 0x32 PUSH1 0x4 MSTORE PUSH1 0x24 PUSH1 0x0 REVERT JUMPDEST SWAP1 PUSH1 0x0 MSTORE PUSH1 0x20 PUSH1 0x0 KECCAK256 ADD PUSH1 0x0 ADD PUSH1 0x0 SWAP1 SLOAD SWAP1 PUSH2 0x100 EXP SWAP1 DIV PUSH16 0xFFFFFFFFFFFFFFFFFFFFFFFFFFFFFFFF AND PUSH16 0xFFFFFFFFFFFFFFFFFFFFFFFFFFFFFFFF AND GT JUMPDEST ISZERO PUSH2 0x6FD JUMPI CALLER PUSH20 0xFFFFFFFFFFFFFFFFFFFFFFFFFFFFFFFFFFFFFFFF AND PUSH2 0x8FC PUSH1 0x6 DUP4 DUP2 SLOAD DUP2 LT PUSH2 0x587 JUMPI PUSH32 0x4E487B7100000000000000000000000000000000000000000000000000000000 PUSH1 0x0 MSTORE PUSH1 0x32 PUSH1 0x4 MSTORE PUSH1 0x24 PUSH1 0x0 REVERT JUMPDEST SWAP1 PUSH1 0x0 MSTORE PUSH1 0x20 PUSH1 0x0 KECCAK256 ADD PUSH1 0x0 ADD PUSH1 0x0 SWAP1 SLOAD SWAP1 PUSH2 0x100 EXP SWAP1 DIV PUSH16 0xFFFFFFFFFFFFFFFFFFFFFFFFFFFFFFFF AND PUSH16 0xFFFFFFFFFFFFFFFFFFFFFFFFFFFFFFFF AND SWAP1 DUP2 ISZERO MUL SWAP1 PUSH1 0x40 MLOAD PUSH1 0x0 PUSH1 0x40 MLOAD DUP1 DUP4 SUB DUP2 DUP6 DUP9 DUP9 CALL SWAP4 POP POP POP POP ISZERO DUP1 ISZERO PUSH2 0x5EE JUMPI RETURNDATASIZE PUSH1 0x0 DUP1 RETURNDATACOPY RETURNDATASIZE PUSH1 0x0 REVERT JUMPDEST POP PUSH1 0x6 DUP2 DUP2 SLOAD DUP2 LT PUSH2 0x629 JUMPI PUSH32 0x4E487B7100000000000000000000000000000000000000000000000000000000 PUSH1 0x0 MSTORE PUSH1 0x32 PUSH1 0x4 MSTORE PUSH1 0x24 PUSH1 0x0 REVERT JUMPDEST SWAP1 PUSH1 0x0 MSTORE PUSH1 0x20 PUSH1 0x0 KECCAK256 ADD PUSH1 0x0 ADD PUSH1 0x0 SWAP1 SLOAD SWAP1 PUSH2 0x100 EXP SWAP1 DIV PUSH16 0xFFFFFFFFFFFFFFFFFFFFFFFFFFFFFFFF AND PUSH16 0xFFFFFFFFFFFFFFFFFFFFFFFFFFFFFFFF AND PUSH1 0x4 PUSH1 0x0 DUP3 DUP3 SLOAD PUSH2 0x676 SWAP2 SWAP1 PUSH2 0xD65 JUMP JUMPDEST SWAP3 POP POP DUP2 SWAP1 SSTORE POP PUSH1 0x0 PUSH1 0x6 DUP3 DUP2 SLOAD DUP2 LT PUSH2 0x6B9 JUMPI PUSH32 0x4E487B7100000000000000000000000000000000000000000000000000000000 PUSH1 0x0 MSTORE PUSH1 0x32 PUSH1 0x4 MSTORE PUSH1 0x24 PUSH1 0x0 REVERT JUMPDEST SWAP1 PUSH1 0x0 MSTORE PUSH1 0x20 PUSH1 0x0 KECCAK256 ADD PUSH1 0x0 ADD PUSH1 0x0 PUSH2 0x100 EXP DUP2 SLOAD DUP2 PUSH16 0xFFFFFFFFFFFFFFFFFFFFFFFFFFFFFFFF MUL NOT AND SWAP1 DUP4 PUSH16 0xFFFFFFFFFFFFFFFFFFFFFFFFFFFFFFFF AND MUL OR SWAP1 SSTORE POP JUMPDEST DUP1 DUP1 PUSH2 0x708 SWAP1 PUSH2 0xDF1 JUMP JUMPDEST SWAP2 POP POP PUSH2 0x41B JUMP JUMPDEST POP JUMP JUMPDEST PUSH1 0x0 DUP1 PUSH1 0x0 SWAP1 SLOAD SWAP1 PUSH2 0x100 EXP SWAP1 DIV PUSH20 0xFFFFFFFFFFFFFFFFFFFFFFFFFFFFFFFFFFFFFFFF AND SWAP1 POP SWAP1 JUMP JUMPDEST PUSH2 0x744 PUSH2 0x9A4 JUMP JUMPDEST CALLER PUSH20 0xFFFFFFFFFFFFFFFFFFFFFFFFFFFFFFFFFFFFFFFF AND PUSH2 0x8FC PUSH1 0x5 SLOAD SWAP1 DUP2 ISZERO MUL SWAP1 PUSH1 0x40 MLOAD PUSH1 0x0 PUSH1 0x40 MLOAD DUP1 DUP4 SUB DUP2 DUP6 DUP9 DUP9 CALL SWAP4 POP POP POP POP ISZERO DUP1 ISZERO PUSH2 0x78C JUMPI RETURNDATASIZE PUSH1 0x0 DUP1 RETURNDATACOPY RETURNDATASIZE PUSH1 0x0 REVERT JUMPDEST POP PUSH1 0x0 PUSH1 0x5 DUP2 SWAP1 SSTORE POP POP JUMP JUMPDEST PUSH1 0x2 SLOAD DUP2 JUMP JUMPDEST DUP1 PUSH16 0xFFFFFFFFFFFFFFFFFFFFFFFFFFFFFFFF AND PUSH1 0x4 PUSH1 0x0 DUP3 DUP3 SLOAD PUSH2 0x7C2 SWAP2 SWAP1 PUSH2 0xCDE JUMP JUMPDEST SWAP3 POP POP DUP2 SWAP1 SSTORE POP SELFBALANCE PUSH1 0x4 SLOAD GT PUSH2 0x8D4 JUMPI PUSH1 0x6 PUSH1 0x40 MLOAD DUP1 PUSH1 0x40 ADD PUSH1 0x40 MSTORE DUP1 DUP4 PUSH16 0xFFFFFFFFFFFFFFFFFFFFFFFFFFFFFFFF AND DUP2 MSTORE PUSH1 0x20 ADD PUSH2 0x7FF PUSH2 0x8F1 JUMP JUMPDEST PUSH16 0xFFFFFFFFFFFFFFFFFFFFFFFFFFFFFFFF AND DUP2 MSTORE POP SWAP1 DUP1 PUSH1 0x1 DUP2 SLOAD ADD DUP1 DUP3 SSTORE DUP1 SWAP2 POP POP PUSH1 0x1 SWAP1 SUB SWAP1 PUSH1 0x0 MSTORE PUSH1 0x20 PUSH1 0x0 KECCAK256 ADD PUSH1 0x0 SWAP1 SWAP2 SWAP1 SWAP2 SWAP1 SWAP2 POP PUSH1 0x0 DUP3 ADD MLOAD DUP2 PUSH1 0x0 ADD PUSH1 0x0 PUSH2 0x100 EXP DUP2 SLOAD DUP2 PUSH16 0xFFFFFFFFFFFFFFFFFFFFFFFFFFFFFFFF MUL NOT AND SWAP1 DUP4 PUSH16 0xFFFFFFFFFFFFFFFFFFFFFFFFFFFFFFFF AND MUL OR SWAP1 SSTORE POP PUSH1 0x20 DUP3 ADD MLOAD DUP2 PUSH1 0x0 ADD PUSH1 0x10 PUSH2 0x100 EXP DUP2 SLOAD DUP2 PUSH16 0xFFFFFFFFFFFFFFFFFFFFFFFFFFFFFFFF MUL NOT AND SWAP1 DUP4 PUSH16 0xFFFFFFFFFFFFFFFFFFFFFFFFFFFFFFFF AND MUL OR SWAP1 SSTORE POP POP POP PUSH1 0x1 PUSH1 0x5 PUSH1 0x0 DUP3 DUP3 SLOAD PUSH2 0x8CC SWAP2 SWAP1 PUSH2 0xCDE JUMP JUMPDEST SWAP3 POP POP DUP2 SWAP1 SSTORE POP JUMPDEST POP POP JUMP JUMPDEST PUSH1 0x5 SLOAD DUP2 JUMP JUMPDEST DUP1 PUSH1 0x3 DUP2 SWAP1 SSTORE POP POP JUMP JUMPDEST PUSH1 0x0 PUSH1 0xA SWAP1 POP SWAP1 JUMP JUMPDEST PUSH1 0x0 PUSH1 0x3 SLOAD PUSH1 0x2 SLOAD TIMESTAMP PUSH2 0x904 SWAP2 SWAP1 PUSH2 0xD65 JUMP JUMPDEST PUSH2 0x90E SWAP2 SWAP1 PUSH2 0xD34 JUMP JUMPDEST PUSH1 0x1 SLOAD PUSH2 0x91B SWAP2 SWAP1 PUSH2 0xCDE JUMP JUMPDEST SWAP1 POP SWAP1 JUMP JUMPDEST PUSH2 0x928 PUSH2 0x9A4 JUMP JUMPDEST PUSH1 0x0 PUSH20 0xFFFFFFFFFFFFFFFFFFFFFFFFFFFFFFFFFFFFFFFF AND DUP2 PUSH20 0xFFFFFFFFFFFFFFFFFFFFFFFFFFFFFFFFFFFFFFFF AND EQ ISZERO PUSH2 0x998 JUMPI PUSH1 0x40 MLOAD PUSH32 0x8C379A000000000000000000000000000000000000000000000000000000000 DUP2 MSTORE PUSH1 0x4 ADD PUSH2 0x98F SWAP1 PUSH2 0xC49 JUMP JUMPDEST PUSH1 0x40 MLOAD DUP1 SWAP2 SUB SWAP1 REVERT JUMPDEST PUSH2 0x9A1 DUP2 PUSH2 0xA22 JUMP JUMPDEST POP JUMP JUMPDEST PUSH2 0x9AC PUSH2 0xAE6 JUMP JUMPDEST PUSH20 0xFFFFFFFFFFFFFFFFFFFFFFFFFFFFFFFFFFFFFFFF AND PUSH2 0x9CA PUSH2 0x713 JUMP JUMPDEST PUSH20 0xFFFFFFFFFFFFFFFFFFFFFFFFFFFFFFFFFFFFFFFF AND EQ PUSH2 0xA20 JUMPI PUSH1 0x40 MLOAD PUSH32 0x8C379A000000000000000000000000000000000000000000000000000000000 DUP2 MSTORE PUSH1 0x4 ADD PUSH2 0xA17 SWAP1 PUSH2 0xC69 JUMP JUMPDEST PUSH1 0x40 MLOAD DUP1 SWAP2 SUB SWAP1 REVERT JUMPDEST JUMP JUMPDEST PUSH1 0x0 DUP1 PUSH1 0x0 SWAP1 SLOAD SWAP1 PUSH2 0x100 EXP SWAP1 DIV PUSH20 0xFFFFFFFFFFFFFFFFFFFFFFFFFFFFFFFFFFFFFFFF AND SWAP1 POP DUP2 PUSH1 0x0 DUP1 PUSH2 0x100 EXP DUP2 SLOAD DUP2 PUSH20 0xFFFFFFFFFFFFFFFFFFFFFFFFFFFFFFFFFFFFFFFF MUL NOT AND SWAP1 DUP4 PUSH20 0xFFFFFFFFFFFFFFFFFFFFFFFFFFFFFFFFFFFFFFFF AND MUL OR SWAP1 SSTORE POP DUP2 PUSH20 0xFFFFFFFFFFFFFFFFFFFFFFFFFFFFFFFFFFFFFFFF AND DUP2 PUSH20 0xFFFFFFFFFFFFFFFFFFFFFFFFFFFFFFFFFFFFFFFF AND PUSH32 0x8BE0079C531659141344CD1FD0A4F28419497F9722A3DAAFE3B4186F6B6457E0 PUSH1 0x40 MLOAD PUSH1 0x40 MLOAD DUP1 SWAP2 SUB SWAP1 LOG3 POP POP JUMP JUMPDEST PUSH1 0x0 CALLER SWAP1 POP SWAP1 JUMP JUMPDEST PUSH1 0x0 DUP2 CALLDATALOAD SWAP1 POP PUSH2 0xAFD DUP2 PUSH2 0xF10 JUMP JUMPDEST SWAP3 SWAP2 POP POP JUMP JUMPDEST PUSH1 0x0 DUP2 CALLDATALOAD SWAP1 POP PUSH2 0xB12 DUP2 PUSH2 0xF27 JUMP JUMPDEST SWAP3 SWAP2 POP POP JUMP JUMPDEST PUSH1 0x0 DUP2 CALLDATALOAD SWAP1 POP PUSH2 0xB27 DUP2 PUSH2 0xF3E JUMP JUMPDEST SWAP3 SWAP2 POP POP JUMP JUMPDEST PUSH1 0x0 PUSH1 0x20 DUP3 DUP5 SUB SLT ISZERO PUSH2 0xB3F JUMPI PUSH1 0x0 DUP1 REVERT JUMPDEST PUSH1 0x0 PUSH2 0xB4D DUP5 DUP3 DUP6 ADD PUSH2 0xAEE JUMP JUMPDEST SWAP2 POP POP SWAP3 SWAP2 POP POP JUMP JUMPDEST PUSH1 0x0 DUP1 PUSH1 0x40 DUP4 DUP6 SUB SLT ISZERO PUSH2 0xB69 JUMPI PUSH1 0x0 DUP1 REVERT JUMPDEST PUSH1 0x0 PUSH2 0xB77 DUP6 DUP3 DUP7 ADD PUSH2 0xAEE JUMP JUMPDEST SWAP3 POP POP PUSH1 0x20 PUSH2 0xB88 DUP6 DUP3 DUP7 ADD PUSH2 0xB03 JUMP JUMPDEST SWAP2 POP POP SWAP3 POP SWAP3 SWAP1 POP JUMP JUMPDEST PUSH1 0x0 PUSH1 0x20 DUP3 DUP5 SUB SLT ISZERO PUSH2 0xBA4 JUMPI PUSH1 0x0 DUP1 REVERT JUMPDEST PUSH1 0x0 PUSH2 0xBB2 DUP5 DUP3 DUP6 ADD PUSH2 0xB18 JUMP JUMPDEST SWAP2 POP POP SWAP3 SWAP2 POP POP JUMP JUMPDEST PUSH2 0xBC4 DUP2 PUSH2 0xD99 JUMP JUMPDEST DUP3 MSTORE POP POP JUMP JUMPDEST PUSH1 0x0 PUSH2 0xBD7 PUSH1 0x26 DUP4 PUSH2 0xCCD JUMP JUMPDEST SWAP2 POP PUSH2 0xBE2 DUP3 PUSH2 0xE98 JUMP JUMPDEST PUSH1 0x40 DUP3 ADD SWAP1 POP SWAP2 SWAP1 POP JUMP JUMPDEST PUSH1 0x0 PUSH2 0xBFA PUSH1 0x20 DUP4 PUSH2 0xCCD JUMP JUMPDEST SWAP2 POP PUSH2 0xC05 DUP3 PUSH2 0xEE7 JUMP JUMPDEST PUSH1 0x20 DUP3 ADD SWAP1 POP SWAP2 SWAP1 POP JUMP JUMPDEST PUSH2 0xC19 DUP2 PUSH2 0xDAB JUMP JUMPDEST DUP3 MSTORE POP POP JUMP JUMPDEST PUSH2 0xC28 DUP2 PUSH2 0xDE7 JUMP JUMPDEST DUP3 MSTORE POP POP JUMP JUMPDEST PUSH1 0x0 PUSH1 0x20 DUP3 ADD SWAP1 POP PUSH2 0xC43 PUSH1 0x0 DUP4 ADD DUP5 PUSH2 0xBBB JUMP JUMPDEST SWAP3 SWAP2 POP POP JUMP JUMPDEST PUSH1 0x0 PUSH1 0x20 DUP3 ADD SWAP1 POP DUP2 DUP2 SUB PUSH1 0x0 DUP4 ADD MSTORE PUSH2 0xC62 DUP2 PUSH2 0xBCA JUMP JUMPDEST SWAP1 POP SWAP2 SWAP1 POP JUMP JUMPDEST PUSH1 0x0 PUSH1 0x20 DUP3 ADD SWAP1 POP DUP2 DUP2 SUB PUSH1 0x0 DUP4 ADD MSTORE PUSH2 0xC82 DUP2 PUSH2 0xBED JUMP JUMPDEST SWAP1 POP SWAP2 SWAP1 POP JUMP JUMPDEST PUSH1 0x0 PUSH1 0x40 DUP3 ADD SWAP1 POP PUSH2 0xC9E PUSH1 0x0 DUP4 ADD DUP6 PUSH2 0xC10 JUMP JUMPDEST PUSH2 0xCAB PUSH1 0x20 DUP4 ADD DUP5 PUSH2 0xC10 JUMP JUMPDEST SWAP4 SWAP3 POP POP POP JUMP JUMPDEST PUSH1 0x0 PUSH1 0x20 DUP3 ADD SWAP1 POP PUSH2 0xCC7 PUSH1 0x0 DUP4 ADD DUP5 PUSH2 0xC1F JUMP JUMPDEST SWAP3 SWAP2 POP POP JUMP JUMPDEST PUSH1 0x0 DUP3 DUP3 MSTORE PUSH1 0x20 DUP3 ADD SWAP1 POP SWAP3 SWAP2 POP POP JUMP JUMPDEST PUSH1 0x0 PUSH2 0xCE9 DUP3 PUSH2 0xDE7 JUMP JUMPDEST SWAP2 POP PUSH2 0xCF4 DUP4 PUSH2 0xDE7 JUMP JUMPDEST SWAP3 POP DUP3 PUSH32 0xFFFFFFFFFFFFFFFFFFFFFFFFFFFFFFFFFFFFFFFFFFFFFFFFFFFFFFFFFFFFFFFF SUB DUP3 GT ISZERO PUSH2 0xD29 JUMPI PUSH2 0xD28 PUSH2 0xE3A JUMP JUMPDEST JUMPDEST DUP3 DUP3 ADD SWAP1 POP SWAP3 SWAP2 POP POP JUMP JUMPDEST PUSH1 0x0 PUSH2 0xD3F DUP3 PUSH2 0xDE7 JUMP JUMPDEST SWAP2 POP PUSH2 0xD4A DUP4 PUSH2 0xDE7 JUMP JUMPDEST SWAP3 POP DUP3 PUSH2 0xD5A JUMPI PUSH2 0xD59 PUSH2 0xE69 JUMP JUMPDEST JUMPDEST DUP3 DUP3 DIV SWAP1 POP SWAP3 SWAP2 POP POP JUMP JUMPDEST PUSH1 0x0 PUSH2 0xD70 DUP3 PUSH2 0xDE7 JUMP JUMPDEST SWAP2 POP PUSH2 0xD7B DUP4 PUSH2 0xDE7 JUMP JUMPDEST SWAP3 POP DUP3 DUP3 LT ISZERO PUSH2 0xD8E JUMPI PUSH2 0xD8D PUSH2 0xE3A JUMP JUMPDEST JUMPDEST DUP3 DUP3 SUB SWAP1 POP SWAP3 SWAP2 POP POP JUMP JUMPDEST PUSH1 0x0 PUSH2 0xDA4 DUP3 PUSH2 0xDC7 JUMP JUMPDEST SWAP1 POP SWAP2 SWAP1 POP JUMP JUMPDEST PUSH1 0x0 PUSH16 0xFFFFFFFFFFFFFFFFFFFFFFFFFFFFFFFF DUP3 AND SWAP1 POP SWAP2 SWAP1 POP JUMP JUMPDEST PUSH1 0x0 PUSH20 0xFFFFFFFFFFFFFFFFFFFFFFFFFFFFFFFFFFFFFFFF DUP3 AND SWAP1 POP SWAP2 SWAP1 POP JUMP JUMPDEST PUSH1 0x0 DUP2 SWAP1 POP SWAP2 SWAP1 POP JUMP JUMPDEST PUSH1 0x0 PUSH2 0xDFC DUP3 PUSH2 0xDE7 JUMP JUMPDEST SWAP2 POP PUSH32 0xFFFFFFFFFFFFFFFFFFFFFFFFFFFFFFFFFFFFFFFFFFFFFFFFFFFFFFFFFFFFFFFF DUP3 EQ ISZERO PUSH2 0xE2F JUMPI PUSH2 0xE2E PUSH2 0xE3A JUMP JUMPDEST JUMPDEST PUSH1 0x1 DUP3 ADD SWAP1 POP SWAP2 SWAP1 POP JUMP JUMPDEST PUSH32 0x4E487B7100000000000000000000000000000000000000000000000000000000 PUSH1 0x0 MSTORE PUSH1 0x11 PUSH1 0x4 MSTORE PUSH1 0x24 PUSH1 0x0 REVERT JUMPDEST PUSH32 0x4E487B7100000000000000000000000000000000000000000000000000000000 PUSH1 0x0 MSTORE PUSH1 0x12 PUSH1 0x4 MSTORE PUSH1 0x24 PUSH1 0x0 REVERT JUMPDEST PUSH32 0x4F776E61626C653A206E6577206F776E657220697320746865207A65726F2061 PUSH1 0x0 DUP3 ADD MSTORE PUSH32 0x6464726573730000000000000000000000000000000000000000000000000000 PUSH1 0x20 DUP3 ADD MSTORE POP JUMP JUMPDEST PUSH32 0x4F776E61626C653A2063616C6C6572206973206E6F7420746865206F776E6572 PUSH1 0x0 DUP3 ADD MSTORE POP JUMP JUMPDEST PUSH2 0xF19 DUP2 PUSH2 0xD99 JUMP JUMPDEST DUP2 EQ PUSH2 0xF24 JUMPI PUSH1 0x0 DUP1 REVERT JUMPDEST POP JUMP JUMPDEST PUSH2 0xF30 DUP2 PUSH2 0xDAB JUMP JUMPDEST DUP2 EQ PUSH2 0xF3B JUMPI PUSH1 0x0 DUP1 REVERT JUMPDEST POP JUMP JUMPDEST PUSH2 0xF47 DUP2 PUSH2 0xDE7 JUMP JUMPDEST DUP2 EQ PUSH2 0xF52 JUMPI PUSH1 0x0 DUP1 REVERT JUMPDEST POP JUMP INVALID LOG2 PUSH5 0x6970667358 0x22 SLT KECCAK256 0xB6 0xF9 COINBASE SWAP2 EQ 0x24 EXTCODEHASH 0x22 0x23 SIGNEXTEND DUP12 0x4E PUSH4 0xBA72CFC0 SELFBALANCE COINBASE 0x2B SSTORE MSTORE8 SLT SELFBALANCE PUSH29 0x3E748C17F1C40D64736F6C634300080400330000000000000000000000 "
				},
				"gasEstimates": {
					"creation": {
						"codeDepositCost": "795800",
						"executionCost": "infinite",
						"totalCost": "infinite"
					},
					"external": {
						"bond_and_stake(address,uint128)": "700",
						"claim_staker(address)": "infinite",
						"era()": "1175",
						"eraDuration()": "1197",
						"owner()": "1311",
						"read_current_era()": "infinite",
						"read_unbonding_period()": "381",
						"renounceOwnership()": "24421",
						"setEraDuration(uint256)": "20442",
						"stakerRewards()": "1218",
						"start()": "1174",
						"transferOwnership(address)": "24835",
						"unbond_and_unstake(address,uint128)": "infinite",
						"unstakes(uint256)": "infinite",
						"unstakesSum()": "1153",
						"withdraw_unbonded()": "infinite"
					}
				},
				"methodIdentifiers": {
					"bond_and_stake(address,uint128)": "52b73e41",
					"claim_staker(address)": "a0b9d8be",
					"era()": "143e55e0",
					"eraDuration()": "4455a38f",
					"owner()": "8da5cb5b",
					"read_current_era()": "e608d80b",
					"read_unbonding_period()": "db62b201",
					"renounceOwnership()": "715018a6",
					"setEraDuration(uint256)": "d97c94ac",
					"stakerRewards()": "cfb9cfba",
					"start()": "be9a6555",
					"transferOwnership(address)": "f2fde38b",
					"unbond_and_unstake(address,uint128)": "c7841dd2",
					"unstakes(uint256)": "77441b70",
					"unstakesSum()": "0027d970",
					"withdraw_unbonded()": "77a0fe02"
				}
			},
			"storageLayout": {
				"storage": [
					{
						"astId": 7,
						"contract": "src/DappsStakingMock.sol:DappsStakingMock",
						"label": "_owner",
						"offset": 0,
						"slot": "0",
						"type": "t_address"
					},
					{
						"astId": 143,
						"contract": "src/DappsStakingMock.sol:DappsStakingMock",
						"label": "era",
						"offset": 0,
						"slot": "1",
						"type": "t_uint256"
					},
					{
						"astId": 145,
						"contract": "src/DappsStakingMock.sol:DappsStakingMock",
						"label": "start",
						"offset": 0,
						"slot": "2",
						"type": "t_uint256"
					},
					{
						"astId": 148,
						"contract": "src/DappsStakingMock.sol:DappsStakingMock",
						"label": "eraDuration",
						"offset": 0,
						"slot": "3",
						"type": "t_uint256"
					},
					{
						"astId": 150,
						"contract": "src/DappsStakingMock.sol:DappsStakingMock",
						"label": "unstakesSum",
						"offset": 0,
						"slot": "4",
						"type": "t_uint256"
					},
					{
						"astId": 152,
						"contract": "src/DappsStakingMock.sol:DappsStakingMock",
						"label": "stakerRewards",
						"offset": 0,
						"slot": "5",
						"type": "t_uint256"
					},
					{
						"astId": 161,
						"contract": "src/DappsStakingMock.sol:DappsStakingMock",
						"label": "unstakes",
						"offset": 0,
						"slot": "6",
						"type": "t_array(t_struct(Unstake)157_storage)dyn_storage"
					}
				],
				"types": {
					"t_address": {
						"encoding": "inplace",
						"label": "address",
						"numberOfBytes": "20"
					},
					"t_array(t_struct(Unstake)157_storage)dyn_storage": {
						"base": "t_struct(Unstake)157_storage",
						"encoding": "dynamic_array",
						"label": "struct DappsStakingMock.Unstake[]",
						"numberOfBytes": "32"
					},
					"t_struct(Unstake)157_storage": {
						"encoding": "inplace",
						"label": "struct DappsStakingMock.Unstake",
						"members": [
							{
								"astId": 154,
								"contract": "src/DappsStakingMock.sol:DappsStakingMock",
								"label": "amount",
								"offset": 0,
								"slot": "0",
								"type": "t_uint128"
							},
							{
								"astId": 156,
								"contract": "src/DappsStakingMock.sol:DappsStakingMock",
								"label": "startEra",
								"offset": 16,
								"slot": "0",
								"type": "t_uint128"
							}
						],
						"numberOfBytes": "32"
					},
					"t_uint128": {
						"encoding": "inplace",
						"label": "uint128",
						"numberOfBytes": "16"
					},
					"t_uint256": {
						"encoding": "inplace",
						"label": "uint256",
						"numberOfBytes": "32"
					}
				}
			},
			"userdoc": {
				"kind": "user",
				"methods": {
					"bond_and_stake(address,uint128)": {
						"notice": "Stake provided amount on the contract."
					},
					"claim_staker(address)": {
						"notice": "Claim one era of unclaimed staker rewards for the specifeid contract.         Staker account is derived from the caller address."
					},
					"read_current_era()": {
						"notice": "Read current era."
					},
					"read_unbonding_period()": {
						"notice": "Read unbonding period constant."
					},
					"unbond_and_unstake(address,uint128)": {
						"notice": "Start unbonding process and unstake balance from the contract."
					},
					"withdraw_unbonded()": {
						"notice": "Withdraw all funds that have completed the unbonding process."
					}
				},
				"version": 1
			}
		}
	}
}