{
	"src/libraries/ReserveConfiguration.sol": {
		"ReserveConfiguration": {
			"abi": [
				{
					"inputs": [],
					"name": "DEBT_CEILING_DECIMALS",
					"outputs": [
						{
							"internalType": "uint256",
							"name": "",
							"type": "uint256"
						}
					],
					"stateMutability": "view",
					"type": "function"
				},
				{
					"inputs": [],
					"name": "MAX_RESERVES_COUNT",
					"outputs": [
						{
							"internalType": "uint16",
							"name": "",
							"type": "uint16"
						}
					],
					"stateMutability": "view",
					"type": "function"
				}
			],
			"devdoc": {
				"author": "Aave",
				"kind": "dev",
				"methods": {},
				"stateVariables": {
					"LIQUIDATION_THRESHOLD_START_BIT_POSITION": {
						"details": "For the LTV, the start bit is 0 (up to 15), hence no bitshifting is needed"
					},
					"RESERVE_FACTOR_START_BIT_POSITION": {
						"details": "bit 63 reserved"
					}
				},
				"title": "ReserveConfiguration library",
				"version": 1
			},
			"evm": {
				"assembly": "    /* \"src/libraries/ReserveConfiguration.sol\":199:22766  library ReserveConfiguration {... */\n  dataSize(sub_0)\n  dataOffset(sub_0)\n  0x0b\n  dup3\n  dup3\n  dup3\n  codecopy\n  dup1\n  mload\n  0x00\n  byte\n  0x73\n  eq\n  tag_1\n  jumpi\n  mstore(0x00, 0x4e487b7100000000000000000000000000000000000000000000000000000000)\n  mstore(0x04, 0x00)\n  revert(0x00, 0x24)\ntag_1:\n  mstore(0x00, address)\n  0x73\n  dup2\n  mstore8\n  dup3\n  dup2\n  return\nstop\n\nsub_0: assembly {\n        /* \"src/libraries/ReserveConfiguration.sol\":199:22766  library ReserveConfiguration {... */\n      eq(address, deployTimeAddress())\n      mstore(0x40, 0x80)\n      jumpi(tag_1, lt(calldatasize, 0x04))\n      shr(0xe0, calldataload(0x00))\n      dup1\n      0x280d5de9\n      eq\n      tag_2\n      jumpi\n      dup1\n      0x31b561ba\n      eq\n      tag_3\n      jumpi\n    tag_1:\n      0x00\n      dup1\n      revert\n        /* \"src/libraries/ReserveConfiguration.sol\":4898:4947  uint256 public constant DEBT_CEILING_DECIMALS = 2 */\n    tag_2:\n      tag_4\n      tag_5\n      jump\t// in\n    tag_4:\n      mload(0x40)\n      tag_6\n      swap2\n      swap1\n      tag_7\n      jump\t// in\n    tag_6:\n      mload(0x40)\n      dup1\n      swap2\n      sub\n      swap1\n      return\n        /* \"src/libraries/ReserveConfiguration.sol\":4951:4998  uint16 public constant MAX_RESERVES_COUNT = 128 */\n    tag_3:\n      tag_8\n      tag_9\n      jump\t// in\n    tag_8:\n      mload(0x40)\n      tag_10\n      swap2\n      swap1\n      tag_11\n      jump\t// in\n    tag_10:\n      mload(0x40)\n      dup1\n      swap2\n      sub\n      swap1\n      return\n        /* \"src/libraries/ReserveConfiguration.sol\":4898:4947  uint256 public constant DEBT_CEILING_DECIMALS = 2 */\n    tag_5:\n        /* \"src/libraries/ReserveConfiguration.sol\":4946:4947  2 */\n      0x02\n        /* \"src/libraries/ReserveConfiguration.sol\":4898:4947  uint256 public constant DEBT_CEILING_DECIMALS = 2 */\n      dup2\n      jump\t// out\n        /* \"src/libraries/ReserveConfiguration.sol\":4951:4998  uint16 public constant MAX_RESERVES_COUNT = 128 */\n    tag_9:\n        /* \"src/libraries/ReserveConfiguration.sol\":4995:4998  128 */\n      0x80\n        /* \"src/libraries/ReserveConfiguration.sol\":4951:4998  uint16 public constant MAX_RESERVES_COUNT = 128 */\n      dup2\n      jump\t// out\n        /* \"#utility.yul\":7:130   */\n    tag_13:\n        /* \"#utility.yul\":100:123   */\n      tag_15\n        /* \"#utility.yul\":117:122   */\n      dup2\n        /* \"#utility.yul\":100:123   */\n      tag_16\n      jump\t// in\n    tag_15:\n        /* \"#utility.yul\":95:98   */\n      dup3\n        /* \"#utility.yul\":88:124   */\n      mstore\n        /* \"#utility.yul\":78:130   */\n      pop\n      pop\n      jump\t// out\n        /* \"#utility.yul\":136:262   */\n    tag_17:\n        /* \"#utility.yul\":231:255   */\n      tag_19\n        /* \"#utility.yul\":249:254   */\n      dup2\n        /* \"#utility.yul\":231:255   */\n      tag_20\n      jump\t// in\n    tag_19:\n        /* \"#utility.yul\":226:229   */\n      dup3\n        /* \"#utility.yul\":219:256   */\n      mstore\n        /* \"#utility.yul\":209:262   */\n      pop\n      pop\n      jump\t// out\n        /* \"#utility.yul\":268:502   */\n    tag_11:\n        /* \"#utility.yul\":367:371   */\n      0x00\n        /* \"#utility.yul\":405:407   */\n      0x20\n        /* \"#utility.yul\":394:403   */\n      dup3\n        /* \"#utility.yul\":390:408   */\n      add\n        /* \"#utility.yul\":382:408   */\n      swap1\n      pop\n        /* \"#utility.yul\":418:495   */\n      tag_22\n        /* \"#utility.yul\":492:493   */\n      0x00\n        /* \"#utility.yul\":481:490   */\n      dup4\n        /* \"#utility.yul\":477:494   */\n      add\n        /* \"#utility.yul\":468:474   */\n      dup5\n        /* \"#utility.yul\":418:495   */\n      tag_13\n      jump\t// in\n    tag_22:\n        /* \"#utility.yul\":372:502   */\n      swap3\n      swap2\n      pop\n      pop\n      jump\t// out\n        /* \"#utility.yul\":508:746   */\n    tag_7:\n        /* \"#utility.yul\":609:613   */\n      0x00\n        /* \"#utility.yul\":647:649   */\n      0x20\n        /* \"#utility.yul\":636:645   */\n      dup3\n        /* \"#utility.yul\":632:650   */\n      add\n        /* \"#utility.yul\":624:650   */\n      swap1\n      pop\n        /* \"#utility.yul\":660:739   */\n      tag_24\n        /* \"#utility.yul\":736:737   */\n      0x00\n        /* \"#utility.yul\":725:734   */\n      dup4\n        /* \"#utility.yul\":721:738   */\n      add\n        /* \"#utility.yul\":712:718   */\n      dup5\n        /* \"#utility.yul\":660:739   */\n      tag_17\n      jump\t// in\n    tag_24:\n        /* \"#utility.yul\":614:746   */\n      swap3\n      swap2\n      pop\n      pop\n      jump\t// out\n        /* \"#utility.yul\":752:841   */\n    tag_16:\n        /* \"#utility.yul\":788:795   */\n      0x00\n        /* \"#utility.yul\":828:834   */\n      0xffff\n        /* \"#utility.yul\":821:826   */\n      dup3\n        /* \"#utility.yul\":817:835   */\n      and\n        /* \"#utility.yul\":806:835   */\n      swap1\n      pop\n        /* \"#utility.yul\":796:841   */\n      swap2\n      swap1\n      pop\n      jump\t// out\n        /* \"#utility.yul\":847:924   */\n    tag_20:\n        /* \"#utility.yul\":884:891   */\n      0x00\n        /* \"#utility.yul\":913:918   */\n      dup2\n        /* \"#utility.yul\":902:918   */\n      swap1\n      pop\n        /* \"#utility.yul\":892:924   */\n      swap2\n      swap1\n      pop\n      jump\t// out\n\n    auxdata: 0xa2646970667358221220c0009b4d522e5919f73c0d4ebc428dfea746ad8610ba22ebf744bc021212365364736f6c63430008040033\n}\n",
				"bytecode": {
					"linkReferences": {},
					"object": "61011a610053600b82828239805160001a607314610046577f4e487b7100000000000000000000000000000000000000000000000000000000600052600060045260246000fd5b30600052607381538281f3fe7300000000000000000000000000000000000000003014608060405260043610603d5760003560e01c8063280d5de914604257806331b561ba14605c575b600080fd5b60486076565b6040516053919060b3565b60405180910390f35b6062607b565b604051606d9190609a565b60405180910390f35b600281565b608081565b60878160cc565b82525050565b60948160da565b82525050565b600060208201905060ad60008301846080565b92915050565b600060208201905060c66000830184608d565b92915050565b600061ffff82169050919050565b600081905091905056fea2646970667358221220c0009b4d522e5919f73c0d4ebc428dfea746ad8610ba22ebf744bc021212365364736f6c63430008040033",
					"opcodes": "PUSH2 0x11A PUSH2 0x53 PUSH1 0xB DUP3 DUP3 DUP3 CODECOPY DUP1 MLOAD PUSH1 0x0 BYTE PUSH1 0x73 EQ PUSH2 0x46 JUMPI PUSH32 0x4E487B7100000000000000000000000000000000000000000000000000000000 PUSH1 0x0 MSTORE PUSH1 0x0 PUSH1 0x4 MSTORE PUSH1 0x24 PUSH1 0x0 REVERT JUMPDEST ADDRESS PUSH1 0x0 MSTORE PUSH1 0x73 DUP2 MSTORE8 DUP3 DUP2 RETURN INVALID PUSH20 0x0 ADDRESS EQ PUSH1 0x80 PUSH1 0x40 MSTORE PUSH1 0x4 CALLDATASIZE LT PUSH1 0x3D JUMPI PUSH1 0x0 CALLDATALOAD PUSH1 0xE0 SHR DUP1 PUSH4 0x280D5DE9 EQ PUSH1 0x42 JUMPI DUP1 PUSH4 0x31B561BA EQ PUSH1 0x5C JUMPI JUMPDEST PUSH1 0x0 DUP1 REVERT JUMPDEST PUSH1 0x48 PUSH1 0x76 JUMP JUMPDEST PUSH1 0x40 MLOAD PUSH1 0x53 SWAP2 SWAP1 PUSH1 0xB3 JUMP JUMPDEST PUSH1 0x40 MLOAD DUP1 SWAP2 SUB SWAP1 RETURN JUMPDEST PUSH1 0x62 PUSH1 0x7B JUMP JUMPDEST PUSH1 0x40 MLOAD PUSH1 0x6D SWAP2 SWAP1 PUSH1 0x9A JUMP JUMPDEST PUSH1 0x40 MLOAD DUP1 SWAP2 SUB SWAP1 RETURN JUMPDEST PUSH1 0x2 DUP2 JUMP JUMPDEST PUSH1 0x80 DUP2 JUMP JUMPDEST PUSH1 0x87 DUP2 PUSH1 0xCC JUMP JUMPDEST DUP3 MSTORE POP POP JUMP JUMPDEST PUSH1 0x94 DUP2 PUSH1 0xDA JUMP JUMPDEST DUP3 MSTORE POP POP JUMP JUMPDEST PUSH1 0x0 PUSH1 0x20 DUP3 ADD SWAP1 POP PUSH1 0xAD PUSH1 0x0 DUP4 ADD DUP5 PUSH1 0x80 JUMP JUMPDEST SWAP3 SWAP2 POP POP JUMP JUMPDEST PUSH1 0x0 PUSH1 0x20 DUP3 ADD SWAP1 POP PUSH1 0xC6 PUSH1 0x0 DUP4 ADD DUP5 PUSH1 0x8D JUMP JUMPDEST SWAP3 SWAP2 POP POP JUMP JUMPDEST PUSH1 0x0 PUSH2 0xFFFF DUP3 AND SWAP1 POP SWAP2 SWAP1 POP JUMP JUMPDEST PUSH1 0x0 DUP2 SWAP1 POP SWAP2 SWAP1 POP JUMP INVALID LOG2 PUSH5 0x6970667358 0x22 SLT KECCAK256 0xC0 STOP SWAP12 0x4D MSTORE 0x2E MSIZE NOT 0xF7 EXTCODECOPY 0xD 0x4E 0xBC TIMESTAMP DUP14 INVALID 0xA7 CHAINID 0xAD DUP7 LT 0xBA 0x22 0xEB 0xF7 DIFFICULTY 0xBC MUL SLT SLT CALLDATASIZE MSTORE8 PUSH5 0x736F6C6343 STOP ADDMOD DIV STOP CALLER "
				},
				"gasEstimates": {
					"creation": {
						"codeDepositCost": "56400",
						"executionCost": "133",
						"totalCost": "56533"
					},
					"external": {
						"DEBT_CEILING_DECIMALS()": "291",
						"MAX_RESERVES_COUNT()": "319"
					},
					"internal": {
						"getActive(struct DataTypes.ReserveConfigurationMap memory)": "infinite",
						"getBorrowCap(struct DataTypes.ReserveConfigurationMap memory)": "infinite",
						"getBorrowableInIsolation(struct DataTypes.ReserveConfigurationMap memory)": "infinite",
						"getBorrowingEnabled(struct DataTypes.ReserveConfigurationMap memory)": "infinite",
						"getCaps(struct DataTypes.ReserveConfigurationMap memory)": "infinite",
						"getDebtCeiling(struct DataTypes.ReserveConfigurationMap memory)": "infinite",
						"getDecimals(struct DataTypes.ReserveConfigurationMap memory)": "infinite",
						"getEModeCategory(struct DataTypes.ReserveConfigurationMap memory)": "infinite",
						"getFlags(struct DataTypes.ReserveConfigurationMap memory)": "infinite",
						"getFrozen(struct DataTypes.ReserveConfigurationMap memory)": "infinite",
						"getLiquidationBonus(struct DataTypes.ReserveConfigurationMap memory)": "infinite",
						"getLiquidationProtocolFee(struct DataTypes.ReserveConfigurationMap memory)": "infinite",
						"getLiquidationThreshold(struct DataTypes.ReserveConfigurationMap memory)": "infinite",
						"getLtv(struct DataTypes.ReserveConfigurationMap memory)": "infinite",
						"getParams(struct DataTypes.ReserveConfigurationMap memory)": "infinite",
						"getPaused(struct DataTypes.ReserveConfigurationMap memory)": "infinite",
						"getReserveFactor(struct DataTypes.ReserveConfigurationMap memory)": "infinite",
						"getSiloedBorrowing(struct DataTypes.ReserveConfigurationMap memory)": "infinite",
						"getStableRateBorrowingEnabled(struct DataTypes.ReserveConfigurationMap memory)": "infinite",
						"getSupplyCap(struct DataTypes.ReserveConfigurationMap memory)": "infinite",
						"getUnbackedMintCap(struct DataTypes.ReserveConfigurationMap memory)": "infinite",
						"setActive(struct DataTypes.ReserveConfigurationMap memory,bool)": "infinite",
						"setBorrowCap(struct DataTypes.ReserveConfigurationMap memory,uint256)": "infinite",
						"setBorrowableInIsolation(struct DataTypes.ReserveConfigurationMap memory,bool)": "infinite",
						"setBorrowingEnabled(struct DataTypes.ReserveConfigurationMap memory,bool)": "infinite",
						"setDebtCeiling(struct DataTypes.ReserveConfigurationMap memory,uint256)": "infinite",
						"setDecimals(struct DataTypes.ReserveConfigurationMap memory,uint256)": "infinite",
						"setEModeCategory(struct DataTypes.ReserveConfigurationMap memory,uint256)": "infinite",
						"setFrozen(struct DataTypes.ReserveConfigurationMap memory,bool)": "infinite",
						"setLiquidationBonus(struct DataTypes.ReserveConfigurationMap memory,uint256)": "infinite",
						"setLiquidationProtocolFee(struct DataTypes.ReserveConfigurationMap memory,uint256)": "infinite",
						"setLiquidationThreshold(struct DataTypes.ReserveConfigurationMap memory,uint256)": "infinite",
						"setLtv(struct DataTypes.ReserveConfigurationMap memory,uint256)": "infinite",
						"setPaused(struct DataTypes.ReserveConfigurationMap memory,bool)": "infinite",
						"setReserveFactor(struct DataTypes.ReserveConfigurationMap memory,uint256)": "infinite",
						"setSiloedBorrowing(struct DataTypes.ReserveConfigurationMap memory,bool)": "infinite",
						"setStableRateBorrowingEnabled(struct DataTypes.ReserveConfigurationMap memory,bool)": "infinite",
						"setSupplyCap(struct DataTypes.ReserveConfigurationMap memory,uint256)": "infinite",
						"setUnbackedMintCap(struct DataTypes.ReserveConfigurationMap memory,uint256)": "infinite"
					}
				},
				"methodIdentifiers": {
					"DEBT_CEILING_DECIMALS()": "280d5de9",
					"MAX_RESERVES_COUNT()": "31b561ba"
				}
			},
			"storageLayout": {
				"storage": [],
				"types": null
			},
			"userdoc": {
				"kind": "user",
				"methods": {},
				"notice": "Implements the bitmap logic to handle the reserve configuration",
				"version": 1
			}
		}
	}
}