{
	"data": {
		"bytecode": {
			"linkReferences": {},
			"object": "608060405268056bc75e2d63100000609b556a52b7d2dcc80cd2e4000000609c556a0211654585005212800000609d5534801561003b57600080fd5b50616091806200004c6000396000f3fe60806040526004361061039a5760003560e01c806379c65068116101dc578063c803e58a11610102578063e3e969ab116100a0578063f2fde38b1161006f578063f2fde38b14610caa578063f6a3f3cf14610cd3578063f829340314610d10578063fd5e6dd114610d3b576103a1565b8063e3e969ab14610c02578063e5c1f21114610c3f578063ea87e3ff14610c68578063eef0974014610c7f576103a1565b8063d31dbab6116100dc578063d31dbab614610b6a578063d40dc87014610b95578063d77355c414610bc0578063ddbcb5fa14610bd7576103a1565b8063c803e58a14610b01578063d1a32c3914610b2a578063d1df306c14610b41576103a1565b8063973628f61161017a578063a6d953b711610149578063a6d953b714610a4f578063bfb9ba0c14610a7a578063c4b0290814610aa5578063c71367b514610ad6576103a1565b8063973628f61461097f5780639db29340146109aa5780639fdb8c93146109e7578063a25b7e4914610a24576103a1565b8063817b1cd2116101b6578063817b1cd2146108d55780638da5cb5b146109005780638f6db5fa1461092b57806393ef357a14610954576103a1565b806379c65068146108565780638037ecd31461087f57806380bb74e8146108aa576103a1565b806342debbab116102c1578063597e1fb51161025f5780636adb930c1161022e5780636adb930c146107c05780636f1e8533146107d7578063715018a61461081457806377734a661461082b576103a1565b8063597e1fb514610718578063620cc15c1461074357806368b0216e1461078057806369d3bcc214610797576103a1565b806346f45b8d1161029b57806346f45b8d146106a3578063478c4e0e146106bf57806353d64ee0146106d65780635495ec81146106ed576103a1565b806342debbab1461062457806343352d611461064d57806344c63eec14610678576103a1565b80632def662011610339578063372500ab11610308578063372500ab146105875780633a4b66f11461059e5780633d8ab5b1146105a8578063422b1077146105e5576103a1565b80632def6620146104df5780632e1a7d4d146104f65780632e4157021461051f578063342944471461054a576103a1565b80632245668211610375578063224566821461043757806324025b191461046057806326b321d11461048b5780632941bc29146104b4576103a1565b8062179fbd146103a65780631459457a146103d157806316934fc4146103fa576103a1565b366103a157005b600080fd5b3480156103b257600080fd5b506103bb610d78565b6040516103c89190615442565b60405180910390f35b3480156103dd57600080fd5b506103f860048036038101906103f391906146d8565b610d7e565b005b34801561040657600080fd5b50610421600480360381019061041c9190614621565b6111df565b60405161042e9190615442565b60405180910390f35b34801561044357600080fd5b5061045e60048036038101906104599190614790565b6111f7565b005b34801561046c57600080fd5b50610475611209565b6040516104829190615442565b60405180910390f35b34801561049757600080fd5b506104b260048036038101906104ad9190614790565b61120f565b005b3480156104c057600080fd5b506104c9611224565b6040516104d69190615442565b60405180910390f35b3480156104eb57600080fd5b506104f461122a565b005b34801561050257600080fd5b5061051d60048036038101906105189190614790565b61171e565b005b34801561052b57600080fd5b5061053461197a565b60405161054191906150af565b60405180910390f35b34801561055657600080fd5b50610571600480360381019061056c9190614621565b6119a0565b60405161057e9190615100565b60405180910390f35b34801561059357600080fd5b5061059c611a40565b005b6105a6611c84565b005b3480156105b457600080fd5b506105cf60048036038101906105ca919061474f565b611cee565b6040516105dc9190614f1c565b60405180910390f35b3480156105f157600080fd5b5061060c6004803603810190610607919061464a565b611d37565b60405161061b9392919061545d565b60405180910390f35b34801561063057600080fd5b5061064b60048036038101906106469190614790565b611d7e565b005b34801561065957600080fd5b50610662611dd4565b60405161066f9190614ff8565b60405180910390f35b34801561068457600080fd5b5061068d611e62565b60405161069a9190615079565b60405180910390f35b6106bd60048036038101906106b8919061474f565b611e88565b005b3480156106cb57600080fd5b506106d4612488565b005b3480156106e257600080fd5b506106eb612776565b005b3480156106f957600080fd5b50610702612807565b60405161070f9190615442565b60405180910390f35b34801561072457600080fd5b5061072d61280d565b60405161073a919061501a565b60405180910390f35b34801561074f57600080fd5b5061076a60048036038101906107659190614621565b612820565b604051610777919061501a565b60405180910390f35b34801561078c57600080fd5b50610795612840565b005b3480156107a357600080fd5b506107be60048036038101906107b99190614621565b612920565b005b3480156107cc57600080fd5b506107d561296c565b005b3480156107e357600080fd5b506107fe60048036038101906107f99190614621565b612ade565b60405161080b919061501a565b60405180910390f35b34801561082057600080fd5b50610829612afe565b005b34801561083757600080fd5b50610840612b12565b60405161084d91906150af565b60405180910390f35b34801561086257600080fd5b5061087d6004803603810190610878919061464a565b612b38565b005b34801561088b57600080fd5b50610894612bf4565b6040516108a19190615442565b60405180910390f35b3480156108b657600080fd5b506108bf612bfa565b6040516108cc9190615100565b60405180910390f35b3480156108e157600080fd5b506108ea612e31565b6040516108f79190615442565b60405180910390f35b34801561090c57600080fd5b50610915612e37565b6040516109229190614f1c565b60405180910390f35b34801561093757600080fd5b50610952600480360381019061094d919061481e565b612e61565b005b34801561096057600080fd5b50610969612eb5565b6040516109769190615442565b60405180910390f35b34801561098b57600080fd5b50610994612ebb565b6040516109a19190615442565b60405180910390f35b3480156109b657600080fd5b506109d160048036038101906109cc9190614621565b612f62565b6040516109de9190615442565b60405180910390f35b3480156109f357600080fd5b50610a0e6004803603810190610a099190614621565b61306d565b604051610a1b9190615442565b60405180910390f35b348015610a3057600080fd5b50610a39613085565b604051610a469190615442565b60405180910390f35b348015610a5b57600080fd5b50610a6461308b565b604051610a719190614f1c565b60405180910390f35b348015610a8657600080fd5b50610a8f6130b1565b604051610a9c9190615442565b60405180910390f35b348015610ab157600080fd5b50610aba6130b7565b604051610acd9796959493929190614f89565b60405180910390f35b348015610ae257600080fd5b50610aeb613114565b604051610af89190615442565b60405180910390f35b348015610b0d57600080fd5b50610b286004803603810190610b2391906147e2565b61311a565b005b348015610b3657600080fd5b50610b3f613134565b005b348015610b4d57600080fd5b50610b686004803603810190610b63919061464a565b613168565b005b348015610b7657600080fd5b50610b7f613224565b604051610b8c9190615442565b60405180910390f35b348015610ba157600080fd5b50610baa6132d0565b604051610bb79190615442565b60405180910390f35b348015610bcc57600080fd5b50610bd56132d6565b005b348015610be357600080fd5b50610bec6133b1565b604051610bf99190615442565b60405180910390f35b348015610c0e57600080fd5b50610c296004803603810190610c249190614621565b6133b7565b604051610c369190615100565b60405180910390f35b348015610c4b57600080fd5b50610c666004803603810190610c61919061464a565b613457565b005b348015610c7457600080fd5b50610c7d613513565b005b348015610c8b57600080fd5b50610c946137ae565b604051610ca19190615442565b60405180910390f35b348015610cb657600080fd5b50610cd16004803603810190610ccc9190614621565b613867565b005b348015610cdf57600080fd5b50610cfa6004803603810190610cf59190614621565b6138eb565b604051610d079190615442565b60405180910390f35b348015610d1c57600080fd5b50610d2561394e565b604051610d329190615094565b60405180910390f35b348015610d4757600080fd5b50610d626004803603810190610d5d9190614790565b613974565b604051610d6f9190614f1c565b60405180910390f35b60a35481565b60008060019054906101000a900460ff16159050808015610daf5750600160008054906101000a900460ff1660ff16105b80610ddc5750610dbe306139b3565b158015610ddb5750600160008054906101000a900460ff1660ff16145b5b610e1b576040517f08c379a0000000000000000000000000000000000000000000000000000000008152600401610e12906152a2565b60405180910390fd5b60016000806101000a81548160ff021916908360ff1602179055508015610e58576001600060016101000a81548160ff0219169083151502179055505b610e606139d6565b8360a560006101000a81548173ffffffffffffffffffffffffffffffffffffffff021916908373ffffffffffffffffffffffffffffffffffffffff1602179055508260a660006101000a81548173ffffffffffffffffffffffffffffffffffffffff021916908373ffffffffffffffffffffffffffffffffffffffff1602179055508160a760006101000a81548173ffffffffffffffffffffffffffffffffffffffff021916908373ffffffffffffffffffffffffffffffffffffffff16021790555085609760006101000a81548173ffffffffffffffffffffffffffffffffffffffff021916908373ffffffffffffffffffffffffffffffffffffffff16021790555084609860006101000a81548173ffffffffffffffffffffffffffffffffffffffff021916908373ffffffffffffffffffffffffffffffffffffffff1602179055506040518060e001604052803073ffffffffffffffffffffffffffffffffffffffff16815260200162093a80815260200142815260200162278d006006610feb9190615638565b815260200162093a808152602001600115158152602001609d5481525060b160008201518160000160006101000a81548173ffffffffffffffffffffffffffffffffffffffff021916908373ffffffffffffffffffffffffffffffffffffffff1602179055506020820151816001015560408201518160020155606082015181600301556080820151816004015560a08201518160050160006101000a81548160ff02191690831515021790555060c0820151816006015590505060a760009054906101000a900473ffffffffffffffffffffffffffffffffffffffff1673ffffffffffffffffffffffffffffffffffffffff1663db62b2016040518163ffffffff1660e01b815260040160206040518083038186803b15801561110e57600080fd5b505afa158015611122573d6000803e3d6000fd5b505050506040513d601f19601f8201168201806040525081019061114691906147b9565b609e819055506001611156612ebb565b61116091906156d2565b609f8190555061116e612ebb565b60a28190555061117e6005611d7e565b80156111d75760008060016101000a81548160ff0219169083151502179055507f7f26b83ff96e1f2b6a682f133852f6798a09c465da95921460cefb384740249860016040516111ce91906150e5565b60405180910390a15b505050505050565b60aa6020528060005260406000206000915090505481565b6111ff613a2f565b80609d8190555050565b609e5481565b611217613a2f565b8060b16003018190555050565b609d5481565b600060a560009054906101000a900473ffffffffffffffffffffffffffffffffffffffff1673ffffffffffffffffffffffffffffffffffffffff166370a08231336040518263ffffffff1660e01b81526004016112879190614f1c565b60206040518083038186803b15801561129f57600080fd5b505afa1580156112b3573d6000803e3d6000fd5b505050506040513d601f19601f820116820180604052508101906112d791906147b9565b90506000811161131c576040517f08c379a0000000000000000000000000000000000000000000000000000000008152600401611313906153a2565b60405180910390fd5b6000609a541415611362576040517f08c379a000000000000000000000000000000000000000000000000000000000815260040161135990615122565b60405180910390fd5b4260b160030154609a546113769190615575565b11156113b7576040517f08c379a00000000000000000000000000000000000000000000000000000000081526004016113ae90615162565b60405180910390fd5b60006113c1612ebb565b90508160a060008282546113d59190615575565b9250508190555081609960008282546113ee91906156d2565b925050819055508160a560009054906101000a900473ffffffffffffffffffffffffffffffffffffffff1673ffffffffffffffffffffffffffffffffffffffff166370a08231336040518263ffffffff1660e01b81526004016114519190614f1c565b60206040518083038186803b15801561146957600080fd5b505afa15801561147d573d6000803e3d6000fd5b505050506040513d601f19601f820116820180604052508101906114a191906147b9565b10156114e2576040517f08c379a00000000000000000000000000000000000000000000000000000000081526004016114d9906152c2565b60405180910390fd5b60a560009054906101000a900473ffffffffffffffffffffffffffffffffffffffff1673ffffffffffffffffffffffffffffffffffffffff16639dc29fac33846040518363ffffffff1660e01b815260040161153f929190614f60565b602060405180830381600087803b15801561155957600080fd5b505af115801561156d573d6000803e3d6000fd5b505050506040513d601f19601f820116820180604052508101906115919190614686565b506000600a826115a19190615638565b6004600a609e546115b29190615638565b6115bc9190615607565b600a609f546115cb9190615638565b6115d59190615575565b111561162957600a826115e89190615638565b6004600a609e546115f99190615638565b6116039190615607565b600a609f546116129190615638565b61161c9190615575565b61162691906156d2565b90505b60ac60003373ffffffffffffffffffffffffffffffffffffffff1673ffffffffffffffffffffffffffffffffffffffff168152602001908152602001600020604051806060016040528085815260200184815260200183815250908060018154018082558091505060019003906000526020600020906003020160009091909190915060008201518160000155602082015181600101556040820151816002015550506116d4613aad565b81833373ffffffffffffffffffffffffffffffffffffffff167ff960dbf9e5d0682f7a298ed974e33a28b4464914b7a2bfac12ae419a9afeb28060405160405180910390a4505050565b61172e611729612ebb565b613cb3565b600060ac60003373ffffffffffffffffffffffffffffffffffffffff1673ffffffffffffffffffffffffffffffffffffffff16815260200190815260200160002082815481106117a7577f4e487b7100000000000000000000000000000000000000000000000000000000600052603260045260246000fd5b90600052602060002090600302019050600081600001549050600082600101541415611808576040517f08c379a00000000000000000000000000000000000000000000000000000000081526004016117ff90615362565b60405180910390fd5b8160020154600a609e5461181c9190615638565b6118269190615575565b600a83600101546118379190615638565b600a611841612ebb565b61184b9190615638565b61185591906156d2565b1015611896576040517f08c379a000000000000000000000000000000000000000000000000000000000815260040161188d90615282565b60405180910390fd5b8060a15410156118db576040517f08c379a00000000000000000000000000000000000000000000000000000000081526004016118d2906152e2565b60405180910390fd5b8060a160008282546118ed91906156d2565b9250508190555060008260010181905550611927813373ffffffffffffffffffffffffffffffffffffffff16613e6790919063ffffffff16565b3373ffffffffffffffffffffffffffffffffffffffff167f7084f5476618d8e60b11ef0d7d3f06914655adb8793e28ff7f018d4c76d505d58260405161196d9190615442565b60405180910390a2505050565b60a660009054906101000a900473ffffffffffffffffffffffffffffffffffffffff1681565b60af60205280600052604060002060009150905080546119bf906158c8565b80601f01602080910402602001604051908101604052809291908181526020018280546119eb906158c8565b8015611a385780601f10611a0d57610100808354040283529160200191611a38565b820191906000526020600020905b815481529060010190602001808311611a1b57829003601f168201915b505050505081565b611a48613f5b565b6000611a5333612f62565b905060008111611a98576040517f08c379a0000000000000000000000000000000000000000000000000000000008152600401611a8f90615142565b60405180910390fd5b6000611aa26137ae565b90506000811115611b4457609760009054906101000a900473ffffffffffffffffffffffffffffffffffffffff1673ffffffffffffffffffffffffffffffffffffffff166363f44968611af3613fab565b836040518363ffffffff1660e01b8152600401611b11929190615050565b600060405180830381600087803b158015611b2b57600080fd5b505af1158015611b3f573d6000803e3d6000fd5b505050505b611b4c613224565b60ab60003373ffffffffffffffffffffffffffffffffffffffff1673ffffffffffffffffffffffffffffffffffffffff1681526020019081526020016000208190555060a660009054906101000a900473ffffffffffffffffffffffffffffffffffffffff1673ffffffffffffffffffffffffffffffffffffffff1663a9059cbb33846040518363ffffffff1660e01b8152600401611bec929190614f60565b602060405180830381600087803b158015611c0657600080fd5b505af1158015611c1a573d6000803e3d6000fd5b505050506040513d601f19601f82011682018060405250810190611c3e9190614686565b507f1f89f96333d3133000ee447473151fa9606543368f02271c9d95ae14f13bcc673382604051611c70929190614f60565b60405180910390a15050611c8261411a565b565b609760149054906101000a900460ff1615611cd4576040517f08c379a0000000000000000000000000000000000000000000000000000000008152600401611ccb90615262565b60405180910390fd5b611cec60405180602001604052806000815250611e88565b565b60ae818051602081018201805184825260208301602085012081835280955050505050506000915054906101000a900473ffffffffffffffffffffffffffffffffffffffff1681565b60ac6020528160005260406000208181548110611d5357600080fd5b9060005260206000209060030201600091509150508060000154908060010154908060020154905083565b611d86613a2f565b8060a381905550803373ffffffffffffffffffffffffffffffffffffffff167f2858686d6b174bd2ec20e66464df68f4228dafa488e5a0b587356271ce26c50160405160405180910390a350565b606060a8805480602002602001604051908101604052809291908181526020018280548015611e5857602002820191906000526020600020905b8160009054906101000a900473ffffffffffffffffffffffffffffffffffffffff1673ffffffffffffffffffffffffffffffffffffffff1681526020019060010190808311611e0e575b5050505050905090565b609760009054906101000a900473ffffffffffffffffffffffffffffffffffffffff1681565b609760149054906101000a900460ff1615611ed8576040517f08c379a0000000000000000000000000000000000000000000000000000000008152600401611ecf90615262565b60405180910390fd5b600080343391509150609b54821015611f26576040517f08c379a0000000000000000000000000000000000000000000000000000000008152600401611f1d90615222565b60405180910390fd5b609c5482609954611f379190615575565b1115611f78576040517f08c379a0000000000000000000000000000000000000000000000000000000008152600401611f6f90615402565b60405180910390fd5b60ad60003373ffffffffffffffffffffffffffffffffffffffff1673ffffffffffffffffffffffffffffffffffffffff16815260200190815260200160002060009054906101000a900460ff1615612005576040517f08c379a0000000000000000000000000000000000000000000000000000000008152600401611ffc90615182565b60405180910390fd5b60405160200161201490614f07565b604051602081830303815290604052805190602001208360405160200161203b9190614ec4565b604051602081830303815290604052805190602001201461210357600160ad60003373ffffffffffffffffffffffffffffffffffffffff1673ffffffffffffffffffffffffffffffffffffffff16815260200190815260200160002060006101000a81548160ff0219169083151502179055508260af60003373ffffffffffffffffffffffffffffffffffffffff1673ffffffffffffffffffffffffffffffffffffffff1681526020019081526020016000209080519060200190612101929190614462565b505b8160aa60008373ffffffffffffffffffffffffffffffffffffffff1673ffffffffffffffffffffffffffffffffffffffff16815260200190815260200160002060008282546121529190615575565b92505081905550816099600082825461216b9190615575565b9250508190555060a760009054906101000a900473ffffffffffffffffffffffffffffffffffffffff1673ffffffffffffffffffffffffffffffffffffffff166352b73e4134609860009054906101000a900473ffffffffffffffffffffffffffffffffffffffff16856040518463ffffffff1660e01b81526004016121f2929190614f37565b6000604051808303818588803b15801561220b57600080fd5b505af115801561221f573d6000803e3d6000fd5b505050505060a960008273ffffffffffffffffffffffffffffffffffffffff1673ffffffffffffffffffffffffffffffffffffffff16815260200190815260200160002060009054906101000a900460ff1661233157600160a960008373ffffffffffffffffffffffffffffffffffffffff1673ffffffffffffffffffffffffffffffffffffffff16815260200190815260200160002060006101000a81548160ff02191690831515021790555060a8819080600181540180825580915050600190039060005260206000200160009091909190916101000a81548173ffffffffffffffffffffffffffffffffffffffff021916908373ffffffffffffffffffffffffffffffffffffffff1602179055505b60a560009054906101000a900473ffffffffffffffffffffffffffffffffffffffff1673ffffffffffffffffffffffffffffffffffffffff166340c10f1982846040518363ffffffff1660e01b815260040161238e929190614f60565b602060405180830381600087803b1580156123a857600080fd5b505af11580156123bc573d6000803e3d6000fd5b505050506040513d601f19601f820116820180604052508101906123e09190614686565b61241f576040517f08c379a0000000000000000000000000000000000000000000000000000000008152600401612416906151e2565b60405180910390fd5b8260405161242d9190614ec4565b60405180910390203373ffffffffffffffffffffffffffffffffffffffff167f72d0050d8f1a0f19ace5b1f50e8b5333308c60902442b7444a65cfffbad884e73460405161247b9190615442565b60405180910390a3505050565b612490613a2f565b60005b60a88054905081101561261857600060a9600060a884815481106124e0577f4e487b7100000000000000000000000000000000000000000000000000000000600052603260045260246000fd5b9060005260206000200160009054906101000a900473ffffffffffffffffffffffffffffffffffffffff1673ffffffffffffffffffffffffffffffffffffffff1673ffffffffffffffffffffffffffffffffffffffff16815260200190815260200160002060006101000a81548160ff021916908315150217905550600060aa600060a8848154811061259c577f4e487b7100000000000000000000000000000000000000000000000000000000600052603260045260246000fd5b9060005260206000200160009054906101000a900473ffffffffffffffffffffffffffffffffffffffff1673ffffffffffffffffffffffffffffffffffffffff1673ffffffffffffffffffffffffffffffffffffffff1681526020019081526020016000208190555080806126109061592b565b915050612493565b5060a8600061262791906144e8565b60006099819055506000609760146101000a81548160ff0219169083151502179055506000609a8190555061265a612ebb565b60a281905550600161266a612ebb565b61267491906156d2565b609f81905550600060a08190555060b1600080820160006101000a81549073ffffffffffffffffffffffffffffffffffffffff021916905560018201600090556002820160009055600382016000905560048201600090556005820160006101000a81549060ff021916905560068201600090555050600060ab60003373ffffffffffffffffffffffffffffffffffffffff1673ffffffffffffffffffffffffffffffffffffffff16815260200190815260200160002081905550600060aa60003373ffffffffffffffffffffffffffffffffffffffff1673ffffffffffffffffffffffffffffffffffffffff16815260200190815260200160002081905550565b61277e613a2f565b600060a4549050600060a4819055506127b6813373ffffffffffffffffffffffffffffffffffffffff16613e6790919063ffffffff16565b3373ffffffffffffffffffffffffffffffffffffffff167fc5a3601bc424984ab8d0e98bd79347fa6ef2a340c30dde7340d02f923e6820ed826040516127fc9190615442565b60405180910390a250565b609f5481565b609760149054906101000a900460ff1681565b60ad6020528060005260406000206000915054906101000a900460ff1681565b612848613a2f565b600060a0541161288d576040517f08c379a0000000000000000000000000000000000000000000000000000000008152600401612884906151a2565b60405180910390fd5b6004600a609e5461289e9190615638565b6128a89190615607565b600a609f546128b79190615638565b6128c19190615575565b600a6128cb612ebb565b6128d59190615638565b1015612916576040517f08c379a000000000000000000000000000000000000000000000000000000000815260040161290d906153c2565b60405180910390fd5b61291e613aad565b565b612928613a2f565b8060a760006101000a81548173ffffffffffffffffffffffffffffffffffffffff021916908373ffffffffffffffffffffffffffffffffffffffff16021790555050565b609760149054906101000a900460ff16156129bc576040517f08c379a00000000000000000000000000000000000000000000000000000000081526004016129b390615262565b60405180910390fd5b6129c4613a2f565b6001609760146101000a81548160ff02191690831515021790555042609a81905550609760009054906101000a900473ffffffffffffffffffffffffffffffffffffffff1673ffffffffffffffffffffffffffffffffffffffff1663c43653743060b1600101544260b16003015460b16004015460b160050160009054906101000a900460ff1660b1600601546040518863ffffffff1660e01b8152600401612a739796959493929190614f89565b600060405180830381600087803b158015612a8d57600080fd5b505af1158015612aa1573d6000803e3d6000fd5b505050507f0624eb1de4b105b5373ba37db99731cb09d761de5b9373015805d8c47e7a6f1242604051612ad49190615442565b60405180910390a1565b60a96020528060005260406000206000915054906101000a900460ff1681565b612b06613a2f565b612b106000614124565b565b60a560009054906101000a900473ffffffffffffffffffffffffffffffffffffffff1681565b612b40613a2f565b60a560009054906101000a900473ffffffffffffffffffffffffffffffffffffffff1673ffffffffffffffffffffffffffffffffffffffff166340c10f1983836040518363ffffffff1660e01b8152600401612b9d929190614f60565b602060405180830381600087803b158015612bb757600080fd5b505af1158015612bcb573d6000803e3d6000fd5b505050506040513d601f19601f82011682018060405250810190612bef9190614686565b505050565b60a25481565b606060003390507fc5d2460186f7233c927e7db2dcc703c0e500b653ca82273b7bfad8045d85a47060b060008373ffffffffffffffffffffffffffffffffffffffff1673ffffffffffffffffffffffffffffffffffffffff168152602001908152602001600020604051602001612c719190614edb565b6040516020818303038152906040528051906020012014612cc7576040517f08c379a0000000000000000000000000000000000000000000000000000000008152600401612cbe90615322565b60405180910390fd5b60008142604051602001612cdc929190614f60565b6040516020818303038152906040528051906020012090506000612d1f827cffffffffffffffffffffffffffffffffffffffffffffffffffffffffff19166141ea565b90508260ae82604051612d329190614ec4565b908152602001604051809103902060006101000a81548173ffffffffffffffffffffffffffffffffffffffff021916908373ffffffffffffffffffffffffffffffffffffffff1602179055508060b060003373ffffffffffffffffffffffffffffffffffffffff1673ffffffffffffffffffffffffffffffffffffffff1681526020019081526020016000209080519060200190612dd1929190614462565b5080604051612de09190614ec4565b60405180910390203373ffffffffffffffffffffffffffffffffffffffff167ffdd01b27191e72d589718f76e5754f96633f8f2c5fcdd018f05c88181032f0cf60405160405180910390a350505090565b60995481565b6000603360009054906101000a900473ffffffffffffffffffffffffffffffffffffffff16905090565b612e69613a2f565b8460b1600101819055508360b1600301819055508260b1600401819055508160b160050160006101000a81548160ff0219169083151502179055508060b1600601819055505050505050565b60a45481565b600060a760009054906101000a900473ffffffffffffffffffffffffffffffffffffffff1673ffffffffffffffffffffffffffffffffffffffff1663e608d80b6040518163ffffffff1660e01b815260040160206040518083038186803b158015612f2557600080fd5b505afa158015612f39573d6000803e3d6000fd5b505050506040513d601f19601f82011682018060405250810190612f5d91906147b9565b905090565b600060ab60008373ffffffffffffffffffffffffffffffffffffffff1673ffffffffffffffffffffffffffffffffffffffff16815260200190815260200160002054612fac613224565b11612fba5760009050613068565b600060ab60008473ffffffffffffffffffffffffffffffffffffffff1673ffffffffffffffffffffffffffffffffffffffff16815260200190815260200160002054613004613224565b61300e91906156d2565b905060b16003015460b16004015482670de0b6b3a7640000609d5461303288614390565b61303c9190615638565b6130469190615607565b6130509190615638565b61305a9190615638565b6130649190615607565b9150505b919050565b60ab6020528060005260406000206000915090505481565b60a05481565b609860009054906101000a900473ffffffffffffffffffffffffffffffffffffffff1681565b609a5481565b60b18060000160009054906101000a900473ffffffffffffffffffffffffffffffffffffffff16908060010154908060020154908060030154908060040154908060050160009054906101000a900460ff16908060060154905087565b60a15481565b613122613a2f565b81609c8190555080609b819055505050565b61313c613a2f565b609760149054906101000a900460ff1615609760146101000a81548160ff021916908315150217905550565b613170613a2f565b60a560009054906101000a900473ffffffffffffffffffffffffffffffffffffffff1673ffffffffffffffffffffffffffffffffffffffff16639dc29fac83836040518363ffffffff1660e01b81526004016131cd929190614f60565b602060405180830381600087803b1580156131e757600080fd5b505af11580156131fb573d6000803e3d6000fd5b505050506040513d601f19601f8201168201806040525081019061321f9190614686565b505050565b600080609a541415801561323a5750609a544210155b613279576040517f08c379a000000000000000000000000000000000000000000000000000000000815260040161327090615422565b60405180910390fd5b600060b160040154609a544261328f91906156d2565b6132999190615607565b9050600060b16004015460b1600301546132b39190615607565b9050808211156132c75780925050506132cd565b81925050505b90565b609c5481565b6132de613a2f565b60a760009054906101000a900473ffffffffffffffffffffffffffffffffffffffff1673ffffffffffffffffffffffffffffffffffffffff16634b1b0e8660006040518263ffffffff1660e01b815260040161333a91906150ca565b600060405180830381600087803b15801561335457600080fd5b505af1158015613368573d6000803e3d6000fd5b505050503373ffffffffffffffffffffffffffffffffffffffff167f071887c03bab9c32311d166ea6fb805439a8a3765b0de8cb1f611799e84edf8960405160405180910390a2565b609b5481565b60b060205280600052604060002060009150905080546133d6906158c8565b80601f0160208091040260200160405190810160405280929190818152602001828054613402906158c8565b801561344f5780601f106134245761010080835404028352916020019161344f565b820191906000526020600020905b81548152906001019060200180831161343257829003601f168201915b505050505081565b61345f613a2f565b60a660009054906101000a900473ffffffffffffffffffffffffffffffffffffffff1673ffffffffffffffffffffffffffffffffffffffff1663a9059cbb83836040518363ffffffff1660e01b81526004016134bc929190614f60565b602060405180830381600087803b1580156134d657600080fd5b505af11580156134ea573d6000803e3d6000fd5b505050506040513d601f19601f8201168201806040525081019061350e9190614686565b505050565b61351b613a2f565b6000613525612ebb565b90508060a254141561356c576040517f08c379a000000000000000000000000000000000000000000000000000000000815260040161356390615342565b60405180910390fd5b600060a2548261357c91906156d2565b905060a35481111561358e5760a35490505b600047905060005b8281101561373b5760a760009054906101000a900473ffffffffffffffffffffffffffffffffffffffff1673ffffffffffffffffffffffffffffffffffffffff1663a0b9d8be609860009054906101000a900473ffffffffffffffffffffffffffffffffffffffff166040518263ffffffff1660e01b815260040161361b9190614f1c565b600060405180830381600087803b15801561363557600080fd5b505af1925050508015613646575060015b6136d3573d8060008114613676576040519150601f19603f3d011682016040523d82523d6000602084013e61367b565b606091505b508060405161368a9190614ead565b6040518091039020600160a2546136a19190615575565b7ffa856c428399288a6034f9c96d90c67dc025124c025cd92e228f9b795cd2ec8460405160405180910390a350613728565b600160a260008282546136e69190615575565b92505081905550837fe3ad3e6ae6e2f00623af1899e05e142e09f8af5b7f4e9b765d94646d6bb9b89260a25460405161371f9190615442565b60405180910390a25b80806137339061592b565b915050613596565b506000479050818161374d91906156d2565b60a4600082825461375e9190615575565b92505081905550837f1d37f71bdeb9f37b8aef735e93b33154911a15cae0fc0a473057a898be05c4a3838361379391906156d2565b6040516137a09190615442565b60405180910390a250505050565b6000609760009054906101000a900473ffffffffffffffffffffffffffffffffffffffff1673ffffffffffffffffffffffffffffffffffffffff1663ea1bb3d56137f6613fab565b6040518263ffffffff1660e01b81526004016138129190615035565b60206040518083038186803b15801561382a57600080fd5b505afa15801561383e573d6000803e3d6000fd5b505050506040513d601f19601f8201168201806040525081019061386291906147b9565b905090565b61386f613a2f565b600073ffffffffffffffffffffffffffffffffffffffff168173ffffffffffffffffffffffffffffffffffffffff1614156138df576040517f08c379a00000000000000000000000000000000000000000000000000000000081526004016138d6906151c2565b60405180910390fd5b6138e881614124565b50565b600060aa60008373ffffffffffffffffffffffffffffffffffffffff1673ffffffffffffffffffffffffffffffffffffffff16815260200190815260200160002054609954609d5461393d9190615607565b6139479190615638565b9050919050565b60a760009054906101000a900473ffffffffffffffffffffffffffffffffffffffff1681565b60a8818154811061398457600080fd5b906000526020600020016000915054906101000a900473ffffffffffffffffffffffffffffffffffffffff1681565b6000808273ffffffffffffffffffffffffffffffffffffffff163b119050919050565b600060019054906101000a900460ff16613a25576040517f08c379a0000000000000000000000000000000000000000000000000000000008152600401613a1c90615382565b60405180910390fd5b613a2d6143f9565b565b613a3761445a565b73ffffffffffffffffffffffffffffffffffffffff16613a55612e37565b73ffffffffffffffffffffffffffffffffffffffff1614613aab576040517f08c379a0000000000000000000000000000000000000000000000000000000008152600401613aa290615302565b60405180910390fd5b565b6000613ab7612ebb565b90506004600a609e54613aca9190615638565b613ad49190615607565b600a609f54613ae39190615638565b613aed9190615575565b600a82613afa9190615638565b1015613b065750613cb1565b600060a0541115613c685760a760009054906101000a900473ffffffffffffffffffffffffffffffffffffffff1673ffffffffffffffffffffffffffffffffffffffff1663c7841dd23060a0546040518363ffffffff1660e01b8152600401613b70929190614f37565b600060405180830381600087803b158015613b8a57600080fd5b505af1925050508015613b9b575060015b613c1d573d8060008114613bcb576040519150601f19603f3d011682016040523d82523d6000602084013e613bd0565b606091505b5080604051613bdf9190614ead565b60405180910390208260a0547f832c31b2d0ce0c03d09e4e17ccd7312693af36ddd41c197ed1ed6c6dd58cb2ed60405160405180910390a450613c67565b807fd112be63e7fceb2dddc1fcf8ae6159d873af98be4505daee865e08f2aeae802d60a054604051613c4f9190615442565b60405180910390a2600060a08190555080609f819055505b5b60a054813373ffffffffffffffffffffffffffffffffffffffff167f69eadfdf59619a336dc106a730fa0ccf616ee1d058e409cd39f65f2a5ccdecae60405160405180910390a4505b565b600047905060a760009054906101000a900473ffffffffffffffffffffffffffffffffffffffff1673ffffffffffffffffffffffffffffffffffffffff166377a0fe026040518163ffffffff1660e01b8152600401600060405180830381600087803b158015613d2257600080fd5b505af1925050508015613d33575060015b613db2573d8060008114613d63576040519150601f19603f3d011682016040523d82523d6000602084013e613d68565b606091505b5080604051613d779190614ead565b6040518091039020837ff031b94d40b16f5c2b8213e25ea0f640687fa24e99f6a0ef56cdd46762434a2f60405160405180910390a350613ddf565b817e973a60d81248412b3530a2ff12c475667dc3c0ece650fb361c044aa240565b60405160405180910390a25b60004790508181613df091906156d2565b60a16000828254613e019190615575565b92505081905550823373ffffffffffffffffffffffffffffffffffffffff167f7ae76c7ba85137a574da9e7ef1f16fcd73e8290df91265541d72f81c331862e08484613e4d91906156d2565b604051613e5a9190615442565b60405180910390a3505050565b80471015613eaa576040517f08c379a0000000000000000000000000000000000000000000000000000000008152600401613ea190615242565b60405180910390fd5b60008273ffffffffffffffffffffffffffffffffffffffff1682604051613ed090614ef2565b60006040518083038185875af1925050503d8060008114613f0d576040519150601f19603f3d011682016040523d82523d6000602084013e613f12565b606091505b5050905080613f56576040517f08c379a0000000000000000000000000000000000000000000000000000000008152600401613f4d90615202565b60405180910390fd5b505050565b60026065541415613fa1576040517f08c379a0000000000000000000000000000000000000000000000000000000008152600401613f98906153e2565b60405180910390fd5b6002606581905550565b6000806001609760009054906101000a900473ffffffffffffffffffffffffffffffffffffffff1673ffffffffffffffffffffffffffffffffffffffff1663471121d1306040518263ffffffff1660e01b815260040161400b9190614f1c565b60206040518083038186803b15801561402357600080fd5b505afa158015614037573d6000803e3d6000fd5b505050506040513d601f19601f8201168201806040525081019061405b91906147b9565b61406591906156d2565b9050609760009054906101000a900473ffffffffffffffffffffffffffffffffffffffff1673ffffffffffffffffffffffffffffffffffffffff1663e5fe4dff30836040518363ffffffff1660e01b81526004016140c4929190614f60565b60206040518083038186803b1580156140dc57600080fd5b505afa1580156140f0573d6000803e3d6000fd5b505050506040513d601f19601f8201168201806040525081019061411491906146af565b91505090565b6001606581905550565b6000603360009054906101000a900473ffffffffffffffffffffffffffffffffffffffff16905081603360006101000a81548173ffffffffffffffffffffffffffffffffffffffff021916908373ffffffffffffffffffffffffffffffffffffffff1602179055508173ffffffffffffffffffffffffffffffffffffffff168173ffffffffffffffffffffffffffffffffffffffff167f8be0079c531659141344cd1fd0a4f28419497f9722a3daafe3b4186f6b6457e060405160405180910390a35050565b60606000600c640fff00000060d01b847cffffffffffffffffffffffffffffffffffffffffffffffffffffffffff19161679ffffffffffffffffffffffffffffffffffffffffffffffffffff1916901c65fff00000000060d01b847cffffffffffffffffffffffffffffffffffffffffffffffffffffffffff191616179050600864f00000f00060d01b821679ffffffffffffffffffffffffffffffffffffffffffffffffffff1916901c65ff0000ff000060d01b82161790506004650f00000f000060d01b821679ffffffffffffffffffffffffffffffffffffffffffffffffffff1916901c65f000f0f000f060d01b8216179050600465f0f0f0f0f0f060d01b821679ffffffffffffffffffffffffffffffffffffffffffffffffffff1916901c90506007650f0f0f0f0f0f6004650606060606068460d01c61432f91906155cb565b65ffffffffffff16901c166143449190615692565b8160d01c6530303030303061435991906155cb565b61436391906155cb565b60d01b9050806040516020016143799190614e92565b604051602081830303815290604052915050919050565b6000609954670de0b6b3a764000060aa60008573ffffffffffffffffffffffffffffffffffffffff1673ffffffffffffffffffffffffffffffffffffffff168152602001908152602001600020546143e89190615638565b6143f29190615607565b9050919050565b600060019054906101000a900460ff16614448576040517f08c379a000000000000000000000000000000000000000000000000000000000815260040161443f90615382565b60405180910390fd5b61445861445361445a565b614124565b565b600033905090565b82805461446e906158c8565b90600052602060002090601f01602090048101928261449057600085556144d7565b82601f106144a957805160ff19168380011785556144d7565b828001600101855582156144d7579182015b828111156144d65782518255916020019190600101906144bb565b5b5090506144e49190614509565b5090565b50805460008255906000526020600020908101906145069190614509565b50565b5b8082111561452257600081600090555060010161450a565b5090565b6000614539614534846154b9565b615494565b90508281526020810184848401111561455157600080fd5b61455c848285615886565b509392505050565b60008135905061457381615fe8565b92915050565b60008135905061458881615fff565b92915050565b60008151905061459d81615fff565b92915050565b6000815190506145b281616016565b92915050565b6000813590506145c78161602d565b92915050565b600082601f8301126145de57600080fd5b81356145ee848260208601614526565b91505092915050565b60008135905061460681616044565b92915050565b60008151905061461b81616044565b92915050565b60006020828403121561463357600080fd5b600061464184828501614564565b91505092915050565b6000806040838503121561465d57600080fd5b600061466b85828601614564565b925050602061467c858286016145f7565b9150509250929050565b60006020828403121561469857600080fd5b60006146a68482850161458e565b91505092915050565b6000602082840312156146c157600080fd5b60006146cf848285016145a3565b91505092915050565b600080600080600060a086880312156146f057600080fd5b60006146fe888289016145b8565b955050602061470f88828901614564565b945050604061472088828901614564565b935050606061473188828901614564565b925050608061474288828901614564565b9150509295509295909350565b60006020828403121561476157600080fd5b600082013567ffffffffffffffff81111561477b57600080fd5b614787848285016145cd565b91505092915050565b6000602082840312156147a257600080fd5b60006147b0848285016145f7565b91505092915050565b6000602082840312156147cb57600080fd5b60006147d98482850161460c565b91505092915050565b600080604083850312156147f557600080fd5b6000614803858286016145f7565b9250506020614814858286016145f7565b9150509250929050565b600080600080600060a0868803121561483657600080fd5b6000614844888289016145f7565b9550506020614855888289016145f7565b9450506040614866888289016145f7565b935050606061487788828901614579565b9250506080614888888289016145f7565b9150509295509295909350565b60006148a183836148ad565b60208301905092915050565b6148b681615706565b82525050565b6148c581615706565b82525050565b60006148d68261550f565b6148e0818561553d565b93506148eb836154ea565b8060005b8381101561491c5781516149038882614895565b975061490e83615530565b9250506001810190506148ef565b5085935050505092915050565b6149328161572a565b82525050565b61494181615736565b82525050565b61495861495382615740565b615974565b82525050565b60006149698261551a565b614973818561554e565b9350614983818560208601615895565b80840191505092915050565b614998816157f6565b82525050565b6149a78161581a565b82525050565b6149b68161583e565b82525050565b6149c581615862565b82525050565b6149d481615874565b82525050565b60006149e582615525565b6149ef8185615559565b93506149ff818560208601615895565b614a0881615a69565b840191505092915050565b6000614a1e82615525565b614a28818561556a565b9350614a38818560208601615895565b80840191505092915050565b60008154614a51816158c8565b614a5b818661556a565b94506001821660008114614a765760018114614a8757614aba565b60ff19831686528186019350614aba565b614a90856154fa565b60005b83811015614ab257815481890152600182019150602081019050614a93565b838801955050505b50505092915050565b6000614ad0601483615559565b9150614adb82615a7a565b602082019050919050565b6000614af3601783615559565b9150614afe82615aa3565b602082019050919050565b6000614b16602183615559565b9150614b2182615acc565b604082019050919050565b6000614b39602d83615559565b9150614b4482615b1b565b604082019050919050565b6000614b5c600f83615559565b9150614b6782615b6a565b602082019050919050565b6000614b7f602683615559565b9150614b8a82615b93565b604082019050919050565b6000614ba2601783615559565b9150614bad82615be2565b602082019050919050565b6000614bc5603a83615559565b9150614bd082615c0b565b604082019050919050565b6000614be8600e83615559565b9150614bf382615c5a565b602082019050919050565b6000614c0b601d83615559565b9150614c1682615c83565b602082019050919050565b6000614c2e601083615559565b9150614c3982615cac565b602082019050919050565b6000614c51601783615559565b9150614c5c82615cd5565b602082019050919050565b6000614c74602e83615559565b9150614c7f82615cfe565b604082019050919050565b6000614c97601983615559565b9150614ca282615d4d565b602082019050919050565b6000614cba602183615559565b9150614cc582615d76565b604082019050919050565b6000614cdd602083615559565b9150614ce882615dc5565b602082019050919050565b6000614d00601a83615559565b9150614d0b82615dee565b602082019050919050565b6000614d23601b83615559565b9150614d2e82615e17565b602082019050919050565b6000614d4660008361554e565b9150614d5182615e40565b600082019050919050565b6000614d6960008361556a565b9150614d7482615e40565b600082019050919050565b6000614d8c601a83615559565b9150614d9782615e43565b602082019050919050565b6000614daf602b83615559565b9150614dba82615e6c565b604082019050919050565b6000614dd2601583615559565b9150614ddd82615ebb565b602082019050919050565b6000614df5603683615559565b9150614e0082615ee4565b604082019050919050565b6000614e18601f83615559565b9150614e2382615f33565b602082019050919050565b6000614e3b601183615559565b9150614e4682615f5c565b602082019050919050565b6000614e5e602283615559565b9150614e6982615f85565b604082019050919050565b614e7d81615791565b82525050565b614e8c816157cd565b82525050565b6000614e9e8284614947565b60068201915081905092915050565b6000614eb9828461495e565b915081905092915050565b6000614ed08284614a13565b915081905092915050565b6000614ee78284614a44565b915081905092915050565b6000614efd82614d39565b9150819050919050565b6000614f1282614d5c565b9150819050919050565b6000602082019050614f3160008301846148bc565b92915050565b6000604082019050614f4c60008301856148bc565b614f596020830184614e74565b9392505050565b6000604082019050614f7560008301856148bc565b614f826020830184614e83565b9392505050565b600060e082019050614f9e600083018a6148bc565b614fab6020830189614e83565b614fb86040830188614e83565b614fc56060830187614e83565b614fd26080830186614e83565b614fdf60a0830185614929565b614fec60c0830184614e83565b98975050505050505050565b6000602082019050818103600083015261501281846148cb565b905092915050565b600060208201905061502f6000830184614929565b92915050565b600060208201905061504a6000830184614938565b92915050565b60006040820190506150656000830185614938565b6150726020830184614e83565b9392505050565b600060208201905061508e600083018461498f565b92915050565b60006020820190506150a9600083018461499e565b92915050565b60006020820190506150c460008301846149ad565b92915050565b60006020820190506150df60008301846149bc565b92915050565b60006020820190506150fa60008301846149cb565b92915050565b6000602082019050818103600083015261511a81846149da565b905092915050565b6000602082019050818103600083015261513b81614ac3565b9050919050565b6000602082019050818103600083015261515b81614ae6565b9050919050565b6000602082019050818103600083015261517b81614b09565b9050919050565b6000602082019050818103600083015261519b81614b2c565b9050919050565b600060208201905081810360008301526151bb81614b4f565b9050919050565b600060208201905081810360008301526151db81614b72565b9050919050565b600060208201905081810360008301526151fb81614b95565b9050919050565b6000602082019050818103600083015261521b81614bb8565b9050919050565b6000602082019050818103600083015261523b81614bdb565b9050919050565b6000602082019050818103600083015261525b81614bfe565b9050919050565b6000602082019050818103600083015261527b81614c21565b9050919050565b6000602082019050818103600083015261529b81614c44565b9050919050565b600060208201905081810360008301526152bb81614c67565b9050919050565b600060208201905081810360008301526152db81614c8a565b9050919050565b600060208201905081810360008301526152fb81614cad565b9050919050565b6000602082019050818103600083015261531b81614cd0565b9050919050565b6000602082019050818103600083015261533b81614cf3565b9050919050565b6000602082019050818103600083015261535b81614d16565b9050919050565b6000602082019050818103600083015261537b81614d7f565b9050919050565b6000602082019050818103600083015261539b81614da2565b9050919050565b600060208201905081810360008301526153bb81614dc5565b9050919050565b600060208201905081810360008301526153db81614de8565b9050919050565b600060208201905081810360008301526153fb81614e0b565b9050919050565b6000602082019050818103600083015261541b81614e2e565b9050919050565b6000602082019050818103600083015261543b81614e51565b9050919050565b60006020820190506154576000830184614e83565b92915050565b60006060820190506154726000830186614e83565b61547f6020830185614e83565b61548c6040830184614e83565b949350505050565b600061549e6154af565b90506154aa82826158fa565b919050565b6000604051905090565b600067ffffffffffffffff8211156154d4576154d3615a3a565b5b6154dd82615a69565b9050602081019050919050565b6000819050602082019050919050565b60008190508160005260206000209050919050565b600081519050919050565b600081519050919050565b600081519050919050565b6000602082019050919050565b600082825260208201905092915050565b600081905092915050565b600082825260208201905092915050565b600081905092915050565b6000615580826157cd565b915061558b836157cd565b9250827fffffffffffffffffffffffffffffffffffffffffffffffffffffffffffffffff038211156155c0576155bf61597e565b5b828201905092915050565b60006155d6826157d7565b91506155e1836157d7565b92508265ffffffffffff038211156155fc576155fb61597e565b5b828201905092915050565b6000615612826157cd565b915061561d836157cd565b92508261562d5761562c6159ad565b5b828204905092915050565b6000615643826157cd565b915061564e836157cd565b9250817fffffffffffffffffffffffffffffffffffffffffffffffffffffffffffffffff04831182151516156156875761568661597e565b5b828202905092915050565b600061569d826157d7565b91506156a8836157d7565b92508165ffffffffffff04831182151516156156c7576156c661597e565b5b828202905092915050565b60006156dd826157cd565b91506156e8836157cd565b9250828210156156fb576156fa61597e565b5b828203905092915050565b6000615711826157ad565b9050919050565b6000615723826157ad565b9050919050565b60008115159050919050565b6000819050919050565b60007fffffffffffff000000000000000000000000000000000000000000000000000082169050919050565b600061577782615718565b9050919050565b600081905061578c82615fd4565b919050565b60006fffffffffffffffffffffffffffffffff82169050919050565b600073ffffffffffffffffffffffffffffffffffffffff82169050919050565b6000819050919050565b600065ffffffffffff82169050919050565b600060ff82169050919050565b600061580182615808565b9050919050565b6000615813826157ad565b9050919050565b60006158258261582c565b9050919050565b6000615837826157ad565b9050919050565b600061584982615850565b9050919050565b600061585b826157ad565b9050919050565b600061586d8261577e565b9050919050565b600061587f826157e9565b9050919050565b82818337600083830152505050565b60005b838110156158b3578082015181840152602081019050615898565b838111156158c2576000848401525b50505050565b600060028204905060018216806158e057607f821691505b602082108114156158f4576158f3615a0b565b5b50919050565b61590382615a69565b810181811067ffffffffffffffff8211171561592257615921615a3a565b5b80604052505050565b6000615936826157cd565b91507fffffffffffffffffffffffffffffffffffffffffffffffffffffffffffffffff8214156159695761596861597e565b5b600182019050919050565b6000819050919050565b7f4e487b7100000000000000000000000000000000000000000000000000000000600052601160045260246000fd5b7f4e487b7100000000000000000000000000000000000000000000000000000000600052601260045260246000fd5b7f4e487b7100000000000000000000000000000000000000000000000000000000600052602160045260246000fd5b7f4e487b7100000000000000000000000000000000000000000000000000000000600052602260045260246000fd5b7f4e487b7100000000000000000000000000000000000000000000000000000000600052604160045260246000fd5b6000601f19601f8301169050919050565b7f43726f77646c6f616e207374696c6c206f70656e000000000000000000000000600082015250565b7f5573657220686173206e6f20616e792072657761726473000000000000000000600082015250565b7f4c6f636b696e6720706572696f6420686173206e6f742079657420706173736560008201527f6400000000000000000000000000000000000000000000000000000000000000602082015250565b7f526566657272616c20636f646573206861766520616c7265616479206265656e60008201527f2075736564206279207573657200000000000000000000000000000000000000602082015250565b7f4e6f20616e7920756e7374616b65730000000000000000000000000000000000600082015250565b7f4f776e61626c653a206e6577206f776e657220697320746865207a65726f206160008201527f6464726573730000000000000000000000000000000000000000000000000000602082015250565b7f4572726f7220647572696e67206d696e74206141535452000000000000000000600082015250565b7f416464726573733a20756e61626c6520746f2073656e642076616c75652c207260008201527f6563697069656e74206d61792068617665207265766572746564000000000000602082015250565b7f4e656564206d6f72652041535452000000000000000000000000000000000000600082015250565b7f416464726573733a20696e73756666696369656e742062616c616e6365000000600082015250565b7f43726f77646c6f616e20636c6f73656400000000000000000000000000000000600082015250565b7f4e6f7420656e6f75676820657261732070617373656421000000000000000000600082015250565b7f496e697469616c697a61626c653a20636f6e747261637420697320616c72656160008201527f647920696e697469616c697a6564000000000000000000000000000000000000602082015250565b7f4e6f7420656e6f75676820746f6b656e7320746f206275726e00000000000000600082015250565b7f4e6f7420656e6f7567682066756e647320696e20756e626f6e64656420706f6f60008201527f6c00000000000000000000000000000000000000000000000000000000000000602082015250565b7f4f776e61626c653a2063616c6c6572206973206e6f7420746865206f776e6572600082015250565b7f5573657220697320616c72656164792061207265666572726572000000000000600082015250565b7f416c6c207265776172647320616c726561647920636c61696d65640000000000600082015250565b50565b7f5769746864726177616c20616c726561647920636c61696d6564000000000000600082015250565b7f496e697469616c697a61626c653a20636f6e7472616374206973206e6f74206960008201527f6e697469616c697a696e67000000000000000000000000000000000000000000602082015250565b7f5573657220686173206e6f20616e792061415354520000000000000000000000600082015250565b7f54686572652077617320616c726561647920676c6f62616c556e7374616b652060008201527f696e207468697320706572696f64206f662074696d6500000000000000000000602082015250565b7f5265656e7472616e637947756172643a207265656e7472616e742063616c6c00600082015250565b7f546f6f206c61726765206465706f736974000000000000000000000000000000600082015250565b7f56657374696e6720706572696f6420686173206e6f742073746172746564207960008201527f6574000000000000000000000000000000000000000000000000000000000000602082015250565b60028110615fe557615fe46159dc565b5b50565b615ff181615706565b8114615ffc57600080fd5b50565b6160088161572a565b811461601357600080fd5b50565b61601f81615736565b811461602a57600080fd5b50565b6160368161576c565b811461604157600080fd5b50565b61604d816157cd565b811461605857600080fd5b5056fea2646970667358221220d8267bcc766b278009384673c5e526adae99917a7752c94d97a7ba1b963beeda64736f6c63430008040033",
			"opcodes": "PUSH1 0x80 PUSH1 0x40 MSTORE PUSH9 0x56BC75E2D63100000 PUSH1 0x9B SSTORE PUSH11 0x52B7D2DCC80CD2E4000000 PUSH1 0x9C SSTORE PUSH11 0x211654585005212800000 PUSH1 0x9D SSTORE CALLVALUE DUP1 ISZERO PUSH2 0x3B JUMPI PUSH1 0x0 DUP1 REVERT JUMPDEST POP PUSH2 0x6091 DUP1 PUSH3 0x4C PUSH1 0x0 CODECOPY PUSH1 0x0 RETURN INVALID PUSH1 0x80 PUSH1 0x40 MSTORE PUSH1 0x4 CALLDATASIZE LT PUSH2 0x39A JUMPI PUSH1 0x0 CALLDATALOAD PUSH1 0xE0 SHR DUP1 PUSH4 0x79C65068 GT PUSH2 0x1DC JUMPI DUP1 PUSH4 0xC803E58A GT PUSH2 0x102 JUMPI DUP1 PUSH4 0xE3E969AB GT PUSH2 0xA0 JUMPI DUP1 PUSH4 0xF2FDE38B GT PUSH2 0x6F JUMPI DUP1 PUSH4 0xF2FDE38B EQ PUSH2 0xCAA JUMPI DUP1 PUSH4 0xF6A3F3CF EQ PUSH2 0xCD3 JUMPI DUP1 PUSH4 0xF8293403 EQ PUSH2 0xD10 JUMPI DUP1 PUSH4 0xFD5E6DD1 EQ PUSH2 0xD3B JUMPI PUSH2 0x3A1 JUMP JUMPDEST DUP1 PUSH4 0xE3E969AB EQ PUSH2 0xC02 JUMPI DUP1 PUSH4 0xE5C1F211 EQ PUSH2 0xC3F JUMPI DUP1 PUSH4 0xEA87E3FF EQ PUSH2 0xC68 JUMPI DUP1 PUSH4 0xEEF09740 EQ PUSH2 0xC7F JUMPI PUSH2 0x3A1 JUMP JUMPDEST DUP1 PUSH4 0xD31DBAB6 GT PUSH2 0xDC JUMPI DUP1 PUSH4 0xD31DBAB6 EQ PUSH2 0xB6A JUMPI DUP1 PUSH4 0xD40DC870 EQ PUSH2 0xB95 JUMPI DUP1 PUSH4 0xD77355C4 EQ PUSH2 0xBC0 JUMPI DUP1 PUSH4 0xDDBCB5FA EQ PUSH2 0xBD7 JUMPI PUSH2 0x3A1 JUMP JUMPDEST DUP1 PUSH4 0xC803E58A EQ PUSH2 0xB01 JUMPI DUP1 PUSH4 0xD1A32C39 EQ PUSH2 0xB2A JUMPI DUP1 PUSH4 0xD1DF306C EQ PUSH2 0xB41 JUMPI PUSH2 0x3A1 JUMP JUMPDEST DUP1 PUSH4 0x973628F6 GT PUSH2 0x17A JUMPI DUP1 PUSH4 0xA6D953B7 GT PUSH2 0x149 JUMPI DUP1 PUSH4 0xA6D953B7 EQ PUSH2 0xA4F JUMPI DUP1 PUSH4 0xBFB9BA0C EQ PUSH2 0xA7A JUMPI DUP1 PUSH4 0xC4B02908 EQ PUSH2 0xAA5 JUMPI DUP1 PUSH4 0xC71367B5 EQ PUSH2 0xAD6 JUMPI PUSH2 0x3A1 JUMP JUMPDEST DUP1 PUSH4 0x973628F6 EQ PUSH2 0x97F JUMPI DUP1 PUSH4 0x9DB29340 EQ PUSH2 0x9AA JUMPI DUP1 PUSH4 0x9FDB8C93 EQ PUSH2 0x9E7 JUMPI DUP1 PUSH4 0xA25B7E49 EQ PUSH2 0xA24 JUMPI PUSH2 0x3A1 JUMP JUMPDEST DUP1 PUSH4 0x817B1CD2 GT PUSH2 0x1B6 JUMPI DUP1 PUSH4 0x817B1CD2 EQ PUSH2 0x8D5 JUMPI DUP1 PUSH4 0x8DA5CB5B EQ PUSH2 0x900 JUMPI DUP1 PUSH4 0x8F6DB5FA EQ PUSH2 0x92B JUMPI DUP1 PUSH4 0x93EF357A EQ PUSH2 0x954 JUMPI PUSH2 0x3A1 JUMP JUMPDEST DUP1 PUSH4 0x79C65068 EQ PUSH2 0x856 JUMPI DUP1 PUSH4 0x8037ECD3 EQ PUSH2 0x87F JUMPI DUP1 PUSH4 0x80BB74E8 EQ PUSH2 0x8AA JUMPI PUSH2 0x3A1 JUMP JUMPDEST DUP1 PUSH4 0x42DEBBAB GT PUSH2 0x2C1 JUMPI DUP1 PUSH4 0x597E1FB5 GT PUSH2 0x25F JUMPI DUP1 PUSH4 0x6ADB930C GT PUSH2 0x22E JUMPI DUP1 PUSH4 0x6ADB930C EQ PUSH2 0x7C0 JUMPI DUP1 PUSH4 0x6F1E8533 EQ PUSH2 0x7D7 JUMPI DUP1 PUSH4 0x715018A6 EQ PUSH2 0x814 JUMPI DUP1 PUSH4 0x77734A66 EQ PUSH2 0x82B JUMPI PUSH2 0x3A1 JUMP JUMPDEST DUP1 PUSH4 0x597E1FB5 EQ PUSH2 0x718 JUMPI DUP1 PUSH4 0x620CC15C EQ PUSH2 0x743 JUMPI DUP1 PUSH4 0x68B0216E EQ PUSH2 0x780 JUMPI DUP1 PUSH4 0x69D3BCC2 EQ PUSH2 0x797 JUMPI PUSH2 0x3A1 JUMP JUMPDEST DUP1 PUSH4 0x46F45B8D GT PUSH2 0x29B JUMPI DUP1 PUSH4 0x46F45B8D EQ PUSH2 0x6A3 JUMPI DUP1 PUSH4 0x478C4E0E EQ PUSH2 0x6BF JUMPI DUP1 PUSH4 0x53D64EE0 EQ PUSH2 0x6D6 JUMPI DUP1 PUSH4 0x5495EC81 EQ PUSH2 0x6ED JUMPI PUSH2 0x3A1 JUMP JUMPDEST DUP1 PUSH4 0x42DEBBAB EQ PUSH2 0x624 JUMPI DUP1 PUSH4 0x43352D61 EQ PUSH2 0x64D JUMPI DUP1 PUSH4 0x44C63EEC EQ PUSH2 0x678 JUMPI PUSH2 0x3A1 JUMP JUMPDEST DUP1 PUSH4 0x2DEF6620 GT PUSH2 0x339 JUMPI DUP1 PUSH4 0x372500AB GT PUSH2 0x308 JUMPI DUP1 PUSH4 0x372500AB EQ PUSH2 0x587 JUMPI DUP1 PUSH4 0x3A4B66F1 EQ PUSH2 0x59E JUMPI DUP1 PUSH4 0x3D8AB5B1 EQ PUSH2 0x5A8 JUMPI DUP1 PUSH4 0x422B1077 EQ PUSH2 0x5E5 JUMPI PUSH2 0x3A1 JUMP JUMPDEST DUP1 PUSH4 0x2DEF6620 EQ PUSH2 0x4DF JUMPI DUP1 PUSH4 0x2E1A7D4D EQ PUSH2 0x4F6 JUMPI DUP1 PUSH4 0x2E415702 EQ PUSH2 0x51F JUMPI DUP1 PUSH4 0x34294447 EQ PUSH2 0x54A JUMPI PUSH2 0x3A1 JUMP JUMPDEST DUP1 PUSH4 0x22456682 GT PUSH2 0x375 JUMPI DUP1 PUSH4 0x22456682 EQ PUSH2 0x437 JUMPI DUP1 PUSH4 0x24025B19 EQ PUSH2 0x460 JUMPI DUP1 PUSH4 0x26B321D1 EQ PUSH2 0x48B JUMPI DUP1 PUSH4 0x2941BC29 EQ PUSH2 0x4B4 JUMPI PUSH2 0x3A1 JUMP JUMPDEST DUP1 PUSH3 0x179FBD EQ PUSH2 0x3A6 JUMPI DUP1 PUSH4 0x1459457A EQ PUSH2 0x3D1 JUMPI DUP1 PUSH4 0x16934FC4 EQ PUSH2 0x3FA JUMPI PUSH2 0x3A1 JUMP JUMPDEST CALLDATASIZE PUSH2 0x3A1 JUMPI STOP JUMPDEST PUSH1 0x0 DUP1 REVERT JUMPDEST CALLVALUE DUP1 ISZERO PUSH2 0x3B2 JUMPI PUSH1 0x0 DUP1 REVERT JUMPDEST POP PUSH2 0x3BB PUSH2 0xD78 JUMP JUMPDEST PUSH1 0x40 MLOAD PUSH2 0x3C8 SWAP2 SWAP1 PUSH2 0x5442 JUMP JUMPDEST PUSH1 0x40 MLOAD DUP1 SWAP2 SUB SWAP1 RETURN JUMPDEST CALLVALUE DUP1 ISZERO PUSH2 0x3DD JUMPI PUSH1 0x0 DUP1 REVERT JUMPDEST POP PUSH2 0x3F8 PUSH1 0x4 DUP1 CALLDATASIZE SUB DUP2 ADD SWAP1 PUSH2 0x3F3 SWAP2 SWAP1 PUSH2 0x46D8 JUMP JUMPDEST PUSH2 0xD7E JUMP JUMPDEST STOP JUMPDEST CALLVALUE DUP1 ISZERO PUSH2 0x406 JUMPI PUSH1 0x0 DUP1 REVERT JUMPDEST POP PUSH2 0x421 PUSH1 0x4 DUP1 CALLDATASIZE SUB DUP2 ADD SWAP1 PUSH2 0x41C SWAP2 SWAP1 PUSH2 0x4621 JUMP JUMPDEST PUSH2 0x11DF JUMP JUMPDEST PUSH1 0x40 MLOAD PUSH2 0x42E SWAP2 SWAP1 PUSH2 0x5442 JUMP JUMPDEST PUSH1 0x40 MLOAD DUP1 SWAP2 SUB SWAP1 RETURN JUMPDEST CALLVALUE DUP1 ISZERO PUSH2 0x443 JUMPI PUSH1 0x0 DUP1 REVERT JUMPDEST POP PUSH2 0x45E PUSH1 0x4 DUP1 CALLDATASIZE SUB DUP2 ADD SWAP1 PUSH2 0x459 SWAP2 SWAP1 PUSH2 0x4790 JUMP JUMPDEST PUSH2 0x11F7 JUMP JUMPDEST STOP JUMPDEST CALLVALUE DUP1 ISZERO PUSH2 0x46C JUMPI PUSH1 0x0 DUP1 REVERT JUMPDEST POP PUSH2 0x475 PUSH2 0x1209 JUMP JUMPDEST PUSH1 0x40 MLOAD PUSH2 0x482 SWAP2 SWAP1 PUSH2 0x5442 JUMP JUMPDEST PUSH1 0x40 MLOAD DUP1 SWAP2 SUB SWAP1 RETURN JUMPDEST CALLVALUE DUP1 ISZERO PUSH2 0x497 JUMPI PUSH1 0x0 DUP1 REVERT JUMPDEST POP PUSH2 0x4B2 PUSH1 0x4 DUP1 CALLDATASIZE SUB DUP2 ADD SWAP1 PUSH2 0x4AD SWAP2 SWAP1 PUSH2 0x4790 JUMP JUMPDEST PUSH2 0x120F JUMP JUMPDEST STOP JUMPDEST CALLVALUE DUP1 ISZERO PUSH2 0x4C0 JUMPI PUSH1 0x0 DUP1 REVERT JUMPDEST POP PUSH2 0x4C9 PUSH2 0x1224 JUMP JUMPDEST PUSH1 0x40 MLOAD PUSH2 0x4D6 SWAP2 SWAP1 PUSH2 0x5442 JUMP JUMPDEST PUSH1 0x40 MLOAD DUP1 SWAP2 SUB SWAP1 RETURN JUMPDEST CALLVALUE DUP1 ISZERO PUSH2 0x4EB JUMPI PUSH1 0x0 DUP1 REVERT JUMPDEST POP PUSH2 0x4F4 PUSH2 0x122A JUMP JUMPDEST STOP JUMPDEST CALLVALUE DUP1 ISZERO PUSH2 0x502 JUMPI PUSH1 0x0 DUP1 REVERT JUMPDEST POP PUSH2 0x51D PUSH1 0x4 DUP1 CALLDATASIZE SUB DUP2 ADD SWAP1 PUSH2 0x518 SWAP2 SWAP1 PUSH2 0x4790 JUMP JUMPDEST PUSH2 0x171E JUMP JUMPDEST STOP JUMPDEST CALLVALUE DUP1 ISZERO PUSH2 0x52B JUMPI PUSH1 0x0 DUP1 REVERT JUMPDEST POP PUSH2 0x534 PUSH2 0x197A JUMP JUMPDEST PUSH1 0x40 MLOAD PUSH2 0x541 SWAP2 SWAP1 PUSH2 0x50AF JUMP JUMPDEST PUSH1 0x40 MLOAD DUP1 SWAP2 SUB SWAP1 RETURN JUMPDEST CALLVALUE DUP1 ISZERO PUSH2 0x556 JUMPI PUSH1 0x0 DUP1 REVERT JUMPDEST POP PUSH2 0x571 PUSH1 0x4 DUP1 CALLDATASIZE SUB DUP2 ADD SWAP1 PUSH2 0x56C SWAP2 SWAP1 PUSH2 0x4621 JUMP JUMPDEST PUSH2 0x19A0 JUMP JUMPDEST PUSH1 0x40 MLOAD PUSH2 0x57E SWAP2 SWAP1 PUSH2 0x5100 JUMP JUMPDEST PUSH1 0x40 MLOAD DUP1 SWAP2 SUB SWAP1 RETURN JUMPDEST CALLVALUE DUP1 ISZERO PUSH2 0x593 JUMPI PUSH1 0x0 DUP1 REVERT JUMPDEST POP PUSH2 0x59C PUSH2 0x1A40 JUMP JUMPDEST STOP JUMPDEST PUSH2 0x5A6 PUSH2 0x1C84 JUMP JUMPDEST STOP JUMPDEST CALLVALUE DUP1 ISZERO PUSH2 0x5B4 JUMPI PUSH1 0x0 DUP1 REVERT JUMPDEST POP PUSH2 0x5CF PUSH1 0x4 DUP1 CALLDATASIZE SUB DUP2 ADD SWAP1 PUSH2 0x5CA SWAP2 SWAP1 PUSH2 0x474F JUMP JUMPDEST PUSH2 0x1CEE JUMP JUMPDEST PUSH1 0x40 MLOAD PUSH2 0x5DC SWAP2 SWAP1 PUSH2 0x4F1C JUMP JUMPDEST PUSH1 0x40 MLOAD DUP1 SWAP2 SUB SWAP1 RETURN JUMPDEST CALLVALUE DUP1 ISZERO PUSH2 0x5F1 JUMPI PUSH1 0x0 DUP1 REVERT JUMPDEST POP PUSH2 0x60C PUSH1 0x4 DUP1 CALLDATASIZE SUB DUP2 ADD SWAP1 PUSH2 0x607 SWAP2 SWAP1 PUSH2 0x464A JUMP JUMPDEST PUSH2 0x1D37 JUMP JUMPDEST PUSH1 0x40 MLOAD PUSH2 0x61B SWAP4 SWAP3 SWAP2 SWAP1 PUSH2 0x545D JUMP JUMPDEST PUSH1 0x40 MLOAD DUP1 SWAP2 SUB SWAP1 RETURN JUMPDEST CALLVALUE DUP1 ISZERO PUSH2 0x630 JUMPI PUSH1 0x0 DUP1 REVERT JUMPDEST POP PUSH2 0x64B PUSH1 0x4 DUP1 CALLDATASIZE SUB DUP2 ADD SWAP1 PUSH2 0x646 SWAP2 SWAP1 PUSH2 0x4790 JUMP JUMPDEST PUSH2 0x1D7E JUMP JUMPDEST STOP JUMPDEST CALLVALUE DUP1 ISZERO PUSH2 0x659 JUMPI PUSH1 0x0 DUP1 REVERT JUMPDEST POP PUSH2 0x662 PUSH2 0x1DD4 JUMP JUMPDEST PUSH1 0x40 MLOAD PUSH2 0x66F SWAP2 SWAP1 PUSH2 0x4FF8 JUMP JUMPDEST PUSH1 0x40 MLOAD DUP1 SWAP2 SUB SWAP1 RETURN JUMPDEST CALLVALUE DUP1 ISZERO PUSH2 0x684 JUMPI PUSH1 0x0 DUP1 REVERT JUMPDEST POP PUSH2 0x68D PUSH2 0x1E62 JUMP JUMPDEST PUSH1 0x40 MLOAD PUSH2 0x69A SWAP2 SWAP1 PUSH2 0x5079 JUMP JUMPDEST PUSH1 0x40 MLOAD DUP1 SWAP2 SUB SWAP1 RETURN JUMPDEST PUSH2 0x6BD PUSH1 0x4 DUP1 CALLDATASIZE SUB DUP2 ADD SWAP1 PUSH2 0x6B8 SWAP2 SWAP1 PUSH2 0x474F JUMP JUMPDEST PUSH2 0x1E88 JUMP JUMPDEST STOP JUMPDEST CALLVALUE DUP1 ISZERO PUSH2 0x6CB JUMPI PUSH1 0x0 DUP1 REVERT JUMPDEST POP PUSH2 0x6D4 PUSH2 0x2488 JUMP JUMPDEST STOP JUMPDEST CALLVALUE DUP1 ISZERO PUSH2 0x6E2 JUMPI PUSH1 0x0 DUP1 REVERT JUMPDEST POP PUSH2 0x6EB PUSH2 0x2776 JUMP JUMPDEST STOP JUMPDEST CALLVALUE DUP1 ISZERO PUSH2 0x6F9 JUMPI PUSH1 0x0 DUP1 REVERT JUMPDEST POP PUSH2 0x702 PUSH2 0x2807 JUMP JUMPDEST PUSH1 0x40 MLOAD PUSH2 0x70F SWAP2 SWAP1 PUSH2 0x5442 JUMP JUMPDEST PUSH1 0x40 MLOAD DUP1 SWAP2 SUB SWAP1 RETURN JUMPDEST CALLVALUE DUP1 ISZERO PUSH2 0x724 JUMPI PUSH1 0x0 DUP1 REVERT JUMPDEST POP PUSH2 0x72D PUSH2 0x280D JUMP JUMPDEST PUSH1 0x40 MLOAD PUSH2 0x73A SWAP2 SWAP1 PUSH2 0x501A JUMP JUMPDEST PUSH1 0x40 MLOAD DUP1 SWAP2 SUB SWAP1 RETURN JUMPDEST CALLVALUE DUP1 ISZERO PUSH2 0x74F JUMPI PUSH1 0x0 DUP1 REVERT JUMPDEST POP PUSH2 0x76A PUSH1 0x4 DUP1 CALLDATASIZE SUB DUP2 ADD SWAP1 PUSH2 0x765 SWAP2 SWAP1 PUSH2 0x4621 JUMP JUMPDEST PUSH2 0x2820 JUMP JUMPDEST PUSH1 0x40 MLOAD PUSH2 0x777 SWAP2 SWAP1 PUSH2 0x501A JUMP JUMPDEST PUSH1 0x40 MLOAD DUP1 SWAP2 SUB SWAP1 RETURN JUMPDEST CALLVALUE DUP1 ISZERO PUSH2 0x78C JUMPI PUSH1 0x0 DUP1 REVERT JUMPDEST POP PUSH2 0x795 PUSH2 0x2840 JUMP JUMPDEST STOP JUMPDEST CALLVALUE DUP1 ISZERO PUSH2 0x7A3 JUMPI PUSH1 0x0 DUP1 REVERT JUMPDEST POP PUSH2 0x7BE PUSH1 0x4 DUP1 CALLDATASIZE SUB DUP2 ADD SWAP1 PUSH2 0x7B9 SWAP2 SWAP1 PUSH2 0x4621 JUMP JUMPDEST PUSH2 0x2920 JUMP JUMPDEST STOP JUMPDEST CALLVALUE DUP1 ISZERO PUSH2 0x7CC JUMPI PUSH1 0x0 DUP1 REVERT JUMPDEST POP PUSH2 0x7D5 PUSH2 0x296C JUMP JUMPDEST STOP JUMPDEST CALLVALUE DUP1 ISZERO PUSH2 0x7E3 JUMPI PUSH1 0x0 DUP1 REVERT JUMPDEST POP PUSH2 0x7FE PUSH1 0x4 DUP1 CALLDATASIZE SUB DUP2 ADD SWAP1 PUSH2 0x7F9 SWAP2 SWAP1 PUSH2 0x4621 JUMP JUMPDEST PUSH2 0x2ADE JUMP JUMPDEST PUSH1 0x40 MLOAD PUSH2 0x80B SWAP2 SWAP1 PUSH2 0x501A JUMP JUMPDEST PUSH1 0x40 MLOAD DUP1 SWAP2 SUB SWAP1 RETURN JUMPDEST CALLVALUE DUP1 ISZERO PUSH2 0x820 JUMPI PUSH1 0x0 DUP1 REVERT JUMPDEST POP PUSH2 0x829 PUSH2 0x2AFE JUMP JUMPDEST STOP JUMPDEST CALLVALUE DUP1 ISZERO PUSH2 0x837 JUMPI PUSH1 0x0 DUP1 REVERT JUMPDEST POP PUSH2 0x840 PUSH2 0x2B12 JUMP JUMPDEST PUSH1 0x40 MLOAD PUSH2 0x84D SWAP2 SWAP1 PUSH2 0x50AF JUMP JUMPDEST PUSH1 0x40 MLOAD DUP1 SWAP2 SUB SWAP1 RETURN JUMPDEST CALLVALUE DUP1 ISZERO PUSH2 0x862 JUMPI PUSH1 0x0 DUP1 REVERT JUMPDEST POP PUSH2 0x87D PUSH1 0x4 DUP1 CALLDATASIZE SUB DUP2 ADD SWAP1 PUSH2 0x878 SWAP2 SWAP1 PUSH2 0x464A JUMP JUMPDEST PUSH2 0x2B38 JUMP JUMPDEST STOP JUMPDEST CALLVALUE DUP1 ISZERO PUSH2 0x88B JUMPI PUSH1 0x0 DUP1 REVERT JUMPDEST POP PUSH2 0x894 PUSH2 0x2BF4 JUMP JUMPDEST PUSH1 0x40 MLOAD PUSH2 0x8A1 SWAP2 SWAP1 PUSH2 0x5442 JUMP JUMPDEST PUSH1 0x40 MLOAD DUP1 SWAP2 SUB SWAP1 RETURN JUMPDEST CALLVALUE DUP1 ISZERO PUSH2 0x8B6 JUMPI PUSH1 0x0 DUP1 REVERT JUMPDEST POP PUSH2 0x8BF PUSH2 0x2BFA JUMP JUMPDEST PUSH1 0x40 MLOAD PUSH2 0x8CC SWAP2 SWAP1 PUSH2 0x5100 JUMP JUMPDEST PUSH1 0x40 MLOAD DUP1 SWAP2 SUB SWAP1 RETURN JUMPDEST CALLVALUE DUP1 ISZERO PUSH2 0x8E1 JUMPI PUSH1 0x0 DUP1 REVERT JUMPDEST POP PUSH2 0x8EA PUSH2 0x2E31 JUMP JUMPDEST PUSH1 0x40 MLOAD PUSH2 0x8F7 SWAP2 SWAP1 PUSH2 0x5442 JUMP JUMPDEST PUSH1 0x40 MLOAD DUP1 SWAP2 SUB SWAP1 RETURN JUMPDEST CALLVALUE DUP1 ISZERO PUSH2 0x90C JUMPI PUSH1 0x0 DUP1 REVERT JUMPDEST POP PUSH2 0x915 PUSH2 0x2E37 JUMP JUMPDEST PUSH1 0x40 MLOAD PUSH2 0x922 SWAP2 SWAP1 PUSH2 0x4F1C JUMP JUMPDEST PUSH1 0x40 MLOAD DUP1 SWAP2 SUB SWAP1 RETURN JUMPDEST CALLVALUE DUP1 ISZERO PUSH2 0x937 JUMPI PUSH1 0x0 DUP1 REVERT JUMPDEST POP PUSH2 0x952 PUSH1 0x4 DUP1 CALLDATASIZE SUB DUP2 ADD SWAP1 PUSH2 0x94D SWAP2 SWAP1 PUSH2 0x481E JUMP JUMPDEST PUSH2 0x2E61 JUMP JUMPDEST STOP JUMPDEST CALLVALUE DUP1 ISZERO PUSH2 0x960 JUMPI PUSH1 0x0 DUP1 REVERT JUMPDEST POP PUSH2 0x969 PUSH2 0x2EB5 JUMP JUMPDEST PUSH1 0x40 MLOAD PUSH2 0x976 SWAP2 SWAP1 PUSH2 0x5442 JUMP JUMPDEST PUSH1 0x40 MLOAD DUP1 SWAP2 SUB SWAP1 RETURN JUMPDEST CALLVALUE DUP1 ISZERO PUSH2 0x98B JUMPI PUSH1 0x0 DUP1 REVERT JUMPDEST POP PUSH2 0x994 PUSH2 0x2EBB JUMP JUMPDEST PUSH1 0x40 MLOAD PUSH2 0x9A1 SWAP2 SWAP1 PUSH2 0x5442 JUMP JUMPDEST PUSH1 0x40 MLOAD DUP1 SWAP2 SUB SWAP1 RETURN JUMPDEST CALLVALUE DUP1 ISZERO PUSH2 0x9B6 JUMPI PUSH1 0x0 DUP1 REVERT JUMPDEST POP PUSH2 0x9D1 PUSH1 0x4 DUP1 CALLDATASIZE SUB DUP2 ADD SWAP1 PUSH2 0x9CC SWAP2 SWAP1 PUSH2 0x4621 JUMP JUMPDEST PUSH2 0x2F62 JUMP JUMPDEST PUSH1 0x40 MLOAD PUSH2 0x9DE SWAP2 SWAP1 PUSH2 0x5442 JUMP JUMPDEST PUSH1 0x40 MLOAD DUP1 SWAP2 SUB SWAP1 RETURN JUMPDEST CALLVALUE DUP1 ISZERO PUSH2 0x9F3 JUMPI PUSH1 0x0 DUP1 REVERT JUMPDEST POP PUSH2 0xA0E PUSH1 0x4 DUP1 CALLDATASIZE SUB DUP2 ADD SWAP1 PUSH2 0xA09 SWAP2 SWAP1 PUSH2 0x4621 JUMP JUMPDEST PUSH2 0x306D JUMP JUMPDEST PUSH1 0x40 MLOAD PUSH2 0xA1B SWAP2 SWAP1 PUSH2 0x5442 JUMP JUMPDEST PUSH1 0x40 MLOAD DUP1 SWAP2 SUB SWAP1 RETURN JUMPDEST CALLVALUE DUP1 ISZERO PUSH2 0xA30 JUMPI PUSH1 0x0 DUP1 REVERT JUMPDEST POP PUSH2 0xA39 PUSH2 0x3085 JUMP JUMPDEST PUSH1 0x40 MLOAD PUSH2 0xA46 SWAP2 SWAP1 PUSH2 0x5442 JUMP JUMPDEST PUSH1 0x40 MLOAD DUP1 SWAP2 SUB SWAP1 RETURN JUMPDEST CALLVALUE DUP1 ISZERO PUSH2 0xA5B JUMPI PUSH1 0x0 DUP1 REVERT JUMPDEST POP PUSH2 0xA64 PUSH2 0x308B JUMP JUMPDEST PUSH1 0x40 MLOAD PUSH2 0xA71 SWAP2 SWAP1 PUSH2 0x4F1C JUMP JUMPDEST PUSH1 0x40 MLOAD DUP1 SWAP2 SUB SWAP1 RETURN JUMPDEST CALLVALUE DUP1 ISZERO PUSH2 0xA86 JUMPI PUSH1 0x0 DUP1 REVERT JUMPDEST POP PUSH2 0xA8F PUSH2 0x30B1 JUMP JUMPDEST PUSH1 0x40 MLOAD PUSH2 0xA9C SWAP2 SWAP1 PUSH2 0x5442 JUMP JUMPDEST PUSH1 0x40 MLOAD DUP1 SWAP2 SUB SWAP1 RETURN JUMPDEST CALLVALUE DUP1 ISZERO PUSH2 0xAB1 JUMPI PUSH1 0x0 DUP1 REVERT JUMPDEST POP PUSH2 0xABA PUSH2 0x30B7 JUMP JUMPDEST PUSH1 0x40 MLOAD PUSH2 0xACD SWAP8 SWAP7 SWAP6 SWAP5 SWAP4 SWAP3 SWAP2 SWAP1 PUSH2 0x4F89 JUMP JUMPDEST PUSH1 0x40 MLOAD DUP1 SWAP2 SUB SWAP1 RETURN JUMPDEST CALLVALUE DUP1 ISZERO PUSH2 0xAE2 JUMPI PUSH1 0x0 DUP1 REVERT JUMPDEST POP PUSH2 0xAEB PUSH2 0x3114 JUMP JUMPDEST PUSH1 0x40 MLOAD PUSH2 0xAF8 SWAP2 SWAP1 PUSH2 0x5442 JUMP JUMPDEST PUSH1 0x40 MLOAD DUP1 SWAP2 SUB SWAP1 RETURN JUMPDEST CALLVALUE DUP1 ISZERO PUSH2 0xB0D JUMPI PUSH1 0x0 DUP1 REVERT JUMPDEST POP PUSH2 0xB28 PUSH1 0x4 DUP1 CALLDATASIZE SUB DUP2 ADD SWAP1 PUSH2 0xB23 SWAP2 SWAP1 PUSH2 0x47E2 JUMP JUMPDEST PUSH2 0x311A JUMP JUMPDEST STOP JUMPDEST CALLVALUE DUP1 ISZERO PUSH2 0xB36 JUMPI PUSH1 0x0 DUP1 REVERT JUMPDEST POP PUSH2 0xB3F PUSH2 0x3134 JUMP JUMPDEST STOP JUMPDEST CALLVALUE DUP1 ISZERO PUSH2 0xB4D JUMPI PUSH1 0x0 DUP1 REVERT JUMPDEST POP PUSH2 0xB68 PUSH1 0x4 DUP1 CALLDATASIZE SUB DUP2 ADD SWAP1 PUSH2 0xB63 SWAP2 SWAP1 PUSH2 0x464A JUMP JUMPDEST PUSH2 0x3168 JUMP JUMPDEST STOP JUMPDEST CALLVALUE DUP1 ISZERO PUSH2 0xB76 JUMPI PUSH1 0x0 DUP1 REVERT JUMPDEST POP PUSH2 0xB7F PUSH2 0x3224 JUMP JUMPDEST PUSH1 0x40 MLOAD PUSH2 0xB8C SWAP2 SWAP1 PUSH2 0x5442 JUMP JUMPDEST PUSH1 0x40 MLOAD DUP1 SWAP2 SUB SWAP1 RETURN JUMPDEST CALLVALUE DUP1 ISZERO PUSH2 0xBA1 JUMPI PUSH1 0x0 DUP1 REVERT JUMPDEST POP PUSH2 0xBAA PUSH2 0x32D0 JUMP JUMPDEST PUSH1 0x40 MLOAD PUSH2 0xBB7 SWAP2 SWAP1 PUSH2 0x5442 JUMP JUMPDEST PUSH1 0x40 MLOAD DUP1 SWAP2 SUB SWAP1 RETURN JUMPDEST CALLVALUE DUP1 ISZERO PUSH2 0xBCC JUMPI PUSH1 0x0 DUP1 REVERT JUMPDEST POP PUSH2 0xBD5 PUSH2 0x32D6 JUMP JUMPDEST STOP JUMPDEST CALLVALUE DUP1 ISZERO PUSH2 0xBE3 JUMPI PUSH1 0x0 DUP1 REVERT JUMPDEST POP PUSH2 0xBEC PUSH2 0x33B1 JUMP JUMPDEST PUSH1 0x40 MLOAD PUSH2 0xBF9 SWAP2 SWAP1 PUSH2 0x5442 JUMP JUMPDEST PUSH1 0x40 MLOAD DUP1 SWAP2 SUB SWAP1 RETURN JUMPDEST CALLVALUE DUP1 ISZERO PUSH2 0xC0E JUMPI PUSH1 0x0 DUP1 REVERT JUMPDEST POP PUSH2 0xC29 PUSH1 0x4 DUP1 CALLDATASIZE SUB DUP2 ADD SWAP1 PUSH2 0xC24 SWAP2 SWAP1 PUSH2 0x4621 JUMP JUMPDEST PUSH2 0x33B7 JUMP JUMPDEST PUSH1 0x40 MLOAD PUSH2 0xC36 SWAP2 SWAP1 PUSH2 0x5100 JUMP JUMPDEST PUSH1 0x40 MLOAD DUP1 SWAP2 SUB SWAP1 RETURN JUMPDEST CALLVALUE DUP1 ISZERO PUSH2 0xC4B JUMPI PUSH1 0x0 DUP1 REVERT JUMPDEST POP PUSH2 0xC66 PUSH1 0x4 DUP1 CALLDATASIZE SUB DUP2 ADD SWAP1 PUSH2 0xC61 SWAP2 SWAP1 PUSH2 0x464A JUMP JUMPDEST PUSH2 0x3457 JUMP JUMPDEST STOP JUMPDEST CALLVALUE DUP1 ISZERO PUSH2 0xC74 JUMPI PUSH1 0x0 DUP1 REVERT JUMPDEST POP PUSH2 0xC7D PUSH2 0x3513 JUMP JUMPDEST STOP JUMPDEST CALLVALUE DUP1 ISZERO PUSH2 0xC8B JUMPI PUSH1 0x0 DUP1 REVERT JUMPDEST POP PUSH2 0xC94 PUSH2 0x37AE JUMP JUMPDEST PUSH1 0x40 MLOAD PUSH2 0xCA1 SWAP2 SWAP1 PUSH2 0x5442 JUMP JUMPDEST PUSH1 0x40 MLOAD DUP1 SWAP2 SUB SWAP1 RETURN JUMPDEST CALLVALUE DUP1 ISZERO PUSH2 0xCB6 JUMPI PUSH1 0x0 DUP1 REVERT JUMPDEST POP PUSH2 0xCD1 PUSH1 0x4 DUP1 CALLDATASIZE SUB DUP2 ADD SWAP1 PUSH2 0xCCC SWAP2 SWAP1 PUSH2 0x4621 JUMP JUMPDEST PUSH2 0x3867 JUMP JUMPDEST STOP JUMPDEST CALLVALUE DUP1 ISZERO PUSH2 0xCDF JUMPI PUSH1 0x0 DUP1 REVERT JUMPDEST POP PUSH2 0xCFA PUSH1 0x4 DUP1 CALLDATASIZE SUB DUP2 ADD SWAP1 PUSH2 0xCF5 SWAP2 SWAP1 PUSH2 0x4621 JUMP JUMPDEST PUSH2 0x38EB JUMP JUMPDEST PUSH1 0x40 MLOAD PUSH2 0xD07 SWAP2 SWAP1 PUSH2 0x5442 JUMP JUMPDEST PUSH1 0x40 MLOAD DUP1 SWAP2 SUB SWAP1 RETURN JUMPDEST CALLVALUE DUP1 ISZERO PUSH2 0xD1C JUMPI PUSH1 0x0 DUP1 REVERT JUMPDEST POP PUSH2 0xD25 PUSH2 0x394E JUMP JUMPDEST PUSH1 0x40 MLOAD PUSH2 0xD32 SWAP2 SWAP1 PUSH2 0x5094 JUMP JUMPDEST PUSH1 0x40 MLOAD DUP1 SWAP2 SUB SWAP1 RETURN JUMPDEST CALLVALUE DUP1 ISZERO PUSH2 0xD47 JUMPI PUSH1 0x0 DUP1 REVERT JUMPDEST POP PUSH2 0xD62 PUSH1 0x4 DUP1 CALLDATASIZE SUB DUP2 ADD SWAP1 PUSH2 0xD5D SWAP2 SWAP1 PUSH2 0x4790 JUMP JUMPDEST PUSH2 0x3974 JUMP JUMPDEST PUSH1 0x40 MLOAD PUSH2 0xD6F SWAP2 SWAP1 PUSH2 0x4F1C JUMP JUMPDEST PUSH1 0x40 MLOAD DUP1 SWAP2 SUB SWAP1 RETURN JUMPDEST PUSH1 0xA3 SLOAD DUP2 JUMP JUMPDEST PUSH1 0x0 DUP1 PUSH1 0x1 SWAP1 SLOAD SWAP1 PUSH2 0x100 EXP SWAP1 DIV PUSH1 0xFF AND ISZERO SWAP1 POP DUP1 DUP1 ISZERO PUSH2 0xDAF JUMPI POP PUSH1 0x1 PUSH1 0x0 DUP1 SLOAD SWAP1 PUSH2 0x100 EXP SWAP1 DIV PUSH1 0xFF AND PUSH1 0xFF AND LT JUMPDEST DUP1 PUSH2 0xDDC JUMPI POP PUSH2 0xDBE ADDRESS PUSH2 0x39B3 JUMP JUMPDEST ISZERO DUP1 ISZERO PUSH2 0xDDB JUMPI POP PUSH1 0x1 PUSH1 0x0 DUP1 SLOAD SWAP1 PUSH2 0x100 EXP SWAP1 DIV PUSH1 0xFF AND PUSH1 0xFF AND EQ JUMPDEST JUMPDEST PUSH2 0xE1B JUMPI PUSH1 0x40 MLOAD PUSH32 0x8C379A000000000000000000000000000000000000000000000000000000000 DUP2 MSTORE PUSH1 0x4 ADD PUSH2 0xE12 SWAP1 PUSH2 0x52A2 JUMP JUMPDEST PUSH1 0x40 MLOAD DUP1 SWAP2 SUB SWAP1 REVERT JUMPDEST PUSH1 0x1 PUSH1 0x0 DUP1 PUSH2 0x100 EXP DUP2 SLOAD DUP2 PUSH1 0xFF MUL NOT AND SWAP1 DUP4 PUSH1 0xFF AND MUL OR SWAP1 SSTORE POP DUP1 ISZERO PUSH2 0xE58 JUMPI PUSH1 0x1 PUSH1 0x0 PUSH1 0x1 PUSH2 0x100 EXP DUP2 SLOAD DUP2 PUSH1 0xFF MUL NOT AND SWAP1 DUP4 ISZERO ISZERO MUL OR SWAP1 SSTORE POP JUMPDEST PUSH2 0xE60 PUSH2 0x39D6 JUMP JUMPDEST DUP4 PUSH1 0xA5 PUSH1 0x0 PUSH2 0x100 EXP DUP2 SLOAD DUP2 PUSH20 0xFFFFFFFFFFFFFFFFFFFFFFFFFFFFFFFFFFFFFFFF MUL NOT AND SWAP1 DUP4 PUSH20 0xFFFFFFFFFFFFFFFFFFFFFFFFFFFFFFFFFFFFFFFF AND MUL OR SWAP1 SSTORE POP DUP3 PUSH1 0xA6 PUSH1 0x0 PUSH2 0x100 EXP DUP2 SLOAD DUP2 PUSH20 0xFFFFFFFFFFFFFFFFFFFFFFFFFFFFFFFFFFFFFFFF MUL NOT AND SWAP1 DUP4 PUSH20 0xFFFFFFFFFFFFFFFFFFFFFFFFFFFFFFFFFFFFFFFF AND MUL OR SWAP1 SSTORE POP DUP2 PUSH1 0xA7 PUSH1 0x0 PUSH2 0x100 EXP DUP2 SLOAD DUP2 PUSH20 0xFFFFFFFFFFFFFFFFFFFFFFFFFFFFFFFFFFFFFFFF MUL NOT AND SWAP1 DUP4 PUSH20 0xFFFFFFFFFFFFFFFFFFFFFFFFFFFFFFFFFFFFFFFF AND MUL OR SWAP1 SSTORE POP DUP6 PUSH1 0x97 PUSH1 0x0 PUSH2 0x100 EXP DUP2 SLOAD DUP2 PUSH20 0xFFFFFFFFFFFFFFFFFFFFFFFFFFFFFFFFFFFFFFFF MUL NOT AND SWAP1 DUP4 PUSH20 0xFFFFFFFFFFFFFFFFFFFFFFFFFFFFFFFFFFFFFFFF AND MUL OR SWAP1 SSTORE POP DUP5 PUSH1 0x98 PUSH1 0x0 PUSH2 0x100 EXP DUP2 SLOAD DUP2 PUSH20 0xFFFFFFFFFFFFFFFFFFFFFFFFFFFFFFFFFFFFFFFF MUL NOT AND SWAP1 DUP4 PUSH20 0xFFFFFFFFFFFFFFFFFFFFFFFFFFFFFFFFFFFFFFFF AND MUL OR SWAP1 SSTORE POP PUSH1 0x40 MLOAD DUP1 PUSH1 0xE0 ADD PUSH1 0x40 MSTORE DUP1 ADDRESS PUSH20 0xFFFFFFFFFFFFFFFFFFFFFFFFFFFFFFFFFFFFFFFF AND DUP2 MSTORE PUSH1 0x20 ADD PUSH3 0x93A80 DUP2 MSTORE PUSH1 0x20 ADD TIMESTAMP DUP2 MSTORE PUSH1 0x20 ADD PUSH3 0x278D00 PUSH1 0x6 PUSH2 0xFEB SWAP2 SWAP1 PUSH2 0x5638 JUMP JUMPDEST DUP2 MSTORE PUSH1 0x20 ADD PUSH3 0x93A80 DUP2 MSTORE PUSH1 0x20 ADD PUSH1 0x1 ISZERO ISZERO DUP2 MSTORE PUSH1 0x20 ADD PUSH1 0x9D SLOAD DUP2 MSTORE POP PUSH1 0xB1 PUSH1 0x0 DUP3 ADD MLOAD DUP2 PUSH1 0x0 ADD PUSH1 0x0 PUSH2 0x100 EXP DUP2 SLOAD DUP2 PUSH20 0xFFFFFFFFFFFFFFFFFFFFFFFFFFFFFFFFFFFFFFFF MUL NOT AND SWAP1 DUP4 PUSH20 0xFFFFFFFFFFFFFFFFFFFFFFFFFFFFFFFFFFFFFFFF AND MUL OR SWAP1 SSTORE POP PUSH1 0x20 DUP3 ADD MLOAD DUP2 PUSH1 0x1 ADD SSTORE PUSH1 0x40 DUP3 ADD MLOAD DUP2 PUSH1 0x2 ADD SSTORE PUSH1 0x60 DUP3 ADD MLOAD DUP2 PUSH1 0x3 ADD SSTORE PUSH1 0x80 DUP3 ADD MLOAD DUP2 PUSH1 0x4 ADD SSTORE PUSH1 0xA0 DUP3 ADD MLOAD DUP2 PUSH1 0x5 ADD PUSH1 0x0 PUSH2 0x100 EXP DUP2 SLOAD DUP2 PUSH1 0xFF MUL NOT AND SWAP1 DUP4 ISZERO ISZERO MUL OR SWAP1 SSTORE POP PUSH1 0xC0 DUP3 ADD MLOAD DUP2 PUSH1 0x6 ADD SSTORE SWAP1 POP POP PUSH1 0xA7 PUSH1 0x0 SWAP1 SLOAD SWAP1 PUSH2 0x100 EXP SWAP1 DIV PUSH20 0xFFFFFFFFFFFFFFFFFFFFFFFFFFFFFFFFFFFFFFFF AND PUSH20 0xFFFFFFFFFFFFFFFFFFFFFFFFFFFFFFFFFFFFFFFF AND PUSH4 0xDB62B201 PUSH1 0x40 MLOAD DUP2 PUSH4 0xFFFFFFFF AND PUSH1 0xE0 SHL DUP2 MSTORE PUSH1 0x4 ADD PUSH1 0x20 PUSH1 0x40 MLOAD DUP1 DUP4 SUB DUP2 DUP7 DUP1 EXTCODESIZE ISZERO DUP1 ISZERO PUSH2 0x110E JUMPI PUSH1 0x0 DUP1 REVERT JUMPDEST POP GAS STATICCALL ISZERO DUP1 ISZERO PUSH2 0x1122 JUMPI RETURNDATASIZE PUSH1 0x0 DUP1 RETURNDATACOPY RETURNDATASIZE PUSH1 0x0 REVERT JUMPDEST POP POP POP POP PUSH1 0x40 MLOAD RETURNDATASIZE PUSH1 0x1F NOT PUSH1 0x1F DUP3 ADD AND DUP3 ADD DUP1 PUSH1 0x40 MSTORE POP DUP2 ADD SWAP1 PUSH2 0x1146 SWAP2 SWAP1 PUSH2 0x47B9 JUMP JUMPDEST PUSH1 0x9E DUP2 SWAP1 SSTORE POP PUSH1 0x1 PUSH2 0x1156 PUSH2 0x2EBB JUMP JUMPDEST PUSH2 0x1160 SWAP2 SWAP1 PUSH2 0x56D2 JUMP JUMPDEST PUSH1 0x9F DUP2 SWAP1 SSTORE POP PUSH2 0x116E PUSH2 0x2EBB JUMP JUMPDEST PUSH1 0xA2 DUP2 SWAP1 SSTORE POP PUSH2 0x117E PUSH1 0x5 PUSH2 0x1D7E JUMP JUMPDEST DUP1 ISZERO PUSH2 0x11D7 JUMPI PUSH1 0x0 DUP1 PUSH1 0x1 PUSH2 0x100 EXP DUP2 SLOAD DUP2 PUSH1 0xFF MUL NOT AND SWAP1 DUP4 ISZERO ISZERO MUL OR SWAP1 SSTORE POP PUSH32 0x7F26B83FF96E1F2B6A682F133852F6798A09C465DA95921460CEFB3847402498 PUSH1 0x1 PUSH1 0x40 MLOAD PUSH2 0x11CE SWAP2 SWAP1 PUSH2 0x50E5 JUMP JUMPDEST PUSH1 0x40 MLOAD DUP1 SWAP2 SUB SWAP1 LOG1 JUMPDEST POP POP POP POP POP POP JUMP JUMPDEST PUSH1 0xAA PUSH1 0x20 MSTORE DUP1 PUSH1 0x0 MSTORE PUSH1 0x40 PUSH1 0x0 KECCAK256 PUSH1 0x0 SWAP2 POP SWAP1 POP SLOAD DUP2 JUMP JUMPDEST PUSH2 0x11FF PUSH2 0x3A2F JUMP JUMPDEST DUP1 PUSH1 0x9D DUP2 SWAP1 SSTORE POP POP JUMP JUMPDEST PUSH1 0x9E SLOAD DUP2 JUMP JUMPDEST PUSH2 0x1217 PUSH2 0x3A2F JUMP JUMPDEST DUP1 PUSH1 0xB1 PUSH1 0x3 ADD DUP2 SWAP1 SSTORE POP POP JUMP JUMPDEST PUSH1 0x9D SLOAD DUP2 JUMP JUMPDEST PUSH1 0x0 PUSH1 0xA5 PUSH1 0x0 SWAP1 SLOAD SWAP1 PUSH2 0x100 EXP SWAP1 DIV PUSH20 0xFFFFFFFFFFFFFFFFFFFFFFFFFFFFFFFFFFFFFFFF AND PUSH20 0xFFFFFFFFFFFFFFFFFFFFFFFFFFFFFFFFFFFFFFFF AND PUSH4 0x70A08231 CALLER PUSH1 0x40 MLOAD DUP3 PUSH4 0xFFFFFFFF AND PUSH1 0xE0 SHL DUP2 MSTORE PUSH1 0x4 ADD PUSH2 0x1287 SWAP2 SWAP1 PUSH2 0x4F1C JUMP JUMPDEST PUSH1 0x20 PUSH1 0x40 MLOAD DUP1 DUP4 SUB DUP2 DUP7 DUP1 EXTCODESIZE ISZERO DUP1 ISZERO PUSH2 0x129F JUMPI PUSH1 0x0 DUP1 REVERT JUMPDEST POP GAS STATICCALL ISZERO DUP1 ISZERO PUSH2 0x12B3 JUMPI RETURNDATASIZE PUSH1 0x0 DUP1 RETURNDATACOPY RETURNDATASIZE PUSH1 0x0 REVERT JUMPDEST POP POP POP POP PUSH1 0x40 MLOAD RETURNDATASIZE PUSH1 0x1F NOT PUSH1 0x1F DUP3 ADD AND DUP3 ADD DUP1 PUSH1 0x40 MSTORE POP DUP2 ADD SWAP1 PUSH2 0x12D7 SWAP2 SWAP1 PUSH2 0x47B9 JUMP JUMPDEST SWAP1 POP PUSH1 0x0 DUP2 GT PUSH2 0x131C JUMPI PUSH1 0x40 MLOAD PUSH32 0x8C379A000000000000000000000000000000000000000000000000000000000 DUP2 MSTORE PUSH1 0x4 ADD PUSH2 0x1313 SWAP1 PUSH2 0x53A2 JUMP JUMPDEST PUSH1 0x40 MLOAD DUP1 SWAP2 SUB SWAP1 REVERT JUMPDEST PUSH1 0x0 PUSH1 0x9A SLOAD EQ ISZERO PUSH2 0x1362 JUMPI PUSH1 0x40 MLOAD PUSH32 0x8C379A000000000000000000000000000000000000000000000000000000000 DUP2 MSTORE PUSH1 0x4 ADD PUSH2 0x1359 SWAP1 PUSH2 0x5122 JUMP JUMPDEST PUSH1 0x40 MLOAD DUP1 SWAP2 SUB SWAP1 REVERT JUMPDEST TIMESTAMP PUSH1 0xB1 PUSH1 0x3 ADD SLOAD PUSH1 0x9A SLOAD PUSH2 0x1376 SWAP2 SWAP1 PUSH2 0x5575 JUMP JUMPDEST GT ISZERO PUSH2 0x13B7 JUMPI PUSH1 0x40 MLOAD PUSH32 0x8C379A000000000000000000000000000000000000000000000000000000000 DUP2 MSTORE PUSH1 0x4 ADD PUSH2 0x13AE SWAP1 PUSH2 0x5162 JUMP JUMPDEST PUSH1 0x40 MLOAD DUP1 SWAP2 SUB SWAP1 REVERT JUMPDEST PUSH1 0x0 PUSH2 0x13C1 PUSH2 0x2EBB JUMP JUMPDEST SWAP1 POP DUP2 PUSH1 0xA0 PUSH1 0x0 DUP3 DUP3 SLOAD PUSH2 0x13D5 SWAP2 SWAP1 PUSH2 0x5575 JUMP JUMPDEST SWAP3 POP POP DUP2 SWAP1 SSTORE POP DUP2 PUSH1 0x99 PUSH1 0x0 DUP3 DUP3 SLOAD PUSH2 0x13EE SWAP2 SWAP1 PUSH2 0x56D2 JUMP JUMPDEST SWAP3 POP POP DUP2 SWAP1 SSTORE POP DUP2 PUSH1 0xA5 PUSH1 0x0 SWAP1 SLOAD SWAP1 PUSH2 0x100 EXP SWAP1 DIV PUSH20 0xFFFFFFFFFFFFFFFFFFFFFFFFFFFFFFFFFFFFFFFF AND PUSH20 0xFFFFFFFFFFFFFFFFFFFFFFFFFFFFFFFFFFFFFFFF AND PUSH4 0x70A08231 CALLER PUSH1 0x40 MLOAD DUP3 PUSH4 0xFFFFFFFF AND PUSH1 0xE0 SHL DUP2 MSTORE PUSH1 0x4 ADD PUSH2 0x1451 SWAP2 SWAP1 PUSH2 0x4F1C JUMP JUMPDEST PUSH1 0x20 PUSH1 0x40 MLOAD DUP1 DUP4 SUB DUP2 DUP7 DUP1 EXTCODESIZE ISZERO DUP1 ISZERO PUSH2 0x1469 JUMPI PUSH1 0x0 DUP1 REVERT JUMPDEST POP GAS STATICCALL ISZERO DUP1 ISZERO PUSH2 0x147D JUMPI RETURNDATASIZE PUSH1 0x0 DUP1 RETURNDATACOPY RETURNDATASIZE PUSH1 0x0 REVERT JUMPDEST POP POP POP POP PUSH1 0x40 MLOAD RETURNDATASIZE PUSH1 0x1F NOT PUSH1 0x1F DUP3 ADD AND DUP3 ADD DUP1 PUSH1 0x40 MSTORE POP DUP2 ADD SWAP1 PUSH2 0x14A1 SWAP2 SWAP1 PUSH2 0x47B9 JUMP JUMPDEST LT ISZERO PUSH2 0x14E2 JUMPI PUSH1 0x40 MLOAD PUSH32 0x8C379A000000000000000000000000000000000000000000000000000000000 DUP2 MSTORE PUSH1 0x4 ADD PUSH2 0x14D9 SWAP1 PUSH2 0x52C2 JUMP JUMPDEST PUSH1 0x40 MLOAD DUP1 SWAP2 SUB SWAP1 REVERT JUMPDEST PUSH1 0xA5 PUSH1 0x0 SWAP1 SLOAD SWAP1 PUSH2 0x100 EXP SWAP1 DIV PUSH20 0xFFFFFFFFFFFFFFFFFFFFFFFFFFFFFFFFFFFFFFFF AND PUSH20 0xFFFFFFFFFFFFFFFFFFFFFFFFFFFFFFFFFFFFFFFF AND PUSH4 0x9DC29FAC CALLER DUP5 PUSH1 0x40 MLOAD DUP4 PUSH4 0xFFFFFFFF AND PUSH1 0xE0 SHL DUP2 MSTORE PUSH1 0x4 ADD PUSH2 0x153F SWAP3 SWAP2 SWAP1 PUSH2 0x4F60 JUMP JUMPDEST PUSH1 0x20 PUSH1 0x40 MLOAD DUP1 DUP4 SUB DUP2 PUSH1 0x0 DUP8 DUP1 EXTCODESIZE ISZERO DUP1 ISZERO PUSH2 0x1559 JUMPI PUSH1 0x0 DUP1 REVERT JUMPDEST POP GAS CALL ISZERO DUP1 ISZERO PUSH2 0x156D JUMPI RETURNDATASIZE PUSH1 0x0 DUP1 RETURNDATACOPY RETURNDATASIZE PUSH1 0x0 REVERT JUMPDEST POP POP POP POP PUSH1 0x40 MLOAD RETURNDATASIZE PUSH1 0x1F NOT PUSH1 0x1F DUP3 ADD AND DUP3 ADD DUP1 PUSH1 0x40 MSTORE POP DUP2 ADD SWAP1 PUSH2 0x1591 SWAP2 SWAP1 PUSH2 0x4686 JUMP JUMPDEST POP PUSH1 0x0 PUSH1 0xA DUP3 PUSH2 0x15A1 SWAP2 SWAP1 PUSH2 0x5638 JUMP JUMPDEST PUSH1 0x4 PUSH1 0xA PUSH1 0x9E SLOAD PUSH2 0x15B2 SWAP2 SWAP1 PUSH2 0x5638 JUMP JUMPDEST PUSH2 0x15BC SWAP2 SWAP1 PUSH2 0x5607 JUMP JUMPDEST PUSH1 0xA PUSH1 0x9F SLOAD PUSH2 0x15CB SWAP2 SWAP1 PUSH2 0x5638 JUMP JUMPDEST PUSH2 0x15D5 SWAP2 SWAP1 PUSH2 0x5575 JUMP JUMPDEST GT ISZERO PUSH2 0x1629 JUMPI PUSH1 0xA DUP3 PUSH2 0x15E8 SWAP2 SWAP1 PUSH2 0x5638 JUMP JUMPDEST PUSH1 0x4 PUSH1 0xA PUSH1 0x9E SLOAD PUSH2 0x15F9 SWAP2 SWAP1 PUSH2 0x5638 JUMP JUMPDEST PUSH2 0x1603 SWAP2 SWAP1 PUSH2 0x5607 JUMP JUMPDEST PUSH1 0xA PUSH1 0x9F SLOAD PUSH2 0x1612 SWAP2 SWAP1 PUSH2 0x5638 JUMP JUMPDEST PUSH2 0x161C SWAP2 SWAP1 PUSH2 0x5575 JUMP JUMPDEST PUSH2 0x1626 SWAP2 SWAP1 PUSH2 0x56D2 JUMP JUMPDEST SWAP1 POP JUMPDEST PUSH1 0xAC PUSH1 0x0 CALLER PUSH20 0xFFFFFFFFFFFFFFFFFFFFFFFFFFFFFFFFFFFFFFFF AND PUSH20 0xFFFFFFFFFFFFFFFFFFFFFFFFFFFFFFFFFFFFFFFF AND DUP2 MSTORE PUSH1 0x20 ADD SWAP1 DUP2 MSTORE PUSH1 0x20 ADD PUSH1 0x0 KECCAK256 PUSH1 0x40 MLOAD DUP1 PUSH1 0x60 ADD PUSH1 0x40 MSTORE DUP1 DUP6 DUP2 MSTORE PUSH1 0x20 ADD DUP5 DUP2 MSTORE PUSH1 0x20 ADD DUP4 DUP2 MSTORE POP SWAP1 DUP1 PUSH1 0x1 DUP2 SLOAD ADD DUP1 DUP3 SSTORE DUP1 SWAP2 POP POP PUSH1 0x1 SWAP1 SUB SWAP1 PUSH1 0x0 MSTORE PUSH1 0x20 PUSH1 0x0 KECCAK256 SWAP1 PUSH1 0x3 MUL ADD PUSH1 0x0 SWAP1 SWAP2 SWAP1 SWAP2 SWAP1 SWAP2 POP PUSH1 0x0 DUP3 ADD MLOAD DUP2 PUSH1 0x0 ADD SSTORE PUSH1 0x20 DUP3 ADD MLOAD DUP2 PUSH1 0x1 ADD SSTORE PUSH1 0x40 DUP3 ADD MLOAD DUP2 PUSH1 0x2 ADD SSTORE POP POP PUSH2 0x16D4 PUSH2 0x3AAD JUMP JUMPDEST DUP2 DUP4 CALLER PUSH20 0xFFFFFFFFFFFFFFFFFFFFFFFFFFFFFFFFFFFFFFFF AND PUSH32 0xF960DBF9E5D0682F7A298ED974E33A28B4464914B7A2BFAC12AE419A9AFEB280 PUSH1 0x40 MLOAD PUSH1 0x40 MLOAD DUP1 SWAP2 SUB SWAP1 LOG4 POP POP POP JUMP JUMPDEST PUSH2 0x172E PUSH2 0x1729 PUSH2 0x2EBB JUMP JUMPDEST PUSH2 0x3CB3 JUMP JUMPDEST PUSH1 0x0 PUSH1 0xAC PUSH1 0x0 CALLER PUSH20 0xFFFFFFFFFFFFFFFFFFFFFFFFFFFFFFFFFFFFFFFF AND PUSH20 0xFFFFFFFFFFFFFFFFFFFFFFFFFFFFFFFFFFFFFFFF AND DUP2 MSTORE PUSH1 0x20 ADD SWAP1 DUP2 MSTORE PUSH1 0x20 ADD PUSH1 0x0 KECCAK256 DUP3 DUP2 SLOAD DUP2 LT PUSH2 0x17A7 JUMPI PUSH32 0x4E487B7100000000000000000000000000000000000000000000000000000000 PUSH1 0x0 MSTORE PUSH1 0x32 PUSH1 0x4 MSTORE PUSH1 0x24 PUSH1 0x0 REVERT JUMPDEST SWAP1 PUSH1 0x0 MSTORE PUSH1 0x20 PUSH1 0x0 KECCAK256 SWAP1 PUSH1 0x3 MUL ADD SWAP1 POP PUSH1 0x0 DUP2 PUSH1 0x0 ADD SLOAD SWAP1 POP PUSH1 0x0 DUP3 PUSH1 0x1 ADD SLOAD EQ ISZERO PUSH2 0x1808 JUMPI PUSH1 0x40 MLOAD PUSH32 0x8C379A000000000000000000000000000000000000000000000000000000000 DUP2 MSTORE PUSH1 0x4 ADD PUSH2 0x17FF SWAP1 PUSH2 0x5362 JUMP JUMPDEST PUSH1 0x40 MLOAD DUP1 SWAP2 SUB SWAP1 REVERT JUMPDEST DUP2 PUSH1 0x2 ADD SLOAD PUSH1 0xA PUSH1 0x9E SLOAD PUSH2 0x181C SWAP2 SWAP1 PUSH2 0x5638 JUMP JUMPDEST PUSH2 0x1826 SWAP2 SWAP1 PUSH2 0x5575 JUMP JUMPDEST PUSH1 0xA DUP4 PUSH1 0x1 ADD SLOAD PUSH2 0x1837 SWAP2 SWAP1 PUSH2 0x5638 JUMP JUMPDEST PUSH1 0xA PUSH2 0x1841 PUSH2 0x2EBB JUMP JUMPDEST PUSH2 0x184B SWAP2 SWAP1 PUSH2 0x5638 JUMP JUMPDEST PUSH2 0x1855 SWAP2 SWAP1 PUSH2 0x56D2 JUMP JUMPDEST LT ISZERO PUSH2 0x1896 JUMPI PUSH1 0x40 MLOAD PUSH32 0x8C379A000000000000000000000000000000000000000000000000000000000 DUP2 MSTORE PUSH1 0x4 ADD PUSH2 0x188D SWAP1 PUSH2 0x5282 JUMP JUMPDEST PUSH1 0x40 MLOAD DUP1 SWAP2 SUB SWAP1 REVERT JUMPDEST DUP1 PUSH1 0xA1 SLOAD LT ISZERO PUSH2 0x18DB JUMPI PUSH1 0x40 MLOAD PUSH32 0x8C379A000000000000000000000000000000000000000000000000000000000 DUP2 MSTORE PUSH1 0x4 ADD PUSH2 0x18D2 SWAP1 PUSH2 0x52E2 JUMP JUMPDEST PUSH1 0x40 MLOAD DUP1 SWAP2 SUB SWAP1 REVERT JUMPDEST DUP1 PUSH1 0xA1 PUSH1 0x0 DUP3 DUP3 SLOAD PUSH2 0x18ED SWAP2 SWAP1 PUSH2 0x56D2 JUMP JUMPDEST SWAP3 POP POP DUP2 SWAP1 SSTORE POP PUSH1 0x0 DUP3 PUSH1 0x1 ADD DUP2 SWAP1 SSTORE POP PUSH2 0x1927 DUP2 CALLER PUSH20 0xFFFFFFFFFFFFFFFFFFFFFFFFFFFFFFFFFFFFFFFF AND PUSH2 0x3E67 SWAP1 SWAP2 SWAP1 PUSH4 0xFFFFFFFF AND JUMP JUMPDEST CALLER PUSH20 0xFFFFFFFFFFFFFFFFFFFFFFFFFFFFFFFFFFFFFFFF AND PUSH32 0x7084F5476618D8E60B11EF0D7D3F06914655ADB8793E28FF7F018D4C76D505D5 DUP3 PUSH1 0x40 MLOAD PUSH2 0x196D SWAP2 SWAP1 PUSH2 0x5442 JUMP JUMPDEST PUSH1 0x40 MLOAD DUP1 SWAP2 SUB SWAP1 LOG2 POP POP POP JUMP JUMPDEST PUSH1 0xA6 PUSH1 0x0 SWAP1 SLOAD SWAP1 PUSH2 0x100 EXP SWAP1 DIV PUSH20 0xFFFFFFFFFFFFFFFFFFFFFFFFFFFFFFFFFFFFFFFF AND DUP2 JUMP JUMPDEST PUSH1 0xAF PUSH1 0x20 MSTORE DUP1 PUSH1 0x0 MSTORE PUSH1 0x40 PUSH1 0x0 KECCAK256 PUSH1 0x0 SWAP2 POP SWAP1 POP DUP1 SLOAD PUSH2 0x19BF SWAP1 PUSH2 0x58C8 JUMP JUMPDEST DUP1 PUSH1 0x1F ADD PUSH1 0x20 DUP1 SWAP2 DIV MUL PUSH1 0x20 ADD PUSH1 0x40 MLOAD SWAP1 DUP2 ADD PUSH1 0x40 MSTORE DUP1 SWAP3 SWAP2 SWAP1 DUP2 DUP2 MSTORE PUSH1 0x20 ADD DUP3 DUP1 SLOAD PUSH2 0x19EB SWAP1 PUSH2 0x58C8 JUMP JUMPDEST DUP1 ISZERO PUSH2 0x1A38 JUMPI DUP1 PUSH1 0x1F LT PUSH2 0x1A0D JUMPI PUSH2 0x100 DUP1 DUP4 SLOAD DIV MUL DUP4 MSTORE SWAP2 PUSH1 0x20 ADD SWAP2 PUSH2 0x1A38 JUMP JUMPDEST DUP3 ADD SWAP2 SWAP1 PUSH1 0x0 MSTORE PUSH1 0x20 PUSH1 0x0 KECCAK256 SWAP1 JUMPDEST DUP2 SLOAD DUP2 MSTORE SWAP1 PUSH1 0x1 ADD SWAP1 PUSH1 0x20 ADD DUP1 DUP4 GT PUSH2 0x1A1B JUMPI DUP3 SWAP1 SUB PUSH1 0x1F AND DUP3 ADD SWAP2 JUMPDEST POP POP POP POP POP DUP2 JUMP JUMPDEST PUSH2 0x1A48 PUSH2 0x3F5B JUMP JUMPDEST PUSH1 0x0 PUSH2 0x1A53 CALLER PUSH2 0x2F62 JUMP JUMPDEST SWAP1 POP PUSH1 0x0 DUP2 GT PUSH2 0x1A98 JUMPI PUSH1 0x40 MLOAD PUSH32 0x8C379A000000000000000000000000000000000000000000000000000000000 DUP2 MSTORE PUSH1 0x4 ADD PUSH2 0x1A8F SWAP1 PUSH2 0x5142 JUMP JUMPDEST PUSH1 0x40 MLOAD DUP1 SWAP2 SUB SWAP1 REVERT JUMPDEST PUSH1 0x0 PUSH2 0x1AA2 PUSH2 0x37AE JUMP JUMPDEST SWAP1 POP PUSH1 0x0 DUP2 GT ISZERO PUSH2 0x1B44 JUMPI PUSH1 0x97 PUSH1 0x0 SWAP1 SLOAD SWAP1 PUSH2 0x100 EXP SWAP1 DIV PUSH20 0xFFFFFFFFFFFFFFFFFFFFFFFFFFFFFFFFFFFFFFFF AND PUSH20 0xFFFFFFFFFFFFFFFFFFFFFFFFFFFFFFFFFFFFFFFF AND PUSH4 0x63F44968 PUSH2 0x1AF3 PUSH2 0x3FAB JUMP JUMPDEST DUP4 PUSH1 0x40 MLOAD DUP4 PUSH4 0xFFFFFFFF AND PUSH1 0xE0 SHL DUP2 MSTORE PUSH1 0x4 ADD PUSH2 0x1B11 SWAP3 SWAP2 SWAP1 PUSH2 0x5050 JUMP JUMPDEST PUSH1 0x0 PUSH1 0x40 MLOAD DUP1 DUP4 SUB DUP2 PUSH1 0x0 DUP8 DUP1 EXTCODESIZE ISZERO DUP1 ISZERO PUSH2 0x1B2B JUMPI PUSH1 0x0 DUP1 REVERT JUMPDEST POP GAS CALL ISZERO DUP1 ISZERO PUSH2 0x1B3F JUMPI RETURNDATASIZE PUSH1 0x0 DUP1 RETURNDATACOPY RETURNDATASIZE PUSH1 0x0 REVERT JUMPDEST POP POP POP POP JUMPDEST PUSH2 0x1B4C PUSH2 0x3224 JUMP JUMPDEST PUSH1 0xAB PUSH1 0x0 CALLER PUSH20 0xFFFFFFFFFFFFFFFFFFFFFFFFFFFFFFFFFFFFFFFF AND PUSH20 0xFFFFFFFFFFFFFFFFFFFFFFFFFFFFFFFFFFFFFFFF AND DUP2 MSTORE PUSH1 0x20 ADD SWAP1 DUP2 MSTORE PUSH1 0x20 ADD PUSH1 0x0 KECCAK256 DUP2 SWAP1 SSTORE POP PUSH1 0xA6 PUSH1 0x0 SWAP1 SLOAD SWAP1 PUSH2 0x100 EXP SWAP1 DIV PUSH20 0xFFFFFFFFFFFFFFFFFFFFFFFFFFFFFFFFFFFFFFFF AND PUSH20 0xFFFFFFFFFFFFFFFFFFFFFFFFFFFFFFFFFFFFFFFF AND PUSH4 0xA9059CBB CALLER DUP5 PUSH1 0x40 MLOAD DUP4 PUSH4 0xFFFFFFFF AND PUSH1 0xE0 SHL DUP2 MSTORE PUSH1 0x4 ADD PUSH2 0x1BEC SWAP3 SWAP2 SWAP1 PUSH2 0x4F60 JUMP JUMPDEST PUSH1 0x20 PUSH1 0x40 MLOAD DUP1 DUP4 SUB DUP2 PUSH1 0x0 DUP8 DUP1 EXTCODESIZE ISZERO DUP1 ISZERO PUSH2 0x1C06 JUMPI PUSH1 0x0 DUP1 REVERT JUMPDEST POP GAS CALL ISZERO DUP1 ISZERO PUSH2 0x1C1A JUMPI RETURNDATASIZE PUSH1 0x0 DUP1 RETURNDATACOPY RETURNDATASIZE PUSH1 0x0 REVERT JUMPDEST POP POP POP POP PUSH1 0x40 MLOAD RETURNDATASIZE PUSH1 0x1F NOT PUSH1 0x1F DUP3 ADD AND DUP3 ADD DUP1 PUSH1 0x40 MSTORE POP DUP2 ADD SWAP1 PUSH2 0x1C3E SWAP2 SWAP1 PUSH2 0x4686 JUMP JUMPDEST POP PUSH32 0x1F89F96333D3133000EE447473151FA9606543368F02271C9D95AE14F13BCC67 CALLER DUP3 PUSH1 0x40 MLOAD PUSH2 0x1C70 SWAP3 SWAP2 SWAP1 PUSH2 0x4F60 JUMP JUMPDEST PUSH1 0x40 MLOAD DUP1 SWAP2 SUB SWAP1 LOG1 POP POP PUSH2 0x1C82 PUSH2 0x411A JUMP JUMPDEST JUMP JUMPDEST PUSH1 0x97 PUSH1 0x14 SWAP1 SLOAD SWAP1 PUSH2 0x100 EXP SWAP1 DIV PUSH1 0xFF AND ISZERO PUSH2 0x1CD4 JUMPI PUSH1 0x40 MLOAD PUSH32 0x8C379A000000000000000000000000000000000000000000000000000000000 DUP2 MSTORE PUSH1 0x4 ADD PUSH2 0x1CCB SWAP1 PUSH2 0x5262 JUMP JUMPDEST PUSH1 0x40 MLOAD DUP1 SWAP2 SUB SWAP1 REVERT JUMPDEST PUSH2 0x1CEC PUSH1 0x40 MLOAD DUP1 PUSH1 0x20 ADD PUSH1 0x40 MSTORE DUP1 PUSH1 0x0 DUP2 MSTORE POP PUSH2 0x1E88 JUMP JUMPDEST JUMP JUMPDEST PUSH1 0xAE DUP2 DUP1 MLOAD PUSH1 0x20 DUP2 ADD DUP3 ADD DUP1 MLOAD DUP5 DUP3 MSTORE PUSH1 0x20 DUP4 ADD PUSH1 0x20 DUP6 ADD KECCAK256 DUP2 DUP4 MSTORE DUP1 SWAP6 POP POP POP POP POP POP PUSH1 0x0 SWAP2 POP SLOAD SWAP1 PUSH2 0x100 EXP SWAP1 DIV PUSH20 0xFFFFFFFFFFFFFFFFFFFFFFFFFFFFFFFFFFFFFFFF AND DUP2 JUMP JUMPDEST PUSH1 0xAC PUSH1 0x20 MSTORE DUP2 PUSH1 0x0 MSTORE PUSH1 0x40 PUSH1 0x0 KECCAK256 DUP2 DUP2 SLOAD DUP2 LT PUSH2 0x1D53 JUMPI PUSH1 0x0 DUP1 REVERT JUMPDEST SWAP1 PUSH1 0x0 MSTORE PUSH1 0x20 PUSH1 0x0 KECCAK256 SWAP1 PUSH1 0x3 MUL ADD PUSH1 0x0 SWAP2 POP SWAP2 POP POP DUP1 PUSH1 0x0 ADD SLOAD SWAP1 DUP1 PUSH1 0x1 ADD SLOAD SWAP1 DUP1 PUSH1 0x2 ADD SLOAD SWAP1 POP DUP4 JUMP JUMPDEST PUSH2 0x1D86 PUSH2 0x3A2F JUMP JUMPDEST DUP1 PUSH1 0xA3 DUP2 SWAP1 SSTORE POP DUP1 CALLER PUSH20 0xFFFFFFFFFFFFFFFFFFFFFFFFFFFFFFFFFFFFFFFF AND PUSH32 0x2858686D6B174BD2EC20E66464DF68F4228DAFA488E5A0B587356271CE26C501 PUSH1 0x40 MLOAD PUSH1 0x40 MLOAD DUP1 SWAP2 SUB SWAP1 LOG3 POP JUMP JUMPDEST PUSH1 0x60 PUSH1 0xA8 DUP1 SLOAD DUP1 PUSH1 0x20 MUL PUSH1 0x20 ADD PUSH1 0x40 MLOAD SWAP1 DUP2 ADD PUSH1 0x40 MSTORE DUP1 SWAP3 SWAP2 SWAP1 DUP2 DUP2 MSTORE PUSH1 0x20 ADD DUP3 DUP1 SLOAD DUP1 ISZERO PUSH2 0x1E58 JUMPI PUSH1 0x20 MUL DUP3 ADD SWAP2 SWAP1 PUSH1 0x0 MSTORE PUSH1 0x20 PUSH1 0x0 KECCAK256 SWAP1 JUMPDEST DUP2 PUSH1 0x0 SWAP1 SLOAD SWAP1 PUSH2 0x100 EXP SWAP1 DIV PUSH20 0xFFFFFFFFFFFFFFFFFFFFFFFFFFFFFFFFFFFFFFFF AND PUSH20 0xFFFFFFFFFFFFFFFFFFFFFFFFFFFFFFFFFFFFFFFF AND DUP2 MSTORE PUSH1 0x20 ADD SWAP1 PUSH1 0x1 ADD SWAP1 DUP1 DUP4 GT PUSH2 0x1E0E JUMPI JUMPDEST POP POP POP POP POP SWAP1 POP SWAP1 JUMP JUMPDEST PUSH1 0x97 PUSH1 0x0 SWAP1 SLOAD SWAP1 PUSH2 0x100 EXP SWAP1 DIV PUSH20 0xFFFFFFFFFFFFFFFFFFFFFFFFFFFFFFFFFFFFFFFF AND DUP2 JUMP JUMPDEST PUSH1 0x97 PUSH1 0x14 SWAP1 SLOAD SWAP1 PUSH2 0x100 EXP SWAP1 DIV PUSH1 0xFF AND ISZERO PUSH2 0x1ED8 JUMPI PUSH1 0x40 MLOAD PUSH32 0x8C379A000000000000000000000000000000000000000000000000000000000 DUP2 MSTORE PUSH1 0x4 ADD PUSH2 0x1ECF SWAP1 PUSH2 0x5262 JUMP JUMPDEST PUSH1 0x40 MLOAD DUP1 SWAP2 SUB SWAP1 REVERT JUMPDEST PUSH1 0x0 DUP1 CALLVALUE CALLER SWAP2 POP SWAP2 POP PUSH1 0x9B SLOAD DUP3 LT ISZERO PUSH2 0x1F26 JUMPI PUSH1 0x40 MLOAD PUSH32 0x8C379A000000000000000000000000000000000000000000000000000000000 DUP2 MSTORE PUSH1 0x4 ADD PUSH2 0x1F1D SWAP1 PUSH2 0x5222 JUMP JUMPDEST PUSH1 0x40 MLOAD DUP1 SWAP2 SUB SWAP1 REVERT JUMPDEST PUSH1 0x9C SLOAD DUP3 PUSH1 0x99 SLOAD PUSH2 0x1F37 SWAP2 SWAP1 PUSH2 0x5575 JUMP JUMPDEST GT ISZERO PUSH2 0x1F78 JUMPI PUSH1 0x40 MLOAD PUSH32 0x8C379A000000000000000000000000000000000000000000000000000000000 DUP2 MSTORE PUSH1 0x4 ADD PUSH2 0x1F6F SWAP1 PUSH2 0x5402 JUMP JUMPDEST PUSH1 0x40 MLOAD DUP1 SWAP2 SUB SWAP1 REVERT JUMPDEST PUSH1 0xAD PUSH1 0x0 CALLER PUSH20 0xFFFFFFFFFFFFFFFFFFFFFFFFFFFFFFFFFFFFFFFF AND PUSH20 0xFFFFFFFFFFFFFFFFFFFFFFFFFFFFFFFFFFFFFFFF AND DUP2 MSTORE PUSH1 0x20 ADD SWAP1 DUP2 MSTORE PUSH1 0x20 ADD PUSH1 0x0 KECCAK256 PUSH1 0x0 SWAP1 SLOAD SWAP1 PUSH2 0x100 EXP SWAP1 DIV PUSH1 0xFF AND ISZERO PUSH2 0x2005 JUMPI PUSH1 0x40 MLOAD PUSH32 0x8C379A000000000000000000000000000000000000000000000000000000000 DUP2 MSTORE PUSH1 0x4 ADD PUSH2 0x1FFC SWAP1 PUSH2 0x5182 JUMP JUMPDEST PUSH1 0x40 MLOAD DUP1 SWAP2 SUB SWAP1 REVERT JUMPDEST PUSH1 0x40 MLOAD PUSH1 0x20 ADD PUSH2 0x2014 SWAP1 PUSH2 0x4F07 JUMP JUMPDEST PUSH1 0x40 MLOAD PUSH1 0x20 DUP2 DUP4 SUB SUB DUP2 MSTORE SWAP1 PUSH1 0x40 MSTORE DUP1 MLOAD SWAP1 PUSH1 0x20 ADD KECCAK256 DUP4 PUSH1 0x40 MLOAD PUSH1 0x20 ADD PUSH2 0x203B SWAP2 SWAP1 PUSH2 0x4EC4 JUMP JUMPDEST PUSH1 0x40 MLOAD PUSH1 0x20 DUP2 DUP4 SUB SUB DUP2 MSTORE SWAP1 PUSH1 0x40 MSTORE DUP1 MLOAD SWAP1 PUSH1 0x20 ADD KECCAK256 EQ PUSH2 0x2103 JUMPI PUSH1 0x1 PUSH1 0xAD PUSH1 0x0 CALLER PUSH20 0xFFFFFFFFFFFFFFFFFFFFFFFFFFFFFFFFFFFFFFFF AND PUSH20 0xFFFFFFFFFFFFFFFFFFFFFFFFFFFFFFFFFFFFFFFF AND DUP2 MSTORE PUSH1 0x20 ADD SWAP1 DUP2 MSTORE PUSH1 0x20 ADD PUSH1 0x0 KECCAK256 PUSH1 0x0 PUSH2 0x100 EXP DUP2 SLOAD DUP2 PUSH1 0xFF MUL NOT AND SWAP1 DUP4 ISZERO ISZERO MUL OR SWAP1 SSTORE POP DUP3 PUSH1 0xAF PUSH1 0x0 CALLER PUSH20 0xFFFFFFFFFFFFFFFFFFFFFFFFFFFFFFFFFFFFFFFF AND PUSH20 0xFFFFFFFFFFFFFFFFFFFFFFFFFFFFFFFFFFFFFFFF AND DUP2 MSTORE PUSH1 0x20 ADD SWAP1 DUP2 MSTORE PUSH1 0x20 ADD PUSH1 0x0 KECCAK256 SWAP1 DUP1 MLOAD SWAP1 PUSH1 0x20 ADD SWAP1 PUSH2 0x2101 SWAP3 SWAP2 SWAP1 PUSH2 0x4462 JUMP JUMPDEST POP JUMPDEST DUP2 PUSH1 0xAA PUSH1 0x0 DUP4 PUSH20 0xFFFFFFFFFFFFFFFFFFFFFFFFFFFFFFFFFFFFFFFF AND PUSH20 0xFFFFFFFFFFFFFFFFFFFFFFFFFFFFFFFFFFFFFFFF AND DUP2 MSTORE PUSH1 0x20 ADD SWAP1 DUP2 MSTORE PUSH1 0x20 ADD PUSH1 0x0 KECCAK256 PUSH1 0x0 DUP3 DUP3 SLOAD PUSH2 0x2152 SWAP2 SWAP1 PUSH2 0x5575 JUMP JUMPDEST SWAP3 POP POP DUP2 SWAP1 SSTORE POP DUP2 PUSH1 0x99 PUSH1 0x0 DUP3 DUP3 SLOAD PUSH2 0x216B SWAP2 SWAP1 PUSH2 0x5575 JUMP JUMPDEST SWAP3 POP POP DUP2 SWAP1 SSTORE POP PUSH1 0xA7 PUSH1 0x0 SWAP1 SLOAD SWAP1 PUSH2 0x100 EXP SWAP1 DIV PUSH20 0xFFFFFFFFFFFFFFFFFFFFFFFFFFFFFFFFFFFFFFFF AND PUSH20 0xFFFFFFFFFFFFFFFFFFFFFFFFFFFFFFFFFFFFFFFF AND PUSH4 0x52B73E41 CALLVALUE PUSH1 0x98 PUSH1 0x0 SWAP1 SLOAD SWAP1 PUSH2 0x100 EXP SWAP1 DIV PUSH20 0xFFFFFFFFFFFFFFFFFFFFFFFFFFFFFFFFFFFFFFFF AND DUP6 PUSH1 0x40 MLOAD DUP5 PUSH4 0xFFFFFFFF AND PUSH1 0xE0 SHL DUP2 MSTORE PUSH1 0x4 ADD PUSH2 0x21F2 SWAP3 SWAP2 SWAP1 PUSH2 0x4F37 JUMP JUMPDEST PUSH1 0x0 PUSH1 0x40 MLOAD DUP1 DUP4 SUB DUP2 DUP6 DUP9 DUP1 EXTCODESIZE ISZERO DUP1 ISZERO PUSH2 0x220B JUMPI PUSH1 0x0 DUP1 REVERT JUMPDEST POP GAS CALL ISZERO DUP1 ISZERO PUSH2 0x221F JUMPI RETURNDATASIZE PUSH1 0x0 DUP1 RETURNDATACOPY RETURNDATASIZE PUSH1 0x0 REVERT JUMPDEST POP POP POP POP POP PUSH1 0xA9 PUSH1 0x0 DUP3 PUSH20 0xFFFFFFFFFFFFFFFFFFFFFFFFFFFFFFFFFFFFFFFF AND PUSH20 0xFFFFFFFFFFFFFFFFFFFFFFFFFFFFFFFFFFFFFFFF AND DUP2 MSTORE PUSH1 0x20 ADD SWAP1 DUP2 MSTORE PUSH1 0x20 ADD PUSH1 0x0 KECCAK256 PUSH1 0x0 SWAP1 SLOAD SWAP1 PUSH2 0x100 EXP SWAP1 DIV PUSH1 0xFF AND PUSH2 0x2331 JUMPI PUSH1 0x1 PUSH1 0xA9 PUSH1 0x0 DUP4 PUSH20 0xFFFFFFFFFFFFFFFFFFFFFFFFFFFFFFFFFFFFFFFF AND PUSH20 0xFFFFFFFFFFFFFFFFFFFFFFFFFFFFFFFFFFFFFFFF AND DUP2 MSTORE PUSH1 0x20 ADD SWAP1 DUP2 MSTORE PUSH1 0x20 ADD PUSH1 0x0 KECCAK256 PUSH1 0x0 PUSH2 0x100 EXP DUP2 SLOAD DUP2 PUSH1 0xFF MUL NOT AND SWAP1 DUP4 ISZERO ISZERO MUL OR SWAP1 SSTORE POP PUSH1 0xA8 DUP2 SWAP1 DUP1 PUSH1 0x1 DUP2 SLOAD ADD DUP1 DUP3 SSTORE DUP1 SWAP2 POP POP PUSH1 0x1 SWAP1 SUB SWAP1 PUSH1 0x0 MSTORE PUSH1 0x20 PUSH1 0x0 KECCAK256 ADD PUSH1 0x0 SWAP1 SWAP2 SWAP1 SWAP2 SWAP1 SWAP2 PUSH2 0x100 EXP DUP2 SLOAD DUP2 PUSH20 0xFFFFFFFFFFFFFFFFFFFFFFFFFFFFFFFFFFFFFFFF MUL NOT AND SWAP1 DUP4 PUSH20 0xFFFFFFFFFFFFFFFFFFFFFFFFFFFFFFFFFFFFFFFF AND MUL OR SWAP1 SSTORE POP JUMPDEST PUSH1 0xA5 PUSH1 0x0 SWAP1 SLOAD SWAP1 PUSH2 0x100 EXP SWAP1 DIV PUSH20 0xFFFFFFFFFFFFFFFFFFFFFFFFFFFFFFFFFFFFFFFF AND PUSH20 0xFFFFFFFFFFFFFFFFFFFFFFFFFFFFFFFFFFFFFFFF AND PUSH4 0x40C10F19 DUP3 DUP5 PUSH1 0x40 MLOAD DUP4 PUSH4 0xFFFFFFFF AND PUSH1 0xE0 SHL DUP2 MSTORE PUSH1 0x4 ADD PUSH2 0x238E SWAP3 SWAP2 SWAP1 PUSH2 0x4F60 JUMP JUMPDEST PUSH1 0x20 PUSH1 0x40 MLOAD DUP1 DUP4 SUB DUP2 PUSH1 0x0 DUP8 DUP1 EXTCODESIZE ISZERO DUP1 ISZERO PUSH2 0x23A8 JUMPI PUSH1 0x0 DUP1 REVERT JUMPDEST POP GAS CALL ISZERO DUP1 ISZERO PUSH2 0x23BC JUMPI RETURNDATASIZE PUSH1 0x0 DUP1 RETURNDATACOPY RETURNDATASIZE PUSH1 0x0 REVERT JUMPDEST POP POP POP POP PUSH1 0x40 MLOAD RETURNDATASIZE PUSH1 0x1F NOT PUSH1 0x1F DUP3 ADD AND DUP3 ADD DUP1 PUSH1 0x40 MSTORE POP DUP2 ADD SWAP1 PUSH2 0x23E0 SWAP2 SWAP1 PUSH2 0x4686 JUMP JUMPDEST PUSH2 0x241F JUMPI PUSH1 0x40 MLOAD PUSH32 0x8C379A000000000000000000000000000000000000000000000000000000000 DUP2 MSTORE PUSH1 0x4 ADD PUSH2 0x2416 SWAP1 PUSH2 0x51E2 JUMP JUMPDEST PUSH1 0x40 MLOAD DUP1 SWAP2 SUB SWAP1 REVERT JUMPDEST DUP3 PUSH1 0x40 MLOAD PUSH2 0x242D SWAP2 SWAP1 PUSH2 0x4EC4 JUMP JUMPDEST PUSH1 0x40 MLOAD DUP1 SWAP2 SUB SWAP1 KECCAK256 CALLER PUSH20 0xFFFFFFFFFFFFFFFFFFFFFFFFFFFFFFFFFFFFFFFF AND PUSH32 0x72D0050D8F1A0F19ACE5B1F50E8B5333308C60902442B7444A65CFFFBAD884E7 CALLVALUE PUSH1 0x40 MLOAD PUSH2 0x247B SWAP2 SWAP1 PUSH2 0x5442 JUMP JUMPDEST PUSH1 0x40 MLOAD DUP1 SWAP2 SUB SWAP1 LOG3 POP POP POP JUMP JUMPDEST PUSH2 0x2490 PUSH2 0x3A2F JUMP JUMPDEST PUSH1 0x0 JUMPDEST PUSH1 0xA8 DUP1 SLOAD SWAP1 POP DUP2 LT ISZERO PUSH2 0x2618 JUMPI PUSH1 0x0 PUSH1 0xA9 PUSH1 0x0 PUSH1 0xA8 DUP5 DUP2 SLOAD DUP2 LT PUSH2 0x24E0 JUMPI PUSH32 0x4E487B7100000000000000000000000000000000000000000000000000000000 PUSH1 0x0 MSTORE PUSH1 0x32 PUSH1 0x4 MSTORE PUSH1 0x24 PUSH1 0x0 REVERT JUMPDEST SWAP1 PUSH1 0x0 MSTORE PUSH1 0x20 PUSH1 0x0 KECCAK256 ADD PUSH1 0x0 SWAP1 SLOAD SWAP1 PUSH2 0x100 EXP SWAP1 DIV PUSH20 0xFFFFFFFFFFFFFFFFFFFFFFFFFFFFFFFFFFFFFFFF AND PUSH20 0xFFFFFFFFFFFFFFFFFFFFFFFFFFFFFFFFFFFFFFFF AND PUSH20 0xFFFFFFFFFFFFFFFFFFFFFFFFFFFFFFFFFFFFFFFF AND DUP2 MSTORE PUSH1 0x20 ADD SWAP1 DUP2 MSTORE PUSH1 0x20 ADD PUSH1 0x0 KECCAK256 PUSH1 0x0 PUSH2 0x100 EXP DUP2 SLOAD DUP2 PUSH1 0xFF MUL NOT AND SWAP1 DUP4 ISZERO ISZERO MUL OR SWAP1 SSTORE POP PUSH1 0x0 PUSH1 0xAA PUSH1 0x0 PUSH1 0xA8 DUP5 DUP2 SLOAD DUP2 LT PUSH2 0x259C JUMPI PUSH32 0x4E487B7100000000000000000000000000000000000000000000000000000000 PUSH1 0x0 MSTORE PUSH1 0x32 PUSH1 0x4 MSTORE PUSH1 0x24 PUSH1 0x0 REVERT JUMPDEST SWAP1 PUSH1 0x0 MSTORE PUSH1 0x20 PUSH1 0x0 KECCAK256 ADD PUSH1 0x0 SWAP1 SLOAD SWAP1 PUSH2 0x100 EXP SWAP1 DIV PUSH20 0xFFFFFFFFFFFFFFFFFFFFFFFFFFFFFFFFFFFFFFFF AND PUSH20 0xFFFFFFFFFFFFFFFFFFFFFFFFFFFFFFFFFFFFFFFF AND PUSH20 0xFFFFFFFFFFFFFFFFFFFFFFFFFFFFFFFFFFFFFFFF AND DUP2 MSTORE PUSH1 0x20 ADD SWAP1 DUP2 MSTORE PUSH1 0x20 ADD PUSH1 0x0 KECCAK256 DUP2 SWAP1 SSTORE POP DUP1 DUP1 PUSH2 0x2610 SWAP1 PUSH2 0x592B JUMP JUMPDEST SWAP2 POP POP PUSH2 0x2493 JUMP JUMPDEST POP PUSH1 0xA8 PUSH1 0x0 PUSH2 0x2627 SWAP2 SWAP1 PUSH2 0x44E8 JUMP JUMPDEST PUSH1 0x0 PUSH1 0x99 DUP2 SWAP1 SSTORE POP PUSH1 0x0 PUSH1 0x97 PUSH1 0x14 PUSH2 0x100 EXP DUP2 SLOAD DUP2 PUSH1 0xFF MUL NOT AND SWAP1 DUP4 ISZERO ISZERO MUL OR SWAP1 SSTORE POP PUSH1 0x0 PUSH1 0x9A DUP2 SWAP1 SSTORE POP PUSH2 0x265A PUSH2 0x2EBB JUMP JUMPDEST PUSH1 0xA2 DUP2 SWAP1 SSTORE POP PUSH1 0x1 PUSH2 0x266A PUSH2 0x2EBB JUMP JUMPDEST PUSH2 0x2674 SWAP2 SWAP1 PUSH2 0x56D2 JUMP JUMPDEST PUSH1 0x9F DUP2 SWAP1 SSTORE POP PUSH1 0x0 PUSH1 0xA0 DUP2 SWAP1 SSTORE POP PUSH1 0xB1 PUSH1 0x0 DUP1 DUP3 ADD PUSH1 0x0 PUSH2 0x100 EXP DUP2 SLOAD SWAP1 PUSH20 0xFFFFFFFFFFFFFFFFFFFFFFFFFFFFFFFFFFFFFFFF MUL NOT AND SWAP1 SSTORE PUSH1 0x1 DUP3 ADD PUSH1 0x0 SWAP1 SSTORE PUSH1 0x2 DUP3 ADD PUSH1 0x0 SWAP1 SSTORE PUSH1 0x3 DUP3 ADD PUSH1 0x0 SWAP1 SSTORE PUSH1 0x4 DUP3 ADD PUSH1 0x0 SWAP1 SSTORE PUSH1 0x5 DUP3 ADD PUSH1 0x0 PUSH2 0x100 EXP DUP2 SLOAD SWAP1 PUSH1 0xFF MUL NOT AND SWAP1 SSTORE PUSH1 0x6 DUP3 ADD PUSH1 0x0 SWAP1 SSTORE POP POP PUSH1 0x0 PUSH1 0xAB PUSH1 0x0 CALLER PUSH20 0xFFFFFFFFFFFFFFFFFFFFFFFFFFFFFFFFFFFFFFFF AND PUSH20 0xFFFFFFFFFFFFFFFFFFFFFFFFFFFFFFFFFFFFFFFF AND DUP2 MSTORE PUSH1 0x20 ADD SWAP1 DUP2 MSTORE PUSH1 0x20 ADD PUSH1 0x0 KECCAK256 DUP2 SWAP1 SSTORE POP PUSH1 0x0 PUSH1 0xAA PUSH1 0x0 CALLER PUSH20 0xFFFFFFFFFFFFFFFFFFFFFFFFFFFFFFFFFFFFFFFF AND PUSH20 0xFFFFFFFFFFFFFFFFFFFFFFFFFFFFFFFFFFFFFFFF AND DUP2 MSTORE PUSH1 0x20 ADD SWAP1 DUP2 MSTORE PUSH1 0x20 ADD PUSH1 0x0 KECCAK256 DUP2 SWAP1 SSTORE POP JUMP JUMPDEST PUSH2 0x277E PUSH2 0x3A2F JUMP JUMPDEST PUSH1 0x0 PUSH1 0xA4 SLOAD SWAP1 POP PUSH1 0x0 PUSH1 0xA4 DUP2 SWAP1 SSTORE POP PUSH2 0x27B6 DUP2 CALLER PUSH20 0xFFFFFFFFFFFFFFFFFFFFFFFFFFFFFFFFFFFFFFFF AND PUSH2 0x3E67 SWAP1 SWAP2 SWAP1 PUSH4 0xFFFFFFFF AND JUMP JUMPDEST CALLER PUSH20 0xFFFFFFFFFFFFFFFFFFFFFFFFFFFFFFFFFFFFFFFF AND PUSH32 0xC5A3601BC424984AB8D0E98BD79347FA6EF2A340C30DDE7340D02F923E6820ED DUP3 PUSH1 0x40 MLOAD PUSH2 0x27FC SWAP2 SWAP1 PUSH2 0x5442 JUMP JUMPDEST PUSH1 0x40 MLOAD DUP1 SWAP2 SUB SWAP1 LOG2 POP JUMP JUMPDEST PUSH1 0x9F SLOAD DUP2 JUMP JUMPDEST PUSH1 0x97 PUSH1 0x14 SWAP1 SLOAD SWAP1 PUSH2 0x100 EXP SWAP1 DIV PUSH1 0xFF AND DUP2 JUMP JUMPDEST PUSH1 0xAD PUSH1 0x20 MSTORE DUP1 PUSH1 0x0 MSTORE PUSH1 0x40 PUSH1 0x0 KECCAK256 PUSH1 0x0 SWAP2 POP SLOAD SWAP1 PUSH2 0x100 EXP SWAP1 DIV PUSH1 0xFF AND DUP2 JUMP JUMPDEST PUSH2 0x2848 PUSH2 0x3A2F JUMP JUMPDEST PUSH1 0x0 PUSH1 0xA0 SLOAD GT PUSH2 0x288D JUMPI PUSH1 0x40 MLOAD PUSH32 0x8C379A000000000000000000000000000000000000000000000000000000000 DUP2 MSTORE PUSH1 0x4 ADD PUSH2 0x2884 SWAP1 PUSH2 0x51A2 JUMP JUMPDEST PUSH1 0x40 MLOAD DUP1 SWAP2 SUB SWAP1 REVERT JUMPDEST PUSH1 0x4 PUSH1 0xA PUSH1 0x9E SLOAD PUSH2 0x289E SWAP2 SWAP1 PUSH2 0x5638 JUMP JUMPDEST PUSH2 0x28A8 SWAP2 SWAP1 PUSH2 0x5607 JUMP JUMPDEST PUSH1 0xA PUSH1 0x9F SLOAD PUSH2 0x28B7 SWAP2 SWAP1 PUSH2 0x5638 JUMP JUMPDEST PUSH2 0x28C1 SWAP2 SWAP1 PUSH2 0x5575 JUMP JUMPDEST PUSH1 0xA PUSH2 0x28CB PUSH2 0x2EBB JUMP JUMPDEST PUSH2 0x28D5 SWAP2 SWAP1 PUSH2 0x5638 JUMP JUMPDEST LT ISZERO PUSH2 0x2916 JUMPI PUSH1 0x40 MLOAD PUSH32 0x8C379A000000000000000000000000000000000000000000000000000000000 DUP2 MSTORE PUSH1 0x4 ADD PUSH2 0x290D SWAP1 PUSH2 0x53C2 JUMP JUMPDEST PUSH1 0x40 MLOAD DUP1 SWAP2 SUB SWAP1 REVERT JUMPDEST PUSH2 0x291E PUSH2 0x3AAD JUMP JUMPDEST JUMP JUMPDEST PUSH2 0x2928 PUSH2 0x3A2F JUMP JUMPDEST DUP1 PUSH1 0xA7 PUSH1 0x0 PUSH2 0x100 EXP DUP2 SLOAD DUP2 PUSH20 0xFFFFFFFFFFFFFFFFFFFFFFFFFFFFFFFFFFFFFFFF MUL NOT AND SWAP1 DUP4 PUSH20 0xFFFFFFFFFFFFFFFFFFFFFFFFFFFFFFFFFFFFFFFF AND MUL OR SWAP1 SSTORE POP POP JUMP JUMPDEST PUSH1 0x97 PUSH1 0x14 SWAP1 SLOAD SWAP1 PUSH2 0x100 EXP SWAP1 DIV PUSH1 0xFF AND ISZERO PUSH2 0x29BC JUMPI PUSH1 0x40 MLOAD PUSH32 0x8C379A000000000000000000000000000000000000000000000000000000000 DUP2 MSTORE PUSH1 0x4 ADD PUSH2 0x29B3 SWAP1 PUSH2 0x5262 JUMP JUMPDEST PUSH1 0x40 MLOAD DUP1 SWAP2 SUB SWAP1 REVERT JUMPDEST PUSH2 0x29C4 PUSH2 0x3A2F JUMP JUMPDEST PUSH1 0x1 PUSH1 0x97 PUSH1 0x14 PUSH2 0x100 EXP DUP2 SLOAD DUP2 PUSH1 0xFF MUL NOT AND SWAP1 DUP4 ISZERO ISZERO MUL OR SWAP1 SSTORE POP TIMESTAMP PUSH1 0x9A DUP2 SWAP1 SSTORE POP PUSH1 0x97 PUSH1 0x0 SWAP1 SLOAD SWAP1 PUSH2 0x100 EXP SWAP1 DIV PUSH20 0xFFFFFFFFFFFFFFFFFFFFFFFFFFFFFFFFFFFFFFFF AND PUSH20 0xFFFFFFFFFFFFFFFFFFFFFFFFFFFFFFFFFFFFFFFF AND PUSH4 0xC4365374 ADDRESS PUSH1 0xB1 PUSH1 0x1 ADD SLOAD TIMESTAMP PUSH1 0xB1 PUSH1 0x3 ADD SLOAD PUSH1 0xB1 PUSH1 0x4 ADD SLOAD PUSH1 0xB1 PUSH1 0x5 ADD PUSH1 0x0 SWAP1 SLOAD SWAP1 PUSH2 0x100 EXP SWAP1 DIV PUSH1 0xFF AND PUSH1 0xB1 PUSH1 0x6 ADD SLOAD PUSH1 0x40 MLOAD DUP9 PUSH4 0xFFFFFFFF AND PUSH1 0xE0 SHL DUP2 MSTORE PUSH1 0x4 ADD PUSH2 0x2A73 SWAP8 SWAP7 SWAP6 SWAP5 SWAP4 SWAP3 SWAP2 SWAP1 PUSH2 0x4F89 JUMP JUMPDEST PUSH1 0x0 PUSH1 0x40 MLOAD DUP1 DUP4 SUB DUP2 PUSH1 0x0 DUP8 DUP1 EXTCODESIZE ISZERO DUP1 ISZERO PUSH2 0x2A8D JUMPI PUSH1 0x0 DUP1 REVERT JUMPDEST POP GAS CALL ISZERO DUP1 ISZERO PUSH2 0x2AA1 JUMPI RETURNDATASIZE PUSH1 0x0 DUP1 RETURNDATACOPY RETURNDATASIZE PUSH1 0x0 REVERT JUMPDEST POP POP POP POP PUSH32 0x624EB1DE4B105B5373BA37DB99731CB09D761DE5B9373015805D8C47E7A6F12 TIMESTAMP PUSH1 0x40 MLOAD PUSH2 0x2AD4 SWAP2 SWAP1 PUSH2 0x5442 JUMP JUMPDEST PUSH1 0x40 MLOAD DUP1 SWAP2 SUB SWAP1 LOG1 JUMP JUMPDEST PUSH1 0xA9 PUSH1 0x20 MSTORE DUP1 PUSH1 0x0 MSTORE PUSH1 0x40 PUSH1 0x0 KECCAK256 PUSH1 0x0 SWAP2 POP SLOAD SWAP1 PUSH2 0x100 EXP SWAP1 DIV PUSH1 0xFF AND DUP2 JUMP JUMPDEST PUSH2 0x2B06 PUSH2 0x3A2F JUMP JUMPDEST PUSH2 0x2B10 PUSH1 0x0 PUSH2 0x4124 JUMP JUMPDEST JUMP JUMPDEST PUSH1 0xA5 PUSH1 0x0 SWAP1 SLOAD SWAP1 PUSH2 0x100 EXP SWAP1 DIV PUSH20 0xFFFFFFFFFFFFFFFFFFFFFFFFFFFFFFFFFFFFFFFF AND DUP2 JUMP JUMPDEST PUSH2 0x2B40 PUSH2 0x3A2F JUMP JUMPDEST PUSH1 0xA5 PUSH1 0x0 SWAP1 SLOAD SWAP1 PUSH2 0x100 EXP SWAP1 DIV PUSH20 0xFFFFFFFFFFFFFFFFFFFFFFFFFFFFFFFFFFFFFFFF AND PUSH20 0xFFFFFFFFFFFFFFFFFFFFFFFFFFFFFFFFFFFFFFFF AND PUSH4 0x40C10F19 DUP4 DUP4 PUSH1 0x40 MLOAD DUP4 PUSH4 0xFFFFFFFF AND PUSH1 0xE0 SHL DUP2 MSTORE PUSH1 0x4 ADD PUSH2 0x2B9D SWAP3 SWAP2 SWAP1 PUSH2 0x4F60 JUMP JUMPDEST PUSH1 0x20 PUSH1 0x40 MLOAD DUP1 DUP4 SUB DUP2 PUSH1 0x0 DUP8 DUP1 EXTCODESIZE ISZERO DUP1 ISZERO PUSH2 0x2BB7 JUMPI PUSH1 0x0 DUP1 REVERT JUMPDEST POP GAS CALL ISZERO DUP1 ISZERO PUSH2 0x2BCB JUMPI RETURNDATASIZE PUSH1 0x0 DUP1 RETURNDATACOPY RETURNDATASIZE PUSH1 0x0 REVERT JUMPDEST POP POP POP POP PUSH1 0x40 MLOAD RETURNDATASIZE PUSH1 0x1F NOT PUSH1 0x1F DUP3 ADD AND DUP3 ADD DUP1 PUSH1 0x40 MSTORE POP DUP2 ADD SWAP1 PUSH2 0x2BEF SWAP2 SWAP1 PUSH2 0x4686 JUMP JUMPDEST POP POP POP JUMP JUMPDEST PUSH1 0xA2 SLOAD DUP2 JUMP JUMPDEST PUSH1 0x60 PUSH1 0x0 CALLER SWAP1 POP PUSH32 0xC5D2460186F7233C927E7DB2DCC703C0E500B653CA82273B7BFAD8045D85A470 PUSH1 0xB0 PUSH1 0x0 DUP4 PUSH20 0xFFFFFFFFFFFFFFFFFFFFFFFFFFFFFFFFFFFFFFFF AND PUSH20 0xFFFFFFFFFFFFFFFFFFFFFFFFFFFFFFFFFFFFFFFF AND DUP2 MSTORE PUSH1 0x20 ADD SWAP1 DUP2 MSTORE PUSH1 0x20 ADD PUSH1 0x0 KECCAK256 PUSH1 0x40 MLOAD PUSH1 0x20 ADD PUSH2 0x2C71 SWAP2 SWAP1 PUSH2 0x4EDB JUMP JUMPDEST PUSH1 0x40 MLOAD PUSH1 0x20 DUP2 DUP4 SUB SUB DUP2 MSTORE SWAP1 PUSH1 0x40 MSTORE DUP1 MLOAD SWAP1 PUSH1 0x20 ADD KECCAK256 EQ PUSH2 0x2CC7 JUMPI PUSH1 0x40 MLOAD PUSH32 0x8C379A000000000000000000000000000000000000000000000000000000000 DUP2 MSTORE PUSH1 0x4 ADD PUSH2 0x2CBE SWAP1 PUSH2 0x5322 JUMP JUMPDEST PUSH1 0x40 MLOAD DUP1 SWAP2 SUB SWAP1 REVERT JUMPDEST PUSH1 0x0 DUP2 TIMESTAMP PUSH1 0x40 MLOAD PUSH1 0x20 ADD PUSH2 0x2CDC SWAP3 SWAP2 SWAP1 PUSH2 0x4F60 JUMP JUMPDEST PUSH1 0x40 MLOAD PUSH1 0x20 DUP2 DUP4 SUB SUB DUP2 MSTORE SWAP1 PUSH1 0x40 MSTORE DUP1 MLOAD SWAP1 PUSH1 0x20 ADD KECCAK256 SWAP1 POP PUSH1 0x0 PUSH2 0x2D1F DUP3 PUSH29 0xFFFFFFFFFFFFFFFFFFFFFFFFFFFFFFFFFFFFFFFFFFFFFFFFFFFFFFFFFF NOT AND PUSH2 0x41EA JUMP JUMPDEST SWAP1 POP DUP3 PUSH1 0xAE DUP3 PUSH1 0x40 MLOAD PUSH2 0x2D32 SWAP2 SWAP1 PUSH2 0x4EC4 JUMP JUMPDEST SWAP1 DUP2 MSTORE PUSH1 0x20 ADD PUSH1 0x40 MLOAD DUP1 SWAP2 SUB SWAP1 KECCAK256 PUSH1 0x0 PUSH2 0x100 EXP DUP2 SLOAD DUP2 PUSH20 0xFFFFFFFFFFFFFFFFFFFFFFFFFFFFFFFFFFFFFFFF MUL NOT AND SWAP1 DUP4 PUSH20 0xFFFFFFFFFFFFFFFFFFFFFFFFFFFFFFFFFFFFFFFF AND MUL OR SWAP1 SSTORE POP DUP1 PUSH1 0xB0 PUSH1 0x0 CALLER PUSH20 0xFFFFFFFFFFFFFFFFFFFFFFFFFFFFFFFFFFFFFFFF AND PUSH20 0xFFFFFFFFFFFFFFFFFFFFFFFFFFFFFFFFFFFFFFFF AND DUP2 MSTORE PUSH1 0x20 ADD SWAP1 DUP2 MSTORE PUSH1 0x20 ADD PUSH1 0x0 KECCAK256 SWAP1 DUP1 MLOAD SWAP1 PUSH1 0x20 ADD SWAP1 PUSH2 0x2DD1 SWAP3 SWAP2 SWAP1 PUSH2 0x4462 JUMP JUMPDEST POP DUP1 PUSH1 0x40 MLOAD PUSH2 0x2DE0 SWAP2 SWAP1 PUSH2 0x4EC4 JUMP JUMPDEST PUSH1 0x40 MLOAD DUP1 SWAP2 SUB SWAP1 KECCAK256 CALLER PUSH20 0xFFFFFFFFFFFFFFFFFFFFFFFFFFFFFFFFFFFFFFFF AND PUSH32 0xFDD01B27191E72D589718F76E5754F96633F8F2C5FCDD018F05C88181032F0CF PUSH1 0x40 MLOAD PUSH1 0x40 MLOAD DUP1 SWAP2 SUB SWAP1 LOG3 POP POP POP SWAP1 JUMP JUMPDEST PUSH1 0x99 SLOAD DUP2 JUMP JUMPDEST PUSH1 0x0 PUSH1 0x33 PUSH1 0x0 SWAP1 SLOAD SWAP1 PUSH2 0x100 EXP SWAP1 DIV PUSH20 0xFFFFFFFFFFFFFFFFFFFFFFFFFFFFFFFFFFFFFFFF AND SWAP1 POP SWAP1 JUMP JUMPDEST PUSH2 0x2E69 PUSH2 0x3A2F JUMP JUMPDEST DUP5 PUSH1 0xB1 PUSH1 0x1 ADD DUP2 SWAP1 SSTORE POP DUP4 PUSH1 0xB1 PUSH1 0x3 ADD DUP2 SWAP1 SSTORE POP DUP3 PUSH1 0xB1 PUSH1 0x4 ADD DUP2 SWAP1 SSTORE POP DUP2 PUSH1 0xB1 PUSH1 0x5 ADD PUSH1 0x0 PUSH2 0x100 EXP DUP2 SLOAD DUP2 PUSH1 0xFF MUL NOT AND SWAP1 DUP4 ISZERO ISZERO MUL OR SWAP1 SSTORE POP DUP1 PUSH1 0xB1 PUSH1 0x6 ADD DUP2 SWAP1 SSTORE POP POP POP POP POP POP JUMP JUMPDEST PUSH1 0xA4 SLOAD DUP2 JUMP JUMPDEST PUSH1 0x0 PUSH1 0xA7 PUSH1 0x0 SWAP1 SLOAD SWAP1 PUSH2 0x100 EXP SWAP1 DIV PUSH20 0xFFFFFFFFFFFFFFFFFFFFFFFFFFFFFFFFFFFFFFFF AND PUSH20 0xFFFFFFFFFFFFFFFFFFFFFFFFFFFFFFFFFFFFFFFF AND PUSH4 0xE608D80B PUSH1 0x40 MLOAD DUP2 PUSH4 0xFFFFFFFF AND PUSH1 0xE0 SHL DUP2 MSTORE PUSH1 0x4 ADD PUSH1 0x20 PUSH1 0x40 MLOAD DUP1 DUP4 SUB DUP2 DUP7 DUP1 EXTCODESIZE ISZERO DUP1 ISZERO PUSH2 0x2F25 JUMPI PUSH1 0x0 DUP1 REVERT JUMPDEST POP GAS STATICCALL ISZERO DUP1 ISZERO PUSH2 0x2F39 JUMPI RETURNDATASIZE PUSH1 0x0 DUP1 RETURNDATACOPY RETURNDATASIZE PUSH1 0x0 REVERT JUMPDEST POP POP POP POP PUSH1 0x40 MLOAD RETURNDATASIZE PUSH1 0x1F NOT PUSH1 0x1F DUP3 ADD AND DUP3 ADD DUP1 PUSH1 0x40 MSTORE POP DUP2 ADD SWAP1 PUSH2 0x2F5D SWAP2 SWAP1 PUSH2 0x47B9 JUMP JUMPDEST SWAP1 POP SWAP1 JUMP JUMPDEST PUSH1 0x0 PUSH1 0xAB PUSH1 0x0 DUP4 PUSH20 0xFFFFFFFFFFFFFFFFFFFFFFFFFFFFFFFFFFFFFFFF AND PUSH20 0xFFFFFFFFFFFFFFFFFFFFFFFFFFFFFFFFFFFFFFFF AND DUP2 MSTORE PUSH1 0x20 ADD SWAP1 DUP2 MSTORE PUSH1 0x20 ADD PUSH1 0x0 KECCAK256 SLOAD PUSH2 0x2FAC PUSH2 0x3224 JUMP JUMPDEST GT PUSH2 0x2FBA JUMPI PUSH1 0x0 SWAP1 POP PUSH2 0x3068 JUMP JUMPDEST PUSH1 0x0 PUSH1 0xAB PUSH1 0x0 DUP5 PUSH20 0xFFFFFFFFFFFFFFFFFFFFFFFFFFFFFFFFFFFFFFFF AND PUSH20 0xFFFFFFFFFFFFFFFFFFFFFFFFFFFFFFFFFFFFFFFF AND DUP2 MSTORE PUSH1 0x20 ADD SWAP1 DUP2 MSTORE PUSH1 0x20 ADD PUSH1 0x0 KECCAK256 SLOAD PUSH2 0x3004 PUSH2 0x3224 JUMP JUMPDEST PUSH2 0x300E SWAP2 SWAP1 PUSH2 0x56D2 JUMP JUMPDEST SWAP1 POP PUSH1 0xB1 PUSH1 0x3 ADD SLOAD PUSH1 0xB1 PUSH1 0x4 ADD SLOAD DUP3 PUSH8 0xDE0B6B3A7640000 PUSH1 0x9D SLOAD PUSH2 0x3032 DUP9 PUSH2 0x4390 JUMP JUMPDEST PUSH2 0x303C SWAP2 SWAP1 PUSH2 0x5638 JUMP JUMPDEST PUSH2 0x3046 SWAP2 SWAP1 PUSH2 0x5607 JUMP JUMPDEST PUSH2 0x3050 SWAP2 SWAP1 PUSH2 0x5638 JUMP JUMPDEST PUSH2 0x305A SWAP2 SWAP1 PUSH2 0x5638 JUMP JUMPDEST PUSH2 0x3064 SWAP2 SWAP1 PUSH2 0x5607 JUMP JUMPDEST SWAP2 POP POP JUMPDEST SWAP2 SWAP1 POP JUMP JUMPDEST PUSH1 0xAB PUSH1 0x20 MSTORE DUP1 PUSH1 0x0 MSTORE PUSH1 0x40 PUSH1 0x0 KECCAK256 PUSH1 0x0 SWAP2 POP SWAP1 POP SLOAD DUP2 JUMP JUMPDEST PUSH1 0xA0 SLOAD DUP2 JUMP JUMPDEST PUSH1 0x98 PUSH1 0x0 SWAP1 SLOAD SWAP1 PUSH2 0x100 EXP SWAP1 DIV PUSH20 0xFFFFFFFFFFFFFFFFFFFFFFFFFFFFFFFFFFFFFFFF AND DUP2 JUMP JUMPDEST PUSH1 0x9A SLOAD DUP2 JUMP JUMPDEST PUSH1 0xB1 DUP1 PUSH1 0x0 ADD PUSH1 0x0 SWAP1 SLOAD SWAP1 PUSH2 0x100 EXP SWAP1 DIV PUSH20 0xFFFFFFFFFFFFFFFFFFFFFFFFFFFFFFFFFFFFFFFF AND SWAP1 DUP1 PUSH1 0x1 ADD SLOAD SWAP1 DUP1 PUSH1 0x2 ADD SLOAD SWAP1 DUP1 PUSH1 0x3 ADD SLOAD SWAP1 DUP1 PUSH1 0x4 ADD SLOAD SWAP1 DUP1 PUSH1 0x5 ADD PUSH1 0x0 SWAP1 SLOAD SWAP1 PUSH2 0x100 EXP SWAP1 DIV PUSH1 0xFF AND SWAP1 DUP1 PUSH1 0x6 ADD SLOAD SWAP1 POP DUP8 JUMP JUMPDEST PUSH1 0xA1 SLOAD DUP2 JUMP JUMPDEST PUSH2 0x3122 PUSH2 0x3A2F JUMP JUMPDEST DUP2 PUSH1 0x9C DUP2 SWAP1 SSTORE POP DUP1 PUSH1 0x9B DUP2 SWAP1 SSTORE POP POP POP JUMP JUMPDEST PUSH2 0x313C PUSH2 0x3A2F JUMP JUMPDEST PUSH1 0x97 PUSH1 0x14 SWAP1 SLOAD SWAP1 PUSH2 0x100 EXP SWAP1 DIV PUSH1 0xFF AND ISZERO PUSH1 0x97 PUSH1 0x14 PUSH2 0x100 EXP DUP2 SLOAD DUP2 PUSH1 0xFF MUL NOT AND SWAP1 DUP4 ISZERO ISZERO MUL OR SWAP1 SSTORE POP JUMP JUMPDEST PUSH2 0x3170 PUSH2 0x3A2F JUMP JUMPDEST PUSH1 0xA5 PUSH1 0x0 SWAP1 SLOAD SWAP1 PUSH2 0x100 EXP SWAP1 DIV PUSH20 0xFFFFFFFFFFFFFFFFFFFFFFFFFFFFFFFFFFFFFFFF AND PUSH20 0xFFFFFFFFFFFFFFFFFFFFFFFFFFFFFFFFFFFFFFFF AND PUSH4 0x9DC29FAC DUP4 DUP4 PUSH1 0x40 MLOAD DUP4 PUSH4 0xFFFFFFFF AND PUSH1 0xE0 SHL DUP2 MSTORE PUSH1 0x4 ADD PUSH2 0x31CD SWAP3 SWAP2 SWAP1 PUSH2 0x4F60 JUMP JUMPDEST PUSH1 0x20 PUSH1 0x40 MLOAD DUP1 DUP4 SUB DUP2 PUSH1 0x0 DUP8 DUP1 EXTCODESIZE ISZERO DUP1 ISZERO PUSH2 0x31E7 JUMPI PUSH1 0x0 DUP1 REVERT JUMPDEST POP GAS CALL ISZERO DUP1 ISZERO PUSH2 0x31FB JUMPI RETURNDATASIZE PUSH1 0x0 DUP1 RETURNDATACOPY RETURNDATASIZE PUSH1 0x0 REVERT JUMPDEST POP POP POP POP PUSH1 0x40 MLOAD RETURNDATASIZE PUSH1 0x1F NOT PUSH1 0x1F DUP3 ADD AND DUP3 ADD DUP1 PUSH1 0x40 MSTORE POP DUP2 ADD SWAP1 PUSH2 0x321F SWAP2 SWAP1 PUSH2 0x4686 JUMP JUMPDEST POP POP POP JUMP JUMPDEST PUSH1 0x0 DUP1 PUSH1 0x9A SLOAD EQ ISZERO DUP1 ISZERO PUSH2 0x323A JUMPI POP PUSH1 0x9A SLOAD TIMESTAMP LT ISZERO JUMPDEST PUSH2 0x3279 JUMPI PUSH1 0x40 MLOAD PUSH32 0x8C379A000000000000000000000000000000000000000000000000000000000 DUP2 MSTORE PUSH1 0x4 ADD PUSH2 0x3270 SWAP1 PUSH2 0x5422 JUMP JUMPDEST PUSH1 0x40 MLOAD DUP1 SWAP2 SUB SWAP1 REVERT JUMPDEST PUSH1 0x0 PUSH1 0xB1 PUSH1 0x4 ADD SLOAD PUSH1 0x9A SLOAD TIMESTAMP PUSH2 0x328F SWAP2 SWAP1 PUSH2 0x56D2 JUMP JUMPDEST PUSH2 0x3299 SWAP2 SWAP1 PUSH2 0x5607 JUMP JUMPDEST SWAP1 POP PUSH1 0x0 PUSH1 0xB1 PUSH1 0x4 ADD SLOAD PUSH1 0xB1 PUSH1 0x3 ADD SLOAD PUSH2 0x32B3 SWAP2 SWAP1 PUSH2 0x5607 JUMP JUMPDEST SWAP1 POP DUP1 DUP3 GT ISZERO PUSH2 0x32C7 JUMPI DUP1 SWAP3 POP POP POP PUSH2 0x32CD JUMP JUMPDEST DUP2 SWAP3 POP POP POP JUMPDEST SWAP1 JUMP JUMPDEST PUSH1 0x9C SLOAD DUP2 JUMP JUMPDEST PUSH2 0x32DE PUSH2 0x3A2F JUMP JUMPDEST PUSH1 0xA7 PUSH1 0x0 SWAP1 SLOAD SWAP1 PUSH2 0x100 EXP SWAP1 DIV PUSH20 0xFFFFFFFFFFFFFFFFFFFFFFFFFFFFFFFFFFFFFFFF AND PUSH20 0xFFFFFFFFFFFFFFFFFFFFFFFFFFFFFFFFFFFFFFFF AND PUSH4 0x4B1B0E86 PUSH1 0x0 PUSH1 0x40 MLOAD DUP3 PUSH4 0xFFFFFFFF AND PUSH1 0xE0 SHL DUP2 MSTORE PUSH1 0x4 ADD PUSH2 0x333A SWAP2 SWAP1 PUSH2 0x50CA JUMP JUMPDEST PUSH1 0x0 PUSH1 0x40 MLOAD DUP1 DUP4 SUB DUP2 PUSH1 0x0 DUP8 DUP1 EXTCODESIZE ISZERO DUP1 ISZERO PUSH2 0x3354 JUMPI PUSH1 0x0 DUP1 REVERT JUMPDEST POP GAS CALL ISZERO DUP1 ISZERO PUSH2 0x3368 JUMPI RETURNDATASIZE PUSH1 0x0 DUP1 RETURNDATACOPY RETURNDATASIZE PUSH1 0x0 REVERT JUMPDEST POP POP POP POP CALLER PUSH20 0xFFFFFFFFFFFFFFFFFFFFFFFFFFFFFFFFFFFFFFFF AND PUSH32 0x71887C03BAB9C32311D166EA6FB805439A8A3765B0DE8CB1F611799E84EDF89 PUSH1 0x40 MLOAD PUSH1 0x40 MLOAD DUP1 SWAP2 SUB SWAP1 LOG2 JUMP JUMPDEST PUSH1 0x9B SLOAD DUP2 JUMP JUMPDEST PUSH1 0xB0 PUSH1 0x20 MSTORE DUP1 PUSH1 0x0 MSTORE PUSH1 0x40 PUSH1 0x0 KECCAK256 PUSH1 0x0 SWAP2 POP SWAP1 POP DUP1 SLOAD PUSH2 0x33D6 SWAP1 PUSH2 0x58C8 JUMP JUMPDEST DUP1 PUSH1 0x1F ADD PUSH1 0x20 DUP1 SWAP2 DIV MUL PUSH1 0x20 ADD PUSH1 0x40 MLOAD SWAP1 DUP2 ADD PUSH1 0x40 MSTORE DUP1 SWAP3 SWAP2 SWAP1 DUP2 DUP2 MSTORE PUSH1 0x20 ADD DUP3 DUP1 SLOAD PUSH2 0x3402 SWAP1 PUSH2 0x58C8 JUMP JUMPDEST DUP1 ISZERO PUSH2 0x344F JUMPI DUP1 PUSH1 0x1F LT PUSH2 0x3424 JUMPI PUSH2 0x100 DUP1 DUP4 SLOAD DIV MUL DUP4 MSTORE SWAP2 PUSH1 0x20 ADD SWAP2 PUSH2 0x344F JUMP JUMPDEST DUP3 ADD SWAP2 SWAP1 PUSH1 0x0 MSTORE PUSH1 0x20 PUSH1 0x0 KECCAK256 SWAP1 JUMPDEST DUP2 SLOAD DUP2 MSTORE SWAP1 PUSH1 0x1 ADD SWAP1 PUSH1 0x20 ADD DUP1 DUP4 GT PUSH2 0x3432 JUMPI DUP3 SWAP1 SUB PUSH1 0x1F AND DUP3 ADD SWAP2 JUMPDEST POP POP POP POP POP DUP2 JUMP JUMPDEST PUSH2 0x345F PUSH2 0x3A2F JUMP JUMPDEST PUSH1 0xA6 PUSH1 0x0 SWAP1 SLOAD SWAP1 PUSH2 0x100 EXP SWAP1 DIV PUSH20 0xFFFFFFFFFFFFFFFFFFFFFFFFFFFFFFFFFFFFFFFF AND PUSH20 0xFFFFFFFFFFFFFFFFFFFFFFFFFFFFFFFFFFFFFFFF AND PUSH4 0xA9059CBB DUP4 DUP4 PUSH1 0x40 MLOAD DUP4 PUSH4 0xFFFFFFFF AND PUSH1 0xE0 SHL DUP2 MSTORE PUSH1 0x4 ADD PUSH2 0x34BC SWAP3 SWAP2 SWAP1 PUSH2 0x4F60 JUMP JUMPDEST PUSH1 0x20 PUSH1 0x40 MLOAD DUP1 DUP4 SUB DUP2 PUSH1 0x0 DUP8 DUP1 EXTCODESIZE ISZERO DUP1 ISZERO PUSH2 0x34D6 JUMPI PUSH1 0x0 DUP1 REVERT JUMPDEST POP GAS CALL ISZERO DUP1 ISZERO PUSH2 0x34EA JUMPI RETURNDATASIZE PUSH1 0x0 DUP1 RETURNDATACOPY RETURNDATASIZE PUSH1 0x0 REVERT JUMPDEST POP POP POP POP PUSH1 0x40 MLOAD RETURNDATASIZE PUSH1 0x1F NOT PUSH1 0x1F DUP3 ADD AND DUP3 ADD DUP1 PUSH1 0x40 MSTORE POP DUP2 ADD SWAP1 PUSH2 0x350E SWAP2 SWAP1 PUSH2 0x4686 JUMP JUMPDEST POP POP POP JUMP JUMPDEST PUSH2 0x351B PUSH2 0x3A2F JUMP JUMPDEST PUSH1 0x0 PUSH2 0x3525 PUSH2 0x2EBB JUMP JUMPDEST SWAP1 POP DUP1 PUSH1 0xA2 SLOAD EQ ISZERO PUSH2 0x356C JUMPI PUSH1 0x40 MLOAD PUSH32 0x8C379A000000000000000000000000000000000000000000000000000000000 DUP2 MSTORE PUSH1 0x4 ADD PUSH2 0x3563 SWAP1 PUSH2 0x5342 JUMP JUMPDEST PUSH1 0x40 MLOAD DUP1 SWAP2 SUB SWAP1 REVERT JUMPDEST PUSH1 0x0 PUSH1 0xA2 SLOAD DUP3 PUSH2 0x357C SWAP2 SWAP1 PUSH2 0x56D2 JUMP JUMPDEST SWAP1 POP PUSH1 0xA3 SLOAD DUP2 GT ISZERO PUSH2 0x358E JUMPI PUSH1 0xA3 SLOAD SWAP1 POP JUMPDEST PUSH1 0x0 SELFBALANCE SWAP1 POP PUSH1 0x0 JUMPDEST DUP3 DUP2 LT ISZERO PUSH2 0x373B JUMPI PUSH1 0xA7 PUSH1 0x0 SWAP1 SLOAD SWAP1 PUSH2 0x100 EXP SWAP1 DIV PUSH20 0xFFFFFFFFFFFFFFFFFFFFFFFFFFFFFFFFFFFFFFFF AND PUSH20 0xFFFFFFFFFFFFFFFFFFFFFFFFFFFFFFFFFFFFFFFF AND PUSH4 0xA0B9D8BE PUSH1 0x98 PUSH1 0x0 SWAP1 SLOAD SWAP1 PUSH2 0x100 EXP SWAP1 DIV PUSH20 0xFFFFFFFFFFFFFFFFFFFFFFFFFFFFFFFFFFFFFFFF AND PUSH1 0x40 MLOAD DUP3 PUSH4 0xFFFFFFFF AND PUSH1 0xE0 SHL DUP2 MSTORE PUSH1 0x4 ADD PUSH2 0x361B SWAP2 SWAP1 PUSH2 0x4F1C JUMP JUMPDEST PUSH1 0x0 PUSH1 0x40 MLOAD DUP1 DUP4 SUB DUP2 PUSH1 0x0 DUP8 DUP1 EXTCODESIZE ISZERO DUP1 ISZERO PUSH2 0x3635 JUMPI PUSH1 0x0 DUP1 REVERT JUMPDEST POP GAS CALL SWAP3 POP POP POP DUP1 ISZERO PUSH2 0x3646 JUMPI POP PUSH1 0x1 JUMPDEST PUSH2 0x36D3 JUMPI RETURNDATASIZE DUP1 PUSH1 0x0 DUP2 EQ PUSH2 0x3676 JUMPI PUSH1 0x40 MLOAD SWAP2 POP PUSH1 0x1F NOT PUSH1 0x3F RETURNDATASIZE ADD AND DUP3 ADD PUSH1 0x40 MSTORE RETURNDATASIZE DUP3 MSTORE RETURNDATASIZE PUSH1 0x0 PUSH1 0x20 DUP5 ADD RETURNDATACOPY PUSH2 0x367B JUMP JUMPDEST PUSH1 0x60 SWAP2 POP JUMPDEST POP DUP1 PUSH1 0x40 MLOAD PUSH2 0x368A SWAP2 SWAP1 PUSH2 0x4EAD JUMP JUMPDEST PUSH1 0x40 MLOAD DUP1 SWAP2 SUB SWAP1 KECCAK256 PUSH1 0x1 PUSH1 0xA2 SLOAD PUSH2 0x36A1 SWAP2 SWAP1 PUSH2 0x5575 JUMP JUMPDEST PUSH32 0xFA856C428399288A6034F9C96D90C67DC025124C025CD92E228F9B795CD2EC84 PUSH1 0x40 MLOAD PUSH1 0x40 MLOAD DUP1 SWAP2 SUB SWAP1 LOG3 POP PUSH2 0x3728 JUMP JUMPDEST PUSH1 0x1 PUSH1 0xA2 PUSH1 0x0 DUP3 DUP3 SLOAD PUSH2 0x36E6 SWAP2 SWAP1 PUSH2 0x5575 JUMP JUMPDEST SWAP3 POP POP DUP2 SWAP1 SSTORE POP DUP4 PUSH32 0xE3AD3E6AE6E2F00623AF1899E05E142E09F8AF5B7F4E9B765D94646D6BB9B892 PUSH1 0xA2 SLOAD PUSH1 0x40 MLOAD PUSH2 0x371F SWAP2 SWAP1 PUSH2 0x5442 JUMP JUMPDEST PUSH1 0x40 MLOAD DUP1 SWAP2 SUB SWAP1 LOG2 JUMPDEST DUP1 DUP1 PUSH2 0x3733 SWAP1 PUSH2 0x592B JUMP JUMPDEST SWAP2 POP POP PUSH2 0x3596 JUMP JUMPDEST POP PUSH1 0x0 SELFBALANCE SWAP1 POP DUP2 DUP2 PUSH2 0x374D SWAP2 SWAP1 PUSH2 0x56D2 JUMP JUMPDEST PUSH1 0xA4 PUSH1 0x0 DUP3 DUP3 SLOAD PUSH2 0x375E SWAP2 SWAP1 PUSH2 0x5575 JUMP JUMPDEST SWAP3 POP POP DUP2 SWAP1 SSTORE POP DUP4 PUSH32 0x1D37F71BDEB9F37B8AEF735E93B33154911A15CAE0FC0A473057A898BE05C4A3 DUP4 DUP4 PUSH2 0x3793 SWAP2 SWAP1 PUSH2 0x56D2 JUMP JUMPDEST PUSH1 0x40 MLOAD PUSH2 0x37A0 SWAP2 SWAP1 PUSH2 0x5442 JUMP JUMPDEST PUSH1 0x40 MLOAD DUP1 SWAP2 SUB SWAP1 LOG2 POP POP POP POP JUMP JUMPDEST PUSH1 0x0 PUSH1 0x97 PUSH1 0x0 SWAP1 SLOAD SWAP1 PUSH2 0x100 EXP SWAP1 DIV PUSH20 0xFFFFFFFFFFFFFFFFFFFFFFFFFFFFFFFFFFFFFFFF AND PUSH20 0xFFFFFFFFFFFFFFFFFFFFFFFFFFFFFFFFFFFFFFFF AND PUSH4 0xEA1BB3D5 PUSH2 0x37F6 PUSH2 0x3FAB JUMP JUMPDEST PUSH1 0x40 MLOAD DUP3 PUSH4 0xFFFFFFFF AND PUSH1 0xE0 SHL DUP2 MSTORE PUSH1 0x4 ADD PUSH2 0x3812 SWAP2 SWAP1 PUSH2 0x5035 JUMP JUMPDEST PUSH1 0x20 PUSH1 0x40 MLOAD DUP1 DUP4 SUB DUP2 DUP7 DUP1 EXTCODESIZE ISZERO DUP1 ISZERO PUSH2 0x382A JUMPI PUSH1 0x0 DUP1 REVERT JUMPDEST POP GAS STATICCALL ISZERO DUP1 ISZERO PUSH2 0x383E JUMPI RETURNDATASIZE PUSH1 0x0 DUP1 RETURNDATACOPY RETURNDATASIZE PUSH1 0x0 REVERT JUMPDEST POP POP POP POP PUSH1 0x40 MLOAD RETURNDATASIZE PUSH1 0x1F NOT PUSH1 0x1F DUP3 ADD AND DUP3 ADD DUP1 PUSH1 0x40 MSTORE POP DUP2 ADD SWAP1 PUSH2 0x3862 SWAP2 SWAP1 PUSH2 0x47B9 JUMP JUMPDEST SWAP1 POP SWAP1 JUMP JUMPDEST PUSH2 0x386F PUSH2 0x3A2F JUMP JUMPDEST PUSH1 0x0 PUSH20 0xFFFFFFFFFFFFFFFFFFFFFFFFFFFFFFFFFFFFFFFF AND DUP2 PUSH20 0xFFFFFFFFFFFFFFFFFFFFFFFFFFFFFFFFFFFFFFFF AND EQ ISZERO PUSH2 0x38DF JUMPI PUSH1 0x40 MLOAD PUSH32 0x8C379A000000000000000000000000000000000000000000000000000000000 DUP2 MSTORE PUSH1 0x4 ADD PUSH2 0x38D6 SWAP1 PUSH2 0x51C2 JUMP JUMPDEST PUSH1 0x40 MLOAD DUP1 SWAP2 SUB SWAP1 REVERT JUMPDEST PUSH2 0x38E8 DUP2 PUSH2 0x4124 JUMP JUMPDEST POP JUMP JUMPDEST PUSH1 0x0 PUSH1 0xAA PUSH1 0x0 DUP4 PUSH20 0xFFFFFFFFFFFFFFFFFFFFFFFFFFFFFFFFFFFFFFFF AND PUSH20 0xFFFFFFFFFFFFFFFFFFFFFFFFFFFFFFFFFFFFFFFF AND DUP2 MSTORE PUSH1 0x20 ADD SWAP1 DUP2 MSTORE PUSH1 0x20 ADD PUSH1 0x0 KECCAK256 SLOAD PUSH1 0x99 SLOAD PUSH1 0x9D SLOAD PUSH2 0x393D SWAP2 SWAP1 PUSH2 0x5607 JUMP JUMPDEST PUSH2 0x3947 SWAP2 SWAP1 PUSH2 0x5638 JUMP JUMPDEST SWAP1 POP SWAP2 SWAP1 POP JUMP JUMPDEST PUSH1 0xA7 PUSH1 0x0 SWAP1 SLOAD SWAP1 PUSH2 0x100 EXP SWAP1 DIV PUSH20 0xFFFFFFFFFFFFFFFFFFFFFFFFFFFFFFFFFFFFFFFF AND DUP2 JUMP JUMPDEST PUSH1 0xA8 DUP2 DUP2 SLOAD DUP2 LT PUSH2 0x3984 JUMPI PUSH1 0x0 DUP1 REVERT JUMPDEST SWAP1 PUSH1 0x0 MSTORE PUSH1 0x20 PUSH1 0x0 KECCAK256 ADD PUSH1 0x0 SWAP2 POP SLOAD SWAP1 PUSH2 0x100 EXP SWAP1 DIV PUSH20 0xFFFFFFFFFFFFFFFFFFFFFFFFFFFFFFFFFFFFFFFF AND DUP2 JUMP JUMPDEST PUSH1 0x0 DUP1 DUP3 PUSH20 0xFFFFFFFFFFFFFFFFFFFFFFFFFFFFFFFFFFFFFFFF AND EXTCODESIZE GT SWAP1 POP SWAP2 SWAP1 POP JUMP JUMPDEST PUSH1 0x0 PUSH1 0x1 SWAP1 SLOAD SWAP1 PUSH2 0x100 EXP SWAP1 DIV PUSH1 0xFF AND PUSH2 0x3A25 JUMPI PUSH1 0x40 MLOAD PUSH32 0x8C379A000000000000000000000000000000000000000000000000000000000 DUP2 MSTORE PUSH1 0x4 ADD PUSH2 0x3A1C SWAP1 PUSH2 0x5382 JUMP JUMPDEST PUSH1 0x40 MLOAD DUP1 SWAP2 SUB SWAP1 REVERT JUMPDEST PUSH2 0x3A2D PUSH2 0x43F9 JUMP JUMPDEST JUMP JUMPDEST PUSH2 0x3A37 PUSH2 0x445A JUMP JUMPDEST PUSH20 0xFFFFFFFFFFFFFFFFFFFFFFFFFFFFFFFFFFFFFFFF AND PUSH2 0x3A55 PUSH2 0x2E37 JUMP JUMPDEST PUSH20 0xFFFFFFFFFFFFFFFFFFFFFFFFFFFFFFFFFFFFFFFF AND EQ PUSH2 0x3AAB JUMPI PUSH1 0x40 MLOAD PUSH32 0x8C379A000000000000000000000000000000000000000000000000000000000 DUP2 MSTORE PUSH1 0x4 ADD PUSH2 0x3AA2 SWAP1 PUSH2 0x5302 JUMP JUMPDEST PUSH1 0x40 MLOAD DUP1 SWAP2 SUB SWAP1 REVERT JUMPDEST JUMP JUMPDEST PUSH1 0x0 PUSH2 0x3AB7 PUSH2 0x2EBB JUMP JUMPDEST SWAP1 POP PUSH1 0x4 PUSH1 0xA PUSH1 0x9E SLOAD PUSH2 0x3ACA SWAP2 SWAP1 PUSH2 0x5638 JUMP JUMPDEST PUSH2 0x3AD4 SWAP2 SWAP1 PUSH2 0x5607 JUMP JUMPDEST PUSH1 0xA PUSH1 0x9F SLOAD PUSH2 0x3AE3 SWAP2 SWAP1 PUSH2 0x5638 JUMP JUMPDEST PUSH2 0x3AED SWAP2 SWAP1 PUSH2 0x5575 JUMP JUMPDEST PUSH1 0xA DUP3 PUSH2 0x3AFA SWAP2 SWAP1 PUSH2 0x5638 JUMP JUMPDEST LT ISZERO PUSH2 0x3B06 JUMPI POP PUSH2 0x3CB1 JUMP JUMPDEST PUSH1 0x0 PUSH1 0xA0 SLOAD GT ISZERO PUSH2 0x3C68 JUMPI PUSH1 0xA7 PUSH1 0x0 SWAP1 SLOAD SWAP1 PUSH2 0x100 EXP SWAP1 DIV PUSH20 0xFFFFFFFFFFFFFFFFFFFFFFFFFFFFFFFFFFFFFFFF AND PUSH20 0xFFFFFFFFFFFFFFFFFFFFFFFFFFFFFFFFFFFFFFFF AND PUSH4 0xC7841DD2 ADDRESS PUSH1 0xA0 SLOAD PUSH1 0x40 MLOAD DUP4 PUSH4 0xFFFFFFFF AND PUSH1 0xE0 SHL DUP2 MSTORE PUSH1 0x4 ADD PUSH2 0x3B70 SWAP3 SWAP2 SWAP1 PUSH2 0x4F37 JUMP JUMPDEST PUSH1 0x0 PUSH1 0x40 MLOAD DUP1 DUP4 SUB DUP2 PUSH1 0x0 DUP8 DUP1 EXTCODESIZE ISZERO DUP1 ISZERO PUSH2 0x3B8A JUMPI PUSH1 0x0 DUP1 REVERT JUMPDEST POP GAS CALL SWAP3 POP POP POP DUP1 ISZERO PUSH2 0x3B9B JUMPI POP PUSH1 0x1 JUMPDEST PUSH2 0x3C1D JUMPI RETURNDATASIZE DUP1 PUSH1 0x0 DUP2 EQ PUSH2 0x3BCB JUMPI PUSH1 0x40 MLOAD SWAP2 POP PUSH1 0x1F NOT PUSH1 0x3F RETURNDATASIZE ADD AND DUP3 ADD PUSH1 0x40 MSTORE RETURNDATASIZE DUP3 MSTORE RETURNDATASIZE PUSH1 0x0 PUSH1 0x20 DUP5 ADD RETURNDATACOPY PUSH2 0x3BD0 JUMP JUMPDEST PUSH1 0x60 SWAP2 POP JUMPDEST POP DUP1 PUSH1 0x40 MLOAD PUSH2 0x3BDF SWAP2 SWAP1 PUSH2 0x4EAD JUMP JUMPDEST PUSH1 0x40 MLOAD DUP1 SWAP2 SUB SWAP1 KECCAK256 DUP3 PUSH1 0xA0 SLOAD PUSH32 0x832C31B2D0CE0C03D09E4E17CCD7312693AF36DDD41C197ED1ED6C6DD58CB2ED PUSH1 0x40 MLOAD PUSH1 0x40 MLOAD DUP1 SWAP2 SUB SWAP1 LOG4 POP PUSH2 0x3C67 JUMP JUMPDEST DUP1 PUSH32 0xD112BE63E7FCEB2DDDC1FCF8AE6159D873AF98BE4505DAEE865E08F2AEAE802D PUSH1 0xA0 SLOAD PUSH1 0x40 MLOAD PUSH2 0x3C4F SWAP2 SWAP1 PUSH2 0x5442 JUMP JUMPDEST PUSH1 0x40 MLOAD DUP1 SWAP2 SUB SWAP1 LOG2 PUSH1 0x0 PUSH1 0xA0 DUP2 SWAP1 SSTORE POP DUP1 PUSH1 0x9F DUP2 SWAP1 SSTORE POP JUMPDEST JUMPDEST PUSH1 0xA0 SLOAD DUP2 CALLER PUSH20 0xFFFFFFFFFFFFFFFFFFFFFFFFFFFFFFFFFFFFFFFF AND PUSH32 0x69EADFDF59619A336DC106A730FA0CCF616EE1D058E409CD39F65F2A5CCDECAE PUSH1 0x40 MLOAD PUSH1 0x40 MLOAD DUP1 SWAP2 SUB SWAP1 LOG4 POP JUMPDEST JUMP JUMPDEST PUSH1 0x0 SELFBALANCE SWAP1 POP PUSH1 0xA7 PUSH1 0x0 SWAP1 SLOAD SWAP1 PUSH2 0x100 EXP SWAP1 DIV PUSH20 0xFFFFFFFFFFFFFFFFFFFFFFFFFFFFFFFFFFFFFFFF AND PUSH20 0xFFFFFFFFFFFFFFFFFFFFFFFFFFFFFFFFFFFFFFFF AND PUSH4 0x77A0FE02 PUSH1 0x40 MLOAD DUP2 PUSH4 0xFFFFFFFF AND PUSH1 0xE0 SHL DUP2 MSTORE PUSH1 0x4 ADD PUSH1 0x0 PUSH1 0x40 MLOAD DUP1 DUP4 SUB DUP2 PUSH1 0x0 DUP8 DUP1 EXTCODESIZE ISZERO DUP1 ISZERO PUSH2 0x3D22 JUMPI PUSH1 0x0 DUP1 REVERT JUMPDEST POP GAS CALL SWAP3 POP POP POP DUP1 ISZERO PUSH2 0x3D33 JUMPI POP PUSH1 0x1 JUMPDEST PUSH2 0x3DB2 JUMPI RETURNDATASIZE DUP1 PUSH1 0x0 DUP2 EQ PUSH2 0x3D63 JUMPI PUSH1 0x40 MLOAD SWAP2 POP PUSH1 0x1F NOT PUSH1 0x3F RETURNDATASIZE ADD AND DUP3 ADD PUSH1 0x40 MSTORE RETURNDATASIZE DUP3 MSTORE RETURNDATASIZE PUSH1 0x0 PUSH1 0x20 DUP5 ADD RETURNDATACOPY PUSH2 0x3D68 JUMP JUMPDEST PUSH1 0x60 SWAP2 POP JUMPDEST POP DUP1 PUSH1 0x40 MLOAD PUSH2 0x3D77 SWAP2 SWAP1 PUSH2 0x4EAD JUMP JUMPDEST PUSH1 0x40 MLOAD DUP1 SWAP2 SUB SWAP1 KECCAK256 DUP4 PUSH32 0xF031B94D40B16F5C2B8213E25EA0F640687FA24E99F6A0EF56CDD46762434A2F PUSH1 0x40 MLOAD PUSH1 0x40 MLOAD DUP1 SWAP2 SUB SWAP1 LOG3 POP PUSH2 0x3DDF JUMP JUMPDEST DUP2 PUSH31 0x973A60D81248412B3530A2FF12C475667DC3C0ECE650FB361C044AA240565B PUSH1 0x40 MLOAD PUSH1 0x40 MLOAD DUP1 SWAP2 SUB SWAP1 LOG2 JUMPDEST PUSH1 0x0 SELFBALANCE SWAP1 POP DUP2 DUP2 PUSH2 0x3DF0 SWAP2 SWAP1 PUSH2 0x56D2 JUMP JUMPDEST PUSH1 0xA1 PUSH1 0x0 DUP3 DUP3 SLOAD PUSH2 0x3E01 SWAP2 SWAP1 PUSH2 0x5575 JUMP JUMPDEST SWAP3 POP POP DUP2 SWAP1 SSTORE POP DUP3 CALLER PUSH20 0xFFFFFFFFFFFFFFFFFFFFFFFFFFFFFFFFFFFFFFFF AND PUSH32 0x7AE76C7BA85137A574DA9E7EF1F16FCD73E8290DF91265541D72F81C331862E0 DUP5 DUP5 PUSH2 0x3E4D SWAP2 SWAP1 PUSH2 0x56D2 JUMP JUMPDEST PUSH1 0x40 MLOAD PUSH2 0x3E5A SWAP2 SWAP1 PUSH2 0x5442 JUMP JUMPDEST PUSH1 0x40 MLOAD DUP1 SWAP2 SUB SWAP1 LOG3 POP POP POP JUMP JUMPDEST DUP1 SELFBALANCE LT ISZERO PUSH2 0x3EAA JUMPI PUSH1 0x40 MLOAD PUSH32 0x8C379A000000000000000000000000000000000000000000000000000000000 DUP2 MSTORE PUSH1 0x4 ADD PUSH2 0x3EA1 SWAP1 PUSH2 0x5242 JUMP JUMPDEST PUSH1 0x40 MLOAD DUP1 SWAP2 SUB SWAP1 REVERT JUMPDEST PUSH1 0x0 DUP3 PUSH20 0xFFFFFFFFFFFFFFFFFFFFFFFFFFFFFFFFFFFFFFFF AND DUP3 PUSH1 0x40 MLOAD PUSH2 0x3ED0 SWAP1 PUSH2 0x4EF2 JUMP JUMPDEST PUSH1 0x0 PUSH1 0x40 MLOAD DUP1 DUP4 SUB DUP2 DUP6 DUP8 GAS CALL SWAP3 POP POP POP RETURNDATASIZE DUP1 PUSH1 0x0 DUP2 EQ PUSH2 0x3F0D JUMPI PUSH1 0x40 MLOAD SWAP2 POP PUSH1 0x1F NOT PUSH1 0x3F RETURNDATASIZE ADD AND DUP3 ADD PUSH1 0x40 MSTORE RETURNDATASIZE DUP3 MSTORE RETURNDATASIZE PUSH1 0x0 PUSH1 0x20 DUP5 ADD RETURNDATACOPY PUSH2 0x3F12 JUMP JUMPDEST PUSH1 0x60 SWAP2 POP JUMPDEST POP POP SWAP1 POP DUP1 PUSH2 0x3F56 JUMPI PUSH1 0x40 MLOAD PUSH32 0x8C379A000000000000000000000000000000000000000000000000000000000 DUP2 MSTORE PUSH1 0x4 ADD PUSH2 0x3F4D SWAP1 PUSH2 0x5202 JUMP JUMPDEST PUSH1 0x40 MLOAD DUP1 SWAP2 SUB SWAP1 REVERT JUMPDEST POP POP POP JUMP JUMPDEST PUSH1 0x2 PUSH1 0x65 SLOAD EQ ISZERO PUSH2 0x3FA1 JUMPI PUSH1 0x40 MLOAD PUSH32 0x8C379A000000000000000000000000000000000000000000000000000000000 DUP2 MSTORE PUSH1 0x4 ADD PUSH2 0x3F98 SWAP1 PUSH2 0x53E2 JUMP JUMPDEST PUSH1 0x40 MLOAD DUP1 SWAP2 SUB SWAP1 REVERT JUMPDEST PUSH1 0x2 PUSH1 0x65 DUP2 SWAP1 SSTORE POP JUMP JUMPDEST PUSH1 0x0 DUP1 PUSH1 0x1 PUSH1 0x97 PUSH1 0x0 SWAP1 SLOAD SWAP1 PUSH2 0x100 EXP SWAP1 DIV PUSH20 0xFFFFFFFFFFFFFFFFFFFFFFFFFFFFFFFFFFFFFFFF AND PUSH20 0xFFFFFFFFFFFFFFFFFFFFFFFFFFFFFFFFFFFFFFFF AND PUSH4 0x471121D1 ADDRESS PUSH1 0x40 MLOAD DUP3 PUSH4 0xFFFFFFFF AND PUSH1 0xE0 SHL DUP2 MSTORE PUSH1 0x4 ADD PUSH2 0x400B SWAP2 SWAP1 PUSH2 0x4F1C JUMP JUMPDEST PUSH1 0x20 PUSH1 0x40 MLOAD DUP1 DUP4 SUB DUP2 DUP7 DUP1 EXTCODESIZE ISZERO DUP1 ISZERO PUSH2 0x4023 JUMPI PUSH1 0x0 DUP1 REVERT JUMPDEST POP GAS STATICCALL ISZERO DUP1 ISZERO PUSH2 0x4037 JUMPI RETURNDATASIZE PUSH1 0x0 DUP1 RETURNDATACOPY RETURNDATASIZE PUSH1 0x0 REVERT JUMPDEST POP POP POP POP PUSH1 0x40 MLOAD RETURNDATASIZE PUSH1 0x1F NOT PUSH1 0x1F DUP3 ADD AND DUP3 ADD DUP1 PUSH1 0x40 MSTORE POP DUP2 ADD SWAP1 PUSH2 0x405B SWAP2 SWAP1 PUSH2 0x47B9 JUMP JUMPDEST PUSH2 0x4065 SWAP2 SWAP1 PUSH2 0x56D2 JUMP JUMPDEST SWAP1 POP PUSH1 0x97 PUSH1 0x0 SWAP1 SLOAD SWAP1 PUSH2 0x100 EXP SWAP1 DIV PUSH20 0xFFFFFFFFFFFFFFFFFFFFFFFFFFFFFFFFFFFFFFFF AND PUSH20 0xFFFFFFFFFFFFFFFFFFFFFFFFFFFFFFFFFFFFFFFF AND PUSH4 0xE5FE4DFF ADDRESS DUP4 PUSH1 0x40 MLOAD DUP4 PUSH4 0xFFFFFFFF AND PUSH1 0xE0 SHL DUP2 MSTORE PUSH1 0x4 ADD PUSH2 0x40C4 SWAP3 SWAP2 SWAP1 PUSH2 0x4F60 JUMP JUMPDEST PUSH1 0x20 PUSH1 0x40 MLOAD DUP1 DUP4 SUB DUP2 DUP7 DUP1 EXTCODESIZE ISZERO DUP1 ISZERO PUSH2 0x40DC JUMPI PUSH1 0x0 DUP1 REVERT JUMPDEST POP GAS STATICCALL ISZERO DUP1 ISZERO PUSH2 0x40F0 JUMPI RETURNDATASIZE PUSH1 0x0 DUP1 RETURNDATACOPY RETURNDATASIZE PUSH1 0x0 REVERT JUMPDEST POP POP POP POP PUSH1 0x40 MLOAD RETURNDATASIZE PUSH1 0x1F NOT PUSH1 0x1F DUP3 ADD AND DUP3 ADD DUP1 PUSH1 0x40 MSTORE POP DUP2 ADD SWAP1 PUSH2 0x4114 SWAP2 SWAP1 PUSH2 0x46AF JUMP JUMPDEST SWAP2 POP POP SWAP1 JUMP JUMPDEST PUSH1 0x1 PUSH1 0x65 DUP2 SWAP1 SSTORE POP JUMP JUMPDEST PUSH1 0x0 PUSH1 0x33 PUSH1 0x0 SWAP1 SLOAD SWAP1 PUSH2 0x100 EXP SWAP1 DIV PUSH20 0xFFFFFFFFFFFFFFFFFFFFFFFFFFFFFFFFFFFFFFFF AND SWAP1 POP DUP2 PUSH1 0x33 PUSH1 0x0 PUSH2 0x100 EXP DUP2 SLOAD DUP2 PUSH20 0xFFFFFFFFFFFFFFFFFFFFFFFFFFFFFFFFFFFFFFFF MUL NOT AND SWAP1 DUP4 PUSH20 0xFFFFFFFFFFFFFFFFFFFFFFFFFFFFFFFFFFFFFFFF AND MUL OR SWAP1 SSTORE POP DUP2 PUSH20 0xFFFFFFFFFFFFFFFFFFFFFFFFFFFFFFFFFFFFFFFF AND DUP2 PUSH20 0xFFFFFFFFFFFFFFFFFFFFFFFFFFFFFFFFFFFFFFFF AND PUSH32 0x8BE0079C531659141344CD1FD0A4F28419497F9722A3DAAFE3B4186F6B6457E0 PUSH1 0x40 MLOAD PUSH1 0x40 MLOAD DUP1 SWAP2 SUB SWAP1 LOG3 POP POP JUMP JUMPDEST PUSH1 0x60 PUSH1 0x0 PUSH1 0xC PUSH5 0xFFF000000 PUSH1 0xD0 SHL DUP5 PUSH29 0xFFFFFFFFFFFFFFFFFFFFFFFFFFFFFFFFFFFFFFFFFFFFFFFFFFFFFFFFFF NOT AND AND PUSH26 0xFFFFFFFFFFFFFFFFFFFFFFFFFFFFFFFFFFFFFFFFFFFFFFFFFFFF NOT AND SWAP1 SHR PUSH6 0xFFF000000000 PUSH1 0xD0 SHL DUP5 PUSH29 0xFFFFFFFFFFFFFFFFFFFFFFFFFFFFFFFFFFFFFFFFFFFFFFFFFFFFFFFFFF NOT AND AND OR SWAP1 POP PUSH1 0x8 PUSH5 0xF00000F000 PUSH1 0xD0 SHL DUP3 AND PUSH26 0xFFFFFFFFFFFFFFFFFFFFFFFFFFFFFFFFFFFFFFFFFFFFFFFFFFFF NOT AND SWAP1 SHR PUSH6 0xFF0000FF0000 PUSH1 0xD0 SHL DUP3 AND OR SWAP1 POP PUSH1 0x4 PUSH6 0xF00000F0000 PUSH1 0xD0 SHL DUP3 AND PUSH26 0xFFFFFFFFFFFFFFFFFFFFFFFFFFFFFFFFFFFFFFFFFFFFFFFFFFFF NOT AND SWAP1 SHR PUSH6 0xF000F0F000F0 PUSH1 0xD0 SHL DUP3 AND OR SWAP1 POP PUSH1 0x4 PUSH6 0xF0F0F0F0F0F0 PUSH1 0xD0 SHL DUP3 AND PUSH26 0xFFFFFFFFFFFFFFFFFFFFFFFFFFFFFFFFFFFFFFFFFFFFFFFFFFFF NOT AND SWAP1 SHR SWAP1 POP PUSH1 0x7 PUSH6 0xF0F0F0F0F0F PUSH1 0x4 PUSH6 0x60606060606 DUP5 PUSH1 0xD0 SHR PUSH2 0x432F SWAP2 SWAP1 PUSH2 0x55CB JUMP JUMPDEST PUSH6 0xFFFFFFFFFFFF AND SWAP1 SHR AND PUSH2 0x4344 SWAP2 SWAP1 PUSH2 0x5692 JUMP JUMPDEST DUP2 PUSH1 0xD0 SHR PUSH6 0x303030303030 PUSH2 0x4359 SWAP2 SWAP1 PUSH2 0x55CB JUMP JUMPDEST PUSH2 0x4363 SWAP2 SWAP1 PUSH2 0x55CB JUMP JUMPDEST PUSH1 0xD0 SHL SWAP1 POP DUP1 PUSH1 0x40 MLOAD PUSH1 0x20 ADD PUSH2 0x4379 SWAP2 SWAP1 PUSH2 0x4E92 JUMP JUMPDEST PUSH1 0x40 MLOAD PUSH1 0x20 DUP2 DUP4 SUB SUB DUP2 MSTORE SWAP1 PUSH1 0x40 MSTORE SWAP2 POP POP SWAP2 SWAP1 POP JUMP JUMPDEST PUSH1 0x0 PUSH1 0x99 SLOAD PUSH8 0xDE0B6B3A7640000 PUSH1 0xAA PUSH1 0x0 DUP6 PUSH20 0xFFFFFFFFFFFFFFFFFFFFFFFFFFFFFFFFFFFFFFFF AND PUSH20 0xFFFFFFFFFFFFFFFFFFFFFFFFFFFFFFFFFFFFFFFF AND DUP2 MSTORE PUSH1 0x20 ADD SWAP1 DUP2 MSTORE PUSH1 0x20 ADD PUSH1 0x0 KECCAK256 SLOAD PUSH2 0x43E8 SWAP2 SWAP1 PUSH2 0x5638 JUMP JUMPDEST PUSH2 0x43F2 SWAP2 SWAP1 PUSH2 0x5607 JUMP JUMPDEST SWAP1 POP SWAP2 SWAP1 POP JUMP JUMPDEST PUSH1 0x0 PUSH1 0x1 SWAP1 SLOAD SWAP1 PUSH2 0x100 EXP SWAP1 DIV PUSH1 0xFF AND PUSH2 0x4448 JUMPI PUSH1 0x40 MLOAD PUSH32 0x8C379A000000000000000000000000000000000000000000000000000000000 DUP2 MSTORE PUSH1 0x4 ADD PUSH2 0x443F SWAP1 PUSH2 0x5382 JUMP JUMPDEST PUSH1 0x40 MLOAD DUP1 SWAP2 SUB SWAP1 REVERT JUMPDEST PUSH2 0x4458 PUSH2 0x4453 PUSH2 0x445A JUMP JUMPDEST PUSH2 0x4124 JUMP JUMPDEST JUMP JUMPDEST PUSH1 0x0 CALLER SWAP1 POP SWAP1 JUMP JUMPDEST DUP3 DUP1 SLOAD PUSH2 0x446E SWAP1 PUSH2 0x58C8 JUMP JUMPDEST SWAP1 PUSH1 0x0 MSTORE PUSH1 0x20 PUSH1 0x0 KECCAK256 SWAP1 PUSH1 0x1F ADD PUSH1 0x20 SWAP1 DIV DUP2 ADD SWAP3 DUP3 PUSH2 0x4490 JUMPI PUSH1 0x0 DUP6 SSTORE PUSH2 0x44D7 JUMP JUMPDEST DUP3 PUSH1 0x1F LT PUSH2 0x44A9 JUMPI DUP1 MLOAD PUSH1 0xFF NOT AND DUP4 DUP1 ADD OR DUP6 SSTORE PUSH2 0x44D7 JUMP JUMPDEST DUP3 DUP1 ADD PUSH1 0x1 ADD DUP6 SSTORE DUP3 ISZERO PUSH2 0x44D7 JUMPI SWAP2 DUP3 ADD JUMPDEST DUP3 DUP2 GT ISZERO PUSH2 0x44D6 JUMPI DUP3 MLOAD DUP3 SSTORE SWAP2 PUSH1 0x20 ADD SWAP2 SWAP1 PUSH1 0x1 ADD SWAP1 PUSH2 0x44BB JUMP JUMPDEST JUMPDEST POP SWAP1 POP PUSH2 0x44E4 SWAP2 SWAP1 PUSH2 0x4509 JUMP JUMPDEST POP SWAP1 JUMP JUMPDEST POP DUP1 SLOAD PUSH1 0x0 DUP3 SSTORE SWAP1 PUSH1 0x0 MSTORE PUSH1 0x20 PUSH1 0x0 KECCAK256 SWAP1 DUP2 ADD SWAP1 PUSH2 0x4506 SWAP2 SWAP1 PUSH2 0x4509 JUMP JUMPDEST POP JUMP JUMPDEST JUMPDEST DUP1 DUP3 GT ISZERO PUSH2 0x4522 JUMPI PUSH1 0x0 DUP2 PUSH1 0x0 SWAP1 SSTORE POP PUSH1 0x1 ADD PUSH2 0x450A JUMP JUMPDEST POP SWAP1 JUMP JUMPDEST PUSH1 0x0 PUSH2 0x4539 PUSH2 0x4534 DUP5 PUSH2 0x54B9 JUMP JUMPDEST PUSH2 0x5494 JUMP JUMPDEST SWAP1 POP DUP3 DUP2 MSTORE PUSH1 0x20 DUP2 ADD DUP5 DUP5 DUP5 ADD GT ISZERO PUSH2 0x4551 JUMPI PUSH1 0x0 DUP1 REVERT JUMPDEST PUSH2 0x455C DUP5 DUP3 DUP6 PUSH2 0x5886 JUMP JUMPDEST POP SWAP4 SWAP3 POP POP POP JUMP JUMPDEST PUSH1 0x0 DUP2 CALLDATALOAD SWAP1 POP PUSH2 0x4573 DUP2 PUSH2 0x5FE8 JUMP JUMPDEST SWAP3 SWAP2 POP POP JUMP JUMPDEST PUSH1 0x0 DUP2 CALLDATALOAD SWAP1 POP PUSH2 0x4588 DUP2 PUSH2 0x5FFF JUMP JUMPDEST SWAP3 SWAP2 POP POP JUMP JUMPDEST PUSH1 0x0 DUP2 MLOAD SWAP1 POP PUSH2 0x459D DUP2 PUSH2 0x5FFF JUMP JUMPDEST SWAP3 SWAP2 POP POP JUMP JUMPDEST PUSH1 0x0 DUP2 MLOAD SWAP1 POP PUSH2 0x45B2 DUP2 PUSH2 0x6016 JUMP JUMPDEST SWAP3 SWAP2 POP POP JUMP JUMPDEST PUSH1 0x0 DUP2 CALLDATALOAD SWAP1 POP PUSH2 0x45C7 DUP2 PUSH2 0x602D JUMP JUMPDEST SWAP3 SWAP2 POP POP JUMP JUMPDEST PUSH1 0x0 DUP3 PUSH1 0x1F DUP4 ADD SLT PUSH2 0x45DE JUMPI PUSH1 0x0 DUP1 REVERT JUMPDEST DUP2 CALLDATALOAD PUSH2 0x45EE DUP5 DUP3 PUSH1 0x20 DUP7 ADD PUSH2 0x4526 JUMP JUMPDEST SWAP2 POP POP SWAP3 SWAP2 POP POP JUMP JUMPDEST PUSH1 0x0 DUP2 CALLDATALOAD SWAP1 POP PUSH2 0x4606 DUP2 PUSH2 0x6044 JUMP JUMPDEST SWAP3 SWAP2 POP POP JUMP JUMPDEST PUSH1 0x0 DUP2 MLOAD SWAP1 POP PUSH2 0x461B DUP2 PUSH2 0x6044 JUMP JUMPDEST SWAP3 SWAP2 POP POP JUMP JUMPDEST PUSH1 0x0 PUSH1 0x20 DUP3 DUP5 SUB SLT ISZERO PUSH2 0x4633 JUMPI PUSH1 0x0 DUP1 REVERT JUMPDEST PUSH1 0x0 PUSH2 0x4641 DUP5 DUP3 DUP6 ADD PUSH2 0x4564 JUMP JUMPDEST SWAP2 POP POP SWAP3 SWAP2 POP POP JUMP JUMPDEST PUSH1 0x0 DUP1 PUSH1 0x40 DUP4 DUP6 SUB SLT ISZERO PUSH2 0x465D JUMPI PUSH1 0x0 DUP1 REVERT JUMPDEST PUSH1 0x0 PUSH2 0x466B DUP6 DUP3 DUP7 ADD PUSH2 0x4564 JUMP JUMPDEST SWAP3 POP POP PUSH1 0x20 PUSH2 0x467C DUP6 DUP3 DUP7 ADD PUSH2 0x45F7 JUMP JUMPDEST SWAP2 POP POP SWAP3 POP SWAP3 SWAP1 POP JUMP JUMPDEST PUSH1 0x0 PUSH1 0x20 DUP3 DUP5 SUB SLT ISZERO PUSH2 0x4698 JUMPI PUSH1 0x0 DUP1 REVERT JUMPDEST PUSH1 0x0 PUSH2 0x46A6 DUP5 DUP3 DUP6 ADD PUSH2 0x458E JUMP JUMPDEST SWAP2 POP POP SWAP3 SWAP2 POP POP JUMP JUMPDEST PUSH1 0x0 PUSH1 0x20 DUP3 DUP5 SUB SLT ISZERO PUSH2 0x46C1 JUMPI PUSH1 0x0 DUP1 REVERT JUMPDEST PUSH1 0x0 PUSH2 0x46CF DUP5 DUP3 DUP6 ADD PUSH2 0x45A3 JUMP JUMPDEST SWAP2 POP POP SWAP3 SWAP2 POP POP JUMP JUMPDEST PUSH1 0x0 DUP1 PUSH1 0x0 DUP1 PUSH1 0x0 PUSH1 0xA0 DUP7 DUP9 SUB SLT ISZERO PUSH2 0x46F0 JUMPI PUSH1 0x0 DUP1 REVERT JUMPDEST PUSH1 0x0 PUSH2 0x46FE DUP9 DUP3 DUP10 ADD PUSH2 0x45B8 JUMP JUMPDEST SWAP6 POP POP PUSH1 0x20 PUSH2 0x470F DUP9 DUP3 DUP10 ADD PUSH2 0x4564 JUMP JUMPDEST SWAP5 POP POP PUSH1 0x40 PUSH2 0x4720 DUP9 DUP3 DUP10 ADD PUSH2 0x4564 JUMP JUMPDEST SWAP4 POP POP PUSH1 0x60 PUSH2 0x4731 DUP9 DUP3 DUP10 ADD PUSH2 0x4564 JUMP JUMPDEST SWAP3 POP POP PUSH1 0x80 PUSH2 0x4742 DUP9 DUP3 DUP10 ADD PUSH2 0x4564 JUMP JUMPDEST SWAP2 POP POP SWAP3 SWAP6 POP SWAP3 SWAP6 SWAP1 SWAP4 POP JUMP JUMPDEST PUSH1 0x0 PUSH1 0x20 DUP3 DUP5 SUB SLT ISZERO PUSH2 0x4761 JUMPI PUSH1 0x0 DUP1 REVERT JUMPDEST PUSH1 0x0 DUP3 ADD CALLDATALOAD PUSH8 0xFFFFFFFFFFFFFFFF DUP2 GT ISZERO PUSH2 0x477B JUMPI PUSH1 0x0 DUP1 REVERT JUMPDEST PUSH2 0x4787 DUP5 DUP3 DUP6 ADD PUSH2 0x45CD JUMP JUMPDEST SWAP2 POP POP SWAP3 SWAP2 POP POP JUMP JUMPDEST PUSH1 0x0 PUSH1 0x20 DUP3 DUP5 SUB SLT ISZERO PUSH2 0x47A2 JUMPI PUSH1 0x0 DUP1 REVERT JUMPDEST PUSH1 0x0 PUSH2 0x47B0 DUP5 DUP3 DUP6 ADD PUSH2 0x45F7 JUMP JUMPDEST SWAP2 POP POP SWAP3 SWAP2 POP POP JUMP JUMPDEST PUSH1 0x0 PUSH1 0x20 DUP3 DUP5 SUB SLT ISZERO PUSH2 0x47CB JUMPI PUSH1 0x0 DUP1 REVERT JUMPDEST PUSH1 0x0 PUSH2 0x47D9 DUP5 DUP3 DUP6 ADD PUSH2 0x460C JUMP JUMPDEST SWAP2 POP POP SWAP3 SWAP2 POP POP JUMP JUMPDEST PUSH1 0x0 DUP1 PUSH1 0x40 DUP4 DUP6 SUB SLT ISZERO PUSH2 0x47F5 JUMPI PUSH1 0x0 DUP1 REVERT JUMPDEST PUSH1 0x0 PUSH2 0x4803 DUP6 DUP3 DUP7 ADD PUSH2 0x45F7 JUMP JUMPDEST SWAP3 POP POP PUSH1 0x20 PUSH2 0x4814 DUP6 DUP3 DUP7 ADD PUSH2 0x45F7 JUMP JUMPDEST SWAP2 POP POP SWAP3 POP SWAP3 SWAP1 POP JUMP JUMPDEST PUSH1 0x0 DUP1 PUSH1 0x0 DUP1 PUSH1 0x0 PUSH1 0xA0 DUP7 DUP9 SUB SLT ISZERO PUSH2 0x4836 JUMPI PUSH1 0x0 DUP1 REVERT JUMPDEST PUSH1 0x0 PUSH2 0x4844 DUP9 DUP3 DUP10 ADD PUSH2 0x45F7 JUMP JUMPDEST SWAP6 POP POP PUSH1 0x20 PUSH2 0x4855 DUP9 DUP3 DUP10 ADD PUSH2 0x45F7 JUMP JUMPDEST SWAP5 POP POP PUSH1 0x40 PUSH2 0x4866 DUP9 DUP3 DUP10 ADD PUSH2 0x45F7 JUMP JUMPDEST SWAP4 POP POP PUSH1 0x60 PUSH2 0x4877 DUP9 DUP3 DUP10 ADD PUSH2 0x4579 JUMP JUMPDEST SWAP3 POP POP PUSH1 0x80 PUSH2 0x4888 DUP9 DUP3 DUP10 ADD PUSH2 0x45F7 JUMP JUMPDEST SWAP2 POP POP SWAP3 SWAP6 POP SWAP3 SWAP6 SWAP1 SWAP4 POP JUMP JUMPDEST PUSH1 0x0 PUSH2 0x48A1 DUP4 DUP4 PUSH2 0x48AD JUMP JUMPDEST PUSH1 0x20 DUP4 ADD SWAP1 POP SWAP3 SWAP2 POP POP JUMP JUMPDEST PUSH2 0x48B6 DUP2 PUSH2 0x5706 JUMP JUMPDEST DUP3 MSTORE POP POP JUMP JUMPDEST PUSH2 0x48C5 DUP2 PUSH2 0x5706 JUMP JUMPDEST DUP3 MSTORE POP POP JUMP JUMPDEST PUSH1 0x0 PUSH2 0x48D6 DUP3 PUSH2 0x550F JUMP JUMPDEST PUSH2 0x48E0 DUP2 DUP6 PUSH2 0x553D JUMP JUMPDEST SWAP4 POP PUSH2 0x48EB DUP4 PUSH2 0x54EA JUMP JUMPDEST DUP1 PUSH1 0x0 JUMPDEST DUP4 DUP2 LT ISZERO PUSH2 0x491C JUMPI DUP2 MLOAD PUSH2 0x4903 DUP9 DUP3 PUSH2 0x4895 JUMP JUMPDEST SWAP8 POP PUSH2 0x490E DUP4 PUSH2 0x5530 JUMP JUMPDEST SWAP3 POP POP PUSH1 0x1 DUP2 ADD SWAP1 POP PUSH2 0x48EF JUMP JUMPDEST POP DUP6 SWAP4 POP POP POP POP SWAP3 SWAP2 POP POP JUMP JUMPDEST PUSH2 0x4932 DUP2 PUSH2 0x572A JUMP JUMPDEST DUP3 MSTORE POP POP JUMP JUMPDEST PUSH2 0x4941 DUP2 PUSH2 0x5736 JUMP JUMPDEST DUP3 MSTORE POP POP JUMP JUMPDEST PUSH2 0x4958 PUSH2 0x4953 DUP3 PUSH2 0x5740 JUMP JUMPDEST PUSH2 0x5974 JUMP JUMPDEST DUP3 MSTORE POP POP JUMP JUMPDEST PUSH1 0x0 PUSH2 0x4969 DUP3 PUSH2 0x551A JUMP JUMPDEST PUSH2 0x4973 DUP2 DUP6 PUSH2 0x554E JUMP JUMPDEST SWAP4 POP PUSH2 0x4983 DUP2 DUP6 PUSH1 0x20 DUP7 ADD PUSH2 0x5895 JUMP JUMPDEST DUP1 DUP5 ADD SWAP2 POP POP SWAP3 SWAP2 POP POP JUMP JUMPDEST PUSH2 0x4998 DUP2 PUSH2 0x57F6 JUMP JUMPDEST DUP3 MSTORE POP POP JUMP JUMPDEST PUSH2 0x49A7 DUP2 PUSH2 0x581A JUMP JUMPDEST DUP3 MSTORE POP POP JUMP JUMPDEST PUSH2 0x49B6 DUP2 PUSH2 0x583E JUMP JUMPDEST DUP3 MSTORE POP POP JUMP JUMPDEST PUSH2 0x49C5 DUP2 PUSH2 0x5862 JUMP JUMPDEST DUP3 MSTORE POP POP JUMP JUMPDEST PUSH2 0x49D4 DUP2 PUSH2 0x5874 JUMP JUMPDEST DUP3 MSTORE POP POP JUMP JUMPDEST PUSH1 0x0 PUSH2 0x49E5 DUP3 PUSH2 0x5525 JUMP JUMPDEST PUSH2 0x49EF DUP2 DUP6 PUSH2 0x5559 JUMP JUMPDEST SWAP4 POP PUSH2 0x49FF DUP2 DUP6 PUSH1 0x20 DUP7 ADD PUSH2 0x5895 JUMP JUMPDEST PUSH2 0x4A08 DUP2 PUSH2 0x5A69 JUMP JUMPDEST DUP5 ADD SWAP2 POP POP SWAP3 SWAP2 POP POP JUMP JUMPDEST PUSH1 0x0 PUSH2 0x4A1E DUP3 PUSH2 0x5525 JUMP JUMPDEST PUSH2 0x4A28 DUP2 DUP6 PUSH2 0x556A JUMP JUMPDEST SWAP4 POP PUSH2 0x4A38 DUP2 DUP6 PUSH1 0x20 DUP7 ADD PUSH2 0x5895 JUMP JUMPDEST DUP1 DUP5 ADD SWAP2 POP POP SWAP3 SWAP2 POP POP JUMP JUMPDEST PUSH1 0x0 DUP2 SLOAD PUSH2 0x4A51 DUP2 PUSH2 0x58C8 JUMP JUMPDEST PUSH2 0x4A5B DUP2 DUP7 PUSH2 0x556A JUMP JUMPDEST SWAP5 POP PUSH1 0x1 DUP3 AND PUSH1 0x0 DUP2 EQ PUSH2 0x4A76 JUMPI PUSH1 0x1 DUP2 EQ PUSH2 0x4A87 JUMPI PUSH2 0x4ABA JUMP JUMPDEST PUSH1 0xFF NOT DUP4 AND DUP7 MSTORE DUP2 DUP7 ADD SWAP4 POP PUSH2 0x4ABA JUMP JUMPDEST PUSH2 0x4A90 DUP6 PUSH2 0x54FA JUMP JUMPDEST PUSH1 0x0 JUMPDEST DUP4 DUP2 LT ISZERO PUSH2 0x4AB2 JUMPI DUP2 SLOAD DUP2 DUP10 ADD MSTORE PUSH1 0x1 DUP3 ADD SWAP2 POP PUSH1 0x20 DUP2 ADD SWAP1 POP PUSH2 0x4A93 JUMP JUMPDEST DUP4 DUP9 ADD SWAP6 POP POP POP JUMPDEST POP POP POP SWAP3 SWAP2 POP POP JUMP JUMPDEST PUSH1 0x0 PUSH2 0x4AD0 PUSH1 0x14 DUP4 PUSH2 0x5559 JUMP JUMPDEST SWAP2 POP PUSH2 0x4ADB DUP3 PUSH2 0x5A7A JUMP JUMPDEST PUSH1 0x20 DUP3 ADD SWAP1 POP SWAP2 SWAP1 POP JUMP JUMPDEST PUSH1 0x0 PUSH2 0x4AF3 PUSH1 0x17 DUP4 PUSH2 0x5559 JUMP JUMPDEST SWAP2 POP PUSH2 0x4AFE DUP3 PUSH2 0x5AA3 JUMP JUMPDEST PUSH1 0x20 DUP3 ADD SWAP1 POP SWAP2 SWAP1 POP JUMP JUMPDEST PUSH1 0x0 PUSH2 0x4B16 PUSH1 0x21 DUP4 PUSH2 0x5559 JUMP JUMPDEST SWAP2 POP PUSH2 0x4B21 DUP3 PUSH2 0x5ACC JUMP JUMPDEST PUSH1 0x40 DUP3 ADD SWAP1 POP SWAP2 SWAP1 POP JUMP JUMPDEST PUSH1 0x0 PUSH2 0x4B39 PUSH1 0x2D DUP4 PUSH2 0x5559 JUMP JUMPDEST SWAP2 POP PUSH2 0x4B44 DUP3 PUSH2 0x5B1B JUMP JUMPDEST PUSH1 0x40 DUP3 ADD SWAP1 POP SWAP2 SWAP1 POP JUMP JUMPDEST PUSH1 0x0 PUSH2 0x4B5C PUSH1 0xF DUP4 PUSH2 0x5559 JUMP JUMPDEST SWAP2 POP PUSH2 0x4B67 DUP3 PUSH2 0x5B6A JUMP JUMPDEST PUSH1 0x20 DUP3 ADD SWAP1 POP SWAP2 SWAP1 POP JUMP JUMPDEST PUSH1 0x0 PUSH2 0x4B7F PUSH1 0x26 DUP4 PUSH2 0x5559 JUMP JUMPDEST SWAP2 POP PUSH2 0x4B8A DUP3 PUSH2 0x5B93 JUMP JUMPDEST PUSH1 0x40 DUP3 ADD SWAP1 POP SWAP2 SWAP1 POP JUMP JUMPDEST PUSH1 0x0 PUSH2 0x4BA2 PUSH1 0x17 DUP4 PUSH2 0x5559 JUMP JUMPDEST SWAP2 POP PUSH2 0x4BAD DUP3 PUSH2 0x5BE2 JUMP JUMPDEST PUSH1 0x20 DUP3 ADD SWAP1 POP SWAP2 SWAP1 POP JUMP JUMPDEST PUSH1 0x0 PUSH2 0x4BC5 PUSH1 0x3A DUP4 PUSH2 0x5559 JUMP JUMPDEST SWAP2 POP PUSH2 0x4BD0 DUP3 PUSH2 0x5C0B JUMP JUMPDEST PUSH1 0x40 DUP3 ADD SWAP1 POP SWAP2 SWAP1 POP JUMP JUMPDEST PUSH1 0x0 PUSH2 0x4BE8 PUSH1 0xE DUP4 PUSH2 0x5559 JUMP JUMPDEST SWAP2 POP PUSH2 0x4BF3 DUP3 PUSH2 0x5C5A JUMP JUMPDEST PUSH1 0x20 DUP3 ADD SWAP1 POP SWAP2 SWAP1 POP JUMP JUMPDEST PUSH1 0x0 PUSH2 0x4C0B PUSH1 0x1D DUP4 PUSH2 0x5559 JUMP JUMPDEST SWAP2 POP PUSH2 0x4C16 DUP3 PUSH2 0x5C83 JUMP JUMPDEST PUSH1 0x20 DUP3 ADD SWAP1 POP SWAP2 SWAP1 POP JUMP JUMPDEST PUSH1 0x0 PUSH2 0x4C2E PUSH1 0x10 DUP4 PUSH2 0x5559 JUMP JUMPDEST SWAP2 POP PUSH2 0x4C39 DUP3 PUSH2 0x5CAC JUMP JUMPDEST PUSH1 0x20 DUP3 ADD SWAP1 POP SWAP2 SWAP1 POP JUMP JUMPDEST PUSH1 0x0 PUSH2 0x4C51 PUSH1 0x17 DUP4 PUSH2 0x5559 JUMP JUMPDEST SWAP2 POP PUSH2 0x4C5C DUP3 PUSH2 0x5CD5 JUMP JUMPDEST PUSH1 0x20 DUP3 ADD SWAP1 POP SWAP2 SWAP1 POP JUMP JUMPDEST PUSH1 0x0 PUSH2 0x4C74 PUSH1 0x2E DUP4 PUSH2 0x5559 JUMP JUMPDEST SWAP2 POP PUSH2 0x4C7F DUP3 PUSH2 0x5CFE JUMP JUMPDEST PUSH1 0x40 DUP3 ADD SWAP1 POP SWAP2 SWAP1 POP JUMP JUMPDEST PUSH1 0x0 PUSH2 0x4C97 PUSH1 0x19 DUP4 PUSH2 0x5559 JUMP JUMPDEST SWAP2 POP PUSH2 0x4CA2 DUP3 PUSH2 0x5D4D JUMP JUMPDEST PUSH1 0x20 DUP3 ADD SWAP1 POP SWAP2 SWAP1 POP JUMP JUMPDEST PUSH1 0x0 PUSH2 0x4CBA PUSH1 0x21 DUP4 PUSH2 0x5559 JUMP JUMPDEST SWAP2 POP PUSH2 0x4CC5 DUP3 PUSH2 0x5D76 JUMP JUMPDEST PUSH1 0x40 DUP3 ADD SWAP1 POP SWAP2 SWAP1 POP JUMP JUMPDEST PUSH1 0x0 PUSH2 0x4CDD PUSH1 0x20 DUP4 PUSH2 0x5559 JUMP JUMPDEST SWAP2 POP PUSH2 0x4CE8 DUP3 PUSH2 0x5DC5 JUMP JUMPDEST PUSH1 0x20 DUP3 ADD SWAP1 POP SWAP2 SWAP1 POP JUMP JUMPDEST PUSH1 0x0 PUSH2 0x4D00 PUSH1 0x1A DUP4 PUSH2 0x5559 JUMP JUMPDEST SWAP2 POP PUSH2 0x4D0B DUP3 PUSH2 0x5DEE JUMP JUMPDEST PUSH1 0x20 DUP3 ADD SWAP1 POP SWAP2 SWAP1 POP JUMP JUMPDEST PUSH1 0x0 PUSH2 0x4D23 PUSH1 0x1B DUP4 PUSH2 0x5559 JUMP JUMPDEST SWAP2 POP PUSH2 0x4D2E DUP3 PUSH2 0x5E17 JUMP JUMPDEST PUSH1 0x20 DUP3 ADD SWAP1 POP SWAP2 SWAP1 POP JUMP JUMPDEST PUSH1 0x0 PUSH2 0x4D46 PUSH1 0x0 DUP4 PUSH2 0x554E JUMP JUMPDEST SWAP2 POP PUSH2 0x4D51 DUP3 PUSH2 0x5E40 JUMP JUMPDEST PUSH1 0x0 DUP3 ADD SWAP1 POP SWAP2 SWAP1 POP JUMP JUMPDEST PUSH1 0x0 PUSH2 0x4D69 PUSH1 0x0 DUP4 PUSH2 0x556A JUMP JUMPDEST SWAP2 POP PUSH2 0x4D74 DUP3 PUSH2 0x5E40 JUMP JUMPDEST PUSH1 0x0 DUP3 ADD SWAP1 POP SWAP2 SWAP1 POP JUMP JUMPDEST PUSH1 0x0 PUSH2 0x4D8C PUSH1 0x1A DUP4 PUSH2 0x5559 JUMP JUMPDEST SWAP2 POP PUSH2 0x4D97 DUP3 PUSH2 0x5E43 JUMP JUMPDEST PUSH1 0x20 DUP3 ADD SWAP1 POP SWAP2 SWAP1 POP JUMP JUMPDEST PUSH1 0x0 PUSH2 0x4DAF PUSH1 0x2B DUP4 PUSH2 0x5559 JUMP JUMPDEST SWAP2 POP PUSH2 0x4DBA DUP3 PUSH2 0x5E6C JUMP JUMPDEST PUSH1 0x40 DUP3 ADD SWAP1 POP SWAP2 SWAP1 POP JUMP JUMPDEST PUSH1 0x0 PUSH2 0x4DD2 PUSH1 0x15 DUP4 PUSH2 0x5559 JUMP JUMPDEST SWAP2 POP PUSH2 0x4DDD DUP3 PUSH2 0x5EBB JUMP JUMPDEST PUSH1 0x20 DUP3 ADD SWAP1 POP SWAP2 SWAP1 POP JUMP JUMPDEST PUSH1 0x0 PUSH2 0x4DF5 PUSH1 0x36 DUP4 PUSH2 0x5559 JUMP JUMPDEST SWAP2 POP PUSH2 0x4E00 DUP3 PUSH2 0x5EE4 JUMP JUMPDEST PUSH1 0x40 DUP3 ADD SWAP1 POP SWAP2 SWAP1 POP JUMP JUMPDEST PUSH1 0x0 PUSH2 0x4E18 PUSH1 0x1F DUP4 PUSH2 0x5559 JUMP JUMPDEST SWAP2 POP PUSH2 0x4E23 DUP3 PUSH2 0x5F33 JUMP JUMPDEST PUSH1 0x20 DUP3 ADD SWAP1 POP SWAP2 SWAP1 POP JUMP JUMPDEST PUSH1 0x0 PUSH2 0x4E3B PUSH1 0x11 DUP4 PUSH2 0x5559 JUMP JUMPDEST SWAP2 POP PUSH2 0x4E46 DUP3 PUSH2 0x5F5C JUMP JUMPDEST PUSH1 0x20 DUP3 ADD SWAP1 POP SWAP2 SWAP1 POP JUMP JUMPDEST PUSH1 0x0 PUSH2 0x4E5E PUSH1 0x22 DUP4 PUSH2 0x5559 JUMP JUMPDEST SWAP2 POP PUSH2 0x4E69 DUP3 PUSH2 0x5F85 JUMP JUMPDEST PUSH1 0x40 DUP3 ADD SWAP1 POP SWAP2 SWAP1 POP JUMP JUMPDEST PUSH2 0x4E7D DUP2 PUSH2 0x5791 JUMP JUMPDEST DUP3 MSTORE POP POP JUMP JUMPDEST PUSH2 0x4E8C DUP2 PUSH2 0x57CD JUMP JUMPDEST DUP3 MSTORE POP POP JUMP JUMPDEST PUSH1 0x0 PUSH2 0x4E9E DUP3 DUP5 PUSH2 0x4947 JUMP JUMPDEST PUSH1 0x6 DUP3 ADD SWAP2 POP DUP2 SWAP1 POP SWAP3 SWAP2 POP POP JUMP JUMPDEST PUSH1 0x0 PUSH2 0x4EB9 DUP3 DUP5 PUSH2 0x495E JUMP JUMPDEST SWAP2 POP DUP2 SWAP1 POP SWAP3 SWAP2 POP POP JUMP JUMPDEST PUSH1 0x0 PUSH2 0x4ED0 DUP3 DUP5 PUSH2 0x4A13 JUMP JUMPDEST SWAP2 POP DUP2 SWAP1 POP SWAP3 SWAP2 POP POP JUMP JUMPDEST PUSH1 0x0 PUSH2 0x4EE7 DUP3 DUP5 PUSH2 0x4A44 JUMP JUMPDEST SWAP2 POP DUP2 SWAP1 POP SWAP3 SWAP2 POP POP JUMP JUMPDEST PUSH1 0x0 PUSH2 0x4EFD DUP3 PUSH2 0x4D39 JUMP JUMPDEST SWAP2 POP DUP2 SWAP1 POP SWAP2 SWAP1 POP JUMP JUMPDEST PUSH1 0x0 PUSH2 0x4F12 DUP3 PUSH2 0x4D5C JUMP JUMPDEST SWAP2 POP DUP2 SWAP1 POP SWAP2 SWAP1 POP JUMP JUMPDEST PUSH1 0x0 PUSH1 0x20 DUP3 ADD SWAP1 POP PUSH2 0x4F31 PUSH1 0x0 DUP4 ADD DUP5 PUSH2 0x48BC JUMP JUMPDEST SWAP3 SWAP2 POP POP JUMP JUMPDEST PUSH1 0x0 PUSH1 0x40 DUP3 ADD SWAP1 POP PUSH2 0x4F4C PUSH1 0x0 DUP4 ADD DUP6 PUSH2 0x48BC JUMP JUMPDEST PUSH2 0x4F59 PUSH1 0x20 DUP4 ADD DUP5 PUSH2 0x4E74 JUMP JUMPDEST SWAP4 SWAP3 POP POP POP JUMP JUMPDEST PUSH1 0x0 PUSH1 0x40 DUP3 ADD SWAP1 POP PUSH2 0x4F75 PUSH1 0x0 DUP4 ADD DUP6 PUSH2 0x48BC JUMP JUMPDEST PUSH2 0x4F82 PUSH1 0x20 DUP4 ADD DUP5 PUSH2 0x4E83 JUMP JUMPDEST SWAP4 SWAP3 POP POP POP JUMP JUMPDEST PUSH1 0x0 PUSH1 0xE0 DUP3 ADD SWAP1 POP PUSH2 0x4F9E PUSH1 0x0 DUP4 ADD DUP11 PUSH2 0x48BC JUMP JUMPDEST PUSH2 0x4FAB PUSH1 0x20 DUP4 ADD DUP10 PUSH2 0x4E83 JUMP JUMPDEST PUSH2 0x4FB8 PUSH1 0x40 DUP4 ADD DUP9 PUSH2 0x4E83 JUMP JUMPDEST PUSH2 0x4FC5 PUSH1 0x60 DUP4 ADD DUP8 PUSH2 0x4E83 JUMP JUMPDEST PUSH2 0x4FD2 PUSH1 0x80 DUP4 ADD DUP7 PUSH2 0x4E83 JUMP JUMPDEST PUSH2 0x4FDF PUSH1 0xA0 DUP4 ADD DUP6 PUSH2 0x4929 JUMP JUMPDEST PUSH2 0x4FEC PUSH1 0xC0 DUP4 ADD DUP5 PUSH2 0x4E83 JUMP JUMPDEST SWAP9 SWAP8 POP POP POP POP POP POP POP POP JUMP JUMPDEST PUSH1 0x0 PUSH1 0x20 DUP3 ADD SWAP1 POP DUP2 DUP2 SUB PUSH1 0x0 DUP4 ADD MSTORE PUSH2 0x5012 DUP2 DUP5 PUSH2 0x48CB JUMP JUMPDEST SWAP1 POP SWAP3 SWAP2 POP POP JUMP JUMPDEST PUSH1 0x0 PUSH1 0x20 DUP3 ADD SWAP1 POP PUSH2 0x502F PUSH1 0x0 DUP4 ADD DUP5 PUSH2 0x4929 JUMP JUMPDEST SWAP3 SWAP2 POP POP JUMP JUMPDEST PUSH1 0x0 PUSH1 0x20 DUP3 ADD SWAP1 POP PUSH2 0x504A PUSH1 0x0 DUP4 ADD DUP5 PUSH2 0x4938 JUMP JUMPDEST SWAP3 SWAP2 POP POP JUMP JUMPDEST PUSH1 0x0 PUSH1 0x40 DUP3 ADD SWAP1 POP PUSH2 0x5065 PUSH1 0x0 DUP4 ADD DUP6 PUSH2 0x4938 JUMP JUMPDEST PUSH2 0x5072 PUSH1 0x20 DUP4 ADD DUP5 PUSH2 0x4E83 JUMP JUMPDEST SWAP4 SWAP3 POP POP POP JUMP JUMPDEST PUSH1 0x0 PUSH1 0x20 DUP3 ADD SWAP1 POP PUSH2 0x508E PUSH1 0x0 DUP4 ADD DUP5 PUSH2 0x498F JUMP JUMPDEST SWAP3 SWAP2 POP POP JUMP JUMPDEST PUSH1 0x0 PUSH1 0x20 DUP3 ADD SWAP1 POP PUSH2 0x50A9 PUSH1 0x0 DUP4 ADD DUP5 PUSH2 0x499E JUMP JUMPDEST SWAP3 SWAP2 POP POP JUMP JUMPDEST PUSH1 0x0 PUSH1 0x20 DUP3 ADD SWAP1 POP PUSH2 0x50C4 PUSH1 0x0 DUP4 ADD DUP5 PUSH2 0x49AD JUMP JUMPDEST SWAP3 SWAP2 POP POP JUMP JUMPDEST PUSH1 0x0 PUSH1 0x20 DUP3 ADD SWAP1 POP PUSH2 0x50DF PUSH1 0x0 DUP4 ADD DUP5 PUSH2 0x49BC JUMP JUMPDEST SWAP3 SWAP2 POP POP JUMP JUMPDEST PUSH1 0x0 PUSH1 0x20 DUP3 ADD SWAP1 POP PUSH2 0x50FA PUSH1 0x0 DUP4 ADD DUP5 PUSH2 0x49CB JUMP JUMPDEST SWAP3 SWAP2 POP POP JUMP JUMPDEST PUSH1 0x0 PUSH1 0x20 DUP3 ADD SWAP1 POP DUP2 DUP2 SUB PUSH1 0x0 DUP4 ADD MSTORE PUSH2 0x511A DUP2 DUP5 PUSH2 0x49DA JUMP JUMPDEST SWAP1 POP SWAP3 SWAP2 POP POP JUMP JUMPDEST PUSH1 0x0 PUSH1 0x20 DUP3 ADD SWAP1 POP DUP2 DUP2 SUB PUSH1 0x0 DUP4 ADD MSTORE PUSH2 0x513B DUP2 PUSH2 0x4AC3 JUMP JUMPDEST SWAP1 POP SWAP2 SWAP1 POP JUMP JUMPDEST PUSH1 0x0 PUSH1 0x20 DUP3 ADD SWAP1 POP DUP2 DUP2 SUB PUSH1 0x0 DUP4 ADD MSTORE PUSH2 0x515B DUP2 PUSH2 0x4AE6 JUMP JUMPDEST SWAP1 POP SWAP2 SWAP1 POP JUMP JUMPDEST PUSH1 0x0 PUSH1 0x20 DUP3 ADD SWAP1 POP DUP2 DUP2 SUB PUSH1 0x0 DUP4 ADD MSTORE PUSH2 0x517B DUP2 PUSH2 0x4B09 JUMP JUMPDEST SWAP1 POP SWAP2 SWAP1 POP JUMP JUMPDEST PUSH1 0x0 PUSH1 0x20 DUP3 ADD SWAP1 POP DUP2 DUP2 SUB PUSH1 0x0 DUP4 ADD MSTORE PUSH2 0x519B DUP2 PUSH2 0x4B2C JUMP JUMPDEST SWAP1 POP SWAP2 SWAP1 POP JUMP JUMPDEST PUSH1 0x0 PUSH1 0x20 DUP3 ADD SWAP1 POP DUP2 DUP2 SUB PUSH1 0x0 DUP4 ADD MSTORE PUSH2 0x51BB DUP2 PUSH2 0x4B4F JUMP JUMPDEST SWAP1 POP SWAP2 SWAP1 POP JUMP JUMPDEST PUSH1 0x0 PUSH1 0x20 DUP3 ADD SWAP1 POP DUP2 DUP2 SUB PUSH1 0x0 DUP4 ADD MSTORE PUSH2 0x51DB DUP2 PUSH2 0x4B72 JUMP JUMPDEST SWAP1 POP SWAP2 SWAP1 POP JUMP JUMPDEST PUSH1 0x0 PUSH1 0x20 DUP3 ADD SWAP1 POP DUP2 DUP2 SUB PUSH1 0x0 DUP4 ADD MSTORE PUSH2 0x51FB DUP2 PUSH2 0x4B95 JUMP JUMPDEST SWAP1 POP SWAP2 SWAP1 POP JUMP JUMPDEST PUSH1 0x0 PUSH1 0x20 DUP3 ADD SWAP1 POP DUP2 DUP2 SUB PUSH1 0x0 DUP4 ADD MSTORE PUSH2 0x521B DUP2 PUSH2 0x4BB8 JUMP JUMPDEST SWAP1 POP SWAP2 SWAP1 POP JUMP JUMPDEST PUSH1 0x0 PUSH1 0x20 DUP3 ADD SWAP1 POP DUP2 DUP2 SUB PUSH1 0x0 DUP4 ADD MSTORE PUSH2 0x523B DUP2 PUSH2 0x4BDB JUMP JUMPDEST SWAP1 POP SWAP2 SWAP1 POP JUMP JUMPDEST PUSH1 0x0 PUSH1 0x20 DUP3 ADD SWAP1 POP DUP2 DUP2 SUB PUSH1 0x0 DUP4 ADD MSTORE PUSH2 0x525B DUP2 PUSH2 0x4BFE JUMP JUMPDEST SWAP1 POP SWAP2 SWAP1 POP JUMP JUMPDEST PUSH1 0x0 PUSH1 0x20 DUP3 ADD SWAP1 POP DUP2 DUP2 SUB PUSH1 0x0 DUP4 ADD MSTORE PUSH2 0x527B DUP2 PUSH2 0x4C21 JUMP JUMPDEST SWAP1 POP SWAP2 SWAP1 POP JUMP JUMPDEST PUSH1 0x0 PUSH1 0x20 DUP3 ADD SWAP1 POP DUP2 DUP2 SUB PUSH1 0x0 DUP4 ADD MSTORE PUSH2 0x529B DUP2 PUSH2 0x4C44 JUMP JUMPDEST SWAP1 POP SWAP2 SWAP1 POP JUMP JUMPDEST PUSH1 0x0 PUSH1 0x20 DUP3 ADD SWAP1 POP DUP2 DUP2 SUB PUSH1 0x0 DUP4 ADD MSTORE PUSH2 0x52BB DUP2 PUSH2 0x4C67 JUMP JUMPDEST SWAP1 POP SWAP2 SWAP1 POP JUMP JUMPDEST PUSH1 0x0 PUSH1 0x20 DUP3 ADD SWAP1 POP DUP2 DUP2 SUB PUSH1 0x0 DUP4 ADD MSTORE PUSH2 0x52DB DUP2 PUSH2 0x4C8A JUMP JUMPDEST SWAP1 POP SWAP2 SWAP1 POP JUMP JUMPDEST PUSH1 0x0 PUSH1 0x20 DUP3 ADD SWAP1 POP DUP2 DUP2 SUB PUSH1 0x0 DUP4 ADD MSTORE PUSH2 0x52FB DUP2 PUSH2 0x4CAD JUMP JUMPDEST SWAP1 POP SWAP2 SWAP1 POP JUMP JUMPDEST PUSH1 0x0 PUSH1 0x20 DUP3 ADD SWAP1 POP DUP2 DUP2 SUB PUSH1 0x0 DUP4 ADD MSTORE PUSH2 0x531B DUP2 PUSH2 0x4CD0 JUMP JUMPDEST SWAP1 POP SWAP2 SWAP1 POP JUMP JUMPDEST PUSH1 0x0 PUSH1 0x20 DUP3 ADD SWAP1 POP DUP2 DUP2 SUB PUSH1 0x0 DUP4 ADD MSTORE PUSH2 0x533B DUP2 PUSH2 0x4CF3 JUMP JUMPDEST SWAP1 POP SWAP2 SWAP1 POP JUMP JUMPDEST PUSH1 0x0 PUSH1 0x20 DUP3 ADD SWAP1 POP DUP2 DUP2 SUB PUSH1 0x0 DUP4 ADD MSTORE PUSH2 0x535B DUP2 PUSH2 0x4D16 JUMP JUMPDEST SWAP1 POP SWAP2 SWAP1 POP JUMP JUMPDEST PUSH1 0x0 PUSH1 0x20 DUP3 ADD SWAP1 POP DUP2 DUP2 SUB PUSH1 0x0 DUP4 ADD MSTORE PUSH2 0x537B DUP2 PUSH2 0x4D7F JUMP JUMPDEST SWAP1 POP SWAP2 SWAP1 POP JUMP JUMPDEST PUSH1 0x0 PUSH1 0x20 DUP3 ADD SWAP1 POP DUP2 DUP2 SUB PUSH1 0x0 DUP4 ADD MSTORE PUSH2 0x539B DUP2 PUSH2 0x4DA2 JUMP JUMPDEST SWAP1 POP SWAP2 SWAP1 POP JUMP JUMPDEST PUSH1 0x0 PUSH1 0x20 DUP3 ADD SWAP1 POP DUP2 DUP2 SUB PUSH1 0x0 DUP4 ADD MSTORE PUSH2 0x53BB DUP2 PUSH2 0x4DC5 JUMP JUMPDEST SWAP1 POP SWAP2 SWAP1 POP JUMP JUMPDEST PUSH1 0x0 PUSH1 0x20 DUP3 ADD SWAP1 POP DUP2 DUP2 SUB PUSH1 0x0 DUP4 ADD MSTORE PUSH2 0x53DB DUP2 PUSH2 0x4DE8 JUMP JUMPDEST SWAP1 POP SWAP2 SWAP1 POP JUMP JUMPDEST PUSH1 0x0 PUSH1 0x20 DUP3 ADD SWAP1 POP DUP2 DUP2 SUB PUSH1 0x0 DUP4 ADD MSTORE PUSH2 0x53FB DUP2 PUSH2 0x4E0B JUMP JUMPDEST SWAP1 POP SWAP2 SWAP1 POP JUMP JUMPDEST PUSH1 0x0 PUSH1 0x20 DUP3 ADD SWAP1 POP DUP2 DUP2 SUB PUSH1 0x0 DUP4 ADD MSTORE PUSH2 0x541B DUP2 PUSH2 0x4E2E JUMP JUMPDEST SWAP1 POP SWAP2 SWAP1 POP JUMP JUMPDEST PUSH1 0x0 PUSH1 0x20 DUP3 ADD SWAP1 POP DUP2 DUP2 SUB PUSH1 0x0 DUP4 ADD MSTORE PUSH2 0x543B DUP2 PUSH2 0x4E51 JUMP JUMPDEST SWAP1 POP SWAP2 SWAP1 POP JUMP JUMPDEST PUSH1 0x0 PUSH1 0x20 DUP3 ADD SWAP1 POP PUSH2 0x5457 PUSH1 0x0 DUP4 ADD DUP5 PUSH2 0x4E83 JUMP JUMPDEST SWAP3 SWAP2 POP POP JUMP JUMPDEST PUSH1 0x0 PUSH1 0x60 DUP3 ADD SWAP1 POP PUSH2 0x5472 PUSH1 0x0 DUP4 ADD DUP7 PUSH2 0x4E83 JUMP JUMPDEST PUSH2 0x547F PUSH1 0x20 DUP4 ADD DUP6 PUSH2 0x4E83 JUMP JUMPDEST PUSH2 0x548C PUSH1 0x40 DUP4 ADD DUP5 PUSH2 0x4E83 JUMP JUMPDEST SWAP5 SWAP4 POP POP POP POP JUMP JUMPDEST PUSH1 0x0 PUSH2 0x549E PUSH2 0x54AF JUMP JUMPDEST SWAP1 POP PUSH2 0x54AA DUP3 DUP3 PUSH2 0x58FA JUMP JUMPDEST SWAP2 SWAP1 POP JUMP JUMPDEST PUSH1 0x0 PUSH1 0x40 MLOAD SWAP1 POP SWAP1 JUMP JUMPDEST PUSH1 0x0 PUSH8 0xFFFFFFFFFFFFFFFF DUP3 GT ISZERO PUSH2 0x54D4 JUMPI PUSH2 0x54D3 PUSH2 0x5A3A JUMP JUMPDEST JUMPDEST PUSH2 0x54DD DUP3 PUSH2 0x5A69 JUMP JUMPDEST SWAP1 POP PUSH1 0x20 DUP2 ADD SWAP1 POP SWAP2 SWAP1 POP JUMP JUMPDEST PUSH1 0x0 DUP2 SWAP1 POP PUSH1 0x20 DUP3 ADD SWAP1 POP SWAP2 SWAP1 POP JUMP JUMPDEST PUSH1 0x0 DUP2 SWAP1 POP DUP2 PUSH1 0x0 MSTORE PUSH1 0x20 PUSH1 0x0 KECCAK256 SWAP1 POP SWAP2 SWAP1 POP JUMP JUMPDEST PUSH1 0x0 DUP2 MLOAD SWAP1 POP SWAP2 SWAP1 POP JUMP JUMPDEST PUSH1 0x0 DUP2 MLOAD SWAP1 POP SWAP2 SWAP1 POP JUMP JUMPDEST PUSH1 0x0 DUP2 MLOAD SWAP1 POP SWAP2 SWAP1 POP JUMP JUMPDEST PUSH1 0x0 PUSH1 0x20 DUP3 ADD SWAP1 POP SWAP2 SWAP1 POP JUMP JUMPDEST PUSH1 0x0 DUP3 DUP3 MSTORE PUSH1 0x20 DUP3 ADD SWAP1 POP SWAP3 SWAP2 POP POP JUMP JUMPDEST PUSH1 0x0 DUP2 SWAP1 POP SWAP3 SWAP2 POP POP JUMP JUMPDEST PUSH1 0x0 DUP3 DUP3 MSTORE PUSH1 0x20 DUP3 ADD SWAP1 POP SWAP3 SWAP2 POP POP JUMP JUMPDEST PUSH1 0x0 DUP2 SWAP1 POP SWAP3 SWAP2 POP POP JUMP JUMPDEST PUSH1 0x0 PUSH2 0x5580 DUP3 PUSH2 0x57CD JUMP JUMPDEST SWAP2 POP PUSH2 0x558B DUP4 PUSH2 0x57CD JUMP JUMPDEST SWAP3 POP DUP3 PUSH32 0xFFFFFFFFFFFFFFFFFFFFFFFFFFFFFFFFFFFFFFFFFFFFFFFFFFFFFFFFFFFFFFFF SUB DUP3 GT ISZERO PUSH2 0x55C0 JUMPI PUSH2 0x55BF PUSH2 0x597E JUMP JUMPDEST JUMPDEST DUP3 DUP3 ADD SWAP1 POP SWAP3 SWAP2 POP POP JUMP JUMPDEST PUSH1 0x0 PUSH2 0x55D6 DUP3 PUSH2 0x57D7 JUMP JUMPDEST SWAP2 POP PUSH2 0x55E1 DUP4 PUSH2 0x57D7 JUMP JUMPDEST SWAP3 POP DUP3 PUSH6 0xFFFFFFFFFFFF SUB DUP3 GT ISZERO PUSH2 0x55FC JUMPI PUSH2 0x55FB PUSH2 0x597E JUMP JUMPDEST JUMPDEST DUP3 DUP3 ADD SWAP1 POP SWAP3 SWAP2 POP POP JUMP JUMPDEST PUSH1 0x0 PUSH2 0x5612 DUP3 PUSH2 0x57CD JUMP JUMPDEST SWAP2 POP PUSH2 0x561D DUP4 PUSH2 0x57CD JUMP JUMPDEST SWAP3 POP DUP3 PUSH2 0x562D JUMPI PUSH2 0x562C PUSH2 0x59AD JUMP JUMPDEST JUMPDEST DUP3 DUP3 DIV SWAP1 POP SWAP3 SWAP2 POP POP JUMP JUMPDEST PUSH1 0x0 PUSH2 0x5643 DUP3 PUSH2 0x57CD JUMP JUMPDEST SWAP2 POP PUSH2 0x564E DUP4 PUSH2 0x57CD JUMP JUMPDEST SWAP3 POP DUP2 PUSH32 0xFFFFFFFFFFFFFFFFFFFFFFFFFFFFFFFFFFFFFFFFFFFFFFFFFFFFFFFFFFFFFFFF DIV DUP4 GT DUP3 ISZERO ISZERO AND ISZERO PUSH2 0x5687 JUMPI PUSH2 0x5686 PUSH2 0x597E JUMP JUMPDEST JUMPDEST DUP3 DUP3 MUL SWAP1 POP SWAP3 SWAP2 POP POP JUMP JUMPDEST PUSH1 0x0 PUSH2 0x569D DUP3 PUSH2 0x57D7 JUMP JUMPDEST SWAP2 POP PUSH2 0x56A8 DUP4 PUSH2 0x57D7 JUMP JUMPDEST SWAP3 POP DUP2 PUSH6 0xFFFFFFFFFFFF DIV DUP4 GT DUP3 ISZERO ISZERO AND ISZERO PUSH2 0x56C7 JUMPI PUSH2 0x56C6 PUSH2 0x597E JUMP JUMPDEST JUMPDEST DUP3 DUP3 MUL SWAP1 POP SWAP3 SWAP2 POP POP JUMP JUMPDEST PUSH1 0x0 PUSH2 0x56DD DUP3 PUSH2 0x57CD JUMP JUMPDEST SWAP2 POP PUSH2 0x56E8 DUP4 PUSH2 0x57CD JUMP JUMPDEST SWAP3 POP DUP3 DUP3 LT ISZERO PUSH2 0x56FB JUMPI PUSH2 0x56FA PUSH2 0x597E JUMP JUMPDEST JUMPDEST DUP3 DUP3 SUB SWAP1 POP SWAP3 SWAP2 POP POP JUMP JUMPDEST PUSH1 0x0 PUSH2 0x5711 DUP3 PUSH2 0x57AD JUMP JUMPDEST SWAP1 POP SWAP2 SWAP1 POP JUMP JUMPDEST PUSH1 0x0 PUSH2 0x5723 DUP3 PUSH2 0x57AD JUMP JUMPDEST SWAP1 POP SWAP2 SWAP1 POP JUMP JUMPDEST PUSH1 0x0 DUP2 ISZERO ISZERO SWAP1 POP SWAP2 SWAP1 POP JUMP JUMPDEST PUSH1 0x0 DUP2 SWAP1 POP SWAP2 SWAP1 POP JUMP JUMPDEST PUSH1 0x0 PUSH32 0xFFFFFFFFFFFF0000000000000000000000000000000000000000000000000000 DUP3 AND SWAP1 POP SWAP2 SWAP1 POP JUMP JUMPDEST PUSH1 0x0 PUSH2 0x5777 DUP3 PUSH2 0x5718 JUMP JUMPDEST SWAP1 POP SWAP2 SWAP1 POP JUMP JUMPDEST PUSH1 0x0 DUP2 SWAP1 POP PUSH2 0x578C DUP3 PUSH2 0x5FD4 JUMP JUMPDEST SWAP2 SWAP1 POP JUMP JUMPDEST PUSH1 0x0 PUSH16 0xFFFFFFFFFFFFFFFFFFFFFFFFFFFFFFFF DUP3 AND SWAP1 POP SWAP2 SWAP1 POP JUMP JUMPDEST PUSH1 0x0 PUSH20 0xFFFFFFFFFFFFFFFFFFFFFFFFFFFFFFFFFFFFFFFF DUP3 AND SWAP1 POP SWAP2 SWAP1 POP JUMP JUMPDEST PUSH1 0x0 DUP2 SWAP1 POP SWAP2 SWAP1 POP JUMP JUMPDEST PUSH1 0x0 PUSH6 0xFFFFFFFFFFFF DUP3 AND SWAP1 POP SWAP2 SWAP1 POP JUMP JUMPDEST PUSH1 0x0 PUSH1 0xFF DUP3 AND SWAP1 POP SWAP2 SWAP1 POP JUMP JUMPDEST PUSH1 0x0 PUSH2 0x5801 DUP3 PUSH2 0x5808 JUMP JUMPDEST SWAP1 POP SWAP2 SWAP1 POP JUMP JUMPDEST PUSH1 0x0 PUSH2 0x5813 DUP3 PUSH2 0x57AD JUMP JUMPDEST SWAP1 POP SWAP2 SWAP1 POP JUMP JUMPDEST PUSH1 0x0 PUSH2 0x5825 DUP3 PUSH2 0x582C JUMP JUMPDEST SWAP1 POP SWAP2 SWAP1 POP JUMP JUMPDEST PUSH1 0x0 PUSH2 0x5837 DUP3 PUSH2 0x57AD JUMP JUMPDEST SWAP1 POP SWAP2 SWAP1 POP JUMP JUMPDEST PUSH1 0x0 PUSH2 0x5849 DUP3 PUSH2 0x5850 JUMP JUMPDEST SWAP1 POP SWAP2 SWAP1 POP JUMP JUMPDEST PUSH1 0x0 PUSH2 0x585B DUP3 PUSH2 0x57AD JUMP JUMPDEST SWAP1 POP SWAP2 SWAP1 POP JUMP JUMPDEST PUSH1 0x0 PUSH2 0x586D DUP3 PUSH2 0x577E JUMP JUMPDEST SWAP1 POP SWAP2 SWAP1 POP JUMP JUMPDEST PUSH1 0x0 PUSH2 0x587F DUP3 PUSH2 0x57E9 JUMP JUMPDEST SWAP1 POP SWAP2 SWAP1 POP JUMP JUMPDEST DUP3 DUP2 DUP4 CALLDATACOPY PUSH1 0x0 DUP4 DUP4 ADD MSTORE POP POP POP JUMP JUMPDEST PUSH1 0x0 JUMPDEST DUP4 DUP2 LT ISZERO PUSH2 0x58B3 JUMPI DUP1 DUP3 ADD MLOAD DUP2 DUP5 ADD MSTORE PUSH1 0x20 DUP2 ADD SWAP1 POP PUSH2 0x5898 JUMP JUMPDEST DUP4 DUP2 GT ISZERO PUSH2 0x58C2 JUMPI PUSH1 0x0 DUP5 DUP5 ADD MSTORE JUMPDEST POP POP POP POP JUMP JUMPDEST PUSH1 0x0 PUSH1 0x2 DUP3 DIV SWAP1 POP PUSH1 0x1 DUP3 AND DUP1 PUSH2 0x58E0 JUMPI PUSH1 0x7F DUP3 AND SWAP2 POP JUMPDEST PUSH1 0x20 DUP3 LT DUP2 EQ ISZERO PUSH2 0x58F4 JUMPI PUSH2 0x58F3 PUSH2 0x5A0B JUMP JUMPDEST JUMPDEST POP SWAP2 SWAP1 POP JUMP JUMPDEST PUSH2 0x5903 DUP3 PUSH2 0x5A69 JUMP JUMPDEST DUP2 ADD DUP2 DUP2 LT PUSH8 0xFFFFFFFFFFFFFFFF DUP3 GT OR ISZERO PUSH2 0x5922 JUMPI PUSH2 0x5921 PUSH2 0x5A3A JUMP JUMPDEST JUMPDEST DUP1 PUSH1 0x40 MSTORE POP POP POP JUMP JUMPDEST PUSH1 0x0 PUSH2 0x5936 DUP3 PUSH2 0x57CD JUMP JUMPDEST SWAP2 POP PUSH32 0xFFFFFFFFFFFFFFFFFFFFFFFFFFFFFFFFFFFFFFFFFFFFFFFFFFFFFFFFFFFFFFFF DUP3 EQ ISZERO PUSH2 0x5969 JUMPI PUSH2 0x5968 PUSH2 0x597E JUMP JUMPDEST JUMPDEST PUSH1 0x1 DUP3 ADD SWAP1 POP SWAP2 SWAP1 POP JUMP JUMPDEST PUSH1 0x0 DUP2 SWAP1 POP SWAP2 SWAP1 POP JUMP JUMPDEST PUSH32 0x4E487B7100000000000000000000000000000000000000000000000000000000 PUSH1 0x0 MSTORE PUSH1 0x11 PUSH1 0x4 MSTORE PUSH1 0x24 PUSH1 0x0 REVERT JUMPDEST PUSH32 0x4E487B7100000000000000000000000000000000000000000000000000000000 PUSH1 0x0 MSTORE PUSH1 0x12 PUSH1 0x4 MSTORE PUSH1 0x24 PUSH1 0x0 REVERT JUMPDEST PUSH32 0x4E487B7100000000000000000000000000000000000000000000000000000000 PUSH1 0x0 MSTORE PUSH1 0x21 PUSH1 0x4 MSTORE PUSH1 0x24 PUSH1 0x0 REVERT JUMPDEST PUSH32 0x4E487B7100000000000000000000000000000000000000000000000000000000 PUSH1 0x0 MSTORE PUSH1 0x22 PUSH1 0x4 MSTORE PUSH1 0x24 PUSH1 0x0 REVERT JUMPDEST PUSH32 0x4E487B7100000000000000000000000000000000000000000000000000000000 PUSH1 0x0 MSTORE PUSH1 0x41 PUSH1 0x4 MSTORE PUSH1 0x24 PUSH1 0x0 REVERT JUMPDEST PUSH1 0x0 PUSH1 0x1F NOT PUSH1 0x1F DUP4 ADD AND SWAP1 POP SWAP2 SWAP1 POP JUMP JUMPDEST PUSH32 0x43726F77646C6F616E207374696C6C206F70656E000000000000000000000000 PUSH1 0x0 DUP3 ADD MSTORE POP JUMP JUMPDEST PUSH32 0x5573657220686173206E6F20616E792072657761726473000000000000000000 PUSH1 0x0 DUP3 ADD MSTORE POP JUMP JUMPDEST PUSH32 0x4C6F636B696E6720706572696F6420686173206E6F7420796574207061737365 PUSH1 0x0 DUP3 ADD MSTORE PUSH32 0x6400000000000000000000000000000000000000000000000000000000000000 PUSH1 0x20 DUP3 ADD MSTORE POP JUMP JUMPDEST PUSH32 0x526566657272616C20636F646573206861766520616C7265616479206265656E PUSH1 0x0 DUP3 ADD MSTORE PUSH32 0x2075736564206279207573657200000000000000000000000000000000000000 PUSH1 0x20 DUP3 ADD MSTORE POP JUMP JUMPDEST PUSH32 0x4E6F20616E7920756E7374616B65730000000000000000000000000000000000 PUSH1 0x0 DUP3 ADD MSTORE POP JUMP JUMPDEST PUSH32 0x4F776E61626C653A206E6577206F776E657220697320746865207A65726F2061 PUSH1 0x0 DUP3 ADD MSTORE PUSH32 0x6464726573730000000000000000000000000000000000000000000000000000 PUSH1 0x20 DUP3 ADD MSTORE POP JUMP JUMPDEST PUSH32 0x4572726F7220647572696E67206D696E74206141535452000000000000000000 PUSH1 0x0 DUP3 ADD MSTORE POP JUMP JUMPDEST PUSH32 0x416464726573733A20756E61626C6520746F2073656E642076616C75652C2072 PUSH1 0x0 DUP3 ADD MSTORE PUSH32 0x6563697069656E74206D61792068617665207265766572746564000000000000 PUSH1 0x20 DUP3 ADD MSTORE POP JUMP JUMPDEST PUSH32 0x4E656564206D6F72652041535452000000000000000000000000000000000000 PUSH1 0x0 DUP3 ADD MSTORE POP JUMP JUMPDEST PUSH32 0x416464726573733A20696E73756666696369656E742062616C616E6365000000 PUSH1 0x0 DUP3 ADD MSTORE POP JUMP JUMPDEST PUSH32 0x43726F77646C6F616E20636C6F73656400000000000000000000000000000000 PUSH1 0x0 DUP3 ADD MSTORE POP JUMP JUMPDEST PUSH32 0x4E6F7420656E6F75676820657261732070617373656421000000000000000000 PUSH1 0x0 DUP3 ADD MSTORE POP JUMP JUMPDEST PUSH32 0x496E697469616C697A61626C653A20636F6E747261637420697320616C726561 PUSH1 0x0 DUP3 ADD MSTORE PUSH32 0x647920696E697469616C697A6564000000000000000000000000000000000000 PUSH1 0x20 DUP3 ADD MSTORE POP JUMP JUMPDEST PUSH32 0x4E6F7420656E6F75676820746F6B656E7320746F206275726E00000000000000 PUSH1 0x0 DUP3 ADD MSTORE POP JUMP JUMPDEST PUSH32 0x4E6F7420656E6F7567682066756E647320696E20756E626F6E64656420706F6F PUSH1 0x0 DUP3 ADD MSTORE PUSH32 0x6C00000000000000000000000000000000000000000000000000000000000000 PUSH1 0x20 DUP3 ADD MSTORE POP JUMP JUMPDEST PUSH32 0x4F776E61626C653A2063616C6C6572206973206E6F7420746865206F776E6572 PUSH1 0x0 DUP3 ADD MSTORE POP JUMP JUMPDEST PUSH32 0x5573657220697320616C72656164792061207265666572726572000000000000 PUSH1 0x0 DUP3 ADD MSTORE POP JUMP JUMPDEST PUSH32 0x416C6C207265776172647320616C726561647920636C61696D65640000000000 PUSH1 0x0 DUP3 ADD MSTORE POP JUMP JUMPDEST POP JUMP JUMPDEST PUSH32 0x5769746864726177616C20616C726561647920636C61696D6564000000000000 PUSH1 0x0 DUP3 ADD MSTORE POP JUMP JUMPDEST PUSH32 0x496E697469616C697A61626C653A20636F6E7472616374206973206E6F742069 PUSH1 0x0 DUP3 ADD MSTORE PUSH32 0x6E697469616C697A696E67000000000000000000000000000000000000000000 PUSH1 0x20 DUP3 ADD MSTORE POP JUMP JUMPDEST PUSH32 0x5573657220686173206E6F20616E792061415354520000000000000000000000 PUSH1 0x0 DUP3 ADD MSTORE POP JUMP JUMPDEST PUSH32 0x54686572652077617320616C726561647920676C6F62616C556E7374616B6520 PUSH1 0x0 DUP3 ADD MSTORE PUSH32 0x696E207468697320706572696F64206F662074696D6500000000000000000000 PUSH1 0x20 DUP3 ADD MSTORE POP JUMP JUMPDEST PUSH32 0x5265656E7472616E637947756172643A207265656E7472616E742063616C6C00 PUSH1 0x0 DUP3 ADD MSTORE POP JUMP JUMPDEST PUSH32 0x546F6F206C61726765206465706F736974000000000000000000000000000000 PUSH1 0x0 DUP3 ADD MSTORE POP JUMP JUMPDEST PUSH32 0x56657374696E6720706572696F6420686173206E6F7420737461727465642079 PUSH1 0x0 DUP3 ADD MSTORE PUSH32 0x6574000000000000000000000000000000000000000000000000000000000000 PUSH1 0x20 DUP3 ADD MSTORE POP JUMP JUMPDEST PUSH1 0x2 DUP2 LT PUSH2 0x5FE5 JUMPI PUSH2 0x5FE4 PUSH2 0x59DC JUMP JUMPDEST JUMPDEST POP JUMP JUMPDEST PUSH2 0x5FF1 DUP2 PUSH2 0x5706 JUMP JUMPDEST DUP2 EQ PUSH2 0x5FFC JUMPI PUSH1 0x0 DUP1 REVERT JUMPDEST POP JUMP JUMPDEST PUSH2 0x6008 DUP2 PUSH2 0x572A JUMP JUMPDEST DUP2 EQ PUSH2 0x6013 JUMPI PUSH1 0x0 DUP1 REVERT JUMPDEST POP JUMP JUMPDEST PUSH2 0x601F DUP2 PUSH2 0x5736 JUMP JUMPDEST DUP2 EQ PUSH2 0x602A JUMPI PUSH1 0x0 DUP1 REVERT JUMPDEST POP JUMP JUMPDEST PUSH2 0x6036 DUP2 PUSH2 0x576C JUMP JUMPDEST DUP2 EQ PUSH2 0x6041 JUMPI PUSH1 0x0 DUP1 REVERT JUMPDEST POP JUMP JUMPDEST PUSH2 0x604D DUP2 PUSH2 0x57CD JUMP JUMPDEST DUP2 EQ PUSH2 0x6058 JUMPI PUSH1 0x0 DUP1 REVERT JUMPDEST POP JUMP INVALID LOG2 PUSH5 0x6970667358 0x22 SLT KECCAK256 0xD8 0x26 PUSH28 0xCC766B278009384673C5E526ADAE99917A7752C94D97A7BA1B963BEE 0xDA PUSH5 0x736F6C6343 STOP ADDMOD DIV STOP CALLER "
		},
		"gasEstimates": {
			"creation": {
				"codeDepositCost": "4944200",
				"executionCost": "65874",
				"totalCost": "5010074"
			},
			"external": {
				"ALGM_REWARDS_AMOUNT()": "1264",
				"MAX_AMOUNT()": "1218",
				"MIN_AMOUNT()": "1262",
				"aastr()": "1390",
				"addrToUsedRef(address)": "infinite",
				"algm()": "1370",
				"becomeReferrer()": "infinite",
				"burnToken(address,uint256)": "infinite",
				"claimDappStakingRewards()": "infinite",
				"claimRewards()": "infinite",
				"claimingTxLimit()": "1199",
				"closeCrowdloan()": "infinite",
				"closed()": "1289",
				"crowdLoanCloseTime()": "1218",
				"currentEra()": "infinite",
				"dappsStaking()": "1367",
				"getStakers()": "infinite",
				"getTotalAvailableRewards()": "infinite",
				"getUserAvailableRewards(address)": "infinite",
				"globalUnstakeAdmin()": "infinite",
				"initialize(address,address,address,address,address)": "infinite",
				"isRefUsedByAddress(address)": "1635",
				"isStaker(address)": "1634",
				"lastStakingRewardsClaimedEra()": "1220",
				"lastUnstaked()": "1263",
				"liquidStakingAddr()": "1281",
				"mintToken(address,uint256)": "infinite",
				"owner()": "1312",
				"ownerToRef(address)": "infinite",
				"refToOwner(string)": "infinite",
				"renounceOwnership()": "24509",
				"resetData()": "infinite",
				"sendALGM(address,uint256)": "infinite",
				"setALGMRewardsAmount(uint256)": "21453",
				"setClaimingTxLimit(uint256)": "22991",
				"setDappsStakingAddress(address)": "22420",
				"setDappsStakingRewardsDest()": "infinite",
				"setLockingPeriod(uint256)": "21503",
				"setMaxMinAmounts(uint256,uint256)": "infinite",
				"setVestingParams(uint256,uint256,uint256,bool,uint256)": "infinite",
				"slicesPassed()": "infinite",
				"stake()": "infinite",
				"stake(string)": "infinite",
				"stakers(uint256)": "2488",
				"stakes(address)": "1628",
				"sumToUnstake()": "1263",
				"switchClosed()": "23004",
				"totalStaked()": "1197",
				"totalStakingRewards()": "1263",
				"transferOwnership(address)": "24813",
				"unbondedPool()": "1262",
				"unstake()": "infinite",
				"userClaimedSlices(address)": "1626",
				"userTotalRewards(address)": "infinite",
				"vesting()": "1370",
				"vestingParams()": "infinite",
				"withdraw(uint256)": "infinite",
				"withdrawBlock()": "1220",
				"withdrawStakingRewardsAdmin()": "infinite",
				"withdrawals(address,uint256)": "infinite"
			},
			"internal": {
				"_getVestingId()": "infinite",
				"_globalUnstake()": "infinite",
				"_globalWithdraw(uint256)": "infinite",
				"_userShare(address)": "infinite"
			}
		},
		"methodIdentifiers": {
			"ALGM_REWARDS_AMOUNT()": "2941bc29",
			"MAX_AMOUNT()": "d40dc870",
			"MIN_AMOUNT()": "ddbcb5fa",
			"aastr()": "77734a66",
			"addrToUsedRef(address)": "34294447",
			"algm()": "2e415702",
			"becomeReferrer()": "80bb74e8",
			"burnToken(address,uint256)": "d1df306c",
			"claimDappStakingRewards()": "ea87e3ff",
			"claimRewards()": "372500ab",
			"claimingTxLimit()": "00179fbd",
			"closeCrowdloan()": "6adb930c",
			"closed()": "597e1fb5",
			"crowdLoanCloseTime()": "bfb9ba0c",
			"currentEra()": "973628f6",
			"dappsStaking()": "f8293403",
			"getStakers()": "43352d61",
			"getTotalAvailableRewards()": "eef09740",
			"getUserAvailableRewards(address)": "9db29340",
			"globalUnstakeAdmin()": "68b0216e",
			"initialize(address,address,address,address,address)": "1459457a",
			"isRefUsedByAddress(address)": "620cc15c",
			"isStaker(address)": "6f1e8533",
			"lastStakingRewardsClaimedEra()": "8037ecd3",
			"lastUnstaked()": "5495ec81",
			"liquidStakingAddr()": "a6d953b7",
			"mintToken(address,uint256)": "79c65068",
			"owner()": "8da5cb5b",
			"ownerToRef(address)": "e3e969ab",
			"refToOwner(string)": "3d8ab5b1",
			"renounceOwnership()": "715018a6",
			"resetData()": "478c4e0e",
			"sendALGM(address,uint256)": "e5c1f211",
			"setALGMRewardsAmount(uint256)": "22456682",
			"setClaimingTxLimit(uint256)": "42debbab",
			"setDappsStakingAddress(address)": "69d3bcc2",
			"setDappsStakingRewardsDest()": "d77355c4",
			"setLockingPeriod(uint256)": "26b321d1",
			"setMaxMinAmounts(uint256,uint256)": "c803e58a",
			"setVestingParams(uint256,uint256,uint256,bool,uint256)": "8f6db5fa",
			"slicesPassed()": "d31dbab6",
			"stake()": "3a4b66f1",
			"stake(string)": "46f45b8d",
			"stakers(uint256)": "fd5e6dd1",
			"stakes(address)": "16934fc4",
			"sumToUnstake()": "a25b7e49",
			"switchClosed()": "d1a32c39",
			"totalStaked()": "817b1cd2",
			"totalStakingRewards()": "93ef357a",
			"transferOwnership(address)": "f2fde38b",
			"unbondedPool()": "c71367b5",
			"unstake()": "2def6620",
			"userClaimedSlices(address)": "9fdb8c93",
			"userTotalRewards(address)": "f6a3f3cf",
			"vesting()": "44c63eec",
			"vestingParams()": "c4b02908",
			"withdraw(uint256)": "2e1a7d4d",
			"withdrawBlock()": "24025b19",
			"withdrawStakingRewardsAdmin()": "53d64ee0",
			"withdrawals(address,uint256)": "422b1077"
		}
	},
	"abi": [
		{
			"anonymous": false,
			"inputs": [
				{
					"indexed": true,
					"internalType": "address",
					"name": "user",
					"type": "address"
				},
				{
					"indexed": true,
					"internalType": "string",
					"name": "refCode",
					"type": "string"
				}
			],
			"name": "BecomeReferrer",
			"type": "event"
		},
		{
			"anonymous": false,
			"inputs": [
				{
					"indexed": true,
					"internalType": "uint256",
					"name": "era",
					"type": "uint256"
				},
				{
					"indexed": false,
					"internalType": "uint256",
					"name": "amount",
					"type": "uint256"
				}
			],
			"name": "ClaimDappsStakingRewards",
			"type": "event"
		},
		{
			"anonymous": false,
			"inputs": [
				{
					"indexed": false,
					"internalType": "address",
					"name": "user",
					"type": "address"
				},
				{
					"indexed": false,
					"internalType": "uint256",
					"name": "rewardsToClaim",
					"type": "uint256"
				}
			],
			"name": "ClaimRewards",
			"type": "event"
		},
		{
			"anonymous": false,
			"inputs": [
				{
					"indexed": true,
					"internalType": "uint256",
					"name": "era",
					"type": "uint256"
				},
				{
					"indexed": true,
					"internalType": "bytes",
					"name": "reason",
					"type": "bytes"
				}
			],
			"name": "ClaimStakerError",
			"type": "event"
		},
		{
			"anonymous": false,
			"inputs": [
				{
					"indexed": true,
					"internalType": "uint256",
					"name": "era",
					"type": "uint256"
				},
				{
					"indexed": false,
					"internalType": "uint256",
					"name": "lastClaimed",
					"type": "uint256"
				}
			],
			"name": "ClaimStakerSuccess",
			"type": "event"
		},
		{
			"anonymous": false,
			"inputs": [
				{
					"indexed": false,
					"internalType": "uint256",
					"name": "closeTime",
					"type": "uint256"
				}
			],
			"name": "CloseCrowdloanAndStartVesting",
			"type": "event"
		},
		{
			"anonymous": false,
			"inputs": [
				{
					"indexed": true,
					"internalType": "address",
					"name": "who",
					"type": "address"
				},
				{
					"indexed": true,
					"internalType": "uint256",
					"name": "era",
					"type": "uint256"
				},
				{
					"indexed": true,
					"internalType": "uint256",
					"name": "sumToUnstake",
					"type": "uint256"
				}
			],
			"name": "GlobalUnstake",
			"type": "event"
		},
		{
			"anonymous": false,
			"inputs": [
				{
					"indexed": true,
					"internalType": "address",
					"name": "who",
					"type": "address"
				},
				{
					"indexed": true,
					"internalType": "uint256",
					"name": "era",
					"type": "uint256"
				},
				{
					"indexed": false,
					"internalType": "uint256",
					"name": "amount",
					"type": "uint256"
				}
			],
			"name": "GlobalWithdraw",
			"type": "event"
		},
		{
			"anonymous": false,
			"inputs": [
				{
					"indexed": false,
					"internalType": "uint8",
					"name": "version",
					"type": "uint8"
				}
			],
			"name": "Initialized",
			"type": "event"
		},
		{
			"anonymous": false,
			"inputs": [
				{
					"indexed": true,
					"internalType": "address",
					"name": "previousOwner",
					"type": "address"
				},
				{
					"indexed": true,
					"internalType": "address",
					"name": "newOwner",
					"type": "address"
				}
			],
			"name": "OwnershipTransferred",
			"type": "event"
		},
		{
			"anonymous": false,
			"inputs": [
				{
					"indexed": true,
					"internalType": "address",
					"name": "sender",
					"type": "address"
				},
				{
					"indexed": true,
					"internalType": "uint256",
					"name": "val",
					"type": "uint256"
				}
			],
			"name": "SetClaimingTxLimit",
			"type": "event"
		},
		{
			"anonymous": false,
			"inputs": [
				{
					"indexed": true,
					"internalType": "address",
					"name": "caller",
					"type": "address"
				}
			],
			"name": "SetPaddsStakingRewardsDest",
			"type": "event"
		},
		{
			"anonymous": false,
			"inputs": [
				{
					"indexed": true,
					"internalType": "address",
					"name": "user",
					"type": "address"
				},
				{
					"indexed": false,
					"internalType": "uint256",
					"name": "amount",
					"type": "uint256"
				},
				{
					"indexed": true,
					"internalType": "string",
					"name": "refCode",
					"type": "string"
				}
			],
			"name": "Stake",
			"type": "event"
		},
		{
			"anonymous": false,
			"inputs": [
				{
					"indexed": true,
					"internalType": "uint256",
					"name": "sum2unstake",
					"type": "uint256"
				},
				{
					"indexed": true,
					"internalType": "uint256",
					"name": "era",
					"type": "uint256"
				},
				{
					"indexed": true,
					"internalType": "bytes",
					"name": "reason",
					"type": "bytes"
				}
			],
			"name": "UnbondAndUnstakeError",
			"type": "event"
		},
		{
			"anonymous": false,
			"inputs": [
				{
					"indexed": true,
					"internalType": "uint256",
					"name": "era",
					"type": "uint256"
				},
				{
					"indexed": false,
					"internalType": "uint256",
					"name": "sum2unstake",
					"type": "uint256"
				}
			],
			"name": "UnbondAndUnstakeSuccess",
			"type": "event"
		},
		{
			"anonymous": false,
			"inputs": [
				{
					"indexed": true,
					"internalType": "address",
					"name": "user",
					"type": "address"
				},
				{
					"indexed": true,
					"internalType": "uint256",
					"name": "amount",
					"type": "uint256"
				},
				{
					"indexed": true,
					"internalType": "uint256",
					"name": "era",
					"type": "uint256"
				}
			],
			"name": "Unstake",
			"type": "event"
		},
		{
			"anonymous": false,
			"inputs": [
				{
					"indexed": true,
					"internalType": "address",
					"name": "user",
					"type": "address"
				},
				{
					"indexed": false,
					"internalType": "uint256",
					"name": "amount",
					"type": "uint256"
				}
			],
			"name": "WithdrawStakingRewards",
			"type": "event"
		},
		{
			"anonymous": false,
			"inputs": [
				{
					"indexed": true,
					"internalType": "uint256",
					"name": "_era",
					"type": "uint256"
				},
				{
					"indexed": true,
					"internalType": "bytes",
					"name": "reason",
					"type": "bytes"
				}
			],
			"name": "WithdrawUnbondedError",
			"type": "event"
		},
		{
			"anonymous": false,
			"inputs": [
				{
					"indexed": true,
					"internalType": "uint256",
					"name": "_era",
					"type": "uint256"
				}
			],
			"name": "WithdrawUnbondedSuccess",
			"type": "event"
		},
		{
			"anonymous": false,
			"inputs": [
				{
					"indexed": true,
					"internalType": "address",
					"name": "user",
					"type": "address"
				},
				{
					"indexed": false,
					"internalType": "uint256",
					"name": "val",
					"type": "uint256"
				}
			],
			"name": "Withdrawn",
			"type": "event"
		},
		{
			"inputs": [],
			"name": "ALGM_REWARDS_AMOUNT",
			"outputs": [
				{
					"internalType": "uint256",
					"name": "",
					"type": "uint256"
				}
			],
			"stateMutability": "view",
			"type": "function"
		},
		{
			"inputs": [],
			"name": "MAX_AMOUNT",
			"outputs": [
				{
					"internalType": "uint256",
					"name": "",
					"type": "uint256"
				}
			],
			"stateMutability": "view",
			"type": "function"
		},
		{
			"inputs": [],
			"name": "MIN_AMOUNT",
			"outputs": [
				{
					"internalType": "uint256",
					"name": "",
					"type": "uint256"
				}
			],
			"stateMutability": "view",
			"type": "function"
		},
		{
			"inputs": [],
			"name": "aastr",
			"outputs": [
				{
					"internalType": "contract IERC20Plus",
					"name": "",
					"type": "address"
				}
			],
			"stateMutability": "view",
			"type": "function"
		},
		{
			"inputs": [
				{
					"internalType": "address",
					"name": "",
					"type": "address"
				}
			],
			"name": "addrToUsedRef",
			"outputs": [
				{
					"internalType": "string",
					"name": "",
					"type": "string"
				}
			],
			"stateMutability": "view",
			"type": "function"
		},
		{
			"inputs": [],
			"name": "algm",
			"outputs": [
				{
					"internalType": "contract IERC20Plus",
					"name": "",
					"type": "address"
				}
			],
			"stateMutability": "view",
			"type": "function"
		},
		{
			"inputs": [],
			"name": "becomeReferrer",
			"outputs": [
				{
					"internalType": "string",
					"name": "ref",
					"type": "string"
				}
			],
			"stateMutability": "nonpayable",
			"type": "function"
		},
		{
			"inputs": [
				{
					"internalType": "address",
					"name": "to",
					"type": "address"
				},
				{
					"internalType": "uint256",
					"name": "amount",
					"type": "uint256"
				}
			],
			"name": "burnToken",
			"outputs": [],
			"stateMutability": "nonpayable",
			"type": "function"
		},
		{
			"inputs": [],
			"name": "claimDappStakingRewards",
			"outputs": [],
			"stateMutability": "nonpayable",
			"type": "function"
		},
		{
			"inputs": [],
			"name": "claimRewards",
			"outputs": [],
			"stateMutability": "nonpayable",
			"type": "function"
		},
		{
			"inputs": [],
			"name": "claimingTxLimit",
			"outputs": [
				{
					"internalType": "uint256",
					"name": "",
					"type": "uint256"
				}
			],
			"stateMutability": "view",
			"type": "function"
		},
		{
			"inputs": [],
			"name": "closeCrowdloan",
			"outputs": [],
			"stateMutability": "nonpayable",
			"type": "function"
		},
		{
			"inputs": [],
			"name": "closed",
			"outputs": [
				{
					"internalType": "bool",
					"name": "",
					"type": "bool"
				}
			],
			"stateMutability": "view",
			"type": "function"
		},
		{
			"inputs": [],
			"name": "crowdLoanCloseTime",
			"outputs": [
				{
					"internalType": "uint256",
					"name": "",
					"type": "uint256"
				}
			],
			"stateMutability": "view",
			"type": "function"
		},
		{
			"inputs": [],
			"name": "currentEra",
			"outputs": [
				{
					"internalType": "uint256",
					"name": "",
					"type": "uint256"
				}
			],
			"stateMutability": "view",
			"type": "function"
		},
		{
			"inputs": [],
			"name": "dappsStaking",
			"outputs": [
				{
					"internalType": "contract DappsStaking",
					"name": "",
					"type": "address"
				}
			],
			"stateMutability": "view",
			"type": "function"
		},
		{
			"inputs": [],
			"name": "getStakers",
			"outputs": [
				{
					"internalType": "address[]",
					"name": "",
					"type": "address[]"
				}
			],
			"stateMutability": "view",
			"type": "function"
		},
		{
			"inputs": [],
			"name": "getTotalAvailableRewards",
			"outputs": [
				{
					"internalType": "uint256",
					"name": "",
					"type": "uint256"
				}
			],
			"stateMutability": "view",
			"type": "function"
		},
		{
			"inputs": [
				{
					"internalType": "address",
					"name": "_user",
					"type": "address"
				}
			],
			"name": "getUserAvailableRewards",
			"outputs": [
				{
					"internalType": "uint256",
					"name": "",
					"type": "uint256"
				}
			],
			"stateMutability": "view",
			"type": "function"
		},
		{
			"inputs": [],
			"name": "globalUnstakeAdmin",
			"outputs": [],
			"stateMutability": "nonpayable",
			"type": "function"
		},
		{
			"inputs": [
				{
					"internalType": "contract ALGMVesting",
					"name": "_vesting",
					"type": "address"
				},
				{
					"internalType": "address",
					"name": "_liquidStakingAddr",
					"type": "address"
				},
				{
					"internalType": "address",
					"name": "_aastr",
					"type": "address"
				},
				{
					"internalType": "address",
					"name": "_algm",
					"type": "address"
				},
				{
					"internalType": "address",
					"name": "_dappsStaking",
					"type": "address"
				}
			],
			"name": "initialize",
			"outputs": [],
			"stateMutability": "nonpayable",
			"type": "function"
		},
		{
			"inputs": [
				{
					"internalType": "address",
					"name": "",
					"type": "address"
				}
			],
			"name": "isRefUsedByAddress",
			"outputs": [
				{
					"internalType": "bool",
					"name": "",
					"type": "bool"
				}
			],
			"stateMutability": "view",
			"type": "function"
		},
		{
			"inputs": [
				{
					"internalType": "address",
					"name": "",
					"type": "address"
				}
			],
			"name": "isStaker",
			"outputs": [
				{
					"internalType": "bool",
					"name": "",
					"type": "bool"
				}
			],
			"stateMutability": "view",
			"type": "function"
		},
		{
			"inputs": [],
			"name": "lastStakingRewardsClaimedEra",
			"outputs": [
				{
					"internalType": "uint256",
					"name": "",
					"type": "uint256"
				}
			],
			"stateMutability": "view",
			"type": "function"
		},
		{
			"inputs": [],
			"name": "lastUnstaked",
			"outputs": [
				{
					"internalType": "uint256",
					"name": "",
					"type": "uint256"
				}
			],
			"stateMutability": "view",
			"type": "function"
		},
		{
			"inputs": [],
			"name": "liquidStakingAddr",
			"outputs": [
				{
					"internalType": "address",
					"name": "",
					"type": "address"
				}
			],
			"stateMutability": "view",
			"type": "function"
		},
		{
			"inputs": [
				{
					"internalType": "address",
					"name": "to",
					"type": "address"
				},
				{
					"internalType": "uint256",
					"name": "amount",
					"type": "uint256"
				}
			],
			"name": "mintToken",
			"outputs": [],
			"stateMutability": "nonpayable",
			"type": "function"
		},
		{
			"inputs": [],
			"name": "owner",
			"outputs": [
				{
					"internalType": "address",
					"name": "",
					"type": "address"
				}
			],
			"stateMutability": "view",
			"type": "function"
		},
		{
			"inputs": [
				{
					"internalType": "address",
					"name": "",
					"type": "address"
				}
			],
			"name": "ownerToRef",
			"outputs": [
				{
					"internalType": "string",
					"name": "",
					"type": "string"
				}
			],
			"stateMutability": "view",
			"type": "function"
		},
		{
			"inputs": [
				{
					"internalType": "string",
					"name": "",
					"type": "string"
				}
			],
			"name": "refToOwner",
			"outputs": [
				{
					"internalType": "address",
					"name": "",
					"type": "address"
				}
			],
			"stateMutability": "view",
			"type": "function"
		},
		{
			"inputs": [],
			"name": "renounceOwnership",
			"outputs": [],
			"stateMutability": "nonpayable",
			"type": "function"
		},
		{
			"inputs": [],
			"name": "resetData",
			"outputs": [],
			"stateMutability": "nonpayable",
			"type": "function"
		},
		{
			"inputs": [
				{
					"internalType": "address",
					"name": "to",
					"type": "address"
				},
				{
					"internalType": "uint256",
					"name": "amount",
					"type": "uint256"
				}
			],
			"name": "sendALGM",
			"outputs": [],
			"stateMutability": "nonpayable",
			"type": "function"
		},
		{
			"inputs": [
				{
					"internalType": "uint256",
					"name": "_amount",
					"type": "uint256"
				}
			],
			"name": "setALGMRewardsAmount",
			"outputs": [],
			"stateMutability": "nonpayable",
			"type": "function"
		},
		{
			"inputs": [
				{
					"internalType": "uint256",
					"name": "_val",
					"type": "uint256"
				}
			],
			"name": "setClaimingTxLimit",
			"outputs": [],
			"stateMutability": "nonpayable",
			"type": "function"
		},
		{
			"inputs": [
				{
					"internalType": "address",
					"name": "addr",
					"type": "address"
				}
			],
			"name": "setDappsStakingAddress",
			"outputs": [],
			"stateMutability": "nonpayable",
			"type": "function"
		},
		{
			"inputs": [],
			"name": "setDappsStakingRewardsDest",
			"outputs": [],
			"stateMutability": "nonpayable",
			"type": "function"
		},
		{
			"inputs": [
				{
					"internalType": "uint256",
					"name": "_lockingPeriod",
					"type": "uint256"
				}
			],
			"name": "setLockingPeriod",
			"outputs": [],
			"stateMutability": "nonpayable",
			"type": "function"
		},
		{
			"inputs": [
				{
					"internalType": "uint256",
					"name": "_maxAmount",
					"type": "uint256"
				},
				{
					"internalType": "uint256",
					"name": "_minAmount",
					"type": "uint256"
				}
			],
			"name": "setMaxMinAmounts",
			"outputs": [],
			"stateMutability": "nonpayable",
			"type": "function"
		},
		{
			"inputs": [
				{
					"internalType": "uint256",
					"name": "_cliff",
					"type": "uint256"
				},
				{
					"internalType": "uint256",
					"name": "_duration",
					"type": "uint256"
				},
				{
					"internalType": "uint256",
					"name": "_slicePeriod",
					"type": "uint256"
				},
				{
					"internalType": "bool",
					"name": "_revocable",
					"type": "bool"
				},
				{
					"internalType": "uint256",
					"name": "_amount",
					"type": "uint256"
				}
			],
			"name": "setVestingParams",
			"outputs": [],
			"stateMutability": "nonpayable",
			"type": "function"
		},
		{
			"inputs": [],
			"name": "slicesPassed",
			"outputs": [
				{
					"internalType": "uint256",
					"name": "",
					"type": "uint256"
				}
			],
			"stateMutability": "view",
			"type": "function"
		},
		{
			"inputs": [],
			"name": "stake",
			"outputs": [],
			"stateMutability": "payable",
			"type": "function"
		},
		{
			"inputs": [
				{
					"internalType": "string",
					"name": "_ref",
					"type": "string"
				}
			],
			"name": "stake",
			"outputs": [],
			"stateMutability": "payable",
			"type": "function"
		},
		{
			"inputs": [
				{
					"internalType": "uint256",
					"name": "",
					"type": "uint256"
				}
			],
			"name": "stakers",
			"outputs": [
				{
					"internalType": "address",
					"name": "",
					"type": "address"
				}
			],
			"stateMutability": "view",
			"type": "function"
		},
		{
			"inputs": [
				{
					"internalType": "address",
					"name": "",
					"type": "address"
				}
			],
			"name": "stakes",
			"outputs": [
				{
					"internalType": "uint256",
					"name": "",
					"type": "uint256"
				}
			],
			"stateMutability": "view",
			"type": "function"
		},
		{
			"inputs": [],
			"name": "sumToUnstake",
			"outputs": [
				{
					"internalType": "uint256",
					"name": "",
					"type": "uint256"
				}
			],
			"stateMutability": "view",
			"type": "function"
		},
		{
			"inputs": [],
			"name": "switchClosed",
			"outputs": [],
			"stateMutability": "nonpayable",
			"type": "function"
		},
		{
			"inputs": [],
			"name": "totalStaked",
			"outputs": [
				{
					"internalType": "uint256",
					"name": "",
					"type": "uint256"
				}
			],
			"stateMutability": "view",
			"type": "function"
		},
		{
			"inputs": [],
			"name": "totalStakingRewards",
			"outputs": [
				{
					"internalType": "uint256",
					"name": "",
					"type": "uint256"
				}
			],
			"stateMutability": "view",
			"type": "function"
		},
		{
			"inputs": [
				{
					"internalType": "address",
					"name": "newOwner",
					"type": "address"
				}
			],
			"name": "transferOwnership",
			"outputs": [],
			"stateMutability": "nonpayable",
			"type": "function"
		},
		{
			"inputs": [],
			"name": "unbondedPool",
			"outputs": [
				{
					"internalType": "uint256",
					"name": "",
					"type": "uint256"
				}
			],
			"stateMutability": "view",
			"type": "function"
		},
		{
			"inputs": [],
			"name": "unstake",
			"outputs": [],
			"stateMutability": "nonpayable",
			"type": "function"
		},
		{
			"inputs": [
				{
					"internalType": "address",
					"name": "",
					"type": "address"
				}
			],
			"name": "userClaimedSlices",
			"outputs": [
				{
					"internalType": "uint256",
					"name": "",
					"type": "uint256"
				}
			],
			"stateMutability": "view",
			"type": "function"
		},
		{
			"inputs": [
				{
					"internalType": "address",
					"name": "_user",
					"type": "address"
				}
			],
			"name": "userTotalRewards",
			"outputs": [
				{
					"internalType": "uint256",
					"name": "",
					"type": "uint256"
				}
			],
			"stateMutability": "view",
			"type": "function"
		},
		{
			"inputs": [],
			"name": "vesting",
			"outputs": [
				{
					"internalType": "contract ALGMVesting",
					"name": "",
					"type": "address"
				}
			],
			"stateMutability": "view",
			"type": "function"
		},
		{
			"inputs": [],
			"name": "vestingParams",
			"outputs": [
				{
					"internalType": "address",
					"name": "beneficiary",
					"type": "address"
				},
				{
					"internalType": "uint256",
					"name": "cliff",
					"type": "uint256"
				},
				{
					"internalType": "uint256",
					"name": "startTime",
					"type": "uint256"
				},
				{
					"internalType": "uint256",
					"name": "duration",
					"type": "uint256"
				},
				{
					"internalType": "uint256",
					"name": "slicePeriod",
					"type": "uint256"
				},
				{
					"internalType": "bool",
					"name": "revocable",
					"type": "bool"
				},
				{
					"internalType": "uint256",
					"name": "amount",
					"type": "uint256"
				}
			],
			"stateMutability": "view",
			"type": "function"
		},
		{
			"inputs": [
				{
					"internalType": "uint256",
					"name": "_id",
					"type": "uint256"
				}
			],
			"name": "withdraw",
			"outputs": [],
			"stateMutability": "nonpayable",
			"type": "function"
		},
		{
			"inputs": [],
			"name": "withdrawBlock",
			"outputs": [
				{
					"internalType": "uint256",
					"name": "",
					"type": "uint256"
				}
			],
			"stateMutability": "view",
			"type": "function"
		},
		{
			"inputs": [],
			"name": "withdrawStakingRewardsAdmin",
			"outputs": [],
			"stateMutability": "nonpayable",
			"type": "function"
		},
		{
			"inputs": [
				{
					"internalType": "address",
					"name": "",
					"type": "address"
				},
				{
					"internalType": "uint256",
					"name": "",
					"type": "uint256"
				}
			],
			"name": "withdrawals",
			"outputs": [
				{
					"internalType": "uint256",
					"name": "val",
					"type": "uint256"
				},
				{
					"internalType": "uint256",
					"name": "eraReq",
					"type": "uint256"
				},
				{
					"internalType": "uint256",
					"name": "lag",
					"type": "uint256"
				}
			],
			"stateMutability": "view",
			"type": "function"
		},
		{
			"stateMutability": "payable",
			"type": "receive"
		}
	]
}