{
	"data": {
		"bytecode": {
			"linkReferences": {},
			"object": "608060405268056bc75e2d63100000609b556a52b7d2dcc80cd2e4000000609c556a0211654585005212800000609d5534801561003b57600080fd5b50615d7f806200004c6000396000f3fe6080604052600436106103845760003560e01c80636f1e8533116101d1578063bfb9ba0c11610102578063d40dc870116100a0578063eef097401161006f578063eef0974014610c64578063f2fde38b14610c8f578063f829340314610cb8578063fd5e6dd114610ce35761038b565b8063d40dc87014610bce578063ddbcb5fa14610bf9578063e5c1f21114610c24578063ea87e3ff14610c4d5761038b565b8063c803e58a116100dc578063c803e58a14610b3a578063d1a32c3914610b63578063d1df306c14610b7a578063d31dbab614610ba35761038b565b8063bfb9ba0c14610ab3578063c4b0290814610ade578063c71367b514610b0f5761038b565b80638f6db5fa1161016f5780639db29340116101495780639db29340146109e35780639fdb8c9314610a20578063a25b7e4914610a5d578063a6d953b714610a885761038b565b80638f6db5fa1461096457806393ef357a1461098d578063973628f6146109b85761038b565b806379c65068116101ab57806379c65068146108ba5780638037ecd3146108e3578063817b1cd21461090e5780638da5cb5b146109395761038b565b80636f1e85331461083b578063715018a61461087857806377734a661461088f5761038b565b8063422b1077116102b65780635495ec811161025457806369d3bcc21161022357806369d3bcc2146107815780636adb930c146107aa5780636bf10cf2146107c15780636ed83c5b146107fe5761038b565b80635495ec81146106d7578063597e1fb514610702578063620cc15c1461072d57806368b0216e1461076a5761038b565b806344c63eec1161029057806344c63eec1461066257806346f45b8d1461068d578063478c4e0e146106a957806353d64ee0146106c05761038b565b8063422b1077146105cf57806342debbab1461060e57806343352d61146106375761038b565b80632def66201161032357806334294447116102fd5780633429444714610534578063372500ab146105715780633a4b66f1146105885780633d8ab5b1146105925761038b565b80632def6620146104c95780632e1a7d4d146104e05780632e415702146105095761038b565b8063224566821161035f578063224566821461042157806324025b191461044a57806326b321d1146104755780632941bc291461049e5761038b565b8062179fbd146103905780631459457a146103bb57806316934fc4146103e45761038b565b3661038b57005b600080fd5b34801561039c57600080fd5b506103a5610d20565b6040516103b29190615196565b60405180910390f35b3480156103c757600080fd5b506103e260048036038101906103dd91906144a9565b610d26565b005b3480156103f057600080fd5b5061040b600480360381019061040691906143f2565b61117b565b6040516104189190615196565b60405180910390f35b34801561042d57600080fd5b5061044860048036038101906104439190614561565b611193565b005b34801561045657600080fd5b5061045f6111a5565b60405161046c9190615196565b60405180910390f35b34801561048157600080fd5b5061049c60048036038101906104979190614561565b6111ab565b005b3480156104aa57600080fd5b506104b36111c0565b6040516104c09190615196565b60405180910390f35b3480156104d557600080fd5b506104de6111c6565b005b3480156104ec57600080fd5b5061050760048036038101906105029190614561565b6116ba565b005b34801561051557600080fd5b5061051e611916565b60405161052b9190614dfe565b60405180910390f35b34801561054057600080fd5b5061055b600480360381019061055691906143f2565b61193c565b6040516105689190614e34565b60405180910390f35b34801561057d57600080fd5b506105866119dc565b005b610590611c20565b005b34801561059e57600080fd5b506105b960048036038101906105b49190614520565b611c8a565b6040516105c69190614c6b565b60405180910390f35b3480156105db57600080fd5b506105f660048036038101906105f1919061441b565b611cd3565b604051610605939291906151b1565b60405180910390f35b34801561061a57600080fd5b5061063560048036038101906106309190614561565b611d1a565b005b34801561064357600080fd5b5061064c611d70565b6040516106599190614d47565b60405180910390f35b34801561066e57600080fd5b50610677611dfe565b6040516106849190614dc8565b60405180910390f35b6106a760048036038101906106a29190614520565b611e24565b005b3480156106b557600080fd5b506106be6124c6565b005b3480156106cc57600080fd5b506106d56127b4565b005b3480156106e357600080fd5b506106ec612845565b6040516106f99190615196565b60405180910390f35b34801561070e57600080fd5b5061071761284b565b6040516107249190614d69565b60405180910390f35b34801561073957600080fd5b50610754600480360381019061074f91906143f2565b61285e565b6040516107619190614d69565b60405180910390f35b34801561077657600080fd5b5061077f61287e565b005b34801561078d57600080fd5b506107a860048036038101906107a391906143f2565b61295e565b005b3480156107b657600080fd5b506107bf6129aa565b005b3480156107cd57600080fd5b506107e860048036038101906107e39190614520565b612b1c565b6040516107f59190614d69565b60405180910390f35b34801561080a57600080fd5b50610825600480360381019061082091906143f2565b612b52565b6040516108329190614e34565b60405180910390f35b34801561084757600080fd5b50610862600480360381019061085d91906143f2565b612c64565b60405161086f9190614d69565b60405180910390f35b34801561088457600080fd5b5061088d612c84565b005b34801561089b57600080fd5b506108a4612c98565b6040516108b19190614dfe565b60405180910390f35b3480156108c657600080fd5b506108e160048036038101906108dc919061441b565b612cbe565b005b3480156108ef57600080fd5b506108f8612d7a565b6040516109059190615196565b60405180910390f35b34801561091a57600080fd5b50610923612d80565b6040516109309190615196565b60405180910390f35b34801561094557600080fd5b5061094e612d86565b60405161095b9190614c6b565b60405180910390f35b34801561097057600080fd5b5061098b600480360381019061098691906145ef565b612db0565b005b34801561099957600080fd5b506109a2612e04565b6040516109af9190615196565b60405180910390f35b3480156109c457600080fd5b506109cd612e0a565b6040516109da9190615196565b60405180910390f35b3480156109ef57600080fd5b50610a0a6004803603810190610a0591906143f2565b612eb1565b604051610a179190615196565b60405180910390f35b348015610a2c57600080fd5b50610a476004803603810190610a4291906143f2565b612fbc565b604051610a549190615196565b60405180910390f35b348015610a6957600080fd5b50610a72612fd4565b604051610a7f9190615196565b60405180910390f35b348015610a9457600080fd5b50610a9d612fda565b604051610aaa9190614c6b565b60405180910390f35b348015610abf57600080fd5b50610ac8613000565b604051610ad59190615196565b60405180910390f35b348015610aea57600080fd5b50610af3613006565b604051610b069796959493929190614cd8565b60405180910390f35b348015610b1b57600080fd5b50610b24613063565b604051610b319190615196565b60405180910390f35b348015610b4657600080fd5b50610b616004803603810190610b5c91906145b3565b613069565b005b348015610b6f57600080fd5b50610b78613083565b005b348015610b8657600080fd5b50610ba16004803603810190610b9c919061441b565b6130b7565b005b348015610baf57600080fd5b50610bb8613173565b604051610bc59190615196565b60405180910390f35b348015610bda57600080fd5b50610be361321f565b604051610bf09190615196565b60405180910390f35b348015610c0557600080fd5b50610c0e613225565b604051610c1b9190615196565b60405180910390f35b348015610c3057600080fd5b50610c4b6004803603810190610c46919061441b565b61322b565b005b348015610c5957600080fd5b50610c626132e7565b005b348015610c7057600080fd5b50610c79613582565b604051610c869190615196565b60405180910390f35b348015610c9b57600080fd5b50610cb66004803603810190610cb191906143f2565b61363b565b005b348015610cc457600080fd5b50610ccd6136bf565b604051610cda9190614de3565b60405180910390f35b348015610cef57600080fd5b50610d0a6004803603810190610d059190614561565b6136e5565b604051610d179190614c6b565b60405180910390f35b60a35481565b60008060019054906101000a900460ff16159050808015610d575750600160008054906101000a900460ff1660ff16105b80610d845750610d6630613724565b158015610d835750600160008054906101000a900460ff1660ff16145b5b610dc3576040517f08c379a0000000000000000000000000000000000000000000000000000000008152600401610dba90614ff6565b60405180910390fd5b60016000806101000a81548160ff021916908360ff1602179055508015610e00576001600060016101000a81548160ff0219169083151502179055505b610e08613747565b8360a560006101000a81548173ffffffffffffffffffffffffffffffffffffffff021916908373ffffffffffffffffffffffffffffffffffffffff1602179055508260a660006101000a81548173ffffffffffffffffffffffffffffffffffffffff021916908373ffffffffffffffffffffffffffffffffffffffff1602179055508160a760006101000a81548173ffffffffffffffffffffffffffffffffffffffff021916908373ffffffffffffffffffffffffffffffffffffffff16021790555085609760006101000a81548173ffffffffffffffffffffffffffffffffffffffff021916908373ffffffffffffffffffffffffffffffffffffffff16021790555084609860006101000a81548173ffffffffffffffffffffffffffffffffffffffff021916908373ffffffffffffffffffffffffffffffffffffffff1602179055506040518060e001604052803073ffffffffffffffffffffffffffffffffffffffff16815260200162093a80815260200142815260200162ed4e00815260200162093a808152602001600115158152602001609d5481525060b160008201518160000160006101000a81548173ffffffffffffffffffffffffffffffffffffffff021916908373ffffffffffffffffffffffffffffffffffffffff1602179055506020820151816001015560408201518160020155606082015181600301556080820151816004015560a08201518160050160006101000a81548160ff02191690831515021790555060c0820151816006015590505060a760009054906101000a900473ffffffffffffffffffffffffffffffffffffffff1673ffffffffffffffffffffffffffffffffffffffff1663db62b2016040518163ffffffff1660e01b815260040160206040518083038186803b1580156110aa57600080fd5b505afa1580156110be573d6000803e3d6000fd5b505050506040513d601f19601f820116820180604052508101906110e2919061458a565b609e8190555060016110f2612e0a565b6110fc9190615411565b609f8190555061110a612e0a565b60a28190555061111a6005611d1a565b80156111735760008060016101000a81548160ff0219169083151502179055507f7f26b83ff96e1f2b6a682f133852f6798a09c465da95921460cefb3847402498600160405161116a9190614e19565b60405180910390a15b505050505050565b60aa6020528060005260406000206000915090505481565b61119b6137a0565b80609d8190555050565b609e5481565b6111b36137a0565b8060b16003018190555050565b609d5481565b600060a560009054906101000a900473ffffffffffffffffffffffffffffffffffffffff1673ffffffffffffffffffffffffffffffffffffffff166370a08231336040518263ffffffff1660e01b81526004016112239190614c6b565b60206040518083038186803b15801561123b57600080fd5b505afa15801561124f573d6000803e3d6000fd5b505050506040513d601f19601f82011682018060405250810190611273919061458a565b9050600081116112b8576040517f08c379a00000000000000000000000000000000000000000000000000000000081526004016112af906150f6565b60405180910390fd5b6000609a5414156112fe576040517f08c379a00000000000000000000000000000000000000000000000000000000081526004016112f590614e56565b60405180910390fd5b4260b160030154609a5461131291906152b4565b1115611353576040517f08c379a000000000000000000000000000000000000000000000000000000000815260040161134a90614e96565b60405180910390fd5b600061135d612e0a565b90508160a0600082825461137191906152b4565b92505081905550816099600082825461138a9190615411565b925050819055508160a560009054906101000a900473ffffffffffffffffffffffffffffffffffffffff1673ffffffffffffffffffffffffffffffffffffffff166370a08231336040518263ffffffff1660e01b81526004016113ed9190614c6b565b60206040518083038186803b15801561140557600080fd5b505afa158015611419573d6000803e3d6000fd5b505050506040513d601f19601f8201168201806040525081019061143d919061458a565b101561147e576040517f08c379a000000000000000000000000000000000000000000000000000000000815260040161147590615016565b60405180910390fd5b60a560009054906101000a900473ffffffffffffffffffffffffffffffffffffffff1673ffffffffffffffffffffffffffffffffffffffff16639dc29fac33846040518363ffffffff1660e01b81526004016114db929190614caf565b602060405180830381600087803b1580156114f557600080fd5b505af1158015611509573d6000803e3d6000fd5b505050506040513d601f19601f8201168201806040525081019061152d9190614457565b506000600a8261153d9190615377565b6004600a609e5461154e9190615377565b6115589190615346565b600a609f546115679190615377565b61157191906152b4565b11156115c557600a826115849190615377565b6004600a609e546115959190615377565b61159f9190615346565b600a609f546115ae9190615377565b6115b891906152b4565b6115c29190615411565b90505b60ac60003373ffffffffffffffffffffffffffffffffffffffff1673ffffffffffffffffffffffffffffffffffffffff1681526020019081526020016000206040518060600160405280858152602001848152602001838152509080600181540180825580915050600190039060005260206000209060030201600090919091909150600082015181600001556020820151816001015560408201518160020155505061167061381e565b81833373ffffffffffffffffffffffffffffffffffffffff167ff960dbf9e5d0682f7a298ed974e33a28b4464914b7a2bfac12ae419a9afeb28060405160405180910390a4505050565b6116ca6116c5612e0a565b613a24565b600060ac60003373ffffffffffffffffffffffffffffffffffffffff1673ffffffffffffffffffffffffffffffffffffffff1681526020019081526020016000208281548110611743577f4e487b7100000000000000000000000000000000000000000000000000000000600052603260045260246000fd5b906000526020600020906003020190506000816000015490506000826001015414156117a4576040517f08c379a000000000000000000000000000000000000000000000000000000000815260040161179b906150b6565b60405180910390fd5b8160020154600a609e546117b89190615377565b6117c291906152b4565b600a83600101546117d39190615377565b600a6117dd612e0a565b6117e79190615377565b6117f19190615411565b1015611832576040517f08c379a000000000000000000000000000000000000000000000000000000000815260040161182990614fd6565b60405180910390fd5b8060a1541015611877576040517f08c379a000000000000000000000000000000000000000000000000000000000815260040161186e90615036565b60405180910390fd5b8060a160008282546118899190615411565b92505081905550600082600101819055506118c3813373ffffffffffffffffffffffffffffffffffffffff16613bd890919063ffffffff16565b3373ffffffffffffffffffffffffffffffffffffffff167f7084f5476618d8e60b11ef0d7d3f06914655adb8793e28ff7f018d4c76d505d5826040516119099190615196565b60405180910390a2505050565b60a660009054906101000a900473ffffffffffffffffffffffffffffffffffffffff1681565b60b0602052806000526040600020600091509050805461195b906155d0565b80601f0160208091040260200160405190810160405280929190818152602001828054611987906155d0565b80156119d45780601f106119a9576101008083540402835291602001916119d4565b820191906000526020600020905b8154815290600101906020018083116119b757829003601f168201915b505050505081565b6119e4613ccc565b60006119ef33612eb1565b905060008111611a34576040517f08c379a0000000000000000000000000000000000000000000000000000000008152600401611a2b90614e76565b60405180910390fd5b6000611a3e613582565b90506000811115611ae057609760009054906101000a900473ffffffffffffffffffffffffffffffffffffffff1673ffffffffffffffffffffffffffffffffffffffff166363f44968611a8f613d1c565b836040518363ffffffff1660e01b8152600401611aad929190614d9f565b600060405180830381600087803b158015611ac757600080fd5b505af1158015611adb573d6000803e3d6000fd5b505050505b611ae8613173565b60ab60003373ffffffffffffffffffffffffffffffffffffffff1673ffffffffffffffffffffffffffffffffffffffff1681526020019081526020016000208190555060a660009054906101000a900473ffffffffffffffffffffffffffffffffffffffff1673ffffffffffffffffffffffffffffffffffffffff1663a9059cbb33846040518363ffffffff1660e01b8152600401611b88929190614caf565b602060405180830381600087803b158015611ba257600080fd5b505af1158015611bb6573d6000803e3d6000fd5b505050506040513d601f19601f82011682018060405250810190611bda9190614457565b507f1f89f96333d3133000ee447473151fa9606543368f02271c9d95ae14f13bcc673382604051611c0c929190614caf565b60405180910390a15050611c1e613e8b565b565b609760149054906101000a900460ff1615611c70576040517f08c379a0000000000000000000000000000000000000000000000000000000008152600401611c6790614fb6565b60405180910390fd5b611c8860405180602001604052806000815250611e24565b565b60af818051602081018201805184825260208301602085012081835280955050505050506000915054906101000a900473ffffffffffffffffffffffffffffffffffffffff1681565b60ac6020528160005260406000208181548110611cef57600080fd5b9060005260206000209060030201600091509150508060000154908060010154908060020154905083565b611d226137a0565b8060a381905550803373ffffffffffffffffffffffffffffffffffffffff167f2858686d6b174bd2ec20e66464df68f4228dafa488e5a0b587356271ce26c50160405160405180910390a350565b606060a8805480602002602001604051908101604052809291908181526020018280548015611df457602002820191906000526020600020905b8160009054906101000a900473ffffffffffffffffffffffffffffffffffffffff1673ffffffffffffffffffffffffffffffffffffffff1681526020019060010190808311611daa575b5050505050905090565b609760009054906101000a900473ffffffffffffffffffffffffffffffffffffffff1681565b609760149054906101000a900460ff1615611e74576040517f08c379a0000000000000000000000000000000000000000000000000000000008152600401611e6b90614fb6565b60405180910390fd5b600080343391509150609b54821015611ec2576040517f08c379a0000000000000000000000000000000000000000000000000000000008152600401611eb990614f76565b60405180910390fd5b609c5482609954611ed391906152b4565b1115611f14576040517f08c379a0000000000000000000000000000000000000000000000000000000008152600401611f0b90615156565b60405180910390fd5b60ad60003373ffffffffffffffffffffffffffffffffffffffff1673ffffffffffffffffffffffffffffffffffffffff16815260200190815260200160002060009054906101000a900460ff1615611fa1576040517f08c379a0000000000000000000000000000000000000000000000000000000008152600401611f9890614eb6565b60405180910390fd5b604051602001611fb090614c56565b6040516020818303038152906040528051906020012083604051602001611fd79190614c2a565b60405160208183030381529060405280519060200120146121415760ae836040516120029190614c2a565b908152602001604051809103902060009054906101000a900460ff1661205d576040517f08c379a000000000000000000000000000000000000000000000000000000000815260040161205490614f16565b60405180910390fd5b600060ae8460405161206f9190614c2a565b908152602001604051809103902060006101000a81548160ff021916908315150217905550600160ad60003373ffffffffffffffffffffffffffffffffffffffff1673ffffffffffffffffffffffffffffffffffffffff16815260200190815260200160002060006101000a81548160ff0219169083151502179055508260b060003373ffffffffffffffffffffffffffffffffffffffff1673ffffffffffffffffffffffffffffffffffffffff168152602001908152602001600020908051906020019061213f929190614233565b505b8160aa60008373ffffffffffffffffffffffffffffffffffffffff1673ffffffffffffffffffffffffffffffffffffffff168152602001908152602001600020600082825461219091906152b4565b9250508190555081609960008282546121a991906152b4565b9250508190555060a760009054906101000a900473ffffffffffffffffffffffffffffffffffffffff1673ffffffffffffffffffffffffffffffffffffffff166352b73e4134609860009054906101000a900473ffffffffffffffffffffffffffffffffffffffff16856040518463ffffffff1660e01b8152600401612230929190614c86565b6000604051808303818588803b15801561224957600080fd5b505af115801561225d573d6000803e3d6000fd5b505050505060a960008273ffffffffffffffffffffffffffffffffffffffff1673ffffffffffffffffffffffffffffffffffffffff16815260200190815260200160002060009054906101000a900460ff1661236f57600160a960008373ffffffffffffffffffffffffffffffffffffffff1673ffffffffffffffffffffffffffffffffffffffff16815260200190815260200160002060006101000a81548160ff02191690831515021790555060a8819080600181540180825580915050600190039060005260206000200160009091909190916101000a81548173ffffffffffffffffffffffffffffffffffffffff021916908373ffffffffffffffffffffffffffffffffffffffff1602179055505b60a560009054906101000a900473ffffffffffffffffffffffffffffffffffffffff1673ffffffffffffffffffffffffffffffffffffffff166340c10f1982846040518363ffffffff1660e01b81526004016123cc929190614caf565b602060405180830381600087803b1580156123e657600080fd5b505af11580156123fa573d6000803e3d6000fd5b505050506040513d601f19601f8201168201806040525081019061241e9190614457565b61245d576040517f08c379a000000000000000000000000000000000000000000000000000000000815260040161245490614f36565b60405180910390fd5b8260405161246b9190614c2a565b60405180910390203373ffffffffffffffffffffffffffffffffffffffff167f72d0050d8f1a0f19ace5b1f50e8b5333308c60902442b7444a65cfffbad884e7346040516124b99190615196565b60405180910390a3505050565b6124ce6137a0565b60005b60a88054905081101561265657600060a9600060a8848154811061251e577f4e487b7100000000000000000000000000000000000000000000000000000000600052603260045260246000fd5b9060005260206000200160009054906101000a900473ffffffffffffffffffffffffffffffffffffffff1673ffffffffffffffffffffffffffffffffffffffff1673ffffffffffffffffffffffffffffffffffffffff16815260200190815260200160002060006101000a81548160ff021916908315150217905550600060aa600060a884815481106125da577f4e487b7100000000000000000000000000000000000000000000000000000000600052603260045260246000fd5b9060005260206000200160009054906101000a900473ffffffffffffffffffffffffffffffffffffffff1673ffffffffffffffffffffffffffffffffffffffff1673ffffffffffffffffffffffffffffffffffffffff16815260200190815260200160002081905550808061264e90615633565b9150506124d1565b5060a8600061266591906142b9565b60006099819055506000609760146101000a81548160ff0219169083151502179055506000609a81905550612698612e0a565b60a28190555060016126a8612e0a565b6126b29190615411565b609f81905550600060a08190555060b1600080820160006101000a81549073ffffffffffffffffffffffffffffffffffffffff021916905560018201600090556002820160009055600382016000905560048201600090556005820160006101000a81549060ff021916905560068201600090555050600060ab60003373ffffffffffffffffffffffffffffffffffffffff1673ffffffffffffffffffffffffffffffffffffffff16815260200190815260200160002081905550600060aa60003373ffffffffffffffffffffffffffffffffffffffff1673ffffffffffffffffffffffffffffffffffffffff16815260200190815260200160002081905550565b6127bc6137a0565b600060a4549050600060a4819055506127f4813373ffffffffffffffffffffffffffffffffffffffff16613bd890919063ffffffff16565b3373ffffffffffffffffffffffffffffffffffffffff167fc5a3601bc424984ab8d0e98bd79347fa6ef2a340c30dde7340d02f923e6820ed8260405161283a9190615196565b60405180910390a250565b609f5481565b609760149054906101000a900460ff1681565b60ad6020528060005260406000206000915054906101000a900460ff1681565b6128866137a0565b600060a054116128cb576040517f08c379a00000000000000000000000000000000000000000000000000000000081526004016128c290614ed6565b60405180910390fd5b6004600a609e546128dc9190615377565b6128e69190615346565b600a609f546128f59190615377565b6128ff91906152b4565b600a612909612e0a565b6129139190615377565b1015612954576040517f08c379a000000000000000000000000000000000000000000000000000000000815260040161294b90615116565b60405180910390fd5b61295c61381e565b565b6129666137a0565b8060a760006101000a81548173ffffffffffffffffffffffffffffffffffffffff021916908373ffffffffffffffffffffffffffffffffffffffff16021790555050565b609760149054906101000a900460ff16156129fa576040517f08c379a00000000000000000000000000000000000000000000000000000000081526004016129f190614fb6565b60405180910390fd5b612a026137a0565b6001609760146101000a81548160ff02191690831515021790555042609a81905550609760009054906101000a900473ffffffffffffffffffffffffffffffffffffffff1673ffffffffffffffffffffffffffffffffffffffff1663c43653743060b1600101544260b16003015460b16004015460b160050160009054906101000a900460ff1660b1600601546040518863ffffffff1660e01b8152600401612ab19796959493929190614cd8565b600060405180830381600087803b158015612acb57600080fd5b505af1158015612adf573d6000803e3d6000fd5b505050507f0624eb1de4b105b5373ba37db99731cb09d761de5b9373015805d8c47e7a6f1242604051612b129190615196565b60405180910390a1565b60ae818051602081018201805184825260208301602085012081835280955050505050506000915054906101000a900460ff1681565b6060612b5d82613e95565b905060ae81604051612b6f9190614c2a565b908152602001604051809103902060009054906101000a900460ff1615612bcb576040517f08c379a0000000000000000000000000000000000000000000000000000000008152600401612bc290615076565b60405180910390fd5b600160ae82604051612bdd9190614c2a565b908152602001604051809103902060006101000a81548160ff0219169083151502179055508160af82604051612c139190614c2a565b908152602001604051809103902060006101000a81548173ffffffffffffffffffffffffffffffffffffffff021916908373ffffffffffffffffffffffffffffffffffffffff160217905550919050565b60a96020528060005260406000206000915054906101000a900460ff1681565b612c8c6137a0565b612c966000613ef5565b565b60a560009054906101000a900473ffffffffffffffffffffffffffffffffffffffff1681565b612cc66137a0565b60a560009054906101000a900473ffffffffffffffffffffffffffffffffffffffff1673ffffffffffffffffffffffffffffffffffffffff166340c10f1983836040518363ffffffff1660e01b8152600401612d23929190614caf565b602060405180830381600087803b158015612d3d57600080fd5b505af1158015612d51573d6000803e3d6000fd5b505050506040513d601f19601f82011682018060405250810190612d759190614457565b505050565b60a25481565b60995481565b6000603360009054906101000a900473ffffffffffffffffffffffffffffffffffffffff16905090565b612db86137a0565b8460b1600101819055508360b1600301819055508260b1600401819055508160b160050160006101000a81548160ff0219169083151502179055508060b1600601819055505050505050565b60a45481565b600060a760009054906101000a900473ffffffffffffffffffffffffffffffffffffffff1673ffffffffffffffffffffffffffffffffffffffff1663e608d80b6040518163ffffffff1660e01b815260040160206040518083038186803b158015612e7457600080fd5b505afa158015612e88573d6000803e3d6000fd5b505050506040513d601f19601f82011682018060405250810190612eac919061458a565b905090565b600060ab60008373ffffffffffffffffffffffffffffffffffffffff1673ffffffffffffffffffffffffffffffffffffffff16815260200190815260200160002054612efb613173565b11612f095760009050612fb7565b600060ab60008473ffffffffffffffffffffffffffffffffffffffff1673ffffffffffffffffffffffffffffffffffffffff16815260200190815260200160002054612f53613173565b612f5d9190615411565b905060b16003015460b16004015482670de0b6b3a7640000609d54612f8188613fbb565b612f8b9190615377565b612f959190615346565b612f9f9190615377565b612fa99190615377565b612fb39190615346565b9150505b919050565b60ab6020528060005260406000206000915090505481565b60a05481565b609860009054906101000a900473ffffffffffffffffffffffffffffffffffffffff1681565b609a5481565b60b18060000160009054906101000a900473ffffffffffffffffffffffffffffffffffffffff16908060010154908060020154908060030154908060040154908060050160009054906101000a900460ff16908060060154905087565b60a15481565b6130716137a0565b81609c8190555080609b819055505050565b61308b6137a0565b609760149054906101000a900460ff1615609760146101000a81548160ff021916908315150217905550565b6130bf6137a0565b60a560009054906101000a900473ffffffffffffffffffffffffffffffffffffffff1673ffffffffffffffffffffffffffffffffffffffff16639dc29fac83836040518363ffffffff1660e01b815260040161311c929190614caf565b602060405180830381600087803b15801561313657600080fd5b505af115801561314a573d6000803e3d6000fd5b505050506040513d601f19601f8201168201806040525081019061316e9190614457565b505050565b600080609a54141580156131895750609a544210155b6131c8576040517f08c379a00000000000000000000000000000000000000000000000000000000081526004016131bf90615176565b60405180910390fd5b600060b160040154609a54426131de9190615411565b6131e89190615346565b9050600060b16004015460b1600301546132029190615346565b90508082111561321657809250505061321c565b81925050505b90565b609c5481565b609b5481565b6132336137a0565b60a660009054906101000a900473ffffffffffffffffffffffffffffffffffffffff1673ffffffffffffffffffffffffffffffffffffffff1663a9059cbb83836040518363ffffffff1660e01b8152600401613290929190614caf565b602060405180830381600087803b1580156132aa57600080fd5b505af11580156132be573d6000803e3d6000fd5b505050506040513d601f19601f820116820180604052508101906132e29190614457565b505050565b6132ef6137a0565b60006132f9612e0a565b90508060a2541415613340576040517f08c379a000000000000000000000000000000000000000000000000000000000815260040161333790615096565b60405180910390fd5b600060a254826133509190615411565b905060a3548111156133625760a35490505b600047905060005b8281101561350f5760a760009054906101000a900473ffffffffffffffffffffffffffffffffffffffff1673ffffffffffffffffffffffffffffffffffffffff1663a0b9d8be609860009054906101000a900473ffffffffffffffffffffffffffffffffffffffff166040518263ffffffff1660e01b81526004016133ef9190614c6b565b600060405180830381600087803b15801561340957600080fd5b505af192505050801561341a575060015b6134a7573d806000811461344a576040519150601f19603f3d011682016040523d82523d6000602084013e61344f565b606091505b508060405161345e9190614c13565b6040518091039020600160a25461347591906152b4565b7ffa856c428399288a6034f9c96d90c67dc025124c025cd92e228f9b795cd2ec8460405160405180910390a3506134fc565b600160a260008282546134ba91906152b4565b92505081905550837fe3ad3e6ae6e2f00623af1899e05e142e09f8af5b7f4e9b765d94646d6bb9b89260a2546040516134f39190615196565b60405180910390a25b808061350790615633565b91505061336a565b50600047905081816135219190615411565b60a4600082825461353291906152b4565b92505081905550837f1d37f71bdeb9f37b8aef735e93b33154911a15cae0fc0a473057a898be05c4a383836135679190615411565b6040516135749190615196565b60405180910390a250505050565b6000609760009054906101000a900473ffffffffffffffffffffffffffffffffffffffff1673ffffffffffffffffffffffffffffffffffffffff1663ea1bb3d56135ca613d1c565b6040518263ffffffff1660e01b81526004016135e69190614d84565b60206040518083038186803b1580156135fe57600080fd5b505afa158015613612573d6000803e3d6000fd5b505050506040513d601f19601f82011682018060405250810190613636919061458a565b905090565b6136436137a0565b600073ffffffffffffffffffffffffffffffffffffffff168173ffffffffffffffffffffffffffffffffffffffff1614156136b3576040517f08c379a00000000000000000000000000000000000000000000000000000000081526004016136aa90614ef6565b60405180910390fd5b6136bc81613ef5565b50565b60a760009054906101000a900473ffffffffffffffffffffffffffffffffffffffff1681565b60a881815481106136f557600080fd5b906000526020600020016000915054906101000a900473ffffffffffffffffffffffffffffffffffffffff1681565b6000808273ffffffffffffffffffffffffffffffffffffffff163b119050919050565b600060019054906101000a900460ff16613796576040517f08c379a000000000000000000000000000000000000000000000000000000000815260040161378d906150d6565b60405180910390fd5b61379e614024565b565b6137a8614085565b73ffffffffffffffffffffffffffffffffffffffff166137c6612d86565b73ffffffffffffffffffffffffffffffffffffffff161461381c576040517f08c379a000000000000000000000000000000000000000000000000000000000815260040161381390615056565b60405180910390fd5b565b6000613828612e0a565b90506004600a609e5461383b9190615377565b6138459190615346565b600a609f546138549190615377565b61385e91906152b4565b600a8261386b9190615377565b10156138775750613a22565b600060a05411156139d95760a760009054906101000a900473ffffffffffffffffffffffffffffffffffffffff1673ffffffffffffffffffffffffffffffffffffffff1663c7841dd23060a0546040518363ffffffff1660e01b81526004016138e1929190614c86565b600060405180830381600087803b1580156138fb57600080fd5b505af192505050801561390c575060015b61398e573d806000811461393c576040519150601f19603f3d011682016040523d82523d6000602084013e613941565b606091505b50806040516139509190614c13565b60405180910390208260a0547f832c31b2d0ce0c03d09e4e17ccd7312693af36ddd41c197ed1ed6c6dd58cb2ed60405160405180910390a4506139d8565b807fd112be63e7fceb2dddc1fcf8ae6159d873af98be4505daee865e08f2aeae802d60a0546040516139c09190615196565b60405180910390a2600060a08190555080609f819055505b5b60a054813373ffffffffffffffffffffffffffffffffffffffff167f69eadfdf59619a336dc106a730fa0ccf616ee1d058e409cd39f65f2a5ccdecae60405160405180910390a4505b565b600047905060a760009054906101000a900473ffffffffffffffffffffffffffffffffffffffff1673ffffffffffffffffffffffffffffffffffffffff166377a0fe026040518163ffffffff1660e01b8152600401600060405180830381600087803b158015613a9357600080fd5b505af1925050508015613aa4575060015b613b23573d8060008114613ad4576040519150601f19603f3d011682016040523d82523d6000602084013e613ad9565b606091505b5080604051613ae89190614c13565b6040518091039020837ff031b94d40b16f5c2b8213e25ea0f640687fa24e99f6a0ef56cdd46762434a2f60405160405180910390a350613b50565b817e973a60d81248412b3530a2ff12c475667dc3c0ece650fb361c044aa240565b60405160405180910390a25b60004790508181613b619190615411565b60a16000828254613b7291906152b4565b92505081905550823373ffffffffffffffffffffffffffffffffffffffff167f7ae76c7ba85137a574da9e7ef1f16fcd73e8290df91265541d72f81c331862e08484613bbe9190615411565b604051613bcb9190615196565b60405180910390a3505050565b80471015613c1b576040517f08c379a0000000000000000000000000000000000000000000000000000000008152600401613c1290614f96565b60405180910390fd5b60008273ffffffffffffffffffffffffffffffffffffffff1682604051613c4190614c41565b60006040518083038185875af1925050503d8060008114613c7e576040519150601f19603f3d011682016040523d82523d6000602084013e613c83565b606091505b5050905080613cc7576040517f08c379a0000000000000000000000000000000000000000000000000000000008152600401613cbe90614f56565b60405180910390fd5b505050565b60026065541415613d12576040517f08c379a0000000000000000000000000000000000000000000000000000000008152600401613d0990615136565b60405180910390fd5b6002606581905550565b6000806001609760009054906101000a900473ffffffffffffffffffffffffffffffffffffffff1673ffffffffffffffffffffffffffffffffffffffff1663471121d1306040518263ffffffff1660e01b8152600401613d7c9190614c6b565b60206040518083038186803b158015613d9457600080fd5b505afa158015613da8573d6000803e3d6000fd5b505050506040513d601f19601f82011682018060405250810190613dcc919061458a565b613dd69190615411565b9050609760009054906101000a900473ffffffffffffffffffffffffffffffffffffffff1673ffffffffffffffffffffffffffffffffffffffff1663e5fe4dff30836040518363ffffffff1660e01b8152600401613e35929190614caf565b60206040518083038186803b158015613e4d57600080fd5b505afa158015613e61573d6000803e3d6000fd5b505050506040513d601f19601f82011682018060405250810190613e859190614480565b91505090565b6001606581905550565b606060008242604051602001613eac929190614caf565b604051602081830303815290604052805190602001209050613eed817cffffffffffffffffffffffffffffffffffffffffffffffffffffffffff191661408d565b915050919050565b6000603360009054906101000a900473ffffffffffffffffffffffffffffffffffffffff16905081603360006101000a81548173ffffffffffffffffffffffffffffffffffffffff021916908373ffffffffffffffffffffffffffffffffffffffff1602179055508173ffffffffffffffffffffffffffffffffffffffff168173ffffffffffffffffffffffffffffffffffffffff167f8be0079c531659141344cd1fd0a4f28419497f9722a3daafe3b4186f6b6457e060405160405180910390a35050565b6000609954670de0b6b3a764000060aa60008573ffffffffffffffffffffffffffffffffffffffff1673ffffffffffffffffffffffffffffffffffffffff168152602001908152602001600020546140139190615377565b61401d9190615346565b9050919050565b600060019054906101000a900460ff16614073576040517f08c379a000000000000000000000000000000000000000000000000000000000815260040161406a906150d6565b60405180910390fd5b61408361407e614085565b613ef5565b565b600033905090565b60606000600c640fff00000060d01b847cffffffffffffffffffffffffffffffffffffffffffffffffffffffffff19161679ffffffffffffffffffffffffffffffffffffffffffffffffffff1916901c65fff00000000060d01b847cffffffffffffffffffffffffffffffffffffffffffffffffffffffffff191616179050600864f00000f00060d01b821679ffffffffffffffffffffffffffffffffffffffffffffffffffff1916901c65ff0000ff000060d01b82161790506004650f00000f000060d01b821679ffffffffffffffffffffffffffffffffffffffffffffffffffff1916901c65f000f0f000f060d01b8216179050600465f0f0f0f0f0f060d01b821679ffffffffffffffffffffffffffffffffffffffffffffffffffff1916901c90506007650f0f0f0f0f0f6004650606060606068460d01c6141d2919061530a565b65ffffffffffff16901c166141e791906153d1565b8160d01c653030303030306141fc919061530a565b614206919061530a565b60d01b90508060405160200161421c9190614bf8565b604051602081830303815290604052915050919050565b82805461423f906155d0565b90600052602060002090601f01602090048101928261426157600085556142a8565b82601f1061427a57805160ff19168380011785556142a8565b828001600101855582156142a8579182015b828111156142a757825182559160200191906001019061428c565b5b5090506142b591906142da565b5090565b50805460008255906000526020600020908101906142d791906142da565b50565b5b808211156142f35760008160009055506001016142db565b5090565b600061430a6143058461520d565b6151e8565b90508281526020810184848401111561432257600080fd5b61432d84828561558e565b509392505050565b60008135905061434481615cd6565b92915050565b60008135905061435981615ced565b92915050565b60008151905061436e81615ced565b92915050565b60008151905061438381615d04565b92915050565b60008135905061439881615d1b565b92915050565b600082601f8301126143af57600080fd5b81356143bf8482602086016142f7565b91505092915050565b6000813590506143d781615d32565b92915050565b6000815190506143ec81615d32565b92915050565b60006020828403121561440457600080fd5b600061441284828501614335565b91505092915050565b6000806040838503121561442e57600080fd5b600061443c85828601614335565b925050602061444d858286016143c8565b9150509250929050565b60006020828403121561446957600080fd5b60006144778482850161435f565b91505092915050565b60006020828403121561449257600080fd5b60006144a084828501614374565b91505092915050565b600080600080600060a086880312156144c157600080fd5b60006144cf88828901614389565b95505060206144e088828901614335565b94505060406144f188828901614335565b935050606061450288828901614335565b925050608061451388828901614335565b9150509295509295909350565b60006020828403121561453257600080fd5b600082013567ffffffffffffffff81111561454c57600080fd5b6145588482850161439e565b91505092915050565b60006020828403121561457357600080fd5b6000614581848285016143c8565b91505092915050565b60006020828403121561459c57600080fd5b60006145aa848285016143dd565b91505092915050565b600080604083850312156145c657600080fd5b60006145d4858286016143c8565b92505060206145e5858286016143c8565b9150509250929050565b600080600080600060a0868803121561460757600080fd5b6000614615888289016143c8565b9550506020614626888289016143c8565b9450506040614637888289016143c8565b93505060606146488882890161434a565b9250506080614659888289016143c8565b9150509295509295909350565b6000614672838361467e565b60208301905092915050565b61468781615445565b82525050565b61469681615445565b82525050565b60006146a78261524e565b6146b1818561527c565b93506146bc8361523e565b8060005b838110156146ed5781516146d48882614666565b97506146df8361526f565b9250506001810190506146c0565b5085935050505092915050565b61470381615457565b82525050565b61471281615463565b82525050565b6147296147248261546d565b61567c565b82525050565b600061473a82615259565b614744818561528d565b935061475481856020860161559d565b80840191505092915050565b61476981615510565b82525050565b61477881615534565b82525050565b61478781615558565b82525050565b6147968161557c565b82525050565b60006147a782615264565b6147b18185615298565b93506147c181856020860161559d565b6147ca81615742565b840191505092915050565b60006147e082615264565b6147ea81856152a9565b93506147fa81856020860161559d565b80840191505092915050565b6000614813601483615298565b915061481e82615753565b602082019050919050565b6000614836601783615298565b91506148418261577c565b602082019050919050565b6000614859602183615298565b9150614864826157a5565b604082019050919050565b600061487c602d83615298565b9150614887826157f4565b604082019050919050565b600061489f600f83615298565b91506148aa82615843565b602082019050919050565b60006148c2602683615298565b91506148cd8261586c565b604082019050919050565b60006148e5601b83615298565b91506148f0826158bb565b602082019050919050565b6000614908601783615298565b9150614913826158e4565b602082019050919050565b600061492b603a83615298565b91506149368261590d565b604082019050919050565b600061494e600e83615298565b91506149598261595c565b602082019050919050565b6000614971601d83615298565b915061497c82615985565b602082019050919050565b6000614994601083615298565b915061499f826159ae565b602082019050919050565b60006149b7601783615298565b91506149c2826159d7565b602082019050919050565b60006149da602e83615298565b91506149e582615a00565b604082019050919050565b60006149fd601983615298565b9150614a0882615a4f565b602082019050919050565b6000614a20602183615298565b9150614a2b82615a78565b604082019050919050565b6000614a43602083615298565b9150614a4e82615ac7565b602082019050919050565b6000614a66601583615298565b9150614a7182615af0565b602082019050919050565b6000614a89601b83615298565b9150614a9482615b19565b602082019050919050565b6000614aac60008361528d565b9150614ab782615b42565b600082019050919050565b6000614acf6000836152a9565b9150614ada82615b42565b600082019050919050565b6000614af2601a83615298565b9150614afd82615b45565b602082019050919050565b6000614b15602b83615298565b9150614b2082615b6e565b604082019050919050565b6000614b38601583615298565b9150614b4382615bbd565b602082019050919050565b6000614b5b603683615298565b9150614b6682615be6565b604082019050919050565b6000614b7e601f83615298565b9150614b8982615c35565b602082019050919050565b6000614ba1601183615298565b9150614bac82615c5e565b602082019050919050565b6000614bc4602283615298565b9150614bcf82615c87565b604082019050919050565b614be3816154ab565b82525050565b614bf2816154e7565b82525050565b6000614c048284614718565b60068201915081905092915050565b6000614c1f828461472f565b915081905092915050565b6000614c3682846147d5565b915081905092915050565b6000614c4c82614a9f565b9150819050919050565b6000614c6182614ac2565b9150819050919050565b6000602082019050614c80600083018461468d565b92915050565b6000604082019050614c9b600083018561468d565b614ca86020830184614bda565b9392505050565b6000604082019050614cc4600083018561468d565b614cd16020830184614be9565b9392505050565b600060e082019050614ced600083018a61468d565b614cfa6020830189614be9565b614d076040830188614be9565b614d146060830187614be9565b614d216080830186614be9565b614d2e60a08301856146fa565b614d3b60c0830184614be9565b98975050505050505050565b60006020820190508181036000830152614d61818461469c565b905092915050565b6000602082019050614d7e60008301846146fa565b92915050565b6000602082019050614d996000830184614709565b92915050565b6000604082019050614db46000830185614709565b614dc16020830184614be9565b9392505050565b6000602082019050614ddd6000830184614760565b92915050565b6000602082019050614df8600083018461476f565b92915050565b6000602082019050614e13600083018461477e565b92915050565b6000602082019050614e2e600083018461478d565b92915050565b60006020820190508181036000830152614e4e818461479c565b905092915050565b60006020820190508181036000830152614e6f81614806565b9050919050565b60006020820190508181036000830152614e8f81614829565b9050919050565b60006020820190508181036000830152614eaf8161484c565b9050919050565b60006020820190508181036000830152614ecf8161486f565b9050919050565b60006020820190508181036000830152614eef81614892565b9050919050565b60006020820190508181036000830152614f0f816148b5565b9050919050565b60006020820190508181036000830152614f2f816148d8565b9050919050565b60006020820190508181036000830152614f4f816148fb565b9050919050565b60006020820190508181036000830152614f6f8161491e565b9050919050565b60006020820190508181036000830152614f8f81614941565b9050919050565b60006020820190508181036000830152614faf81614964565b9050919050565b60006020820190508181036000830152614fcf81614987565b9050919050565b60006020820190508181036000830152614fef816149aa565b9050919050565b6000602082019050818103600083015261500f816149cd565b9050919050565b6000602082019050818103600083015261502f816149f0565b9050919050565b6000602082019050818103600083015261504f81614a13565b9050919050565b6000602082019050818103600083015261506f81614a36565b9050919050565b6000602082019050818103600083015261508f81614a59565b9050919050565b600060208201905081810360008301526150af81614a7c565b9050919050565b600060208201905081810360008301526150cf81614ae5565b9050919050565b600060208201905081810360008301526150ef81614b08565b9050919050565b6000602082019050818103600083015261510f81614b2b565b9050919050565b6000602082019050818103600083015261512f81614b4e565b9050919050565b6000602082019050818103600083015261514f81614b71565b9050919050565b6000602082019050818103600083015261516f81614b94565b9050919050565b6000602082019050818103600083015261518f81614bb7565b9050919050565b60006020820190506151ab6000830184614be9565b92915050565b60006060820190506151c66000830186614be9565b6151d36020830185614be9565b6151e06040830184614be9565b949350505050565b60006151f2615203565b90506151fe8282615602565b919050565b6000604051905090565b600067ffffffffffffffff82111561522857615227615713565b5b61523182615742565b9050602081019050919050565b6000819050602082019050919050565b600081519050919050565b600081519050919050565b600081519050919050565b6000602082019050919050565b600082825260208201905092915050565b600081905092915050565b600082825260208201905092915050565b600081905092915050565b60006152bf826154e7565b91506152ca836154e7565b9250827fffffffffffffffffffffffffffffffffffffffffffffffffffffffffffffffff038211156152ff576152fe615686565b5b828201905092915050565b6000615315826154f1565b9150615320836154f1565b92508265ffffffffffff0382111561533b5761533a615686565b5b828201905092915050565b6000615351826154e7565b915061535c836154e7565b92508261536c5761536b6156b5565b5b828204905092915050565b6000615382826154e7565b915061538d836154e7565b9250817fffffffffffffffffffffffffffffffffffffffffffffffffffffffffffffffff04831182151516156153c6576153c5615686565b5b828202905092915050565b60006153dc826154f1565b91506153e7836154f1565b92508165ffffffffffff048311821515161561540657615405615686565b5b828202905092915050565b600061541c826154e7565b9150615427836154e7565b92508282101561543a57615439615686565b5b828203905092915050565b6000615450826154c7565b9050919050565b60008115159050919050565b6000819050919050565b60007fffffffffffff000000000000000000000000000000000000000000000000000082169050919050565b60006154a482615445565b9050919050565b60006fffffffffffffffffffffffffffffffff82169050919050565b600073ffffffffffffffffffffffffffffffffffffffff82169050919050565b6000819050919050565b600065ffffffffffff82169050919050565b600060ff82169050919050565b600061551b82615522565b9050919050565b600061552d826154c7565b9050919050565b600061553f82615546565b9050919050565b6000615551826154c7565b9050919050565b60006155638261556a565b9050919050565b6000615575826154c7565b9050919050565b600061558782615503565b9050919050565b82818337600083830152505050565b60005b838110156155bb5780820151818401526020810190506155a0565b838111156155ca576000848401525b50505050565b600060028204905060018216806155e857607f821691505b602082108114156155fc576155fb6156e4565b5b50919050565b61560b82615742565b810181811067ffffffffffffffff8211171561562a57615629615713565b5b80604052505050565b600061563e826154e7565b91507fffffffffffffffffffffffffffffffffffffffffffffffffffffffffffffffff82141561567157615670615686565b5b600182019050919050565b6000819050919050565b7f4e487b7100000000000000000000000000000000000000000000000000000000600052601160045260246000fd5b7f4e487b7100000000000000000000000000000000000000000000000000000000600052601260045260246000fd5b7f4e487b7100000000000000000000000000000000000000000000000000000000600052602260045260246000fd5b7f4e487b7100000000000000000000000000000000000000000000000000000000600052604160045260246000fd5b6000601f19601f8301169050919050565b7f43726f77646c6f616e207374696c6c206f70656e000000000000000000000000600082015250565b7f5573657220686173206e6f20616e792072657761726473000000000000000000600082015250565b7f4c6f636b696e6720706572696f6420686173206e6f742079657420706173736560008201527f6400000000000000000000000000000000000000000000000000000000000000602082015250565b7f526566657272616c20636f646573206861766520616c7265616479206265656e60008201527f2075736564206279207573657200000000000000000000000000000000000000602082015250565b7f4e6f20616e7920756e7374616b65730000000000000000000000000000000000600082015250565b7f4f776e61626c653a206e6577206f776e657220697320746865207a65726f206160008201527f6464726573730000000000000000000000000000000000000000000000000000602082015250565b7f526566657272616c20636f6465206973206e6f74206163746976650000000000600082015250565b7f4572726f7220647572696e67206d696e74206141535452000000000000000000600082015250565b7f416464726573733a20756e61626c6520746f2073656e642076616c75652c207260008201527f6563697069656e74206d61792068617665207265766572746564000000000000602082015250565b7f4e656564206d6f72652041535452000000000000000000000000000000000000600082015250565b7f416464726573733a20696e73756666696369656e742062616c616e6365000000600082015250565b7f43726f77646c6f616e20636c6f73656400000000000000000000000000000000600082015250565b7f4e6f7420656e6f75676820657261732070617373656421000000000000000000600082015250565b7f496e697469616c697a61626c653a20636f6e747261637420697320616c72656160008201527f647920696e697469616c697a6564000000000000000000000000000000000000602082015250565b7f4e6f7420656e6f75676820746f6b656e7320746f206275726e00000000000000600082015250565b7f4e6f7420656e6f7567682066756e647320696e20756e626f6e64656420706f6f60008201527f6c00000000000000000000000000000000000000000000000000000000000000602082015250565b7f4f776e61626c653a2063616c6c6572206973206e6f7420746865206f776e6572600082015250565b7f5573657220616c726561647920726566657272616c0000000000000000000000600082015250565b7f416c6c207265776172647320616c726561647920636c61696d65640000000000600082015250565b50565b7f5769746864726177616c20616c726561647920636c61696d6564000000000000600082015250565b7f496e697469616c697a61626c653a20636f6e7472616374206973206e6f74206960008201527f6e697469616c697a696e67000000000000000000000000000000000000000000602082015250565b7f5573657220686173206e6f20616e792061415354520000000000000000000000600082015250565b7f54686572652077617320616c726561647920676c6f62616c556e7374616b652060008201527f696e207468697320706572696f64206f662074696d6500000000000000000000602082015250565b7f5265656e7472616e637947756172643a207265656e7472616e742063616c6c00600082015250565b7f546f6f206c61726765206465706f736974000000000000000000000000000000600082015250565b7f56657374696e6720706572696f6420686173206e6f742073746172746564207960008201527f6574000000000000000000000000000000000000000000000000000000000000602082015250565b615cdf81615445565b8114615cea57600080fd5b50565b615cf681615457565b8114615d0157600080fd5b50565b615d0d81615463565b8114615d1857600080fd5b50565b615d2481615499565b8114615d2f57600080fd5b50565b615d3b816154e7565b8114615d4657600080fd5b5056fea26469706673582212203ede31e72885d00a37a4a021ee834d69620990bd1b7dc9f793bd28984ef1e37664736f6c63430008040033",
			"opcodes": "PUSH1 0x80 PUSH1 0x40 MSTORE PUSH9 0x56BC75E2D63100000 PUSH1 0x9B SSTORE PUSH11 0x52B7D2DCC80CD2E4000000 PUSH1 0x9C SSTORE PUSH11 0x211654585005212800000 PUSH1 0x9D SSTORE CALLVALUE DUP1 ISZERO PUSH2 0x3B JUMPI PUSH1 0x0 DUP1 REVERT JUMPDEST POP PUSH2 0x5D7F DUP1 PUSH3 0x4C PUSH1 0x0 CODECOPY PUSH1 0x0 RETURN INVALID PUSH1 0x80 PUSH1 0x40 MSTORE PUSH1 0x4 CALLDATASIZE LT PUSH2 0x384 JUMPI PUSH1 0x0 CALLDATALOAD PUSH1 0xE0 SHR DUP1 PUSH4 0x6F1E8533 GT PUSH2 0x1D1 JUMPI DUP1 PUSH4 0xBFB9BA0C GT PUSH2 0x102 JUMPI DUP1 PUSH4 0xD40DC870 GT PUSH2 0xA0 JUMPI DUP1 PUSH4 0xEEF09740 GT PUSH2 0x6F JUMPI DUP1 PUSH4 0xEEF09740 EQ PUSH2 0xC64 JUMPI DUP1 PUSH4 0xF2FDE38B EQ PUSH2 0xC8F JUMPI DUP1 PUSH4 0xF8293403 EQ PUSH2 0xCB8 JUMPI DUP1 PUSH4 0xFD5E6DD1 EQ PUSH2 0xCE3 JUMPI PUSH2 0x38B JUMP JUMPDEST DUP1 PUSH4 0xD40DC870 EQ PUSH2 0xBCE JUMPI DUP1 PUSH4 0xDDBCB5FA EQ PUSH2 0xBF9 JUMPI DUP1 PUSH4 0xE5C1F211 EQ PUSH2 0xC24 JUMPI DUP1 PUSH4 0xEA87E3FF EQ PUSH2 0xC4D JUMPI PUSH2 0x38B JUMP JUMPDEST DUP1 PUSH4 0xC803E58A GT PUSH2 0xDC JUMPI DUP1 PUSH4 0xC803E58A EQ PUSH2 0xB3A JUMPI DUP1 PUSH4 0xD1A32C39 EQ PUSH2 0xB63 JUMPI DUP1 PUSH4 0xD1DF306C EQ PUSH2 0xB7A JUMPI DUP1 PUSH4 0xD31DBAB6 EQ PUSH2 0xBA3 JUMPI PUSH2 0x38B JUMP JUMPDEST DUP1 PUSH4 0xBFB9BA0C EQ PUSH2 0xAB3 JUMPI DUP1 PUSH4 0xC4B02908 EQ PUSH2 0xADE JUMPI DUP1 PUSH4 0xC71367B5 EQ PUSH2 0xB0F JUMPI PUSH2 0x38B JUMP JUMPDEST DUP1 PUSH4 0x8F6DB5FA GT PUSH2 0x16F JUMPI DUP1 PUSH4 0x9DB29340 GT PUSH2 0x149 JUMPI DUP1 PUSH4 0x9DB29340 EQ PUSH2 0x9E3 JUMPI DUP1 PUSH4 0x9FDB8C93 EQ PUSH2 0xA20 JUMPI DUP1 PUSH4 0xA25B7E49 EQ PUSH2 0xA5D JUMPI DUP1 PUSH4 0xA6D953B7 EQ PUSH2 0xA88 JUMPI PUSH2 0x38B JUMP JUMPDEST DUP1 PUSH4 0x8F6DB5FA EQ PUSH2 0x964 JUMPI DUP1 PUSH4 0x93EF357A EQ PUSH2 0x98D JUMPI DUP1 PUSH4 0x973628F6 EQ PUSH2 0x9B8 JUMPI PUSH2 0x38B JUMP JUMPDEST DUP1 PUSH4 0x79C65068 GT PUSH2 0x1AB JUMPI DUP1 PUSH4 0x79C65068 EQ PUSH2 0x8BA JUMPI DUP1 PUSH4 0x8037ECD3 EQ PUSH2 0x8E3 JUMPI DUP1 PUSH4 0x817B1CD2 EQ PUSH2 0x90E JUMPI DUP1 PUSH4 0x8DA5CB5B EQ PUSH2 0x939 JUMPI PUSH2 0x38B JUMP JUMPDEST DUP1 PUSH4 0x6F1E8533 EQ PUSH2 0x83B JUMPI DUP1 PUSH4 0x715018A6 EQ PUSH2 0x878 JUMPI DUP1 PUSH4 0x77734A66 EQ PUSH2 0x88F JUMPI PUSH2 0x38B JUMP JUMPDEST DUP1 PUSH4 0x422B1077 GT PUSH2 0x2B6 JUMPI DUP1 PUSH4 0x5495EC81 GT PUSH2 0x254 JUMPI DUP1 PUSH4 0x69D3BCC2 GT PUSH2 0x223 JUMPI DUP1 PUSH4 0x69D3BCC2 EQ PUSH2 0x781 JUMPI DUP1 PUSH4 0x6ADB930C EQ PUSH2 0x7AA JUMPI DUP1 PUSH4 0x6BF10CF2 EQ PUSH2 0x7C1 JUMPI DUP1 PUSH4 0x6ED83C5B EQ PUSH2 0x7FE JUMPI PUSH2 0x38B JUMP JUMPDEST DUP1 PUSH4 0x5495EC81 EQ PUSH2 0x6D7 JUMPI DUP1 PUSH4 0x597E1FB5 EQ PUSH2 0x702 JUMPI DUP1 PUSH4 0x620CC15C EQ PUSH2 0x72D JUMPI DUP1 PUSH4 0x68B0216E EQ PUSH2 0x76A JUMPI PUSH2 0x38B JUMP JUMPDEST DUP1 PUSH4 0x44C63EEC GT PUSH2 0x290 JUMPI DUP1 PUSH4 0x44C63EEC EQ PUSH2 0x662 JUMPI DUP1 PUSH4 0x46F45B8D EQ PUSH2 0x68D JUMPI DUP1 PUSH4 0x478C4E0E EQ PUSH2 0x6A9 JUMPI DUP1 PUSH4 0x53D64EE0 EQ PUSH2 0x6C0 JUMPI PUSH2 0x38B JUMP JUMPDEST DUP1 PUSH4 0x422B1077 EQ PUSH2 0x5CF JUMPI DUP1 PUSH4 0x42DEBBAB EQ PUSH2 0x60E JUMPI DUP1 PUSH4 0x43352D61 EQ PUSH2 0x637 JUMPI PUSH2 0x38B JUMP JUMPDEST DUP1 PUSH4 0x2DEF6620 GT PUSH2 0x323 JUMPI DUP1 PUSH4 0x34294447 GT PUSH2 0x2FD JUMPI DUP1 PUSH4 0x34294447 EQ PUSH2 0x534 JUMPI DUP1 PUSH4 0x372500AB EQ PUSH2 0x571 JUMPI DUP1 PUSH4 0x3A4B66F1 EQ PUSH2 0x588 JUMPI DUP1 PUSH4 0x3D8AB5B1 EQ PUSH2 0x592 JUMPI PUSH2 0x38B JUMP JUMPDEST DUP1 PUSH4 0x2DEF6620 EQ PUSH2 0x4C9 JUMPI DUP1 PUSH4 0x2E1A7D4D EQ PUSH2 0x4E0 JUMPI DUP1 PUSH4 0x2E415702 EQ PUSH2 0x509 JUMPI PUSH2 0x38B JUMP JUMPDEST DUP1 PUSH4 0x22456682 GT PUSH2 0x35F JUMPI DUP1 PUSH4 0x22456682 EQ PUSH2 0x421 JUMPI DUP1 PUSH4 0x24025B19 EQ PUSH2 0x44A JUMPI DUP1 PUSH4 0x26B321D1 EQ PUSH2 0x475 JUMPI DUP1 PUSH4 0x2941BC29 EQ PUSH2 0x49E JUMPI PUSH2 0x38B JUMP JUMPDEST DUP1 PUSH3 0x179FBD EQ PUSH2 0x390 JUMPI DUP1 PUSH4 0x1459457A EQ PUSH2 0x3BB JUMPI DUP1 PUSH4 0x16934FC4 EQ PUSH2 0x3E4 JUMPI PUSH2 0x38B JUMP JUMPDEST CALLDATASIZE PUSH2 0x38B JUMPI STOP JUMPDEST PUSH1 0x0 DUP1 REVERT JUMPDEST CALLVALUE DUP1 ISZERO PUSH2 0x39C JUMPI PUSH1 0x0 DUP1 REVERT JUMPDEST POP PUSH2 0x3A5 PUSH2 0xD20 JUMP JUMPDEST PUSH1 0x40 MLOAD PUSH2 0x3B2 SWAP2 SWAP1 PUSH2 0x5196 JUMP JUMPDEST PUSH1 0x40 MLOAD DUP1 SWAP2 SUB SWAP1 RETURN JUMPDEST CALLVALUE DUP1 ISZERO PUSH2 0x3C7 JUMPI PUSH1 0x0 DUP1 REVERT JUMPDEST POP PUSH2 0x3E2 PUSH1 0x4 DUP1 CALLDATASIZE SUB DUP2 ADD SWAP1 PUSH2 0x3DD SWAP2 SWAP1 PUSH2 0x44A9 JUMP JUMPDEST PUSH2 0xD26 JUMP JUMPDEST STOP JUMPDEST CALLVALUE DUP1 ISZERO PUSH2 0x3F0 JUMPI PUSH1 0x0 DUP1 REVERT JUMPDEST POP PUSH2 0x40B PUSH1 0x4 DUP1 CALLDATASIZE SUB DUP2 ADD SWAP1 PUSH2 0x406 SWAP2 SWAP1 PUSH2 0x43F2 JUMP JUMPDEST PUSH2 0x117B JUMP JUMPDEST PUSH1 0x40 MLOAD PUSH2 0x418 SWAP2 SWAP1 PUSH2 0x5196 JUMP JUMPDEST PUSH1 0x40 MLOAD DUP1 SWAP2 SUB SWAP1 RETURN JUMPDEST CALLVALUE DUP1 ISZERO PUSH2 0x42D JUMPI PUSH1 0x0 DUP1 REVERT JUMPDEST POP PUSH2 0x448 PUSH1 0x4 DUP1 CALLDATASIZE SUB DUP2 ADD SWAP1 PUSH2 0x443 SWAP2 SWAP1 PUSH2 0x4561 JUMP JUMPDEST PUSH2 0x1193 JUMP JUMPDEST STOP JUMPDEST CALLVALUE DUP1 ISZERO PUSH2 0x456 JUMPI PUSH1 0x0 DUP1 REVERT JUMPDEST POP PUSH2 0x45F PUSH2 0x11A5 JUMP JUMPDEST PUSH1 0x40 MLOAD PUSH2 0x46C SWAP2 SWAP1 PUSH2 0x5196 JUMP JUMPDEST PUSH1 0x40 MLOAD DUP1 SWAP2 SUB SWAP1 RETURN JUMPDEST CALLVALUE DUP1 ISZERO PUSH2 0x481 JUMPI PUSH1 0x0 DUP1 REVERT JUMPDEST POP PUSH2 0x49C PUSH1 0x4 DUP1 CALLDATASIZE SUB DUP2 ADD SWAP1 PUSH2 0x497 SWAP2 SWAP1 PUSH2 0x4561 JUMP JUMPDEST PUSH2 0x11AB JUMP JUMPDEST STOP JUMPDEST CALLVALUE DUP1 ISZERO PUSH2 0x4AA JUMPI PUSH1 0x0 DUP1 REVERT JUMPDEST POP PUSH2 0x4B3 PUSH2 0x11C0 JUMP JUMPDEST PUSH1 0x40 MLOAD PUSH2 0x4C0 SWAP2 SWAP1 PUSH2 0x5196 JUMP JUMPDEST PUSH1 0x40 MLOAD DUP1 SWAP2 SUB SWAP1 RETURN JUMPDEST CALLVALUE DUP1 ISZERO PUSH2 0x4D5 JUMPI PUSH1 0x0 DUP1 REVERT JUMPDEST POP PUSH2 0x4DE PUSH2 0x11C6 JUMP JUMPDEST STOP JUMPDEST CALLVALUE DUP1 ISZERO PUSH2 0x4EC JUMPI PUSH1 0x0 DUP1 REVERT JUMPDEST POP PUSH2 0x507 PUSH1 0x4 DUP1 CALLDATASIZE SUB DUP2 ADD SWAP1 PUSH2 0x502 SWAP2 SWAP1 PUSH2 0x4561 JUMP JUMPDEST PUSH2 0x16BA JUMP JUMPDEST STOP JUMPDEST CALLVALUE DUP1 ISZERO PUSH2 0x515 JUMPI PUSH1 0x0 DUP1 REVERT JUMPDEST POP PUSH2 0x51E PUSH2 0x1916 JUMP JUMPDEST PUSH1 0x40 MLOAD PUSH2 0x52B SWAP2 SWAP1 PUSH2 0x4DFE JUMP JUMPDEST PUSH1 0x40 MLOAD DUP1 SWAP2 SUB SWAP1 RETURN JUMPDEST CALLVALUE DUP1 ISZERO PUSH2 0x540 JUMPI PUSH1 0x0 DUP1 REVERT JUMPDEST POP PUSH2 0x55B PUSH1 0x4 DUP1 CALLDATASIZE SUB DUP2 ADD SWAP1 PUSH2 0x556 SWAP2 SWAP1 PUSH2 0x43F2 JUMP JUMPDEST PUSH2 0x193C JUMP JUMPDEST PUSH1 0x40 MLOAD PUSH2 0x568 SWAP2 SWAP1 PUSH2 0x4E34 JUMP JUMPDEST PUSH1 0x40 MLOAD DUP1 SWAP2 SUB SWAP1 RETURN JUMPDEST CALLVALUE DUP1 ISZERO PUSH2 0x57D JUMPI PUSH1 0x0 DUP1 REVERT JUMPDEST POP PUSH2 0x586 PUSH2 0x19DC JUMP JUMPDEST STOP JUMPDEST PUSH2 0x590 PUSH2 0x1C20 JUMP JUMPDEST STOP JUMPDEST CALLVALUE DUP1 ISZERO PUSH2 0x59E JUMPI PUSH1 0x0 DUP1 REVERT JUMPDEST POP PUSH2 0x5B9 PUSH1 0x4 DUP1 CALLDATASIZE SUB DUP2 ADD SWAP1 PUSH2 0x5B4 SWAP2 SWAP1 PUSH2 0x4520 JUMP JUMPDEST PUSH2 0x1C8A JUMP JUMPDEST PUSH1 0x40 MLOAD PUSH2 0x5C6 SWAP2 SWAP1 PUSH2 0x4C6B JUMP JUMPDEST PUSH1 0x40 MLOAD DUP1 SWAP2 SUB SWAP1 RETURN JUMPDEST CALLVALUE DUP1 ISZERO PUSH2 0x5DB JUMPI PUSH1 0x0 DUP1 REVERT JUMPDEST POP PUSH2 0x5F6 PUSH1 0x4 DUP1 CALLDATASIZE SUB DUP2 ADD SWAP1 PUSH2 0x5F1 SWAP2 SWAP1 PUSH2 0x441B JUMP JUMPDEST PUSH2 0x1CD3 JUMP JUMPDEST PUSH1 0x40 MLOAD PUSH2 0x605 SWAP4 SWAP3 SWAP2 SWAP1 PUSH2 0x51B1 JUMP JUMPDEST PUSH1 0x40 MLOAD DUP1 SWAP2 SUB SWAP1 RETURN JUMPDEST CALLVALUE DUP1 ISZERO PUSH2 0x61A JUMPI PUSH1 0x0 DUP1 REVERT JUMPDEST POP PUSH2 0x635 PUSH1 0x4 DUP1 CALLDATASIZE SUB DUP2 ADD SWAP1 PUSH2 0x630 SWAP2 SWAP1 PUSH2 0x4561 JUMP JUMPDEST PUSH2 0x1D1A JUMP JUMPDEST STOP JUMPDEST CALLVALUE DUP1 ISZERO PUSH2 0x643 JUMPI PUSH1 0x0 DUP1 REVERT JUMPDEST POP PUSH2 0x64C PUSH2 0x1D70 JUMP JUMPDEST PUSH1 0x40 MLOAD PUSH2 0x659 SWAP2 SWAP1 PUSH2 0x4D47 JUMP JUMPDEST PUSH1 0x40 MLOAD DUP1 SWAP2 SUB SWAP1 RETURN JUMPDEST CALLVALUE DUP1 ISZERO PUSH2 0x66E JUMPI PUSH1 0x0 DUP1 REVERT JUMPDEST POP PUSH2 0x677 PUSH2 0x1DFE JUMP JUMPDEST PUSH1 0x40 MLOAD PUSH2 0x684 SWAP2 SWAP1 PUSH2 0x4DC8 JUMP JUMPDEST PUSH1 0x40 MLOAD DUP1 SWAP2 SUB SWAP1 RETURN JUMPDEST PUSH2 0x6A7 PUSH1 0x4 DUP1 CALLDATASIZE SUB DUP2 ADD SWAP1 PUSH2 0x6A2 SWAP2 SWAP1 PUSH2 0x4520 JUMP JUMPDEST PUSH2 0x1E24 JUMP JUMPDEST STOP JUMPDEST CALLVALUE DUP1 ISZERO PUSH2 0x6B5 JUMPI PUSH1 0x0 DUP1 REVERT JUMPDEST POP PUSH2 0x6BE PUSH2 0x24C6 JUMP JUMPDEST STOP JUMPDEST CALLVALUE DUP1 ISZERO PUSH2 0x6CC JUMPI PUSH1 0x0 DUP1 REVERT JUMPDEST POP PUSH2 0x6D5 PUSH2 0x27B4 JUMP JUMPDEST STOP JUMPDEST CALLVALUE DUP1 ISZERO PUSH2 0x6E3 JUMPI PUSH1 0x0 DUP1 REVERT JUMPDEST POP PUSH2 0x6EC PUSH2 0x2845 JUMP JUMPDEST PUSH1 0x40 MLOAD PUSH2 0x6F9 SWAP2 SWAP1 PUSH2 0x5196 JUMP JUMPDEST PUSH1 0x40 MLOAD DUP1 SWAP2 SUB SWAP1 RETURN JUMPDEST CALLVALUE DUP1 ISZERO PUSH2 0x70E JUMPI PUSH1 0x0 DUP1 REVERT JUMPDEST POP PUSH2 0x717 PUSH2 0x284B JUMP JUMPDEST PUSH1 0x40 MLOAD PUSH2 0x724 SWAP2 SWAP1 PUSH2 0x4D69 JUMP JUMPDEST PUSH1 0x40 MLOAD DUP1 SWAP2 SUB SWAP1 RETURN JUMPDEST CALLVALUE DUP1 ISZERO PUSH2 0x739 JUMPI PUSH1 0x0 DUP1 REVERT JUMPDEST POP PUSH2 0x754 PUSH1 0x4 DUP1 CALLDATASIZE SUB DUP2 ADD SWAP1 PUSH2 0x74F SWAP2 SWAP1 PUSH2 0x43F2 JUMP JUMPDEST PUSH2 0x285E JUMP JUMPDEST PUSH1 0x40 MLOAD PUSH2 0x761 SWAP2 SWAP1 PUSH2 0x4D69 JUMP JUMPDEST PUSH1 0x40 MLOAD DUP1 SWAP2 SUB SWAP1 RETURN JUMPDEST CALLVALUE DUP1 ISZERO PUSH2 0x776 JUMPI PUSH1 0x0 DUP1 REVERT JUMPDEST POP PUSH2 0x77F PUSH2 0x287E JUMP JUMPDEST STOP JUMPDEST CALLVALUE DUP1 ISZERO PUSH2 0x78D JUMPI PUSH1 0x0 DUP1 REVERT JUMPDEST POP PUSH2 0x7A8 PUSH1 0x4 DUP1 CALLDATASIZE SUB DUP2 ADD SWAP1 PUSH2 0x7A3 SWAP2 SWAP1 PUSH2 0x43F2 JUMP JUMPDEST PUSH2 0x295E JUMP JUMPDEST STOP JUMPDEST CALLVALUE DUP1 ISZERO PUSH2 0x7B6 JUMPI PUSH1 0x0 DUP1 REVERT JUMPDEST POP PUSH2 0x7BF PUSH2 0x29AA JUMP JUMPDEST STOP JUMPDEST CALLVALUE DUP1 ISZERO PUSH2 0x7CD JUMPI PUSH1 0x0 DUP1 REVERT JUMPDEST POP PUSH2 0x7E8 PUSH1 0x4 DUP1 CALLDATASIZE SUB DUP2 ADD SWAP1 PUSH2 0x7E3 SWAP2 SWAP1 PUSH2 0x4520 JUMP JUMPDEST PUSH2 0x2B1C JUMP JUMPDEST PUSH1 0x40 MLOAD PUSH2 0x7F5 SWAP2 SWAP1 PUSH2 0x4D69 JUMP JUMPDEST PUSH1 0x40 MLOAD DUP1 SWAP2 SUB SWAP1 RETURN JUMPDEST CALLVALUE DUP1 ISZERO PUSH2 0x80A JUMPI PUSH1 0x0 DUP1 REVERT JUMPDEST POP PUSH2 0x825 PUSH1 0x4 DUP1 CALLDATASIZE SUB DUP2 ADD SWAP1 PUSH2 0x820 SWAP2 SWAP1 PUSH2 0x43F2 JUMP JUMPDEST PUSH2 0x2B52 JUMP JUMPDEST PUSH1 0x40 MLOAD PUSH2 0x832 SWAP2 SWAP1 PUSH2 0x4E34 JUMP JUMPDEST PUSH1 0x40 MLOAD DUP1 SWAP2 SUB SWAP1 RETURN JUMPDEST CALLVALUE DUP1 ISZERO PUSH2 0x847 JUMPI PUSH1 0x0 DUP1 REVERT JUMPDEST POP PUSH2 0x862 PUSH1 0x4 DUP1 CALLDATASIZE SUB DUP2 ADD SWAP1 PUSH2 0x85D SWAP2 SWAP1 PUSH2 0x43F2 JUMP JUMPDEST PUSH2 0x2C64 JUMP JUMPDEST PUSH1 0x40 MLOAD PUSH2 0x86F SWAP2 SWAP1 PUSH2 0x4D69 JUMP JUMPDEST PUSH1 0x40 MLOAD DUP1 SWAP2 SUB SWAP1 RETURN JUMPDEST CALLVALUE DUP1 ISZERO PUSH2 0x884 JUMPI PUSH1 0x0 DUP1 REVERT JUMPDEST POP PUSH2 0x88D PUSH2 0x2C84 JUMP JUMPDEST STOP JUMPDEST CALLVALUE DUP1 ISZERO PUSH2 0x89B JUMPI PUSH1 0x0 DUP1 REVERT JUMPDEST POP PUSH2 0x8A4 PUSH2 0x2C98 JUMP JUMPDEST PUSH1 0x40 MLOAD PUSH2 0x8B1 SWAP2 SWAP1 PUSH2 0x4DFE JUMP JUMPDEST PUSH1 0x40 MLOAD DUP1 SWAP2 SUB SWAP1 RETURN JUMPDEST CALLVALUE DUP1 ISZERO PUSH2 0x8C6 JUMPI PUSH1 0x0 DUP1 REVERT JUMPDEST POP PUSH2 0x8E1 PUSH1 0x4 DUP1 CALLDATASIZE SUB DUP2 ADD SWAP1 PUSH2 0x8DC SWAP2 SWAP1 PUSH2 0x441B JUMP JUMPDEST PUSH2 0x2CBE JUMP JUMPDEST STOP JUMPDEST CALLVALUE DUP1 ISZERO PUSH2 0x8EF JUMPI PUSH1 0x0 DUP1 REVERT JUMPDEST POP PUSH2 0x8F8 PUSH2 0x2D7A JUMP JUMPDEST PUSH1 0x40 MLOAD PUSH2 0x905 SWAP2 SWAP1 PUSH2 0x5196 JUMP JUMPDEST PUSH1 0x40 MLOAD DUP1 SWAP2 SUB SWAP1 RETURN JUMPDEST CALLVALUE DUP1 ISZERO PUSH2 0x91A JUMPI PUSH1 0x0 DUP1 REVERT JUMPDEST POP PUSH2 0x923 PUSH2 0x2D80 JUMP JUMPDEST PUSH1 0x40 MLOAD PUSH2 0x930 SWAP2 SWAP1 PUSH2 0x5196 JUMP JUMPDEST PUSH1 0x40 MLOAD DUP1 SWAP2 SUB SWAP1 RETURN JUMPDEST CALLVALUE DUP1 ISZERO PUSH2 0x945 JUMPI PUSH1 0x0 DUP1 REVERT JUMPDEST POP PUSH2 0x94E PUSH2 0x2D86 JUMP JUMPDEST PUSH1 0x40 MLOAD PUSH2 0x95B SWAP2 SWAP1 PUSH2 0x4C6B JUMP JUMPDEST PUSH1 0x40 MLOAD DUP1 SWAP2 SUB SWAP1 RETURN JUMPDEST CALLVALUE DUP1 ISZERO PUSH2 0x970 JUMPI PUSH1 0x0 DUP1 REVERT JUMPDEST POP PUSH2 0x98B PUSH1 0x4 DUP1 CALLDATASIZE SUB DUP2 ADD SWAP1 PUSH2 0x986 SWAP2 SWAP1 PUSH2 0x45EF JUMP JUMPDEST PUSH2 0x2DB0 JUMP JUMPDEST STOP JUMPDEST CALLVALUE DUP1 ISZERO PUSH2 0x999 JUMPI PUSH1 0x0 DUP1 REVERT JUMPDEST POP PUSH2 0x9A2 PUSH2 0x2E04 JUMP JUMPDEST PUSH1 0x40 MLOAD PUSH2 0x9AF SWAP2 SWAP1 PUSH2 0x5196 JUMP JUMPDEST PUSH1 0x40 MLOAD DUP1 SWAP2 SUB SWAP1 RETURN JUMPDEST CALLVALUE DUP1 ISZERO PUSH2 0x9C4 JUMPI PUSH1 0x0 DUP1 REVERT JUMPDEST POP PUSH2 0x9CD PUSH2 0x2E0A JUMP JUMPDEST PUSH1 0x40 MLOAD PUSH2 0x9DA SWAP2 SWAP1 PUSH2 0x5196 JUMP JUMPDEST PUSH1 0x40 MLOAD DUP1 SWAP2 SUB SWAP1 RETURN JUMPDEST CALLVALUE DUP1 ISZERO PUSH2 0x9EF JUMPI PUSH1 0x0 DUP1 REVERT JUMPDEST POP PUSH2 0xA0A PUSH1 0x4 DUP1 CALLDATASIZE SUB DUP2 ADD SWAP1 PUSH2 0xA05 SWAP2 SWAP1 PUSH2 0x43F2 JUMP JUMPDEST PUSH2 0x2EB1 JUMP JUMPDEST PUSH1 0x40 MLOAD PUSH2 0xA17 SWAP2 SWAP1 PUSH2 0x5196 JUMP JUMPDEST PUSH1 0x40 MLOAD DUP1 SWAP2 SUB SWAP1 RETURN JUMPDEST CALLVALUE DUP1 ISZERO PUSH2 0xA2C JUMPI PUSH1 0x0 DUP1 REVERT JUMPDEST POP PUSH2 0xA47 PUSH1 0x4 DUP1 CALLDATASIZE SUB DUP2 ADD SWAP1 PUSH2 0xA42 SWAP2 SWAP1 PUSH2 0x43F2 JUMP JUMPDEST PUSH2 0x2FBC JUMP JUMPDEST PUSH1 0x40 MLOAD PUSH2 0xA54 SWAP2 SWAP1 PUSH2 0x5196 JUMP JUMPDEST PUSH1 0x40 MLOAD DUP1 SWAP2 SUB SWAP1 RETURN JUMPDEST CALLVALUE DUP1 ISZERO PUSH2 0xA69 JUMPI PUSH1 0x0 DUP1 REVERT JUMPDEST POP PUSH2 0xA72 PUSH2 0x2FD4 JUMP JUMPDEST PUSH1 0x40 MLOAD PUSH2 0xA7F SWAP2 SWAP1 PUSH2 0x5196 JUMP JUMPDEST PUSH1 0x40 MLOAD DUP1 SWAP2 SUB SWAP1 RETURN JUMPDEST CALLVALUE DUP1 ISZERO PUSH2 0xA94 JUMPI PUSH1 0x0 DUP1 REVERT JUMPDEST POP PUSH2 0xA9D PUSH2 0x2FDA JUMP JUMPDEST PUSH1 0x40 MLOAD PUSH2 0xAAA SWAP2 SWAP1 PUSH2 0x4C6B JUMP JUMPDEST PUSH1 0x40 MLOAD DUP1 SWAP2 SUB SWAP1 RETURN JUMPDEST CALLVALUE DUP1 ISZERO PUSH2 0xABF JUMPI PUSH1 0x0 DUP1 REVERT JUMPDEST POP PUSH2 0xAC8 PUSH2 0x3000 JUMP JUMPDEST PUSH1 0x40 MLOAD PUSH2 0xAD5 SWAP2 SWAP1 PUSH2 0x5196 JUMP JUMPDEST PUSH1 0x40 MLOAD DUP1 SWAP2 SUB SWAP1 RETURN JUMPDEST CALLVALUE DUP1 ISZERO PUSH2 0xAEA JUMPI PUSH1 0x0 DUP1 REVERT JUMPDEST POP PUSH2 0xAF3 PUSH2 0x3006 JUMP JUMPDEST PUSH1 0x40 MLOAD PUSH2 0xB06 SWAP8 SWAP7 SWAP6 SWAP5 SWAP4 SWAP3 SWAP2 SWAP1 PUSH2 0x4CD8 JUMP JUMPDEST PUSH1 0x40 MLOAD DUP1 SWAP2 SUB SWAP1 RETURN JUMPDEST CALLVALUE DUP1 ISZERO PUSH2 0xB1B JUMPI PUSH1 0x0 DUP1 REVERT JUMPDEST POP PUSH2 0xB24 PUSH2 0x3063 JUMP JUMPDEST PUSH1 0x40 MLOAD PUSH2 0xB31 SWAP2 SWAP1 PUSH2 0x5196 JUMP JUMPDEST PUSH1 0x40 MLOAD DUP1 SWAP2 SUB SWAP1 RETURN JUMPDEST CALLVALUE DUP1 ISZERO PUSH2 0xB46 JUMPI PUSH1 0x0 DUP1 REVERT JUMPDEST POP PUSH2 0xB61 PUSH1 0x4 DUP1 CALLDATASIZE SUB DUP2 ADD SWAP1 PUSH2 0xB5C SWAP2 SWAP1 PUSH2 0x45B3 JUMP JUMPDEST PUSH2 0x3069 JUMP JUMPDEST STOP JUMPDEST CALLVALUE DUP1 ISZERO PUSH2 0xB6F JUMPI PUSH1 0x0 DUP1 REVERT JUMPDEST POP PUSH2 0xB78 PUSH2 0x3083 JUMP JUMPDEST STOP JUMPDEST CALLVALUE DUP1 ISZERO PUSH2 0xB86 JUMPI PUSH1 0x0 DUP1 REVERT JUMPDEST POP PUSH2 0xBA1 PUSH1 0x4 DUP1 CALLDATASIZE SUB DUP2 ADD SWAP1 PUSH2 0xB9C SWAP2 SWAP1 PUSH2 0x441B JUMP JUMPDEST PUSH2 0x30B7 JUMP JUMPDEST STOP JUMPDEST CALLVALUE DUP1 ISZERO PUSH2 0xBAF JUMPI PUSH1 0x0 DUP1 REVERT JUMPDEST POP PUSH2 0xBB8 PUSH2 0x3173 JUMP JUMPDEST PUSH1 0x40 MLOAD PUSH2 0xBC5 SWAP2 SWAP1 PUSH2 0x5196 JUMP JUMPDEST PUSH1 0x40 MLOAD DUP1 SWAP2 SUB SWAP1 RETURN JUMPDEST CALLVALUE DUP1 ISZERO PUSH2 0xBDA JUMPI PUSH1 0x0 DUP1 REVERT JUMPDEST POP PUSH2 0xBE3 PUSH2 0x321F JUMP JUMPDEST PUSH1 0x40 MLOAD PUSH2 0xBF0 SWAP2 SWAP1 PUSH2 0x5196 JUMP JUMPDEST PUSH1 0x40 MLOAD DUP1 SWAP2 SUB SWAP1 RETURN JUMPDEST CALLVALUE DUP1 ISZERO PUSH2 0xC05 JUMPI PUSH1 0x0 DUP1 REVERT JUMPDEST POP PUSH2 0xC0E PUSH2 0x3225 JUMP JUMPDEST PUSH1 0x40 MLOAD PUSH2 0xC1B SWAP2 SWAP1 PUSH2 0x5196 JUMP JUMPDEST PUSH1 0x40 MLOAD DUP1 SWAP2 SUB SWAP1 RETURN JUMPDEST CALLVALUE DUP1 ISZERO PUSH2 0xC30 JUMPI PUSH1 0x0 DUP1 REVERT JUMPDEST POP PUSH2 0xC4B PUSH1 0x4 DUP1 CALLDATASIZE SUB DUP2 ADD SWAP1 PUSH2 0xC46 SWAP2 SWAP1 PUSH2 0x441B JUMP JUMPDEST PUSH2 0x322B JUMP JUMPDEST STOP JUMPDEST CALLVALUE DUP1 ISZERO PUSH2 0xC59 JUMPI PUSH1 0x0 DUP1 REVERT JUMPDEST POP PUSH2 0xC62 PUSH2 0x32E7 JUMP JUMPDEST STOP JUMPDEST CALLVALUE DUP1 ISZERO PUSH2 0xC70 JUMPI PUSH1 0x0 DUP1 REVERT JUMPDEST POP PUSH2 0xC79 PUSH2 0x3582 JUMP JUMPDEST PUSH1 0x40 MLOAD PUSH2 0xC86 SWAP2 SWAP1 PUSH2 0x5196 JUMP JUMPDEST PUSH1 0x40 MLOAD DUP1 SWAP2 SUB SWAP1 RETURN JUMPDEST CALLVALUE DUP1 ISZERO PUSH2 0xC9B JUMPI PUSH1 0x0 DUP1 REVERT JUMPDEST POP PUSH2 0xCB6 PUSH1 0x4 DUP1 CALLDATASIZE SUB DUP2 ADD SWAP1 PUSH2 0xCB1 SWAP2 SWAP1 PUSH2 0x43F2 JUMP JUMPDEST PUSH2 0x363B JUMP JUMPDEST STOP JUMPDEST CALLVALUE DUP1 ISZERO PUSH2 0xCC4 JUMPI PUSH1 0x0 DUP1 REVERT JUMPDEST POP PUSH2 0xCCD PUSH2 0x36BF JUMP JUMPDEST PUSH1 0x40 MLOAD PUSH2 0xCDA SWAP2 SWAP1 PUSH2 0x4DE3 JUMP JUMPDEST PUSH1 0x40 MLOAD DUP1 SWAP2 SUB SWAP1 RETURN JUMPDEST CALLVALUE DUP1 ISZERO PUSH2 0xCEF JUMPI PUSH1 0x0 DUP1 REVERT JUMPDEST POP PUSH2 0xD0A PUSH1 0x4 DUP1 CALLDATASIZE SUB DUP2 ADD SWAP1 PUSH2 0xD05 SWAP2 SWAP1 PUSH2 0x4561 JUMP JUMPDEST PUSH2 0x36E5 JUMP JUMPDEST PUSH1 0x40 MLOAD PUSH2 0xD17 SWAP2 SWAP1 PUSH2 0x4C6B JUMP JUMPDEST PUSH1 0x40 MLOAD DUP1 SWAP2 SUB SWAP1 RETURN JUMPDEST PUSH1 0xA3 SLOAD DUP2 JUMP JUMPDEST PUSH1 0x0 DUP1 PUSH1 0x1 SWAP1 SLOAD SWAP1 PUSH2 0x100 EXP SWAP1 DIV PUSH1 0xFF AND ISZERO SWAP1 POP DUP1 DUP1 ISZERO PUSH2 0xD57 JUMPI POP PUSH1 0x1 PUSH1 0x0 DUP1 SLOAD SWAP1 PUSH2 0x100 EXP SWAP1 DIV PUSH1 0xFF AND PUSH1 0xFF AND LT JUMPDEST DUP1 PUSH2 0xD84 JUMPI POP PUSH2 0xD66 ADDRESS PUSH2 0x3724 JUMP JUMPDEST ISZERO DUP1 ISZERO PUSH2 0xD83 JUMPI POP PUSH1 0x1 PUSH1 0x0 DUP1 SLOAD SWAP1 PUSH2 0x100 EXP SWAP1 DIV PUSH1 0xFF AND PUSH1 0xFF AND EQ JUMPDEST JUMPDEST PUSH2 0xDC3 JUMPI PUSH1 0x40 MLOAD PUSH32 0x8C379A000000000000000000000000000000000000000000000000000000000 DUP2 MSTORE PUSH1 0x4 ADD PUSH2 0xDBA SWAP1 PUSH2 0x4FF6 JUMP JUMPDEST PUSH1 0x40 MLOAD DUP1 SWAP2 SUB SWAP1 REVERT JUMPDEST PUSH1 0x1 PUSH1 0x0 DUP1 PUSH2 0x100 EXP DUP2 SLOAD DUP2 PUSH1 0xFF MUL NOT AND SWAP1 DUP4 PUSH1 0xFF AND MUL OR SWAP1 SSTORE POP DUP1 ISZERO PUSH2 0xE00 JUMPI PUSH1 0x1 PUSH1 0x0 PUSH1 0x1 PUSH2 0x100 EXP DUP2 SLOAD DUP2 PUSH1 0xFF MUL NOT AND SWAP1 DUP4 ISZERO ISZERO MUL OR SWAP1 SSTORE POP JUMPDEST PUSH2 0xE08 PUSH2 0x3747 JUMP JUMPDEST DUP4 PUSH1 0xA5 PUSH1 0x0 PUSH2 0x100 EXP DUP2 SLOAD DUP2 PUSH20 0xFFFFFFFFFFFFFFFFFFFFFFFFFFFFFFFFFFFFFFFF MUL NOT AND SWAP1 DUP4 PUSH20 0xFFFFFFFFFFFFFFFFFFFFFFFFFFFFFFFFFFFFFFFF AND MUL OR SWAP1 SSTORE POP DUP3 PUSH1 0xA6 PUSH1 0x0 PUSH2 0x100 EXP DUP2 SLOAD DUP2 PUSH20 0xFFFFFFFFFFFFFFFFFFFFFFFFFFFFFFFFFFFFFFFF MUL NOT AND SWAP1 DUP4 PUSH20 0xFFFFFFFFFFFFFFFFFFFFFFFFFFFFFFFFFFFFFFFF AND MUL OR SWAP1 SSTORE POP DUP2 PUSH1 0xA7 PUSH1 0x0 PUSH2 0x100 EXP DUP2 SLOAD DUP2 PUSH20 0xFFFFFFFFFFFFFFFFFFFFFFFFFFFFFFFFFFFFFFFF MUL NOT AND SWAP1 DUP4 PUSH20 0xFFFFFFFFFFFFFFFFFFFFFFFFFFFFFFFFFFFFFFFF AND MUL OR SWAP1 SSTORE POP DUP6 PUSH1 0x97 PUSH1 0x0 PUSH2 0x100 EXP DUP2 SLOAD DUP2 PUSH20 0xFFFFFFFFFFFFFFFFFFFFFFFFFFFFFFFFFFFFFFFF MUL NOT AND SWAP1 DUP4 PUSH20 0xFFFFFFFFFFFFFFFFFFFFFFFFFFFFFFFFFFFFFFFF AND MUL OR SWAP1 SSTORE POP DUP5 PUSH1 0x98 PUSH1 0x0 PUSH2 0x100 EXP DUP2 SLOAD DUP2 PUSH20 0xFFFFFFFFFFFFFFFFFFFFFFFFFFFFFFFFFFFFFFFF MUL NOT AND SWAP1 DUP4 PUSH20 0xFFFFFFFFFFFFFFFFFFFFFFFFFFFFFFFFFFFFFFFF AND MUL OR SWAP1 SSTORE POP PUSH1 0x40 MLOAD DUP1 PUSH1 0xE0 ADD PUSH1 0x40 MSTORE DUP1 ADDRESS PUSH20 0xFFFFFFFFFFFFFFFFFFFFFFFFFFFFFFFFFFFFFFFF AND DUP2 MSTORE PUSH1 0x20 ADD PUSH3 0x93A80 DUP2 MSTORE PUSH1 0x20 ADD TIMESTAMP DUP2 MSTORE PUSH1 0x20 ADD PUSH3 0xED4E00 DUP2 MSTORE PUSH1 0x20 ADD PUSH3 0x93A80 DUP2 MSTORE PUSH1 0x20 ADD PUSH1 0x1 ISZERO ISZERO DUP2 MSTORE PUSH1 0x20 ADD PUSH1 0x9D SLOAD DUP2 MSTORE POP PUSH1 0xB1 PUSH1 0x0 DUP3 ADD MLOAD DUP2 PUSH1 0x0 ADD PUSH1 0x0 PUSH2 0x100 EXP DUP2 SLOAD DUP2 PUSH20 0xFFFFFFFFFFFFFFFFFFFFFFFFFFFFFFFFFFFFFFFF MUL NOT AND SWAP1 DUP4 PUSH20 0xFFFFFFFFFFFFFFFFFFFFFFFFFFFFFFFFFFFFFFFF AND MUL OR SWAP1 SSTORE POP PUSH1 0x20 DUP3 ADD MLOAD DUP2 PUSH1 0x1 ADD SSTORE PUSH1 0x40 DUP3 ADD MLOAD DUP2 PUSH1 0x2 ADD SSTORE PUSH1 0x60 DUP3 ADD MLOAD DUP2 PUSH1 0x3 ADD SSTORE PUSH1 0x80 DUP3 ADD MLOAD DUP2 PUSH1 0x4 ADD SSTORE PUSH1 0xA0 DUP3 ADD MLOAD DUP2 PUSH1 0x5 ADD PUSH1 0x0 PUSH2 0x100 EXP DUP2 SLOAD DUP2 PUSH1 0xFF MUL NOT AND SWAP1 DUP4 ISZERO ISZERO MUL OR SWAP1 SSTORE POP PUSH1 0xC0 DUP3 ADD MLOAD DUP2 PUSH1 0x6 ADD SSTORE SWAP1 POP POP PUSH1 0xA7 PUSH1 0x0 SWAP1 SLOAD SWAP1 PUSH2 0x100 EXP SWAP1 DIV PUSH20 0xFFFFFFFFFFFFFFFFFFFFFFFFFFFFFFFFFFFFFFFF AND PUSH20 0xFFFFFFFFFFFFFFFFFFFFFFFFFFFFFFFFFFFFFFFF AND PUSH4 0xDB62B201 PUSH1 0x40 MLOAD DUP2 PUSH4 0xFFFFFFFF AND PUSH1 0xE0 SHL DUP2 MSTORE PUSH1 0x4 ADD PUSH1 0x20 PUSH1 0x40 MLOAD DUP1 DUP4 SUB DUP2 DUP7 DUP1 EXTCODESIZE ISZERO DUP1 ISZERO PUSH2 0x10AA JUMPI PUSH1 0x0 DUP1 REVERT JUMPDEST POP GAS STATICCALL ISZERO DUP1 ISZERO PUSH2 0x10BE JUMPI RETURNDATASIZE PUSH1 0x0 DUP1 RETURNDATACOPY RETURNDATASIZE PUSH1 0x0 REVERT JUMPDEST POP POP POP POP PUSH1 0x40 MLOAD RETURNDATASIZE PUSH1 0x1F NOT PUSH1 0x1F DUP3 ADD AND DUP3 ADD DUP1 PUSH1 0x40 MSTORE POP DUP2 ADD SWAP1 PUSH2 0x10E2 SWAP2 SWAP1 PUSH2 0x458A JUMP JUMPDEST PUSH1 0x9E DUP2 SWAP1 SSTORE POP PUSH1 0x1 PUSH2 0x10F2 PUSH2 0x2E0A JUMP JUMPDEST PUSH2 0x10FC SWAP2 SWAP1 PUSH2 0x5411 JUMP JUMPDEST PUSH1 0x9F DUP2 SWAP1 SSTORE POP PUSH2 0x110A PUSH2 0x2E0A JUMP JUMPDEST PUSH1 0xA2 DUP2 SWAP1 SSTORE POP PUSH2 0x111A PUSH1 0x5 PUSH2 0x1D1A JUMP JUMPDEST DUP1 ISZERO PUSH2 0x1173 JUMPI PUSH1 0x0 DUP1 PUSH1 0x1 PUSH2 0x100 EXP DUP2 SLOAD DUP2 PUSH1 0xFF MUL NOT AND SWAP1 DUP4 ISZERO ISZERO MUL OR SWAP1 SSTORE POP PUSH32 0x7F26B83FF96E1F2B6A682F133852F6798A09C465DA95921460CEFB3847402498 PUSH1 0x1 PUSH1 0x40 MLOAD PUSH2 0x116A SWAP2 SWAP1 PUSH2 0x4E19 JUMP JUMPDEST PUSH1 0x40 MLOAD DUP1 SWAP2 SUB SWAP1 LOG1 JUMPDEST POP POP POP POP POP POP JUMP JUMPDEST PUSH1 0xAA PUSH1 0x20 MSTORE DUP1 PUSH1 0x0 MSTORE PUSH1 0x40 PUSH1 0x0 KECCAK256 PUSH1 0x0 SWAP2 POP SWAP1 POP SLOAD DUP2 JUMP JUMPDEST PUSH2 0x119B PUSH2 0x37A0 JUMP JUMPDEST DUP1 PUSH1 0x9D DUP2 SWAP1 SSTORE POP POP JUMP JUMPDEST PUSH1 0x9E SLOAD DUP2 JUMP JUMPDEST PUSH2 0x11B3 PUSH2 0x37A0 JUMP JUMPDEST DUP1 PUSH1 0xB1 PUSH1 0x3 ADD DUP2 SWAP1 SSTORE POP POP JUMP JUMPDEST PUSH1 0x9D SLOAD DUP2 JUMP JUMPDEST PUSH1 0x0 PUSH1 0xA5 PUSH1 0x0 SWAP1 SLOAD SWAP1 PUSH2 0x100 EXP SWAP1 DIV PUSH20 0xFFFFFFFFFFFFFFFFFFFFFFFFFFFFFFFFFFFFFFFF AND PUSH20 0xFFFFFFFFFFFFFFFFFFFFFFFFFFFFFFFFFFFFFFFF AND PUSH4 0x70A08231 CALLER PUSH1 0x40 MLOAD DUP3 PUSH4 0xFFFFFFFF AND PUSH1 0xE0 SHL DUP2 MSTORE PUSH1 0x4 ADD PUSH2 0x1223 SWAP2 SWAP1 PUSH2 0x4C6B JUMP JUMPDEST PUSH1 0x20 PUSH1 0x40 MLOAD DUP1 DUP4 SUB DUP2 DUP7 DUP1 EXTCODESIZE ISZERO DUP1 ISZERO PUSH2 0x123B JUMPI PUSH1 0x0 DUP1 REVERT JUMPDEST POP GAS STATICCALL ISZERO DUP1 ISZERO PUSH2 0x124F JUMPI RETURNDATASIZE PUSH1 0x0 DUP1 RETURNDATACOPY RETURNDATASIZE PUSH1 0x0 REVERT JUMPDEST POP POP POP POP PUSH1 0x40 MLOAD RETURNDATASIZE PUSH1 0x1F NOT PUSH1 0x1F DUP3 ADD AND DUP3 ADD DUP1 PUSH1 0x40 MSTORE POP DUP2 ADD SWAP1 PUSH2 0x1273 SWAP2 SWAP1 PUSH2 0x458A JUMP JUMPDEST SWAP1 POP PUSH1 0x0 DUP2 GT PUSH2 0x12B8 JUMPI PUSH1 0x40 MLOAD PUSH32 0x8C379A000000000000000000000000000000000000000000000000000000000 DUP2 MSTORE PUSH1 0x4 ADD PUSH2 0x12AF SWAP1 PUSH2 0x50F6 JUMP JUMPDEST PUSH1 0x40 MLOAD DUP1 SWAP2 SUB SWAP1 REVERT JUMPDEST PUSH1 0x0 PUSH1 0x9A SLOAD EQ ISZERO PUSH2 0x12FE JUMPI PUSH1 0x40 MLOAD PUSH32 0x8C379A000000000000000000000000000000000000000000000000000000000 DUP2 MSTORE PUSH1 0x4 ADD PUSH2 0x12F5 SWAP1 PUSH2 0x4E56 JUMP JUMPDEST PUSH1 0x40 MLOAD DUP1 SWAP2 SUB SWAP1 REVERT JUMPDEST TIMESTAMP PUSH1 0xB1 PUSH1 0x3 ADD SLOAD PUSH1 0x9A SLOAD PUSH2 0x1312 SWAP2 SWAP1 PUSH2 0x52B4 JUMP JUMPDEST GT ISZERO PUSH2 0x1353 JUMPI PUSH1 0x40 MLOAD PUSH32 0x8C379A000000000000000000000000000000000000000000000000000000000 DUP2 MSTORE PUSH1 0x4 ADD PUSH2 0x134A SWAP1 PUSH2 0x4E96 JUMP JUMPDEST PUSH1 0x40 MLOAD DUP1 SWAP2 SUB SWAP1 REVERT JUMPDEST PUSH1 0x0 PUSH2 0x135D PUSH2 0x2E0A JUMP JUMPDEST SWAP1 POP DUP2 PUSH1 0xA0 PUSH1 0x0 DUP3 DUP3 SLOAD PUSH2 0x1371 SWAP2 SWAP1 PUSH2 0x52B4 JUMP JUMPDEST SWAP3 POP POP DUP2 SWAP1 SSTORE POP DUP2 PUSH1 0x99 PUSH1 0x0 DUP3 DUP3 SLOAD PUSH2 0x138A SWAP2 SWAP1 PUSH2 0x5411 JUMP JUMPDEST SWAP3 POP POP DUP2 SWAP1 SSTORE POP DUP2 PUSH1 0xA5 PUSH1 0x0 SWAP1 SLOAD SWAP1 PUSH2 0x100 EXP SWAP1 DIV PUSH20 0xFFFFFFFFFFFFFFFFFFFFFFFFFFFFFFFFFFFFFFFF AND PUSH20 0xFFFFFFFFFFFFFFFFFFFFFFFFFFFFFFFFFFFFFFFF AND PUSH4 0x70A08231 CALLER PUSH1 0x40 MLOAD DUP3 PUSH4 0xFFFFFFFF AND PUSH1 0xE0 SHL DUP2 MSTORE PUSH1 0x4 ADD PUSH2 0x13ED SWAP2 SWAP1 PUSH2 0x4C6B JUMP JUMPDEST PUSH1 0x20 PUSH1 0x40 MLOAD DUP1 DUP4 SUB DUP2 DUP7 DUP1 EXTCODESIZE ISZERO DUP1 ISZERO PUSH2 0x1405 JUMPI PUSH1 0x0 DUP1 REVERT JUMPDEST POP GAS STATICCALL ISZERO DUP1 ISZERO PUSH2 0x1419 JUMPI RETURNDATASIZE PUSH1 0x0 DUP1 RETURNDATACOPY RETURNDATASIZE PUSH1 0x0 REVERT JUMPDEST POP POP POP POP PUSH1 0x40 MLOAD RETURNDATASIZE PUSH1 0x1F NOT PUSH1 0x1F DUP3 ADD AND DUP3 ADD DUP1 PUSH1 0x40 MSTORE POP DUP2 ADD SWAP1 PUSH2 0x143D SWAP2 SWAP1 PUSH2 0x458A JUMP JUMPDEST LT ISZERO PUSH2 0x147E JUMPI PUSH1 0x40 MLOAD PUSH32 0x8C379A000000000000000000000000000000000000000000000000000000000 DUP2 MSTORE PUSH1 0x4 ADD PUSH2 0x1475 SWAP1 PUSH2 0x5016 JUMP JUMPDEST PUSH1 0x40 MLOAD DUP1 SWAP2 SUB SWAP1 REVERT JUMPDEST PUSH1 0xA5 PUSH1 0x0 SWAP1 SLOAD SWAP1 PUSH2 0x100 EXP SWAP1 DIV PUSH20 0xFFFFFFFFFFFFFFFFFFFFFFFFFFFFFFFFFFFFFFFF AND PUSH20 0xFFFFFFFFFFFFFFFFFFFFFFFFFFFFFFFFFFFFFFFF AND PUSH4 0x9DC29FAC CALLER DUP5 PUSH1 0x40 MLOAD DUP4 PUSH4 0xFFFFFFFF AND PUSH1 0xE0 SHL DUP2 MSTORE PUSH1 0x4 ADD PUSH2 0x14DB SWAP3 SWAP2 SWAP1 PUSH2 0x4CAF JUMP JUMPDEST PUSH1 0x20 PUSH1 0x40 MLOAD DUP1 DUP4 SUB DUP2 PUSH1 0x0 DUP8 DUP1 EXTCODESIZE ISZERO DUP1 ISZERO PUSH2 0x14F5 JUMPI PUSH1 0x0 DUP1 REVERT JUMPDEST POP GAS CALL ISZERO DUP1 ISZERO PUSH2 0x1509 JUMPI RETURNDATASIZE PUSH1 0x0 DUP1 RETURNDATACOPY RETURNDATASIZE PUSH1 0x0 REVERT JUMPDEST POP POP POP POP PUSH1 0x40 MLOAD RETURNDATASIZE PUSH1 0x1F NOT PUSH1 0x1F DUP3 ADD AND DUP3 ADD DUP1 PUSH1 0x40 MSTORE POP DUP2 ADD SWAP1 PUSH2 0x152D SWAP2 SWAP1 PUSH2 0x4457 JUMP JUMPDEST POP PUSH1 0x0 PUSH1 0xA DUP3 PUSH2 0x153D SWAP2 SWAP1 PUSH2 0x5377 JUMP JUMPDEST PUSH1 0x4 PUSH1 0xA PUSH1 0x9E SLOAD PUSH2 0x154E SWAP2 SWAP1 PUSH2 0x5377 JUMP JUMPDEST PUSH2 0x1558 SWAP2 SWAP1 PUSH2 0x5346 JUMP JUMPDEST PUSH1 0xA PUSH1 0x9F SLOAD PUSH2 0x1567 SWAP2 SWAP1 PUSH2 0x5377 JUMP JUMPDEST PUSH2 0x1571 SWAP2 SWAP1 PUSH2 0x52B4 JUMP JUMPDEST GT ISZERO PUSH2 0x15C5 JUMPI PUSH1 0xA DUP3 PUSH2 0x1584 SWAP2 SWAP1 PUSH2 0x5377 JUMP JUMPDEST PUSH1 0x4 PUSH1 0xA PUSH1 0x9E SLOAD PUSH2 0x1595 SWAP2 SWAP1 PUSH2 0x5377 JUMP JUMPDEST PUSH2 0x159F SWAP2 SWAP1 PUSH2 0x5346 JUMP JUMPDEST PUSH1 0xA PUSH1 0x9F SLOAD PUSH2 0x15AE SWAP2 SWAP1 PUSH2 0x5377 JUMP JUMPDEST PUSH2 0x15B8 SWAP2 SWAP1 PUSH2 0x52B4 JUMP JUMPDEST PUSH2 0x15C2 SWAP2 SWAP1 PUSH2 0x5411 JUMP JUMPDEST SWAP1 POP JUMPDEST PUSH1 0xAC PUSH1 0x0 CALLER PUSH20 0xFFFFFFFFFFFFFFFFFFFFFFFFFFFFFFFFFFFFFFFF AND PUSH20 0xFFFFFFFFFFFFFFFFFFFFFFFFFFFFFFFFFFFFFFFF AND DUP2 MSTORE PUSH1 0x20 ADD SWAP1 DUP2 MSTORE PUSH1 0x20 ADD PUSH1 0x0 KECCAK256 PUSH1 0x40 MLOAD DUP1 PUSH1 0x60 ADD PUSH1 0x40 MSTORE DUP1 DUP6 DUP2 MSTORE PUSH1 0x20 ADD DUP5 DUP2 MSTORE PUSH1 0x20 ADD DUP4 DUP2 MSTORE POP SWAP1 DUP1 PUSH1 0x1 DUP2 SLOAD ADD DUP1 DUP3 SSTORE DUP1 SWAP2 POP POP PUSH1 0x1 SWAP1 SUB SWAP1 PUSH1 0x0 MSTORE PUSH1 0x20 PUSH1 0x0 KECCAK256 SWAP1 PUSH1 0x3 MUL ADD PUSH1 0x0 SWAP1 SWAP2 SWAP1 SWAP2 SWAP1 SWAP2 POP PUSH1 0x0 DUP3 ADD MLOAD DUP2 PUSH1 0x0 ADD SSTORE PUSH1 0x20 DUP3 ADD MLOAD DUP2 PUSH1 0x1 ADD SSTORE PUSH1 0x40 DUP3 ADD MLOAD DUP2 PUSH1 0x2 ADD SSTORE POP POP PUSH2 0x1670 PUSH2 0x381E JUMP JUMPDEST DUP2 DUP4 CALLER PUSH20 0xFFFFFFFFFFFFFFFFFFFFFFFFFFFFFFFFFFFFFFFF AND PUSH32 0xF960DBF9E5D0682F7A298ED974E33A28B4464914B7A2BFAC12AE419A9AFEB280 PUSH1 0x40 MLOAD PUSH1 0x40 MLOAD DUP1 SWAP2 SUB SWAP1 LOG4 POP POP POP JUMP JUMPDEST PUSH2 0x16CA PUSH2 0x16C5 PUSH2 0x2E0A JUMP JUMPDEST PUSH2 0x3A24 JUMP JUMPDEST PUSH1 0x0 PUSH1 0xAC PUSH1 0x0 CALLER PUSH20 0xFFFFFFFFFFFFFFFFFFFFFFFFFFFFFFFFFFFFFFFF AND PUSH20 0xFFFFFFFFFFFFFFFFFFFFFFFFFFFFFFFFFFFFFFFF AND DUP2 MSTORE PUSH1 0x20 ADD SWAP1 DUP2 MSTORE PUSH1 0x20 ADD PUSH1 0x0 KECCAK256 DUP3 DUP2 SLOAD DUP2 LT PUSH2 0x1743 JUMPI PUSH32 0x4E487B7100000000000000000000000000000000000000000000000000000000 PUSH1 0x0 MSTORE PUSH1 0x32 PUSH1 0x4 MSTORE PUSH1 0x24 PUSH1 0x0 REVERT JUMPDEST SWAP1 PUSH1 0x0 MSTORE PUSH1 0x20 PUSH1 0x0 KECCAK256 SWAP1 PUSH1 0x3 MUL ADD SWAP1 POP PUSH1 0x0 DUP2 PUSH1 0x0 ADD SLOAD SWAP1 POP PUSH1 0x0 DUP3 PUSH1 0x1 ADD SLOAD EQ ISZERO PUSH2 0x17A4 JUMPI PUSH1 0x40 MLOAD PUSH32 0x8C379A000000000000000000000000000000000000000000000000000000000 DUP2 MSTORE PUSH1 0x4 ADD PUSH2 0x179B SWAP1 PUSH2 0x50B6 JUMP JUMPDEST PUSH1 0x40 MLOAD DUP1 SWAP2 SUB SWAP1 REVERT JUMPDEST DUP2 PUSH1 0x2 ADD SLOAD PUSH1 0xA PUSH1 0x9E SLOAD PUSH2 0x17B8 SWAP2 SWAP1 PUSH2 0x5377 JUMP JUMPDEST PUSH2 0x17C2 SWAP2 SWAP1 PUSH2 0x52B4 JUMP JUMPDEST PUSH1 0xA DUP4 PUSH1 0x1 ADD SLOAD PUSH2 0x17D3 SWAP2 SWAP1 PUSH2 0x5377 JUMP JUMPDEST PUSH1 0xA PUSH2 0x17DD PUSH2 0x2E0A JUMP JUMPDEST PUSH2 0x17E7 SWAP2 SWAP1 PUSH2 0x5377 JUMP JUMPDEST PUSH2 0x17F1 SWAP2 SWAP1 PUSH2 0x5411 JUMP JUMPDEST LT ISZERO PUSH2 0x1832 JUMPI PUSH1 0x40 MLOAD PUSH32 0x8C379A000000000000000000000000000000000000000000000000000000000 DUP2 MSTORE PUSH1 0x4 ADD PUSH2 0x1829 SWAP1 PUSH2 0x4FD6 JUMP JUMPDEST PUSH1 0x40 MLOAD DUP1 SWAP2 SUB SWAP1 REVERT JUMPDEST DUP1 PUSH1 0xA1 SLOAD LT ISZERO PUSH2 0x1877 JUMPI PUSH1 0x40 MLOAD PUSH32 0x8C379A000000000000000000000000000000000000000000000000000000000 DUP2 MSTORE PUSH1 0x4 ADD PUSH2 0x186E SWAP1 PUSH2 0x5036 JUMP JUMPDEST PUSH1 0x40 MLOAD DUP1 SWAP2 SUB SWAP1 REVERT JUMPDEST DUP1 PUSH1 0xA1 PUSH1 0x0 DUP3 DUP3 SLOAD PUSH2 0x1889 SWAP2 SWAP1 PUSH2 0x5411 JUMP JUMPDEST SWAP3 POP POP DUP2 SWAP1 SSTORE POP PUSH1 0x0 DUP3 PUSH1 0x1 ADD DUP2 SWAP1 SSTORE POP PUSH2 0x18C3 DUP2 CALLER PUSH20 0xFFFFFFFFFFFFFFFFFFFFFFFFFFFFFFFFFFFFFFFF AND PUSH2 0x3BD8 SWAP1 SWAP2 SWAP1 PUSH4 0xFFFFFFFF AND JUMP JUMPDEST CALLER PUSH20 0xFFFFFFFFFFFFFFFFFFFFFFFFFFFFFFFFFFFFFFFF AND PUSH32 0x7084F5476618D8E60B11EF0D7D3F06914655ADB8793E28FF7F018D4C76D505D5 DUP3 PUSH1 0x40 MLOAD PUSH2 0x1909 SWAP2 SWAP1 PUSH2 0x5196 JUMP JUMPDEST PUSH1 0x40 MLOAD DUP1 SWAP2 SUB SWAP1 LOG2 POP POP POP JUMP JUMPDEST PUSH1 0xA6 PUSH1 0x0 SWAP1 SLOAD SWAP1 PUSH2 0x100 EXP SWAP1 DIV PUSH20 0xFFFFFFFFFFFFFFFFFFFFFFFFFFFFFFFFFFFFFFFF AND DUP2 JUMP JUMPDEST PUSH1 0xB0 PUSH1 0x20 MSTORE DUP1 PUSH1 0x0 MSTORE PUSH1 0x40 PUSH1 0x0 KECCAK256 PUSH1 0x0 SWAP2 POP SWAP1 POP DUP1 SLOAD PUSH2 0x195B SWAP1 PUSH2 0x55D0 JUMP JUMPDEST DUP1 PUSH1 0x1F ADD PUSH1 0x20 DUP1 SWAP2 DIV MUL PUSH1 0x20 ADD PUSH1 0x40 MLOAD SWAP1 DUP2 ADD PUSH1 0x40 MSTORE DUP1 SWAP3 SWAP2 SWAP1 DUP2 DUP2 MSTORE PUSH1 0x20 ADD DUP3 DUP1 SLOAD PUSH2 0x1987 SWAP1 PUSH2 0x55D0 JUMP JUMPDEST DUP1 ISZERO PUSH2 0x19D4 JUMPI DUP1 PUSH1 0x1F LT PUSH2 0x19A9 JUMPI PUSH2 0x100 DUP1 DUP4 SLOAD DIV MUL DUP4 MSTORE SWAP2 PUSH1 0x20 ADD SWAP2 PUSH2 0x19D4 JUMP JUMPDEST DUP3 ADD SWAP2 SWAP1 PUSH1 0x0 MSTORE PUSH1 0x20 PUSH1 0x0 KECCAK256 SWAP1 JUMPDEST DUP2 SLOAD DUP2 MSTORE SWAP1 PUSH1 0x1 ADD SWAP1 PUSH1 0x20 ADD DUP1 DUP4 GT PUSH2 0x19B7 JUMPI DUP3 SWAP1 SUB PUSH1 0x1F AND DUP3 ADD SWAP2 JUMPDEST POP POP POP POP POP DUP2 JUMP JUMPDEST PUSH2 0x19E4 PUSH2 0x3CCC JUMP JUMPDEST PUSH1 0x0 PUSH2 0x19EF CALLER PUSH2 0x2EB1 JUMP JUMPDEST SWAP1 POP PUSH1 0x0 DUP2 GT PUSH2 0x1A34 JUMPI PUSH1 0x40 MLOAD PUSH32 0x8C379A000000000000000000000000000000000000000000000000000000000 DUP2 MSTORE PUSH1 0x4 ADD PUSH2 0x1A2B SWAP1 PUSH2 0x4E76 JUMP JUMPDEST PUSH1 0x40 MLOAD DUP1 SWAP2 SUB SWAP1 REVERT JUMPDEST PUSH1 0x0 PUSH2 0x1A3E PUSH2 0x3582 JUMP JUMPDEST SWAP1 POP PUSH1 0x0 DUP2 GT ISZERO PUSH2 0x1AE0 JUMPI PUSH1 0x97 PUSH1 0x0 SWAP1 SLOAD SWAP1 PUSH2 0x100 EXP SWAP1 DIV PUSH20 0xFFFFFFFFFFFFFFFFFFFFFFFFFFFFFFFFFFFFFFFF AND PUSH20 0xFFFFFFFFFFFFFFFFFFFFFFFFFFFFFFFFFFFFFFFF AND PUSH4 0x63F44968 PUSH2 0x1A8F PUSH2 0x3D1C JUMP JUMPDEST DUP4 PUSH1 0x40 MLOAD DUP4 PUSH4 0xFFFFFFFF AND PUSH1 0xE0 SHL DUP2 MSTORE PUSH1 0x4 ADD PUSH2 0x1AAD SWAP3 SWAP2 SWAP1 PUSH2 0x4D9F JUMP JUMPDEST PUSH1 0x0 PUSH1 0x40 MLOAD DUP1 DUP4 SUB DUP2 PUSH1 0x0 DUP8 DUP1 EXTCODESIZE ISZERO DUP1 ISZERO PUSH2 0x1AC7 JUMPI PUSH1 0x0 DUP1 REVERT JUMPDEST POP GAS CALL ISZERO DUP1 ISZERO PUSH2 0x1ADB JUMPI RETURNDATASIZE PUSH1 0x0 DUP1 RETURNDATACOPY RETURNDATASIZE PUSH1 0x0 REVERT JUMPDEST POP POP POP POP JUMPDEST PUSH2 0x1AE8 PUSH2 0x3173 JUMP JUMPDEST PUSH1 0xAB PUSH1 0x0 CALLER PUSH20 0xFFFFFFFFFFFFFFFFFFFFFFFFFFFFFFFFFFFFFFFF AND PUSH20 0xFFFFFFFFFFFFFFFFFFFFFFFFFFFFFFFFFFFFFFFF AND DUP2 MSTORE PUSH1 0x20 ADD SWAP1 DUP2 MSTORE PUSH1 0x20 ADD PUSH1 0x0 KECCAK256 DUP2 SWAP1 SSTORE POP PUSH1 0xA6 PUSH1 0x0 SWAP1 SLOAD SWAP1 PUSH2 0x100 EXP SWAP1 DIV PUSH20 0xFFFFFFFFFFFFFFFFFFFFFFFFFFFFFFFFFFFFFFFF AND PUSH20 0xFFFFFFFFFFFFFFFFFFFFFFFFFFFFFFFFFFFFFFFF AND PUSH4 0xA9059CBB CALLER DUP5 PUSH1 0x40 MLOAD DUP4 PUSH4 0xFFFFFFFF AND PUSH1 0xE0 SHL DUP2 MSTORE PUSH1 0x4 ADD PUSH2 0x1B88 SWAP3 SWAP2 SWAP1 PUSH2 0x4CAF JUMP JUMPDEST PUSH1 0x20 PUSH1 0x40 MLOAD DUP1 DUP4 SUB DUP2 PUSH1 0x0 DUP8 DUP1 EXTCODESIZE ISZERO DUP1 ISZERO PUSH2 0x1BA2 JUMPI PUSH1 0x0 DUP1 REVERT JUMPDEST POP GAS CALL ISZERO DUP1 ISZERO PUSH2 0x1BB6 JUMPI RETURNDATASIZE PUSH1 0x0 DUP1 RETURNDATACOPY RETURNDATASIZE PUSH1 0x0 REVERT JUMPDEST POP POP POP POP PUSH1 0x40 MLOAD RETURNDATASIZE PUSH1 0x1F NOT PUSH1 0x1F DUP3 ADD AND DUP3 ADD DUP1 PUSH1 0x40 MSTORE POP DUP2 ADD SWAP1 PUSH2 0x1BDA SWAP2 SWAP1 PUSH2 0x4457 JUMP JUMPDEST POP PUSH32 0x1F89F96333D3133000EE447473151FA9606543368F02271C9D95AE14F13BCC67 CALLER DUP3 PUSH1 0x40 MLOAD PUSH2 0x1C0C SWAP3 SWAP2 SWAP1 PUSH2 0x4CAF JUMP JUMPDEST PUSH1 0x40 MLOAD DUP1 SWAP2 SUB SWAP1 LOG1 POP POP PUSH2 0x1C1E PUSH2 0x3E8B JUMP JUMPDEST JUMP JUMPDEST PUSH1 0x97 PUSH1 0x14 SWAP1 SLOAD SWAP1 PUSH2 0x100 EXP SWAP1 DIV PUSH1 0xFF AND ISZERO PUSH2 0x1C70 JUMPI PUSH1 0x40 MLOAD PUSH32 0x8C379A000000000000000000000000000000000000000000000000000000000 DUP2 MSTORE PUSH1 0x4 ADD PUSH2 0x1C67 SWAP1 PUSH2 0x4FB6 JUMP JUMPDEST PUSH1 0x40 MLOAD DUP1 SWAP2 SUB SWAP1 REVERT JUMPDEST PUSH2 0x1C88 PUSH1 0x40 MLOAD DUP1 PUSH1 0x20 ADD PUSH1 0x40 MSTORE DUP1 PUSH1 0x0 DUP2 MSTORE POP PUSH2 0x1E24 JUMP JUMPDEST JUMP JUMPDEST PUSH1 0xAF DUP2 DUP1 MLOAD PUSH1 0x20 DUP2 ADD DUP3 ADD DUP1 MLOAD DUP5 DUP3 MSTORE PUSH1 0x20 DUP4 ADD PUSH1 0x20 DUP6 ADD KECCAK256 DUP2 DUP4 MSTORE DUP1 SWAP6 POP POP POP POP POP POP PUSH1 0x0 SWAP2 POP SLOAD SWAP1 PUSH2 0x100 EXP SWAP1 DIV PUSH20 0xFFFFFFFFFFFFFFFFFFFFFFFFFFFFFFFFFFFFFFFF AND DUP2 JUMP JUMPDEST PUSH1 0xAC PUSH1 0x20 MSTORE DUP2 PUSH1 0x0 MSTORE PUSH1 0x40 PUSH1 0x0 KECCAK256 DUP2 DUP2 SLOAD DUP2 LT PUSH2 0x1CEF JUMPI PUSH1 0x0 DUP1 REVERT JUMPDEST SWAP1 PUSH1 0x0 MSTORE PUSH1 0x20 PUSH1 0x0 KECCAK256 SWAP1 PUSH1 0x3 MUL ADD PUSH1 0x0 SWAP2 POP SWAP2 POP POP DUP1 PUSH1 0x0 ADD SLOAD SWAP1 DUP1 PUSH1 0x1 ADD SLOAD SWAP1 DUP1 PUSH1 0x2 ADD SLOAD SWAP1 POP DUP4 JUMP JUMPDEST PUSH2 0x1D22 PUSH2 0x37A0 JUMP JUMPDEST DUP1 PUSH1 0xA3 DUP2 SWAP1 SSTORE POP DUP1 CALLER PUSH20 0xFFFFFFFFFFFFFFFFFFFFFFFFFFFFFFFFFFFFFFFF AND PUSH32 0x2858686D6B174BD2EC20E66464DF68F4228DAFA488E5A0B587356271CE26C501 PUSH1 0x40 MLOAD PUSH1 0x40 MLOAD DUP1 SWAP2 SUB SWAP1 LOG3 POP JUMP JUMPDEST PUSH1 0x60 PUSH1 0xA8 DUP1 SLOAD DUP1 PUSH1 0x20 MUL PUSH1 0x20 ADD PUSH1 0x40 MLOAD SWAP1 DUP2 ADD PUSH1 0x40 MSTORE DUP1 SWAP3 SWAP2 SWAP1 DUP2 DUP2 MSTORE PUSH1 0x20 ADD DUP3 DUP1 SLOAD DUP1 ISZERO PUSH2 0x1DF4 JUMPI PUSH1 0x20 MUL DUP3 ADD SWAP2 SWAP1 PUSH1 0x0 MSTORE PUSH1 0x20 PUSH1 0x0 KECCAK256 SWAP1 JUMPDEST DUP2 PUSH1 0x0 SWAP1 SLOAD SWAP1 PUSH2 0x100 EXP SWAP1 DIV PUSH20 0xFFFFFFFFFFFFFFFFFFFFFFFFFFFFFFFFFFFFFFFF AND PUSH20 0xFFFFFFFFFFFFFFFFFFFFFFFFFFFFFFFFFFFFFFFF AND DUP2 MSTORE PUSH1 0x20 ADD SWAP1 PUSH1 0x1 ADD SWAP1 DUP1 DUP4 GT PUSH2 0x1DAA JUMPI JUMPDEST POP POP POP POP POP SWAP1 POP SWAP1 JUMP JUMPDEST PUSH1 0x97 PUSH1 0x0 SWAP1 SLOAD SWAP1 PUSH2 0x100 EXP SWAP1 DIV PUSH20 0xFFFFFFFFFFFFFFFFFFFFFFFFFFFFFFFFFFFFFFFF AND DUP2 JUMP JUMPDEST PUSH1 0x97 PUSH1 0x14 SWAP1 SLOAD SWAP1 PUSH2 0x100 EXP SWAP1 DIV PUSH1 0xFF AND ISZERO PUSH2 0x1E74 JUMPI PUSH1 0x40 MLOAD PUSH32 0x8C379A000000000000000000000000000000000000000000000000000000000 DUP2 MSTORE PUSH1 0x4 ADD PUSH2 0x1E6B SWAP1 PUSH2 0x4FB6 JUMP JUMPDEST PUSH1 0x40 MLOAD DUP1 SWAP2 SUB SWAP1 REVERT JUMPDEST PUSH1 0x0 DUP1 CALLVALUE CALLER SWAP2 POP SWAP2 POP PUSH1 0x9B SLOAD DUP3 LT ISZERO PUSH2 0x1EC2 JUMPI PUSH1 0x40 MLOAD PUSH32 0x8C379A000000000000000000000000000000000000000000000000000000000 DUP2 MSTORE PUSH1 0x4 ADD PUSH2 0x1EB9 SWAP1 PUSH2 0x4F76 JUMP JUMPDEST PUSH1 0x40 MLOAD DUP1 SWAP2 SUB SWAP1 REVERT JUMPDEST PUSH1 0x9C SLOAD DUP3 PUSH1 0x99 SLOAD PUSH2 0x1ED3 SWAP2 SWAP1 PUSH2 0x52B4 JUMP JUMPDEST GT ISZERO PUSH2 0x1F14 JUMPI PUSH1 0x40 MLOAD PUSH32 0x8C379A000000000000000000000000000000000000000000000000000000000 DUP2 MSTORE PUSH1 0x4 ADD PUSH2 0x1F0B SWAP1 PUSH2 0x5156 JUMP JUMPDEST PUSH1 0x40 MLOAD DUP1 SWAP2 SUB SWAP1 REVERT JUMPDEST PUSH1 0xAD PUSH1 0x0 CALLER PUSH20 0xFFFFFFFFFFFFFFFFFFFFFFFFFFFFFFFFFFFFFFFF AND PUSH20 0xFFFFFFFFFFFFFFFFFFFFFFFFFFFFFFFFFFFFFFFF AND DUP2 MSTORE PUSH1 0x20 ADD SWAP1 DUP2 MSTORE PUSH1 0x20 ADD PUSH1 0x0 KECCAK256 PUSH1 0x0 SWAP1 SLOAD SWAP1 PUSH2 0x100 EXP SWAP1 DIV PUSH1 0xFF AND ISZERO PUSH2 0x1FA1 JUMPI PUSH1 0x40 MLOAD PUSH32 0x8C379A000000000000000000000000000000000000000000000000000000000 DUP2 MSTORE PUSH1 0x4 ADD PUSH2 0x1F98 SWAP1 PUSH2 0x4EB6 JUMP JUMPDEST PUSH1 0x40 MLOAD DUP1 SWAP2 SUB SWAP1 REVERT JUMPDEST PUSH1 0x40 MLOAD PUSH1 0x20 ADD PUSH2 0x1FB0 SWAP1 PUSH2 0x4C56 JUMP JUMPDEST PUSH1 0x40 MLOAD PUSH1 0x20 DUP2 DUP4 SUB SUB DUP2 MSTORE SWAP1 PUSH1 0x40 MSTORE DUP1 MLOAD SWAP1 PUSH1 0x20 ADD KECCAK256 DUP4 PUSH1 0x40 MLOAD PUSH1 0x20 ADD PUSH2 0x1FD7 SWAP2 SWAP1 PUSH2 0x4C2A JUMP JUMPDEST PUSH1 0x40 MLOAD PUSH1 0x20 DUP2 DUP4 SUB SUB DUP2 MSTORE SWAP1 PUSH1 0x40 MSTORE DUP1 MLOAD SWAP1 PUSH1 0x20 ADD KECCAK256 EQ PUSH2 0x2141 JUMPI PUSH1 0xAE DUP4 PUSH1 0x40 MLOAD PUSH2 0x2002 SWAP2 SWAP1 PUSH2 0x4C2A JUMP JUMPDEST SWAP1 DUP2 MSTORE PUSH1 0x20 ADD PUSH1 0x40 MLOAD DUP1 SWAP2 SUB SWAP1 KECCAK256 PUSH1 0x0 SWAP1 SLOAD SWAP1 PUSH2 0x100 EXP SWAP1 DIV PUSH1 0xFF AND PUSH2 0x205D JUMPI PUSH1 0x40 MLOAD PUSH32 0x8C379A000000000000000000000000000000000000000000000000000000000 DUP2 MSTORE PUSH1 0x4 ADD PUSH2 0x2054 SWAP1 PUSH2 0x4F16 JUMP JUMPDEST PUSH1 0x40 MLOAD DUP1 SWAP2 SUB SWAP1 REVERT JUMPDEST PUSH1 0x0 PUSH1 0xAE DUP5 PUSH1 0x40 MLOAD PUSH2 0x206F SWAP2 SWAP1 PUSH2 0x4C2A JUMP JUMPDEST SWAP1 DUP2 MSTORE PUSH1 0x20 ADD PUSH1 0x40 MLOAD DUP1 SWAP2 SUB SWAP1 KECCAK256 PUSH1 0x0 PUSH2 0x100 EXP DUP2 SLOAD DUP2 PUSH1 0xFF MUL NOT AND SWAP1 DUP4 ISZERO ISZERO MUL OR SWAP1 SSTORE POP PUSH1 0x1 PUSH1 0xAD PUSH1 0x0 CALLER PUSH20 0xFFFFFFFFFFFFFFFFFFFFFFFFFFFFFFFFFFFFFFFF AND PUSH20 0xFFFFFFFFFFFFFFFFFFFFFFFFFFFFFFFFFFFFFFFF AND DUP2 MSTORE PUSH1 0x20 ADD SWAP1 DUP2 MSTORE PUSH1 0x20 ADD PUSH1 0x0 KECCAK256 PUSH1 0x0 PUSH2 0x100 EXP DUP2 SLOAD DUP2 PUSH1 0xFF MUL NOT AND SWAP1 DUP4 ISZERO ISZERO MUL OR SWAP1 SSTORE POP DUP3 PUSH1 0xB0 PUSH1 0x0 CALLER PUSH20 0xFFFFFFFFFFFFFFFFFFFFFFFFFFFFFFFFFFFFFFFF AND PUSH20 0xFFFFFFFFFFFFFFFFFFFFFFFFFFFFFFFFFFFFFFFF AND DUP2 MSTORE PUSH1 0x20 ADD SWAP1 DUP2 MSTORE PUSH1 0x20 ADD PUSH1 0x0 KECCAK256 SWAP1 DUP1 MLOAD SWAP1 PUSH1 0x20 ADD SWAP1 PUSH2 0x213F SWAP3 SWAP2 SWAP1 PUSH2 0x4233 JUMP JUMPDEST POP JUMPDEST DUP2 PUSH1 0xAA PUSH1 0x0 DUP4 PUSH20 0xFFFFFFFFFFFFFFFFFFFFFFFFFFFFFFFFFFFFFFFF AND PUSH20 0xFFFFFFFFFFFFFFFFFFFFFFFFFFFFFFFFFFFFFFFF AND DUP2 MSTORE PUSH1 0x20 ADD SWAP1 DUP2 MSTORE PUSH1 0x20 ADD PUSH1 0x0 KECCAK256 PUSH1 0x0 DUP3 DUP3 SLOAD PUSH2 0x2190 SWAP2 SWAP1 PUSH2 0x52B4 JUMP JUMPDEST SWAP3 POP POP DUP2 SWAP1 SSTORE POP DUP2 PUSH1 0x99 PUSH1 0x0 DUP3 DUP3 SLOAD PUSH2 0x21A9 SWAP2 SWAP1 PUSH2 0x52B4 JUMP JUMPDEST SWAP3 POP POP DUP2 SWAP1 SSTORE POP PUSH1 0xA7 PUSH1 0x0 SWAP1 SLOAD SWAP1 PUSH2 0x100 EXP SWAP1 DIV PUSH20 0xFFFFFFFFFFFFFFFFFFFFFFFFFFFFFFFFFFFFFFFF AND PUSH20 0xFFFFFFFFFFFFFFFFFFFFFFFFFFFFFFFFFFFFFFFF AND PUSH4 0x52B73E41 CALLVALUE PUSH1 0x98 PUSH1 0x0 SWAP1 SLOAD SWAP1 PUSH2 0x100 EXP SWAP1 DIV PUSH20 0xFFFFFFFFFFFFFFFFFFFFFFFFFFFFFFFFFFFFFFFF AND DUP6 PUSH1 0x40 MLOAD DUP5 PUSH4 0xFFFFFFFF AND PUSH1 0xE0 SHL DUP2 MSTORE PUSH1 0x4 ADD PUSH2 0x2230 SWAP3 SWAP2 SWAP1 PUSH2 0x4C86 JUMP JUMPDEST PUSH1 0x0 PUSH1 0x40 MLOAD DUP1 DUP4 SUB DUP2 DUP6 DUP9 DUP1 EXTCODESIZE ISZERO DUP1 ISZERO PUSH2 0x2249 JUMPI PUSH1 0x0 DUP1 REVERT JUMPDEST POP GAS CALL ISZERO DUP1 ISZERO PUSH2 0x225D JUMPI RETURNDATASIZE PUSH1 0x0 DUP1 RETURNDATACOPY RETURNDATASIZE PUSH1 0x0 REVERT JUMPDEST POP POP POP POP POP PUSH1 0xA9 PUSH1 0x0 DUP3 PUSH20 0xFFFFFFFFFFFFFFFFFFFFFFFFFFFFFFFFFFFFFFFF AND PUSH20 0xFFFFFFFFFFFFFFFFFFFFFFFFFFFFFFFFFFFFFFFF AND DUP2 MSTORE PUSH1 0x20 ADD SWAP1 DUP2 MSTORE PUSH1 0x20 ADD PUSH1 0x0 KECCAK256 PUSH1 0x0 SWAP1 SLOAD SWAP1 PUSH2 0x100 EXP SWAP1 DIV PUSH1 0xFF AND PUSH2 0x236F JUMPI PUSH1 0x1 PUSH1 0xA9 PUSH1 0x0 DUP4 PUSH20 0xFFFFFFFFFFFFFFFFFFFFFFFFFFFFFFFFFFFFFFFF AND PUSH20 0xFFFFFFFFFFFFFFFFFFFFFFFFFFFFFFFFFFFFFFFF AND DUP2 MSTORE PUSH1 0x20 ADD SWAP1 DUP2 MSTORE PUSH1 0x20 ADD PUSH1 0x0 KECCAK256 PUSH1 0x0 PUSH2 0x100 EXP DUP2 SLOAD DUP2 PUSH1 0xFF MUL NOT AND SWAP1 DUP4 ISZERO ISZERO MUL OR SWAP1 SSTORE POP PUSH1 0xA8 DUP2 SWAP1 DUP1 PUSH1 0x1 DUP2 SLOAD ADD DUP1 DUP3 SSTORE DUP1 SWAP2 POP POP PUSH1 0x1 SWAP1 SUB SWAP1 PUSH1 0x0 MSTORE PUSH1 0x20 PUSH1 0x0 KECCAK256 ADD PUSH1 0x0 SWAP1 SWAP2 SWAP1 SWAP2 SWAP1 SWAP2 PUSH2 0x100 EXP DUP2 SLOAD DUP2 PUSH20 0xFFFFFFFFFFFFFFFFFFFFFFFFFFFFFFFFFFFFFFFF MUL NOT AND SWAP1 DUP4 PUSH20 0xFFFFFFFFFFFFFFFFFFFFFFFFFFFFFFFFFFFFFFFF AND MUL OR SWAP1 SSTORE POP JUMPDEST PUSH1 0xA5 PUSH1 0x0 SWAP1 SLOAD SWAP1 PUSH2 0x100 EXP SWAP1 DIV PUSH20 0xFFFFFFFFFFFFFFFFFFFFFFFFFFFFFFFFFFFFFFFF AND PUSH20 0xFFFFFFFFFFFFFFFFFFFFFFFFFFFFFFFFFFFFFFFF AND PUSH4 0x40C10F19 DUP3 DUP5 PUSH1 0x40 MLOAD DUP4 PUSH4 0xFFFFFFFF AND PUSH1 0xE0 SHL DUP2 MSTORE PUSH1 0x4 ADD PUSH2 0x23CC SWAP3 SWAP2 SWAP1 PUSH2 0x4CAF JUMP JUMPDEST PUSH1 0x20 PUSH1 0x40 MLOAD DUP1 DUP4 SUB DUP2 PUSH1 0x0 DUP8 DUP1 EXTCODESIZE ISZERO DUP1 ISZERO PUSH2 0x23E6 JUMPI PUSH1 0x0 DUP1 REVERT JUMPDEST POP GAS CALL ISZERO DUP1 ISZERO PUSH2 0x23FA JUMPI RETURNDATASIZE PUSH1 0x0 DUP1 RETURNDATACOPY RETURNDATASIZE PUSH1 0x0 REVERT JUMPDEST POP POP POP POP PUSH1 0x40 MLOAD RETURNDATASIZE PUSH1 0x1F NOT PUSH1 0x1F DUP3 ADD AND DUP3 ADD DUP1 PUSH1 0x40 MSTORE POP DUP2 ADD SWAP1 PUSH2 0x241E SWAP2 SWAP1 PUSH2 0x4457 JUMP JUMPDEST PUSH2 0x245D JUMPI PUSH1 0x40 MLOAD PUSH32 0x8C379A000000000000000000000000000000000000000000000000000000000 DUP2 MSTORE PUSH1 0x4 ADD PUSH2 0x2454 SWAP1 PUSH2 0x4F36 JUMP JUMPDEST PUSH1 0x40 MLOAD DUP1 SWAP2 SUB SWAP1 REVERT JUMPDEST DUP3 PUSH1 0x40 MLOAD PUSH2 0x246B SWAP2 SWAP1 PUSH2 0x4C2A JUMP JUMPDEST PUSH1 0x40 MLOAD DUP1 SWAP2 SUB SWAP1 KECCAK256 CALLER PUSH20 0xFFFFFFFFFFFFFFFFFFFFFFFFFFFFFFFFFFFFFFFF AND PUSH32 0x72D0050D8F1A0F19ACE5B1F50E8B5333308C60902442B7444A65CFFFBAD884E7 CALLVALUE PUSH1 0x40 MLOAD PUSH2 0x24B9 SWAP2 SWAP1 PUSH2 0x5196 JUMP JUMPDEST PUSH1 0x40 MLOAD DUP1 SWAP2 SUB SWAP1 LOG3 POP POP POP JUMP JUMPDEST PUSH2 0x24CE PUSH2 0x37A0 JUMP JUMPDEST PUSH1 0x0 JUMPDEST PUSH1 0xA8 DUP1 SLOAD SWAP1 POP DUP2 LT ISZERO PUSH2 0x2656 JUMPI PUSH1 0x0 PUSH1 0xA9 PUSH1 0x0 PUSH1 0xA8 DUP5 DUP2 SLOAD DUP2 LT PUSH2 0x251E JUMPI PUSH32 0x4E487B7100000000000000000000000000000000000000000000000000000000 PUSH1 0x0 MSTORE PUSH1 0x32 PUSH1 0x4 MSTORE PUSH1 0x24 PUSH1 0x0 REVERT JUMPDEST SWAP1 PUSH1 0x0 MSTORE PUSH1 0x20 PUSH1 0x0 KECCAK256 ADD PUSH1 0x0 SWAP1 SLOAD SWAP1 PUSH2 0x100 EXP SWAP1 DIV PUSH20 0xFFFFFFFFFFFFFFFFFFFFFFFFFFFFFFFFFFFFFFFF AND PUSH20 0xFFFFFFFFFFFFFFFFFFFFFFFFFFFFFFFFFFFFFFFF AND PUSH20 0xFFFFFFFFFFFFFFFFFFFFFFFFFFFFFFFFFFFFFFFF AND DUP2 MSTORE PUSH1 0x20 ADD SWAP1 DUP2 MSTORE PUSH1 0x20 ADD PUSH1 0x0 KECCAK256 PUSH1 0x0 PUSH2 0x100 EXP DUP2 SLOAD DUP2 PUSH1 0xFF MUL NOT AND SWAP1 DUP4 ISZERO ISZERO MUL OR SWAP1 SSTORE POP PUSH1 0x0 PUSH1 0xAA PUSH1 0x0 PUSH1 0xA8 DUP5 DUP2 SLOAD DUP2 LT PUSH2 0x25DA JUMPI PUSH32 0x4E487B7100000000000000000000000000000000000000000000000000000000 PUSH1 0x0 MSTORE PUSH1 0x32 PUSH1 0x4 MSTORE PUSH1 0x24 PUSH1 0x0 REVERT JUMPDEST SWAP1 PUSH1 0x0 MSTORE PUSH1 0x20 PUSH1 0x0 KECCAK256 ADD PUSH1 0x0 SWAP1 SLOAD SWAP1 PUSH2 0x100 EXP SWAP1 DIV PUSH20 0xFFFFFFFFFFFFFFFFFFFFFFFFFFFFFFFFFFFFFFFF AND PUSH20 0xFFFFFFFFFFFFFFFFFFFFFFFFFFFFFFFFFFFFFFFF AND PUSH20 0xFFFFFFFFFFFFFFFFFFFFFFFFFFFFFFFFFFFFFFFF AND DUP2 MSTORE PUSH1 0x20 ADD SWAP1 DUP2 MSTORE PUSH1 0x20 ADD PUSH1 0x0 KECCAK256 DUP2 SWAP1 SSTORE POP DUP1 DUP1 PUSH2 0x264E SWAP1 PUSH2 0x5633 JUMP JUMPDEST SWAP2 POP POP PUSH2 0x24D1 JUMP JUMPDEST POP PUSH1 0xA8 PUSH1 0x0 PUSH2 0x2665 SWAP2 SWAP1 PUSH2 0x42B9 JUMP JUMPDEST PUSH1 0x0 PUSH1 0x99 DUP2 SWAP1 SSTORE POP PUSH1 0x0 PUSH1 0x97 PUSH1 0x14 PUSH2 0x100 EXP DUP2 SLOAD DUP2 PUSH1 0xFF MUL NOT AND SWAP1 DUP4 ISZERO ISZERO MUL OR SWAP1 SSTORE POP PUSH1 0x0 PUSH1 0x9A DUP2 SWAP1 SSTORE POP PUSH2 0x2698 PUSH2 0x2E0A JUMP JUMPDEST PUSH1 0xA2 DUP2 SWAP1 SSTORE POP PUSH1 0x1 PUSH2 0x26A8 PUSH2 0x2E0A JUMP JUMPDEST PUSH2 0x26B2 SWAP2 SWAP1 PUSH2 0x5411 JUMP JUMPDEST PUSH1 0x9F DUP2 SWAP1 SSTORE POP PUSH1 0x0 PUSH1 0xA0 DUP2 SWAP1 SSTORE POP PUSH1 0xB1 PUSH1 0x0 DUP1 DUP3 ADD PUSH1 0x0 PUSH2 0x100 EXP DUP2 SLOAD SWAP1 PUSH20 0xFFFFFFFFFFFFFFFFFFFFFFFFFFFFFFFFFFFFFFFF MUL NOT AND SWAP1 SSTORE PUSH1 0x1 DUP3 ADD PUSH1 0x0 SWAP1 SSTORE PUSH1 0x2 DUP3 ADD PUSH1 0x0 SWAP1 SSTORE PUSH1 0x3 DUP3 ADD PUSH1 0x0 SWAP1 SSTORE PUSH1 0x4 DUP3 ADD PUSH1 0x0 SWAP1 SSTORE PUSH1 0x5 DUP3 ADD PUSH1 0x0 PUSH2 0x100 EXP DUP2 SLOAD SWAP1 PUSH1 0xFF MUL NOT AND SWAP1 SSTORE PUSH1 0x6 DUP3 ADD PUSH1 0x0 SWAP1 SSTORE POP POP PUSH1 0x0 PUSH1 0xAB PUSH1 0x0 CALLER PUSH20 0xFFFFFFFFFFFFFFFFFFFFFFFFFFFFFFFFFFFFFFFF AND PUSH20 0xFFFFFFFFFFFFFFFFFFFFFFFFFFFFFFFFFFFFFFFF AND DUP2 MSTORE PUSH1 0x20 ADD SWAP1 DUP2 MSTORE PUSH1 0x20 ADD PUSH1 0x0 KECCAK256 DUP2 SWAP1 SSTORE POP PUSH1 0x0 PUSH1 0xAA PUSH1 0x0 CALLER PUSH20 0xFFFFFFFFFFFFFFFFFFFFFFFFFFFFFFFFFFFFFFFF AND PUSH20 0xFFFFFFFFFFFFFFFFFFFFFFFFFFFFFFFFFFFFFFFF AND DUP2 MSTORE PUSH1 0x20 ADD SWAP1 DUP2 MSTORE PUSH1 0x20 ADD PUSH1 0x0 KECCAK256 DUP2 SWAP1 SSTORE POP JUMP JUMPDEST PUSH2 0x27BC PUSH2 0x37A0 JUMP JUMPDEST PUSH1 0x0 PUSH1 0xA4 SLOAD SWAP1 POP PUSH1 0x0 PUSH1 0xA4 DUP2 SWAP1 SSTORE POP PUSH2 0x27F4 DUP2 CALLER PUSH20 0xFFFFFFFFFFFFFFFFFFFFFFFFFFFFFFFFFFFFFFFF AND PUSH2 0x3BD8 SWAP1 SWAP2 SWAP1 PUSH4 0xFFFFFFFF AND JUMP JUMPDEST CALLER PUSH20 0xFFFFFFFFFFFFFFFFFFFFFFFFFFFFFFFFFFFFFFFF AND PUSH32 0xC5A3601BC424984AB8D0E98BD79347FA6EF2A340C30DDE7340D02F923E6820ED DUP3 PUSH1 0x40 MLOAD PUSH2 0x283A SWAP2 SWAP1 PUSH2 0x5196 JUMP JUMPDEST PUSH1 0x40 MLOAD DUP1 SWAP2 SUB SWAP1 LOG2 POP JUMP JUMPDEST PUSH1 0x9F SLOAD DUP2 JUMP JUMPDEST PUSH1 0x97 PUSH1 0x14 SWAP1 SLOAD SWAP1 PUSH2 0x100 EXP SWAP1 DIV PUSH1 0xFF AND DUP2 JUMP JUMPDEST PUSH1 0xAD PUSH1 0x20 MSTORE DUP1 PUSH1 0x0 MSTORE PUSH1 0x40 PUSH1 0x0 KECCAK256 PUSH1 0x0 SWAP2 POP SLOAD SWAP1 PUSH2 0x100 EXP SWAP1 DIV PUSH1 0xFF AND DUP2 JUMP JUMPDEST PUSH2 0x2886 PUSH2 0x37A0 JUMP JUMPDEST PUSH1 0x0 PUSH1 0xA0 SLOAD GT PUSH2 0x28CB JUMPI PUSH1 0x40 MLOAD PUSH32 0x8C379A000000000000000000000000000000000000000000000000000000000 DUP2 MSTORE PUSH1 0x4 ADD PUSH2 0x28C2 SWAP1 PUSH2 0x4ED6 JUMP JUMPDEST PUSH1 0x40 MLOAD DUP1 SWAP2 SUB SWAP1 REVERT JUMPDEST PUSH1 0x4 PUSH1 0xA PUSH1 0x9E SLOAD PUSH2 0x28DC SWAP2 SWAP1 PUSH2 0x5377 JUMP JUMPDEST PUSH2 0x28E6 SWAP2 SWAP1 PUSH2 0x5346 JUMP JUMPDEST PUSH1 0xA PUSH1 0x9F SLOAD PUSH2 0x28F5 SWAP2 SWAP1 PUSH2 0x5377 JUMP JUMPDEST PUSH2 0x28FF SWAP2 SWAP1 PUSH2 0x52B4 JUMP JUMPDEST PUSH1 0xA PUSH2 0x2909 PUSH2 0x2E0A JUMP JUMPDEST PUSH2 0x2913 SWAP2 SWAP1 PUSH2 0x5377 JUMP JUMPDEST LT ISZERO PUSH2 0x2954 JUMPI PUSH1 0x40 MLOAD PUSH32 0x8C379A000000000000000000000000000000000000000000000000000000000 DUP2 MSTORE PUSH1 0x4 ADD PUSH2 0x294B SWAP1 PUSH2 0x5116 JUMP JUMPDEST PUSH1 0x40 MLOAD DUP1 SWAP2 SUB SWAP1 REVERT JUMPDEST PUSH2 0x295C PUSH2 0x381E JUMP JUMPDEST JUMP JUMPDEST PUSH2 0x2966 PUSH2 0x37A0 JUMP JUMPDEST DUP1 PUSH1 0xA7 PUSH1 0x0 PUSH2 0x100 EXP DUP2 SLOAD DUP2 PUSH20 0xFFFFFFFFFFFFFFFFFFFFFFFFFFFFFFFFFFFFFFFF MUL NOT AND SWAP1 DUP4 PUSH20 0xFFFFFFFFFFFFFFFFFFFFFFFFFFFFFFFFFFFFFFFF AND MUL OR SWAP1 SSTORE POP POP JUMP JUMPDEST PUSH1 0x97 PUSH1 0x14 SWAP1 SLOAD SWAP1 PUSH2 0x100 EXP SWAP1 DIV PUSH1 0xFF AND ISZERO PUSH2 0x29FA JUMPI PUSH1 0x40 MLOAD PUSH32 0x8C379A000000000000000000000000000000000000000000000000000000000 DUP2 MSTORE PUSH1 0x4 ADD PUSH2 0x29F1 SWAP1 PUSH2 0x4FB6 JUMP JUMPDEST PUSH1 0x40 MLOAD DUP1 SWAP2 SUB SWAP1 REVERT JUMPDEST PUSH2 0x2A02 PUSH2 0x37A0 JUMP JUMPDEST PUSH1 0x1 PUSH1 0x97 PUSH1 0x14 PUSH2 0x100 EXP DUP2 SLOAD DUP2 PUSH1 0xFF MUL NOT AND SWAP1 DUP4 ISZERO ISZERO MUL OR SWAP1 SSTORE POP TIMESTAMP PUSH1 0x9A DUP2 SWAP1 SSTORE POP PUSH1 0x97 PUSH1 0x0 SWAP1 SLOAD SWAP1 PUSH2 0x100 EXP SWAP1 DIV PUSH20 0xFFFFFFFFFFFFFFFFFFFFFFFFFFFFFFFFFFFFFFFF AND PUSH20 0xFFFFFFFFFFFFFFFFFFFFFFFFFFFFFFFFFFFFFFFF AND PUSH4 0xC4365374 ADDRESS PUSH1 0xB1 PUSH1 0x1 ADD SLOAD TIMESTAMP PUSH1 0xB1 PUSH1 0x3 ADD SLOAD PUSH1 0xB1 PUSH1 0x4 ADD SLOAD PUSH1 0xB1 PUSH1 0x5 ADD PUSH1 0x0 SWAP1 SLOAD SWAP1 PUSH2 0x100 EXP SWAP1 DIV PUSH1 0xFF AND PUSH1 0xB1 PUSH1 0x6 ADD SLOAD PUSH1 0x40 MLOAD DUP9 PUSH4 0xFFFFFFFF AND PUSH1 0xE0 SHL DUP2 MSTORE PUSH1 0x4 ADD PUSH2 0x2AB1 SWAP8 SWAP7 SWAP6 SWAP5 SWAP4 SWAP3 SWAP2 SWAP1 PUSH2 0x4CD8 JUMP JUMPDEST PUSH1 0x0 PUSH1 0x40 MLOAD DUP1 DUP4 SUB DUP2 PUSH1 0x0 DUP8 DUP1 EXTCODESIZE ISZERO DUP1 ISZERO PUSH2 0x2ACB JUMPI PUSH1 0x0 DUP1 REVERT JUMPDEST POP GAS CALL ISZERO DUP1 ISZERO PUSH2 0x2ADF JUMPI RETURNDATASIZE PUSH1 0x0 DUP1 RETURNDATACOPY RETURNDATASIZE PUSH1 0x0 REVERT JUMPDEST POP POP POP POP PUSH32 0x624EB1DE4B105B5373BA37DB99731CB09D761DE5B9373015805D8C47E7A6F12 TIMESTAMP PUSH1 0x40 MLOAD PUSH2 0x2B12 SWAP2 SWAP1 PUSH2 0x5196 JUMP JUMPDEST PUSH1 0x40 MLOAD DUP1 SWAP2 SUB SWAP1 LOG1 JUMP JUMPDEST PUSH1 0xAE DUP2 DUP1 MLOAD PUSH1 0x20 DUP2 ADD DUP3 ADD DUP1 MLOAD DUP5 DUP3 MSTORE PUSH1 0x20 DUP4 ADD PUSH1 0x20 DUP6 ADD KECCAK256 DUP2 DUP4 MSTORE DUP1 SWAP6 POP POP POP POP POP POP PUSH1 0x0 SWAP2 POP SLOAD SWAP1 PUSH2 0x100 EXP SWAP1 DIV PUSH1 0xFF AND DUP2 JUMP JUMPDEST PUSH1 0x60 PUSH2 0x2B5D DUP3 PUSH2 0x3E95 JUMP JUMPDEST SWAP1 POP PUSH1 0xAE DUP2 PUSH1 0x40 MLOAD PUSH2 0x2B6F SWAP2 SWAP1 PUSH2 0x4C2A JUMP JUMPDEST SWAP1 DUP2 MSTORE PUSH1 0x20 ADD PUSH1 0x40 MLOAD DUP1 SWAP2 SUB SWAP1 KECCAK256 PUSH1 0x0 SWAP1 SLOAD SWAP1 PUSH2 0x100 EXP SWAP1 DIV PUSH1 0xFF AND ISZERO PUSH2 0x2BCB JUMPI PUSH1 0x40 MLOAD PUSH32 0x8C379A000000000000000000000000000000000000000000000000000000000 DUP2 MSTORE PUSH1 0x4 ADD PUSH2 0x2BC2 SWAP1 PUSH2 0x5076 JUMP JUMPDEST PUSH1 0x40 MLOAD DUP1 SWAP2 SUB SWAP1 REVERT JUMPDEST PUSH1 0x1 PUSH1 0xAE DUP3 PUSH1 0x40 MLOAD PUSH2 0x2BDD SWAP2 SWAP1 PUSH2 0x4C2A JUMP JUMPDEST SWAP1 DUP2 MSTORE PUSH1 0x20 ADD PUSH1 0x40 MLOAD DUP1 SWAP2 SUB SWAP1 KECCAK256 PUSH1 0x0 PUSH2 0x100 EXP DUP2 SLOAD DUP2 PUSH1 0xFF MUL NOT AND SWAP1 DUP4 ISZERO ISZERO MUL OR SWAP1 SSTORE POP DUP2 PUSH1 0xAF DUP3 PUSH1 0x40 MLOAD PUSH2 0x2C13 SWAP2 SWAP1 PUSH2 0x4C2A JUMP JUMPDEST SWAP1 DUP2 MSTORE PUSH1 0x20 ADD PUSH1 0x40 MLOAD DUP1 SWAP2 SUB SWAP1 KECCAK256 PUSH1 0x0 PUSH2 0x100 EXP DUP2 SLOAD DUP2 PUSH20 0xFFFFFFFFFFFFFFFFFFFFFFFFFFFFFFFFFFFFFFFF MUL NOT AND SWAP1 DUP4 PUSH20 0xFFFFFFFFFFFFFFFFFFFFFFFFFFFFFFFFFFFFFFFF AND MUL OR SWAP1 SSTORE POP SWAP2 SWAP1 POP JUMP JUMPDEST PUSH1 0xA9 PUSH1 0x20 MSTORE DUP1 PUSH1 0x0 MSTORE PUSH1 0x40 PUSH1 0x0 KECCAK256 PUSH1 0x0 SWAP2 POP SLOAD SWAP1 PUSH2 0x100 EXP SWAP1 DIV PUSH1 0xFF AND DUP2 JUMP JUMPDEST PUSH2 0x2C8C PUSH2 0x37A0 JUMP JUMPDEST PUSH2 0x2C96 PUSH1 0x0 PUSH2 0x3EF5 JUMP JUMPDEST JUMP JUMPDEST PUSH1 0xA5 PUSH1 0x0 SWAP1 SLOAD SWAP1 PUSH2 0x100 EXP SWAP1 DIV PUSH20 0xFFFFFFFFFFFFFFFFFFFFFFFFFFFFFFFFFFFFFFFF AND DUP2 JUMP JUMPDEST PUSH2 0x2CC6 PUSH2 0x37A0 JUMP JUMPDEST PUSH1 0xA5 PUSH1 0x0 SWAP1 SLOAD SWAP1 PUSH2 0x100 EXP SWAP1 DIV PUSH20 0xFFFFFFFFFFFFFFFFFFFFFFFFFFFFFFFFFFFFFFFF AND PUSH20 0xFFFFFFFFFFFFFFFFFFFFFFFFFFFFFFFFFFFFFFFF AND PUSH4 0x40C10F19 DUP4 DUP4 PUSH1 0x40 MLOAD DUP4 PUSH4 0xFFFFFFFF AND PUSH1 0xE0 SHL DUP2 MSTORE PUSH1 0x4 ADD PUSH2 0x2D23 SWAP3 SWAP2 SWAP1 PUSH2 0x4CAF JUMP JUMPDEST PUSH1 0x20 PUSH1 0x40 MLOAD DUP1 DUP4 SUB DUP2 PUSH1 0x0 DUP8 DUP1 EXTCODESIZE ISZERO DUP1 ISZERO PUSH2 0x2D3D JUMPI PUSH1 0x0 DUP1 REVERT JUMPDEST POP GAS CALL ISZERO DUP1 ISZERO PUSH2 0x2D51 JUMPI RETURNDATASIZE PUSH1 0x0 DUP1 RETURNDATACOPY RETURNDATASIZE PUSH1 0x0 REVERT JUMPDEST POP POP POP POP PUSH1 0x40 MLOAD RETURNDATASIZE PUSH1 0x1F NOT PUSH1 0x1F DUP3 ADD AND DUP3 ADD DUP1 PUSH1 0x40 MSTORE POP DUP2 ADD SWAP1 PUSH2 0x2D75 SWAP2 SWAP1 PUSH2 0x4457 JUMP JUMPDEST POP POP POP JUMP JUMPDEST PUSH1 0xA2 SLOAD DUP2 JUMP JUMPDEST PUSH1 0x99 SLOAD DUP2 JUMP JUMPDEST PUSH1 0x0 PUSH1 0x33 PUSH1 0x0 SWAP1 SLOAD SWAP1 PUSH2 0x100 EXP SWAP1 DIV PUSH20 0xFFFFFFFFFFFFFFFFFFFFFFFFFFFFFFFFFFFFFFFF AND SWAP1 POP SWAP1 JUMP JUMPDEST PUSH2 0x2DB8 PUSH2 0x37A0 JUMP JUMPDEST DUP5 PUSH1 0xB1 PUSH1 0x1 ADD DUP2 SWAP1 SSTORE POP DUP4 PUSH1 0xB1 PUSH1 0x3 ADD DUP2 SWAP1 SSTORE POP DUP3 PUSH1 0xB1 PUSH1 0x4 ADD DUP2 SWAP1 SSTORE POP DUP2 PUSH1 0xB1 PUSH1 0x5 ADD PUSH1 0x0 PUSH2 0x100 EXP DUP2 SLOAD DUP2 PUSH1 0xFF MUL NOT AND SWAP1 DUP4 ISZERO ISZERO MUL OR SWAP1 SSTORE POP DUP1 PUSH1 0xB1 PUSH1 0x6 ADD DUP2 SWAP1 SSTORE POP POP POP POP POP POP JUMP JUMPDEST PUSH1 0xA4 SLOAD DUP2 JUMP JUMPDEST PUSH1 0x0 PUSH1 0xA7 PUSH1 0x0 SWAP1 SLOAD SWAP1 PUSH2 0x100 EXP SWAP1 DIV PUSH20 0xFFFFFFFFFFFFFFFFFFFFFFFFFFFFFFFFFFFFFFFF AND PUSH20 0xFFFFFFFFFFFFFFFFFFFFFFFFFFFFFFFFFFFFFFFF AND PUSH4 0xE608D80B PUSH1 0x40 MLOAD DUP2 PUSH4 0xFFFFFFFF AND PUSH1 0xE0 SHL DUP2 MSTORE PUSH1 0x4 ADD PUSH1 0x20 PUSH1 0x40 MLOAD DUP1 DUP4 SUB DUP2 DUP7 DUP1 EXTCODESIZE ISZERO DUP1 ISZERO PUSH2 0x2E74 JUMPI PUSH1 0x0 DUP1 REVERT JUMPDEST POP GAS STATICCALL ISZERO DUP1 ISZERO PUSH2 0x2E88 JUMPI RETURNDATASIZE PUSH1 0x0 DUP1 RETURNDATACOPY RETURNDATASIZE PUSH1 0x0 REVERT JUMPDEST POP POP POP POP PUSH1 0x40 MLOAD RETURNDATASIZE PUSH1 0x1F NOT PUSH1 0x1F DUP3 ADD AND DUP3 ADD DUP1 PUSH1 0x40 MSTORE POP DUP2 ADD SWAP1 PUSH2 0x2EAC SWAP2 SWAP1 PUSH2 0x458A JUMP JUMPDEST SWAP1 POP SWAP1 JUMP JUMPDEST PUSH1 0x0 PUSH1 0xAB PUSH1 0x0 DUP4 PUSH20 0xFFFFFFFFFFFFFFFFFFFFFFFFFFFFFFFFFFFFFFFF AND PUSH20 0xFFFFFFFFFFFFFFFFFFFFFFFFFFFFFFFFFFFFFFFF AND DUP2 MSTORE PUSH1 0x20 ADD SWAP1 DUP2 MSTORE PUSH1 0x20 ADD PUSH1 0x0 KECCAK256 SLOAD PUSH2 0x2EFB PUSH2 0x3173 JUMP JUMPDEST GT PUSH2 0x2F09 JUMPI PUSH1 0x0 SWAP1 POP PUSH2 0x2FB7 JUMP JUMPDEST PUSH1 0x0 PUSH1 0xAB PUSH1 0x0 DUP5 PUSH20 0xFFFFFFFFFFFFFFFFFFFFFFFFFFFFFFFFFFFFFFFF AND PUSH20 0xFFFFFFFFFFFFFFFFFFFFFFFFFFFFFFFFFFFFFFFF AND DUP2 MSTORE PUSH1 0x20 ADD SWAP1 DUP2 MSTORE PUSH1 0x20 ADD PUSH1 0x0 KECCAK256 SLOAD PUSH2 0x2F53 PUSH2 0x3173 JUMP JUMPDEST PUSH2 0x2F5D SWAP2 SWAP1 PUSH2 0x5411 JUMP JUMPDEST SWAP1 POP PUSH1 0xB1 PUSH1 0x3 ADD SLOAD PUSH1 0xB1 PUSH1 0x4 ADD SLOAD DUP3 PUSH8 0xDE0B6B3A7640000 PUSH1 0x9D SLOAD PUSH2 0x2F81 DUP9 PUSH2 0x3FBB JUMP JUMPDEST PUSH2 0x2F8B SWAP2 SWAP1 PUSH2 0x5377 JUMP JUMPDEST PUSH2 0x2F95 SWAP2 SWAP1 PUSH2 0x5346 JUMP JUMPDEST PUSH2 0x2F9F SWAP2 SWAP1 PUSH2 0x5377 JUMP JUMPDEST PUSH2 0x2FA9 SWAP2 SWAP1 PUSH2 0x5377 JUMP JUMPDEST PUSH2 0x2FB3 SWAP2 SWAP1 PUSH2 0x5346 JUMP JUMPDEST SWAP2 POP POP JUMPDEST SWAP2 SWAP1 POP JUMP JUMPDEST PUSH1 0xAB PUSH1 0x20 MSTORE DUP1 PUSH1 0x0 MSTORE PUSH1 0x40 PUSH1 0x0 KECCAK256 PUSH1 0x0 SWAP2 POP SWAP1 POP SLOAD DUP2 JUMP JUMPDEST PUSH1 0xA0 SLOAD DUP2 JUMP JUMPDEST PUSH1 0x98 PUSH1 0x0 SWAP1 SLOAD SWAP1 PUSH2 0x100 EXP SWAP1 DIV PUSH20 0xFFFFFFFFFFFFFFFFFFFFFFFFFFFFFFFFFFFFFFFF AND DUP2 JUMP JUMPDEST PUSH1 0x9A SLOAD DUP2 JUMP JUMPDEST PUSH1 0xB1 DUP1 PUSH1 0x0 ADD PUSH1 0x0 SWAP1 SLOAD SWAP1 PUSH2 0x100 EXP SWAP1 DIV PUSH20 0xFFFFFFFFFFFFFFFFFFFFFFFFFFFFFFFFFFFFFFFF AND SWAP1 DUP1 PUSH1 0x1 ADD SLOAD SWAP1 DUP1 PUSH1 0x2 ADD SLOAD SWAP1 DUP1 PUSH1 0x3 ADD SLOAD SWAP1 DUP1 PUSH1 0x4 ADD SLOAD SWAP1 DUP1 PUSH1 0x5 ADD PUSH1 0x0 SWAP1 SLOAD SWAP1 PUSH2 0x100 EXP SWAP1 DIV PUSH1 0xFF AND SWAP1 DUP1 PUSH1 0x6 ADD SLOAD SWAP1 POP DUP8 JUMP JUMPDEST PUSH1 0xA1 SLOAD DUP2 JUMP JUMPDEST PUSH2 0x3071 PUSH2 0x37A0 JUMP JUMPDEST DUP2 PUSH1 0x9C DUP2 SWAP1 SSTORE POP DUP1 PUSH1 0x9B DUP2 SWAP1 SSTORE POP POP POP JUMP JUMPDEST PUSH2 0x308B PUSH2 0x37A0 JUMP JUMPDEST PUSH1 0x97 PUSH1 0x14 SWAP1 SLOAD SWAP1 PUSH2 0x100 EXP SWAP1 DIV PUSH1 0xFF AND ISZERO PUSH1 0x97 PUSH1 0x14 PUSH2 0x100 EXP DUP2 SLOAD DUP2 PUSH1 0xFF MUL NOT AND SWAP1 DUP4 ISZERO ISZERO MUL OR SWAP1 SSTORE POP JUMP JUMPDEST PUSH2 0x30BF PUSH2 0x37A0 JUMP JUMPDEST PUSH1 0xA5 PUSH1 0x0 SWAP1 SLOAD SWAP1 PUSH2 0x100 EXP SWAP1 DIV PUSH20 0xFFFFFFFFFFFFFFFFFFFFFFFFFFFFFFFFFFFFFFFF AND PUSH20 0xFFFFFFFFFFFFFFFFFFFFFFFFFFFFFFFFFFFFFFFF AND PUSH4 0x9DC29FAC DUP4 DUP4 PUSH1 0x40 MLOAD DUP4 PUSH4 0xFFFFFFFF AND PUSH1 0xE0 SHL DUP2 MSTORE PUSH1 0x4 ADD PUSH2 0x311C SWAP3 SWAP2 SWAP1 PUSH2 0x4CAF JUMP JUMPDEST PUSH1 0x20 PUSH1 0x40 MLOAD DUP1 DUP4 SUB DUP2 PUSH1 0x0 DUP8 DUP1 EXTCODESIZE ISZERO DUP1 ISZERO PUSH2 0x3136 JUMPI PUSH1 0x0 DUP1 REVERT JUMPDEST POP GAS CALL ISZERO DUP1 ISZERO PUSH2 0x314A JUMPI RETURNDATASIZE PUSH1 0x0 DUP1 RETURNDATACOPY RETURNDATASIZE PUSH1 0x0 REVERT JUMPDEST POP POP POP POP PUSH1 0x40 MLOAD RETURNDATASIZE PUSH1 0x1F NOT PUSH1 0x1F DUP3 ADD AND DUP3 ADD DUP1 PUSH1 0x40 MSTORE POP DUP2 ADD SWAP1 PUSH2 0x316E SWAP2 SWAP1 PUSH2 0x4457 JUMP JUMPDEST POP POP POP JUMP JUMPDEST PUSH1 0x0 DUP1 PUSH1 0x9A SLOAD EQ ISZERO DUP1 ISZERO PUSH2 0x3189 JUMPI POP PUSH1 0x9A SLOAD TIMESTAMP LT ISZERO JUMPDEST PUSH2 0x31C8 JUMPI PUSH1 0x40 MLOAD PUSH32 0x8C379A000000000000000000000000000000000000000000000000000000000 DUP2 MSTORE PUSH1 0x4 ADD PUSH2 0x31BF SWAP1 PUSH2 0x5176 JUMP JUMPDEST PUSH1 0x40 MLOAD DUP1 SWAP2 SUB SWAP1 REVERT JUMPDEST PUSH1 0x0 PUSH1 0xB1 PUSH1 0x4 ADD SLOAD PUSH1 0x9A SLOAD TIMESTAMP PUSH2 0x31DE SWAP2 SWAP1 PUSH2 0x5411 JUMP JUMPDEST PUSH2 0x31E8 SWAP2 SWAP1 PUSH2 0x5346 JUMP JUMPDEST SWAP1 POP PUSH1 0x0 PUSH1 0xB1 PUSH1 0x4 ADD SLOAD PUSH1 0xB1 PUSH1 0x3 ADD SLOAD PUSH2 0x3202 SWAP2 SWAP1 PUSH2 0x5346 JUMP JUMPDEST SWAP1 POP DUP1 DUP3 GT ISZERO PUSH2 0x3216 JUMPI DUP1 SWAP3 POP POP POP PUSH2 0x321C JUMP JUMPDEST DUP2 SWAP3 POP POP POP JUMPDEST SWAP1 JUMP JUMPDEST PUSH1 0x9C SLOAD DUP2 JUMP JUMPDEST PUSH1 0x9B SLOAD DUP2 JUMP JUMPDEST PUSH2 0x3233 PUSH2 0x37A0 JUMP JUMPDEST PUSH1 0xA6 PUSH1 0x0 SWAP1 SLOAD SWAP1 PUSH2 0x100 EXP SWAP1 DIV PUSH20 0xFFFFFFFFFFFFFFFFFFFFFFFFFFFFFFFFFFFFFFFF AND PUSH20 0xFFFFFFFFFFFFFFFFFFFFFFFFFFFFFFFFFFFFFFFF AND PUSH4 0xA9059CBB DUP4 DUP4 PUSH1 0x40 MLOAD DUP4 PUSH4 0xFFFFFFFF AND PUSH1 0xE0 SHL DUP2 MSTORE PUSH1 0x4 ADD PUSH2 0x3290 SWAP3 SWAP2 SWAP1 PUSH2 0x4CAF JUMP JUMPDEST PUSH1 0x20 PUSH1 0x40 MLOAD DUP1 DUP4 SUB DUP2 PUSH1 0x0 DUP8 DUP1 EXTCODESIZE ISZERO DUP1 ISZERO PUSH2 0x32AA JUMPI PUSH1 0x0 DUP1 REVERT JUMPDEST POP GAS CALL ISZERO DUP1 ISZERO PUSH2 0x32BE JUMPI RETURNDATASIZE PUSH1 0x0 DUP1 RETURNDATACOPY RETURNDATASIZE PUSH1 0x0 REVERT JUMPDEST POP POP POP POP PUSH1 0x40 MLOAD RETURNDATASIZE PUSH1 0x1F NOT PUSH1 0x1F DUP3 ADD AND DUP3 ADD DUP1 PUSH1 0x40 MSTORE POP DUP2 ADD SWAP1 PUSH2 0x32E2 SWAP2 SWAP1 PUSH2 0x4457 JUMP JUMPDEST POP POP POP JUMP JUMPDEST PUSH2 0x32EF PUSH2 0x37A0 JUMP JUMPDEST PUSH1 0x0 PUSH2 0x32F9 PUSH2 0x2E0A JUMP JUMPDEST SWAP1 POP DUP1 PUSH1 0xA2 SLOAD EQ ISZERO PUSH2 0x3340 JUMPI PUSH1 0x40 MLOAD PUSH32 0x8C379A000000000000000000000000000000000000000000000000000000000 DUP2 MSTORE PUSH1 0x4 ADD PUSH2 0x3337 SWAP1 PUSH2 0x5096 JUMP JUMPDEST PUSH1 0x40 MLOAD DUP1 SWAP2 SUB SWAP1 REVERT JUMPDEST PUSH1 0x0 PUSH1 0xA2 SLOAD DUP3 PUSH2 0x3350 SWAP2 SWAP1 PUSH2 0x5411 JUMP JUMPDEST SWAP1 POP PUSH1 0xA3 SLOAD DUP2 GT ISZERO PUSH2 0x3362 JUMPI PUSH1 0xA3 SLOAD SWAP1 POP JUMPDEST PUSH1 0x0 SELFBALANCE SWAP1 POP PUSH1 0x0 JUMPDEST DUP3 DUP2 LT ISZERO PUSH2 0x350F JUMPI PUSH1 0xA7 PUSH1 0x0 SWAP1 SLOAD SWAP1 PUSH2 0x100 EXP SWAP1 DIV PUSH20 0xFFFFFFFFFFFFFFFFFFFFFFFFFFFFFFFFFFFFFFFF AND PUSH20 0xFFFFFFFFFFFFFFFFFFFFFFFFFFFFFFFFFFFFFFFF AND PUSH4 0xA0B9D8BE PUSH1 0x98 PUSH1 0x0 SWAP1 SLOAD SWAP1 PUSH2 0x100 EXP SWAP1 DIV PUSH20 0xFFFFFFFFFFFFFFFFFFFFFFFFFFFFFFFFFFFFFFFF AND PUSH1 0x40 MLOAD DUP3 PUSH4 0xFFFFFFFF AND PUSH1 0xE0 SHL DUP2 MSTORE PUSH1 0x4 ADD PUSH2 0x33EF SWAP2 SWAP1 PUSH2 0x4C6B JUMP JUMPDEST PUSH1 0x0 PUSH1 0x40 MLOAD DUP1 DUP4 SUB DUP2 PUSH1 0x0 DUP8 DUP1 EXTCODESIZE ISZERO DUP1 ISZERO PUSH2 0x3409 JUMPI PUSH1 0x0 DUP1 REVERT JUMPDEST POP GAS CALL SWAP3 POP POP POP DUP1 ISZERO PUSH2 0x341A JUMPI POP PUSH1 0x1 JUMPDEST PUSH2 0x34A7 JUMPI RETURNDATASIZE DUP1 PUSH1 0x0 DUP2 EQ PUSH2 0x344A JUMPI PUSH1 0x40 MLOAD SWAP2 POP PUSH1 0x1F NOT PUSH1 0x3F RETURNDATASIZE ADD AND DUP3 ADD PUSH1 0x40 MSTORE RETURNDATASIZE DUP3 MSTORE RETURNDATASIZE PUSH1 0x0 PUSH1 0x20 DUP5 ADD RETURNDATACOPY PUSH2 0x344F JUMP JUMPDEST PUSH1 0x60 SWAP2 POP JUMPDEST POP DUP1 PUSH1 0x40 MLOAD PUSH2 0x345E SWAP2 SWAP1 PUSH2 0x4C13 JUMP JUMPDEST PUSH1 0x40 MLOAD DUP1 SWAP2 SUB SWAP1 KECCAK256 PUSH1 0x1 PUSH1 0xA2 SLOAD PUSH2 0x3475 SWAP2 SWAP1 PUSH2 0x52B4 JUMP JUMPDEST PUSH32 0xFA856C428399288A6034F9C96D90C67DC025124C025CD92E228F9B795CD2EC84 PUSH1 0x40 MLOAD PUSH1 0x40 MLOAD DUP1 SWAP2 SUB SWAP1 LOG3 POP PUSH2 0x34FC JUMP JUMPDEST PUSH1 0x1 PUSH1 0xA2 PUSH1 0x0 DUP3 DUP3 SLOAD PUSH2 0x34BA SWAP2 SWAP1 PUSH2 0x52B4 JUMP JUMPDEST SWAP3 POP POP DUP2 SWAP1 SSTORE POP DUP4 PUSH32 0xE3AD3E6AE6E2F00623AF1899E05E142E09F8AF5B7F4E9B765D94646D6BB9B892 PUSH1 0xA2 SLOAD PUSH1 0x40 MLOAD PUSH2 0x34F3 SWAP2 SWAP1 PUSH2 0x5196 JUMP JUMPDEST PUSH1 0x40 MLOAD DUP1 SWAP2 SUB SWAP1 LOG2 JUMPDEST DUP1 DUP1 PUSH2 0x3507 SWAP1 PUSH2 0x5633 JUMP JUMPDEST SWAP2 POP POP PUSH2 0x336A JUMP JUMPDEST POP PUSH1 0x0 SELFBALANCE SWAP1 POP DUP2 DUP2 PUSH2 0x3521 SWAP2 SWAP1 PUSH2 0x5411 JUMP JUMPDEST PUSH1 0xA4 PUSH1 0x0 DUP3 DUP3 SLOAD PUSH2 0x3532 SWAP2 SWAP1 PUSH2 0x52B4 JUMP JUMPDEST SWAP3 POP POP DUP2 SWAP1 SSTORE POP DUP4 PUSH32 0x1D37F71BDEB9F37B8AEF735E93B33154911A15CAE0FC0A473057A898BE05C4A3 DUP4 DUP4 PUSH2 0x3567 SWAP2 SWAP1 PUSH2 0x5411 JUMP JUMPDEST PUSH1 0x40 MLOAD PUSH2 0x3574 SWAP2 SWAP1 PUSH2 0x5196 JUMP JUMPDEST PUSH1 0x40 MLOAD DUP1 SWAP2 SUB SWAP1 LOG2 POP POP POP POP JUMP JUMPDEST PUSH1 0x0 PUSH1 0x97 PUSH1 0x0 SWAP1 SLOAD SWAP1 PUSH2 0x100 EXP SWAP1 DIV PUSH20 0xFFFFFFFFFFFFFFFFFFFFFFFFFFFFFFFFFFFFFFFF AND PUSH20 0xFFFFFFFFFFFFFFFFFFFFFFFFFFFFFFFFFFFFFFFF AND PUSH4 0xEA1BB3D5 PUSH2 0x35CA PUSH2 0x3D1C JUMP JUMPDEST PUSH1 0x40 MLOAD DUP3 PUSH4 0xFFFFFFFF AND PUSH1 0xE0 SHL DUP2 MSTORE PUSH1 0x4 ADD PUSH2 0x35E6 SWAP2 SWAP1 PUSH2 0x4D84 JUMP JUMPDEST PUSH1 0x20 PUSH1 0x40 MLOAD DUP1 DUP4 SUB DUP2 DUP7 DUP1 EXTCODESIZE ISZERO DUP1 ISZERO PUSH2 0x35FE JUMPI PUSH1 0x0 DUP1 REVERT JUMPDEST POP GAS STATICCALL ISZERO DUP1 ISZERO PUSH2 0x3612 JUMPI RETURNDATASIZE PUSH1 0x0 DUP1 RETURNDATACOPY RETURNDATASIZE PUSH1 0x0 REVERT JUMPDEST POP POP POP POP PUSH1 0x40 MLOAD RETURNDATASIZE PUSH1 0x1F NOT PUSH1 0x1F DUP3 ADD AND DUP3 ADD DUP1 PUSH1 0x40 MSTORE POP DUP2 ADD SWAP1 PUSH2 0x3636 SWAP2 SWAP1 PUSH2 0x458A JUMP JUMPDEST SWAP1 POP SWAP1 JUMP JUMPDEST PUSH2 0x3643 PUSH2 0x37A0 JUMP JUMPDEST PUSH1 0x0 PUSH20 0xFFFFFFFFFFFFFFFFFFFFFFFFFFFFFFFFFFFFFFFF AND DUP2 PUSH20 0xFFFFFFFFFFFFFFFFFFFFFFFFFFFFFFFFFFFFFFFF AND EQ ISZERO PUSH2 0x36B3 JUMPI PUSH1 0x40 MLOAD PUSH32 0x8C379A000000000000000000000000000000000000000000000000000000000 DUP2 MSTORE PUSH1 0x4 ADD PUSH2 0x36AA SWAP1 PUSH2 0x4EF6 JUMP JUMPDEST PUSH1 0x40 MLOAD DUP1 SWAP2 SUB SWAP1 REVERT JUMPDEST PUSH2 0x36BC DUP2 PUSH2 0x3EF5 JUMP JUMPDEST POP JUMP JUMPDEST PUSH1 0xA7 PUSH1 0x0 SWAP1 SLOAD SWAP1 PUSH2 0x100 EXP SWAP1 DIV PUSH20 0xFFFFFFFFFFFFFFFFFFFFFFFFFFFFFFFFFFFFFFFF AND DUP2 JUMP JUMPDEST PUSH1 0xA8 DUP2 DUP2 SLOAD DUP2 LT PUSH2 0x36F5 JUMPI PUSH1 0x0 DUP1 REVERT JUMPDEST SWAP1 PUSH1 0x0 MSTORE PUSH1 0x20 PUSH1 0x0 KECCAK256 ADD PUSH1 0x0 SWAP2 POP SLOAD SWAP1 PUSH2 0x100 EXP SWAP1 DIV PUSH20 0xFFFFFFFFFFFFFFFFFFFFFFFFFFFFFFFFFFFFFFFF AND DUP2 JUMP JUMPDEST PUSH1 0x0 DUP1 DUP3 PUSH20 0xFFFFFFFFFFFFFFFFFFFFFFFFFFFFFFFFFFFFFFFF AND EXTCODESIZE GT SWAP1 POP SWAP2 SWAP1 POP JUMP JUMPDEST PUSH1 0x0 PUSH1 0x1 SWAP1 SLOAD SWAP1 PUSH2 0x100 EXP SWAP1 DIV PUSH1 0xFF AND PUSH2 0x3796 JUMPI PUSH1 0x40 MLOAD PUSH32 0x8C379A000000000000000000000000000000000000000000000000000000000 DUP2 MSTORE PUSH1 0x4 ADD PUSH2 0x378D SWAP1 PUSH2 0x50D6 JUMP JUMPDEST PUSH1 0x40 MLOAD DUP1 SWAP2 SUB SWAP1 REVERT JUMPDEST PUSH2 0x379E PUSH2 0x4024 JUMP JUMPDEST JUMP JUMPDEST PUSH2 0x37A8 PUSH2 0x4085 JUMP JUMPDEST PUSH20 0xFFFFFFFFFFFFFFFFFFFFFFFFFFFFFFFFFFFFFFFF AND PUSH2 0x37C6 PUSH2 0x2D86 JUMP JUMPDEST PUSH20 0xFFFFFFFFFFFFFFFFFFFFFFFFFFFFFFFFFFFFFFFF AND EQ PUSH2 0x381C JUMPI PUSH1 0x40 MLOAD PUSH32 0x8C379A000000000000000000000000000000000000000000000000000000000 DUP2 MSTORE PUSH1 0x4 ADD PUSH2 0x3813 SWAP1 PUSH2 0x5056 JUMP JUMPDEST PUSH1 0x40 MLOAD DUP1 SWAP2 SUB SWAP1 REVERT JUMPDEST JUMP JUMPDEST PUSH1 0x0 PUSH2 0x3828 PUSH2 0x2E0A JUMP JUMPDEST SWAP1 POP PUSH1 0x4 PUSH1 0xA PUSH1 0x9E SLOAD PUSH2 0x383B SWAP2 SWAP1 PUSH2 0x5377 JUMP JUMPDEST PUSH2 0x3845 SWAP2 SWAP1 PUSH2 0x5346 JUMP JUMPDEST PUSH1 0xA PUSH1 0x9F SLOAD PUSH2 0x3854 SWAP2 SWAP1 PUSH2 0x5377 JUMP JUMPDEST PUSH2 0x385E SWAP2 SWAP1 PUSH2 0x52B4 JUMP JUMPDEST PUSH1 0xA DUP3 PUSH2 0x386B SWAP2 SWAP1 PUSH2 0x5377 JUMP JUMPDEST LT ISZERO PUSH2 0x3877 JUMPI POP PUSH2 0x3A22 JUMP JUMPDEST PUSH1 0x0 PUSH1 0xA0 SLOAD GT ISZERO PUSH2 0x39D9 JUMPI PUSH1 0xA7 PUSH1 0x0 SWAP1 SLOAD SWAP1 PUSH2 0x100 EXP SWAP1 DIV PUSH20 0xFFFFFFFFFFFFFFFFFFFFFFFFFFFFFFFFFFFFFFFF AND PUSH20 0xFFFFFFFFFFFFFFFFFFFFFFFFFFFFFFFFFFFFFFFF AND PUSH4 0xC7841DD2 ADDRESS PUSH1 0xA0 SLOAD PUSH1 0x40 MLOAD DUP4 PUSH4 0xFFFFFFFF AND PUSH1 0xE0 SHL DUP2 MSTORE PUSH1 0x4 ADD PUSH2 0x38E1 SWAP3 SWAP2 SWAP1 PUSH2 0x4C86 JUMP JUMPDEST PUSH1 0x0 PUSH1 0x40 MLOAD DUP1 DUP4 SUB DUP2 PUSH1 0x0 DUP8 DUP1 EXTCODESIZE ISZERO DUP1 ISZERO PUSH2 0x38FB JUMPI PUSH1 0x0 DUP1 REVERT JUMPDEST POP GAS CALL SWAP3 POP POP POP DUP1 ISZERO PUSH2 0x390C JUMPI POP PUSH1 0x1 JUMPDEST PUSH2 0x398E JUMPI RETURNDATASIZE DUP1 PUSH1 0x0 DUP2 EQ PUSH2 0x393C JUMPI PUSH1 0x40 MLOAD SWAP2 POP PUSH1 0x1F NOT PUSH1 0x3F RETURNDATASIZE ADD AND DUP3 ADD PUSH1 0x40 MSTORE RETURNDATASIZE DUP3 MSTORE RETURNDATASIZE PUSH1 0x0 PUSH1 0x20 DUP5 ADD RETURNDATACOPY PUSH2 0x3941 JUMP JUMPDEST PUSH1 0x60 SWAP2 POP JUMPDEST POP DUP1 PUSH1 0x40 MLOAD PUSH2 0x3950 SWAP2 SWAP1 PUSH2 0x4C13 JUMP JUMPDEST PUSH1 0x40 MLOAD DUP1 SWAP2 SUB SWAP1 KECCAK256 DUP3 PUSH1 0xA0 SLOAD PUSH32 0x832C31B2D0CE0C03D09E4E17CCD7312693AF36DDD41C197ED1ED6C6DD58CB2ED PUSH1 0x40 MLOAD PUSH1 0x40 MLOAD DUP1 SWAP2 SUB SWAP1 LOG4 POP PUSH2 0x39D8 JUMP JUMPDEST DUP1 PUSH32 0xD112BE63E7FCEB2DDDC1FCF8AE6159D873AF98BE4505DAEE865E08F2AEAE802D PUSH1 0xA0 SLOAD PUSH1 0x40 MLOAD PUSH2 0x39C0 SWAP2 SWAP1 PUSH2 0x5196 JUMP JUMPDEST PUSH1 0x40 MLOAD DUP1 SWAP2 SUB SWAP1 LOG2 PUSH1 0x0 PUSH1 0xA0 DUP2 SWAP1 SSTORE POP DUP1 PUSH1 0x9F DUP2 SWAP1 SSTORE POP JUMPDEST JUMPDEST PUSH1 0xA0 SLOAD DUP2 CALLER PUSH20 0xFFFFFFFFFFFFFFFFFFFFFFFFFFFFFFFFFFFFFFFF AND PUSH32 0x69EADFDF59619A336DC106A730FA0CCF616EE1D058E409CD39F65F2A5CCDECAE PUSH1 0x40 MLOAD PUSH1 0x40 MLOAD DUP1 SWAP2 SUB SWAP1 LOG4 POP JUMPDEST JUMP JUMPDEST PUSH1 0x0 SELFBALANCE SWAP1 POP PUSH1 0xA7 PUSH1 0x0 SWAP1 SLOAD SWAP1 PUSH2 0x100 EXP SWAP1 DIV PUSH20 0xFFFFFFFFFFFFFFFFFFFFFFFFFFFFFFFFFFFFFFFF AND PUSH20 0xFFFFFFFFFFFFFFFFFFFFFFFFFFFFFFFFFFFFFFFF AND PUSH4 0x77A0FE02 PUSH1 0x40 MLOAD DUP2 PUSH4 0xFFFFFFFF AND PUSH1 0xE0 SHL DUP2 MSTORE PUSH1 0x4 ADD PUSH1 0x0 PUSH1 0x40 MLOAD DUP1 DUP4 SUB DUP2 PUSH1 0x0 DUP8 DUP1 EXTCODESIZE ISZERO DUP1 ISZERO PUSH2 0x3A93 JUMPI PUSH1 0x0 DUP1 REVERT JUMPDEST POP GAS CALL SWAP3 POP POP POP DUP1 ISZERO PUSH2 0x3AA4 JUMPI POP PUSH1 0x1 JUMPDEST PUSH2 0x3B23 JUMPI RETURNDATASIZE DUP1 PUSH1 0x0 DUP2 EQ PUSH2 0x3AD4 JUMPI PUSH1 0x40 MLOAD SWAP2 POP PUSH1 0x1F NOT PUSH1 0x3F RETURNDATASIZE ADD AND DUP3 ADD PUSH1 0x40 MSTORE RETURNDATASIZE DUP3 MSTORE RETURNDATASIZE PUSH1 0x0 PUSH1 0x20 DUP5 ADD RETURNDATACOPY PUSH2 0x3AD9 JUMP JUMPDEST PUSH1 0x60 SWAP2 POP JUMPDEST POP DUP1 PUSH1 0x40 MLOAD PUSH2 0x3AE8 SWAP2 SWAP1 PUSH2 0x4C13 JUMP JUMPDEST PUSH1 0x40 MLOAD DUP1 SWAP2 SUB SWAP1 KECCAK256 DUP4 PUSH32 0xF031B94D40B16F5C2B8213E25EA0F640687FA24E99F6A0EF56CDD46762434A2F PUSH1 0x40 MLOAD PUSH1 0x40 MLOAD DUP1 SWAP2 SUB SWAP1 LOG3 POP PUSH2 0x3B50 JUMP JUMPDEST DUP2 PUSH31 0x973A60D81248412B3530A2FF12C475667DC3C0ECE650FB361C044AA240565B PUSH1 0x40 MLOAD PUSH1 0x40 MLOAD DUP1 SWAP2 SUB SWAP1 LOG2 JUMPDEST PUSH1 0x0 SELFBALANCE SWAP1 POP DUP2 DUP2 PUSH2 0x3B61 SWAP2 SWAP1 PUSH2 0x5411 JUMP JUMPDEST PUSH1 0xA1 PUSH1 0x0 DUP3 DUP3 SLOAD PUSH2 0x3B72 SWAP2 SWAP1 PUSH2 0x52B4 JUMP JUMPDEST SWAP3 POP POP DUP2 SWAP1 SSTORE POP DUP3 CALLER PUSH20 0xFFFFFFFFFFFFFFFFFFFFFFFFFFFFFFFFFFFFFFFF AND PUSH32 0x7AE76C7BA85137A574DA9E7EF1F16FCD73E8290DF91265541D72F81C331862E0 DUP5 DUP5 PUSH2 0x3BBE SWAP2 SWAP1 PUSH2 0x5411 JUMP JUMPDEST PUSH1 0x40 MLOAD PUSH2 0x3BCB SWAP2 SWAP1 PUSH2 0x5196 JUMP JUMPDEST PUSH1 0x40 MLOAD DUP1 SWAP2 SUB SWAP1 LOG3 POP POP POP JUMP JUMPDEST DUP1 SELFBALANCE LT ISZERO PUSH2 0x3C1B JUMPI PUSH1 0x40 MLOAD PUSH32 0x8C379A000000000000000000000000000000000000000000000000000000000 DUP2 MSTORE PUSH1 0x4 ADD PUSH2 0x3C12 SWAP1 PUSH2 0x4F96 JUMP JUMPDEST PUSH1 0x40 MLOAD DUP1 SWAP2 SUB SWAP1 REVERT JUMPDEST PUSH1 0x0 DUP3 PUSH20 0xFFFFFFFFFFFFFFFFFFFFFFFFFFFFFFFFFFFFFFFF AND DUP3 PUSH1 0x40 MLOAD PUSH2 0x3C41 SWAP1 PUSH2 0x4C41 JUMP JUMPDEST PUSH1 0x0 PUSH1 0x40 MLOAD DUP1 DUP4 SUB DUP2 DUP6 DUP8 GAS CALL SWAP3 POP POP POP RETURNDATASIZE DUP1 PUSH1 0x0 DUP2 EQ PUSH2 0x3C7E JUMPI PUSH1 0x40 MLOAD SWAP2 POP PUSH1 0x1F NOT PUSH1 0x3F RETURNDATASIZE ADD AND DUP3 ADD PUSH1 0x40 MSTORE RETURNDATASIZE DUP3 MSTORE RETURNDATASIZE PUSH1 0x0 PUSH1 0x20 DUP5 ADD RETURNDATACOPY PUSH2 0x3C83 JUMP JUMPDEST PUSH1 0x60 SWAP2 POP JUMPDEST POP POP SWAP1 POP DUP1 PUSH2 0x3CC7 JUMPI PUSH1 0x40 MLOAD PUSH32 0x8C379A000000000000000000000000000000000000000000000000000000000 DUP2 MSTORE PUSH1 0x4 ADD PUSH2 0x3CBE SWAP1 PUSH2 0x4F56 JUMP JUMPDEST PUSH1 0x40 MLOAD DUP1 SWAP2 SUB SWAP1 REVERT JUMPDEST POP POP POP JUMP JUMPDEST PUSH1 0x2 PUSH1 0x65 SLOAD EQ ISZERO PUSH2 0x3D12 JUMPI PUSH1 0x40 MLOAD PUSH32 0x8C379A000000000000000000000000000000000000000000000000000000000 DUP2 MSTORE PUSH1 0x4 ADD PUSH2 0x3D09 SWAP1 PUSH2 0x5136 JUMP JUMPDEST PUSH1 0x40 MLOAD DUP1 SWAP2 SUB SWAP1 REVERT JUMPDEST PUSH1 0x2 PUSH1 0x65 DUP2 SWAP1 SSTORE POP JUMP JUMPDEST PUSH1 0x0 DUP1 PUSH1 0x1 PUSH1 0x97 PUSH1 0x0 SWAP1 SLOAD SWAP1 PUSH2 0x100 EXP SWAP1 DIV PUSH20 0xFFFFFFFFFFFFFFFFFFFFFFFFFFFFFFFFFFFFFFFF AND PUSH20 0xFFFFFFFFFFFFFFFFFFFFFFFFFFFFFFFFFFFFFFFF AND PUSH4 0x471121D1 ADDRESS PUSH1 0x40 MLOAD DUP3 PUSH4 0xFFFFFFFF AND PUSH1 0xE0 SHL DUP2 MSTORE PUSH1 0x4 ADD PUSH2 0x3D7C SWAP2 SWAP1 PUSH2 0x4C6B JUMP JUMPDEST PUSH1 0x20 PUSH1 0x40 MLOAD DUP1 DUP4 SUB DUP2 DUP7 DUP1 EXTCODESIZE ISZERO DUP1 ISZERO PUSH2 0x3D94 JUMPI PUSH1 0x0 DUP1 REVERT JUMPDEST POP GAS STATICCALL ISZERO DUP1 ISZERO PUSH2 0x3DA8 JUMPI RETURNDATASIZE PUSH1 0x0 DUP1 RETURNDATACOPY RETURNDATASIZE PUSH1 0x0 REVERT JUMPDEST POP POP POP POP PUSH1 0x40 MLOAD RETURNDATASIZE PUSH1 0x1F NOT PUSH1 0x1F DUP3 ADD AND DUP3 ADD DUP1 PUSH1 0x40 MSTORE POP DUP2 ADD SWAP1 PUSH2 0x3DCC SWAP2 SWAP1 PUSH2 0x458A JUMP JUMPDEST PUSH2 0x3DD6 SWAP2 SWAP1 PUSH2 0x5411 JUMP JUMPDEST SWAP1 POP PUSH1 0x97 PUSH1 0x0 SWAP1 SLOAD SWAP1 PUSH2 0x100 EXP SWAP1 DIV PUSH20 0xFFFFFFFFFFFFFFFFFFFFFFFFFFFFFFFFFFFFFFFF AND PUSH20 0xFFFFFFFFFFFFFFFFFFFFFFFFFFFFFFFFFFFFFFFF AND PUSH4 0xE5FE4DFF ADDRESS DUP4 PUSH1 0x40 MLOAD DUP4 PUSH4 0xFFFFFFFF AND PUSH1 0xE0 SHL DUP2 MSTORE PUSH1 0x4 ADD PUSH2 0x3E35 SWAP3 SWAP2 SWAP1 PUSH2 0x4CAF JUMP JUMPDEST PUSH1 0x20 PUSH1 0x40 MLOAD DUP1 DUP4 SUB DUP2 DUP7 DUP1 EXTCODESIZE ISZERO DUP1 ISZERO PUSH2 0x3E4D JUMPI PUSH1 0x0 DUP1 REVERT JUMPDEST POP GAS STATICCALL ISZERO DUP1 ISZERO PUSH2 0x3E61 JUMPI RETURNDATASIZE PUSH1 0x0 DUP1 RETURNDATACOPY RETURNDATASIZE PUSH1 0x0 REVERT JUMPDEST POP POP POP POP PUSH1 0x40 MLOAD RETURNDATASIZE PUSH1 0x1F NOT PUSH1 0x1F DUP3 ADD AND DUP3 ADD DUP1 PUSH1 0x40 MSTORE POP DUP2 ADD SWAP1 PUSH2 0x3E85 SWAP2 SWAP1 PUSH2 0x4480 JUMP JUMPDEST SWAP2 POP POP SWAP1 JUMP JUMPDEST PUSH1 0x1 PUSH1 0x65 DUP2 SWAP1 SSTORE POP JUMP JUMPDEST PUSH1 0x60 PUSH1 0x0 DUP3 TIMESTAMP PUSH1 0x40 MLOAD PUSH1 0x20 ADD PUSH2 0x3EAC SWAP3 SWAP2 SWAP1 PUSH2 0x4CAF JUMP JUMPDEST PUSH1 0x40 MLOAD PUSH1 0x20 DUP2 DUP4 SUB SUB DUP2 MSTORE SWAP1 PUSH1 0x40 MSTORE DUP1 MLOAD SWAP1 PUSH1 0x20 ADD KECCAK256 SWAP1 POP PUSH2 0x3EED DUP2 PUSH29 0xFFFFFFFFFFFFFFFFFFFFFFFFFFFFFFFFFFFFFFFFFFFFFFFFFFFFFFFFFF NOT AND PUSH2 0x408D JUMP JUMPDEST SWAP2 POP POP SWAP2 SWAP1 POP JUMP JUMPDEST PUSH1 0x0 PUSH1 0x33 PUSH1 0x0 SWAP1 SLOAD SWAP1 PUSH2 0x100 EXP SWAP1 DIV PUSH20 0xFFFFFFFFFFFFFFFFFFFFFFFFFFFFFFFFFFFFFFFF AND SWAP1 POP DUP2 PUSH1 0x33 PUSH1 0x0 PUSH2 0x100 EXP DUP2 SLOAD DUP2 PUSH20 0xFFFFFFFFFFFFFFFFFFFFFFFFFFFFFFFFFFFFFFFF MUL NOT AND SWAP1 DUP4 PUSH20 0xFFFFFFFFFFFFFFFFFFFFFFFFFFFFFFFFFFFFFFFF AND MUL OR SWAP1 SSTORE POP DUP2 PUSH20 0xFFFFFFFFFFFFFFFFFFFFFFFFFFFFFFFFFFFFFFFF AND DUP2 PUSH20 0xFFFFFFFFFFFFFFFFFFFFFFFFFFFFFFFFFFFFFFFF AND PUSH32 0x8BE0079C531659141344CD1FD0A4F28419497F9722A3DAAFE3B4186F6B6457E0 PUSH1 0x40 MLOAD PUSH1 0x40 MLOAD DUP1 SWAP2 SUB SWAP1 LOG3 POP POP JUMP JUMPDEST PUSH1 0x0 PUSH1 0x99 SLOAD PUSH8 0xDE0B6B3A7640000 PUSH1 0xAA PUSH1 0x0 DUP6 PUSH20 0xFFFFFFFFFFFFFFFFFFFFFFFFFFFFFFFFFFFFFFFF AND PUSH20 0xFFFFFFFFFFFFFFFFFFFFFFFFFFFFFFFFFFFFFFFF AND DUP2 MSTORE PUSH1 0x20 ADD SWAP1 DUP2 MSTORE PUSH1 0x20 ADD PUSH1 0x0 KECCAK256 SLOAD PUSH2 0x4013 SWAP2 SWAP1 PUSH2 0x5377 JUMP JUMPDEST PUSH2 0x401D SWAP2 SWAP1 PUSH2 0x5346 JUMP JUMPDEST SWAP1 POP SWAP2 SWAP1 POP JUMP JUMPDEST PUSH1 0x0 PUSH1 0x1 SWAP1 SLOAD SWAP1 PUSH2 0x100 EXP SWAP1 DIV PUSH1 0xFF AND PUSH2 0x4073 JUMPI PUSH1 0x40 MLOAD PUSH32 0x8C379A000000000000000000000000000000000000000000000000000000000 DUP2 MSTORE PUSH1 0x4 ADD PUSH2 0x406A SWAP1 PUSH2 0x50D6 JUMP JUMPDEST PUSH1 0x40 MLOAD DUP1 SWAP2 SUB SWAP1 REVERT JUMPDEST PUSH2 0x4083 PUSH2 0x407E PUSH2 0x4085 JUMP JUMPDEST PUSH2 0x3EF5 JUMP JUMPDEST JUMP JUMPDEST PUSH1 0x0 CALLER SWAP1 POP SWAP1 JUMP JUMPDEST PUSH1 0x60 PUSH1 0x0 PUSH1 0xC PUSH5 0xFFF000000 PUSH1 0xD0 SHL DUP5 PUSH29 0xFFFFFFFFFFFFFFFFFFFFFFFFFFFFFFFFFFFFFFFFFFFFFFFFFFFFFFFFFF NOT AND AND PUSH26 0xFFFFFFFFFFFFFFFFFFFFFFFFFFFFFFFFFFFFFFFFFFFFFFFFFFFF NOT AND SWAP1 SHR PUSH6 0xFFF000000000 PUSH1 0xD0 SHL DUP5 PUSH29 0xFFFFFFFFFFFFFFFFFFFFFFFFFFFFFFFFFFFFFFFFFFFFFFFFFFFFFFFFFF NOT AND AND OR SWAP1 POP PUSH1 0x8 PUSH5 0xF00000F000 PUSH1 0xD0 SHL DUP3 AND PUSH26 0xFFFFFFFFFFFFFFFFFFFFFFFFFFFFFFFFFFFFFFFFFFFFFFFFFFFF NOT AND SWAP1 SHR PUSH6 0xFF0000FF0000 PUSH1 0xD0 SHL DUP3 AND OR SWAP1 POP PUSH1 0x4 PUSH6 0xF00000F0000 PUSH1 0xD0 SHL DUP3 AND PUSH26 0xFFFFFFFFFFFFFFFFFFFFFFFFFFFFFFFFFFFFFFFFFFFFFFFFFFFF NOT AND SWAP1 SHR PUSH6 0xF000F0F000F0 PUSH1 0xD0 SHL DUP3 AND OR SWAP1 POP PUSH1 0x4 PUSH6 0xF0F0F0F0F0F0 PUSH1 0xD0 SHL DUP3 AND PUSH26 0xFFFFFFFFFFFFFFFFFFFFFFFFFFFFFFFFFFFFFFFFFFFFFFFFFFFF NOT AND SWAP1 SHR SWAP1 POP PUSH1 0x7 PUSH6 0xF0F0F0F0F0F PUSH1 0x4 PUSH6 0x60606060606 DUP5 PUSH1 0xD0 SHR PUSH2 0x41D2 SWAP2 SWAP1 PUSH2 0x530A JUMP JUMPDEST PUSH6 0xFFFFFFFFFFFF AND SWAP1 SHR AND PUSH2 0x41E7 SWAP2 SWAP1 PUSH2 0x53D1 JUMP JUMPDEST DUP2 PUSH1 0xD0 SHR PUSH6 0x303030303030 PUSH2 0x41FC SWAP2 SWAP1 PUSH2 0x530A JUMP JUMPDEST PUSH2 0x4206 SWAP2 SWAP1 PUSH2 0x530A JUMP JUMPDEST PUSH1 0xD0 SHL SWAP1 POP DUP1 PUSH1 0x40 MLOAD PUSH1 0x20 ADD PUSH2 0x421C SWAP2 SWAP1 PUSH2 0x4BF8 JUMP JUMPDEST PUSH1 0x40 MLOAD PUSH1 0x20 DUP2 DUP4 SUB SUB DUP2 MSTORE SWAP1 PUSH1 0x40 MSTORE SWAP2 POP POP SWAP2 SWAP1 POP JUMP JUMPDEST DUP3 DUP1 SLOAD PUSH2 0x423F SWAP1 PUSH2 0x55D0 JUMP JUMPDEST SWAP1 PUSH1 0x0 MSTORE PUSH1 0x20 PUSH1 0x0 KECCAK256 SWAP1 PUSH1 0x1F ADD PUSH1 0x20 SWAP1 DIV DUP2 ADD SWAP3 DUP3 PUSH2 0x4261 JUMPI PUSH1 0x0 DUP6 SSTORE PUSH2 0x42A8 JUMP JUMPDEST DUP3 PUSH1 0x1F LT PUSH2 0x427A JUMPI DUP1 MLOAD PUSH1 0xFF NOT AND DUP4 DUP1 ADD OR DUP6 SSTORE PUSH2 0x42A8 JUMP JUMPDEST DUP3 DUP1 ADD PUSH1 0x1 ADD DUP6 SSTORE DUP3 ISZERO PUSH2 0x42A8 JUMPI SWAP2 DUP3 ADD JUMPDEST DUP3 DUP2 GT ISZERO PUSH2 0x42A7 JUMPI DUP3 MLOAD DUP3 SSTORE SWAP2 PUSH1 0x20 ADD SWAP2 SWAP1 PUSH1 0x1 ADD SWAP1 PUSH2 0x428C JUMP JUMPDEST JUMPDEST POP SWAP1 POP PUSH2 0x42B5 SWAP2 SWAP1 PUSH2 0x42DA JUMP JUMPDEST POP SWAP1 JUMP JUMPDEST POP DUP1 SLOAD PUSH1 0x0 DUP3 SSTORE SWAP1 PUSH1 0x0 MSTORE PUSH1 0x20 PUSH1 0x0 KECCAK256 SWAP1 DUP2 ADD SWAP1 PUSH2 0x42D7 SWAP2 SWAP1 PUSH2 0x42DA JUMP JUMPDEST POP JUMP JUMPDEST JUMPDEST DUP1 DUP3 GT ISZERO PUSH2 0x42F3 JUMPI PUSH1 0x0 DUP2 PUSH1 0x0 SWAP1 SSTORE POP PUSH1 0x1 ADD PUSH2 0x42DB JUMP JUMPDEST POP SWAP1 JUMP JUMPDEST PUSH1 0x0 PUSH2 0x430A PUSH2 0x4305 DUP5 PUSH2 0x520D JUMP JUMPDEST PUSH2 0x51E8 JUMP JUMPDEST SWAP1 POP DUP3 DUP2 MSTORE PUSH1 0x20 DUP2 ADD DUP5 DUP5 DUP5 ADD GT ISZERO PUSH2 0x4322 JUMPI PUSH1 0x0 DUP1 REVERT JUMPDEST PUSH2 0x432D DUP5 DUP3 DUP6 PUSH2 0x558E JUMP JUMPDEST POP SWAP4 SWAP3 POP POP POP JUMP JUMPDEST PUSH1 0x0 DUP2 CALLDATALOAD SWAP1 POP PUSH2 0x4344 DUP2 PUSH2 0x5CD6 JUMP JUMPDEST SWAP3 SWAP2 POP POP JUMP JUMPDEST PUSH1 0x0 DUP2 CALLDATALOAD SWAP1 POP PUSH2 0x4359 DUP2 PUSH2 0x5CED JUMP JUMPDEST SWAP3 SWAP2 POP POP JUMP JUMPDEST PUSH1 0x0 DUP2 MLOAD SWAP1 POP PUSH2 0x436E DUP2 PUSH2 0x5CED JUMP JUMPDEST SWAP3 SWAP2 POP POP JUMP JUMPDEST PUSH1 0x0 DUP2 MLOAD SWAP1 POP PUSH2 0x4383 DUP2 PUSH2 0x5D04 JUMP JUMPDEST SWAP3 SWAP2 POP POP JUMP JUMPDEST PUSH1 0x0 DUP2 CALLDATALOAD SWAP1 POP PUSH2 0x4398 DUP2 PUSH2 0x5D1B JUMP JUMPDEST SWAP3 SWAP2 POP POP JUMP JUMPDEST PUSH1 0x0 DUP3 PUSH1 0x1F DUP4 ADD SLT PUSH2 0x43AF JUMPI PUSH1 0x0 DUP1 REVERT JUMPDEST DUP2 CALLDATALOAD PUSH2 0x43BF DUP5 DUP3 PUSH1 0x20 DUP7 ADD PUSH2 0x42F7 JUMP JUMPDEST SWAP2 POP POP SWAP3 SWAP2 POP POP JUMP JUMPDEST PUSH1 0x0 DUP2 CALLDATALOAD SWAP1 POP PUSH2 0x43D7 DUP2 PUSH2 0x5D32 JUMP JUMPDEST SWAP3 SWAP2 POP POP JUMP JUMPDEST PUSH1 0x0 DUP2 MLOAD SWAP1 POP PUSH2 0x43EC DUP2 PUSH2 0x5D32 JUMP JUMPDEST SWAP3 SWAP2 POP POP JUMP JUMPDEST PUSH1 0x0 PUSH1 0x20 DUP3 DUP5 SUB SLT ISZERO PUSH2 0x4404 JUMPI PUSH1 0x0 DUP1 REVERT JUMPDEST PUSH1 0x0 PUSH2 0x4412 DUP5 DUP3 DUP6 ADD PUSH2 0x4335 JUMP JUMPDEST SWAP2 POP POP SWAP3 SWAP2 POP POP JUMP JUMPDEST PUSH1 0x0 DUP1 PUSH1 0x40 DUP4 DUP6 SUB SLT ISZERO PUSH2 0x442E JUMPI PUSH1 0x0 DUP1 REVERT JUMPDEST PUSH1 0x0 PUSH2 0x443C DUP6 DUP3 DUP7 ADD PUSH2 0x4335 JUMP JUMPDEST SWAP3 POP POP PUSH1 0x20 PUSH2 0x444D DUP6 DUP3 DUP7 ADD PUSH2 0x43C8 JUMP JUMPDEST SWAP2 POP POP SWAP3 POP SWAP3 SWAP1 POP JUMP JUMPDEST PUSH1 0x0 PUSH1 0x20 DUP3 DUP5 SUB SLT ISZERO PUSH2 0x4469 JUMPI PUSH1 0x0 DUP1 REVERT JUMPDEST PUSH1 0x0 PUSH2 0x4477 DUP5 DUP3 DUP6 ADD PUSH2 0x435F JUMP JUMPDEST SWAP2 POP POP SWAP3 SWAP2 POP POP JUMP JUMPDEST PUSH1 0x0 PUSH1 0x20 DUP3 DUP5 SUB SLT ISZERO PUSH2 0x4492 JUMPI PUSH1 0x0 DUP1 REVERT JUMPDEST PUSH1 0x0 PUSH2 0x44A0 DUP5 DUP3 DUP6 ADD PUSH2 0x4374 JUMP JUMPDEST SWAP2 POP POP SWAP3 SWAP2 POP POP JUMP JUMPDEST PUSH1 0x0 DUP1 PUSH1 0x0 DUP1 PUSH1 0x0 PUSH1 0xA0 DUP7 DUP9 SUB SLT ISZERO PUSH2 0x44C1 JUMPI PUSH1 0x0 DUP1 REVERT JUMPDEST PUSH1 0x0 PUSH2 0x44CF DUP9 DUP3 DUP10 ADD PUSH2 0x4389 JUMP JUMPDEST SWAP6 POP POP PUSH1 0x20 PUSH2 0x44E0 DUP9 DUP3 DUP10 ADD PUSH2 0x4335 JUMP JUMPDEST SWAP5 POP POP PUSH1 0x40 PUSH2 0x44F1 DUP9 DUP3 DUP10 ADD PUSH2 0x4335 JUMP JUMPDEST SWAP4 POP POP PUSH1 0x60 PUSH2 0x4502 DUP9 DUP3 DUP10 ADD PUSH2 0x4335 JUMP JUMPDEST SWAP3 POP POP PUSH1 0x80 PUSH2 0x4513 DUP9 DUP3 DUP10 ADD PUSH2 0x4335 JUMP JUMPDEST SWAP2 POP POP SWAP3 SWAP6 POP SWAP3 SWAP6 SWAP1 SWAP4 POP JUMP JUMPDEST PUSH1 0x0 PUSH1 0x20 DUP3 DUP5 SUB SLT ISZERO PUSH2 0x4532 JUMPI PUSH1 0x0 DUP1 REVERT JUMPDEST PUSH1 0x0 DUP3 ADD CALLDATALOAD PUSH8 0xFFFFFFFFFFFFFFFF DUP2 GT ISZERO PUSH2 0x454C JUMPI PUSH1 0x0 DUP1 REVERT JUMPDEST PUSH2 0x4558 DUP5 DUP3 DUP6 ADD PUSH2 0x439E JUMP JUMPDEST SWAP2 POP POP SWAP3 SWAP2 POP POP JUMP JUMPDEST PUSH1 0x0 PUSH1 0x20 DUP3 DUP5 SUB SLT ISZERO PUSH2 0x4573 JUMPI PUSH1 0x0 DUP1 REVERT JUMPDEST PUSH1 0x0 PUSH2 0x4581 DUP5 DUP3 DUP6 ADD PUSH2 0x43C8 JUMP JUMPDEST SWAP2 POP POP SWAP3 SWAP2 POP POP JUMP JUMPDEST PUSH1 0x0 PUSH1 0x20 DUP3 DUP5 SUB SLT ISZERO PUSH2 0x459C JUMPI PUSH1 0x0 DUP1 REVERT JUMPDEST PUSH1 0x0 PUSH2 0x45AA DUP5 DUP3 DUP6 ADD PUSH2 0x43DD JUMP JUMPDEST SWAP2 POP POP SWAP3 SWAP2 POP POP JUMP JUMPDEST PUSH1 0x0 DUP1 PUSH1 0x40 DUP4 DUP6 SUB SLT ISZERO PUSH2 0x45C6 JUMPI PUSH1 0x0 DUP1 REVERT JUMPDEST PUSH1 0x0 PUSH2 0x45D4 DUP6 DUP3 DUP7 ADD PUSH2 0x43C8 JUMP JUMPDEST SWAP3 POP POP PUSH1 0x20 PUSH2 0x45E5 DUP6 DUP3 DUP7 ADD PUSH2 0x43C8 JUMP JUMPDEST SWAP2 POP POP SWAP3 POP SWAP3 SWAP1 POP JUMP JUMPDEST PUSH1 0x0 DUP1 PUSH1 0x0 DUP1 PUSH1 0x0 PUSH1 0xA0 DUP7 DUP9 SUB SLT ISZERO PUSH2 0x4607 JUMPI PUSH1 0x0 DUP1 REVERT JUMPDEST PUSH1 0x0 PUSH2 0x4615 DUP9 DUP3 DUP10 ADD PUSH2 0x43C8 JUMP JUMPDEST SWAP6 POP POP PUSH1 0x20 PUSH2 0x4626 DUP9 DUP3 DUP10 ADD PUSH2 0x43C8 JUMP JUMPDEST SWAP5 POP POP PUSH1 0x40 PUSH2 0x4637 DUP9 DUP3 DUP10 ADD PUSH2 0x43C8 JUMP JUMPDEST SWAP4 POP POP PUSH1 0x60 PUSH2 0x4648 DUP9 DUP3 DUP10 ADD PUSH2 0x434A JUMP JUMPDEST SWAP3 POP POP PUSH1 0x80 PUSH2 0x4659 DUP9 DUP3 DUP10 ADD PUSH2 0x43C8 JUMP JUMPDEST SWAP2 POP POP SWAP3 SWAP6 POP SWAP3 SWAP6 SWAP1 SWAP4 POP JUMP JUMPDEST PUSH1 0x0 PUSH2 0x4672 DUP4 DUP4 PUSH2 0x467E JUMP JUMPDEST PUSH1 0x20 DUP4 ADD SWAP1 POP SWAP3 SWAP2 POP POP JUMP JUMPDEST PUSH2 0x4687 DUP2 PUSH2 0x5445 JUMP JUMPDEST DUP3 MSTORE POP POP JUMP JUMPDEST PUSH2 0x4696 DUP2 PUSH2 0x5445 JUMP JUMPDEST DUP3 MSTORE POP POP JUMP JUMPDEST PUSH1 0x0 PUSH2 0x46A7 DUP3 PUSH2 0x524E JUMP JUMPDEST PUSH2 0x46B1 DUP2 DUP6 PUSH2 0x527C JUMP JUMPDEST SWAP4 POP PUSH2 0x46BC DUP4 PUSH2 0x523E JUMP JUMPDEST DUP1 PUSH1 0x0 JUMPDEST DUP4 DUP2 LT ISZERO PUSH2 0x46ED JUMPI DUP2 MLOAD PUSH2 0x46D4 DUP9 DUP3 PUSH2 0x4666 JUMP JUMPDEST SWAP8 POP PUSH2 0x46DF DUP4 PUSH2 0x526F JUMP JUMPDEST SWAP3 POP POP PUSH1 0x1 DUP2 ADD SWAP1 POP PUSH2 0x46C0 JUMP JUMPDEST POP DUP6 SWAP4 POP POP POP POP SWAP3 SWAP2 POP POP JUMP JUMPDEST PUSH2 0x4703 DUP2 PUSH2 0x5457 JUMP JUMPDEST DUP3 MSTORE POP POP JUMP JUMPDEST PUSH2 0x4712 DUP2 PUSH2 0x5463 JUMP JUMPDEST DUP3 MSTORE POP POP JUMP JUMPDEST PUSH2 0x4729 PUSH2 0x4724 DUP3 PUSH2 0x546D JUMP JUMPDEST PUSH2 0x567C JUMP JUMPDEST DUP3 MSTORE POP POP JUMP JUMPDEST PUSH1 0x0 PUSH2 0x473A DUP3 PUSH2 0x5259 JUMP JUMPDEST PUSH2 0x4744 DUP2 DUP6 PUSH2 0x528D JUMP JUMPDEST SWAP4 POP PUSH2 0x4754 DUP2 DUP6 PUSH1 0x20 DUP7 ADD PUSH2 0x559D JUMP JUMPDEST DUP1 DUP5 ADD SWAP2 POP POP SWAP3 SWAP2 POP POP JUMP JUMPDEST PUSH2 0x4769 DUP2 PUSH2 0x5510 JUMP JUMPDEST DUP3 MSTORE POP POP JUMP JUMPDEST PUSH2 0x4778 DUP2 PUSH2 0x5534 JUMP JUMPDEST DUP3 MSTORE POP POP JUMP JUMPDEST PUSH2 0x4787 DUP2 PUSH2 0x5558 JUMP JUMPDEST DUP3 MSTORE POP POP JUMP JUMPDEST PUSH2 0x4796 DUP2 PUSH2 0x557C JUMP JUMPDEST DUP3 MSTORE POP POP JUMP JUMPDEST PUSH1 0x0 PUSH2 0x47A7 DUP3 PUSH2 0x5264 JUMP JUMPDEST PUSH2 0x47B1 DUP2 DUP6 PUSH2 0x5298 JUMP JUMPDEST SWAP4 POP PUSH2 0x47C1 DUP2 DUP6 PUSH1 0x20 DUP7 ADD PUSH2 0x559D JUMP JUMPDEST PUSH2 0x47CA DUP2 PUSH2 0x5742 JUMP JUMPDEST DUP5 ADD SWAP2 POP POP SWAP3 SWAP2 POP POP JUMP JUMPDEST PUSH1 0x0 PUSH2 0x47E0 DUP3 PUSH2 0x5264 JUMP JUMPDEST PUSH2 0x47EA DUP2 DUP6 PUSH2 0x52A9 JUMP JUMPDEST SWAP4 POP PUSH2 0x47FA DUP2 DUP6 PUSH1 0x20 DUP7 ADD PUSH2 0x559D JUMP JUMPDEST DUP1 DUP5 ADD SWAP2 POP POP SWAP3 SWAP2 POP POP JUMP JUMPDEST PUSH1 0x0 PUSH2 0x4813 PUSH1 0x14 DUP4 PUSH2 0x5298 JUMP JUMPDEST SWAP2 POP PUSH2 0x481E DUP3 PUSH2 0x5753 JUMP JUMPDEST PUSH1 0x20 DUP3 ADD SWAP1 POP SWAP2 SWAP1 POP JUMP JUMPDEST PUSH1 0x0 PUSH2 0x4836 PUSH1 0x17 DUP4 PUSH2 0x5298 JUMP JUMPDEST SWAP2 POP PUSH2 0x4841 DUP3 PUSH2 0x577C JUMP JUMPDEST PUSH1 0x20 DUP3 ADD SWAP1 POP SWAP2 SWAP1 POP JUMP JUMPDEST PUSH1 0x0 PUSH2 0x4859 PUSH1 0x21 DUP4 PUSH2 0x5298 JUMP JUMPDEST SWAP2 POP PUSH2 0x4864 DUP3 PUSH2 0x57A5 JUMP JUMPDEST PUSH1 0x40 DUP3 ADD SWAP1 POP SWAP2 SWAP1 POP JUMP JUMPDEST PUSH1 0x0 PUSH2 0x487C PUSH1 0x2D DUP4 PUSH2 0x5298 JUMP JUMPDEST SWAP2 POP PUSH2 0x4887 DUP3 PUSH2 0x57F4 JUMP JUMPDEST PUSH1 0x40 DUP3 ADD SWAP1 POP SWAP2 SWAP1 POP JUMP JUMPDEST PUSH1 0x0 PUSH2 0x489F PUSH1 0xF DUP4 PUSH2 0x5298 JUMP JUMPDEST SWAP2 POP PUSH2 0x48AA DUP3 PUSH2 0x5843 JUMP JUMPDEST PUSH1 0x20 DUP3 ADD SWAP1 POP SWAP2 SWAP1 POP JUMP JUMPDEST PUSH1 0x0 PUSH2 0x48C2 PUSH1 0x26 DUP4 PUSH2 0x5298 JUMP JUMPDEST SWAP2 POP PUSH2 0x48CD DUP3 PUSH2 0x586C JUMP JUMPDEST PUSH1 0x40 DUP3 ADD SWAP1 POP SWAP2 SWAP1 POP JUMP JUMPDEST PUSH1 0x0 PUSH2 0x48E5 PUSH1 0x1B DUP4 PUSH2 0x5298 JUMP JUMPDEST SWAP2 POP PUSH2 0x48F0 DUP3 PUSH2 0x58BB JUMP JUMPDEST PUSH1 0x20 DUP3 ADD SWAP1 POP SWAP2 SWAP1 POP JUMP JUMPDEST PUSH1 0x0 PUSH2 0x4908 PUSH1 0x17 DUP4 PUSH2 0x5298 JUMP JUMPDEST SWAP2 POP PUSH2 0x4913 DUP3 PUSH2 0x58E4 JUMP JUMPDEST PUSH1 0x20 DUP3 ADD SWAP1 POP SWAP2 SWAP1 POP JUMP JUMPDEST PUSH1 0x0 PUSH2 0x492B PUSH1 0x3A DUP4 PUSH2 0x5298 JUMP JUMPDEST SWAP2 POP PUSH2 0x4936 DUP3 PUSH2 0x590D JUMP JUMPDEST PUSH1 0x40 DUP3 ADD SWAP1 POP SWAP2 SWAP1 POP JUMP JUMPDEST PUSH1 0x0 PUSH2 0x494E PUSH1 0xE DUP4 PUSH2 0x5298 JUMP JUMPDEST SWAP2 POP PUSH2 0x4959 DUP3 PUSH2 0x595C JUMP JUMPDEST PUSH1 0x20 DUP3 ADD SWAP1 POP SWAP2 SWAP1 POP JUMP JUMPDEST PUSH1 0x0 PUSH2 0x4971 PUSH1 0x1D DUP4 PUSH2 0x5298 JUMP JUMPDEST SWAP2 POP PUSH2 0x497C DUP3 PUSH2 0x5985 JUMP JUMPDEST PUSH1 0x20 DUP3 ADD SWAP1 POP SWAP2 SWAP1 POP JUMP JUMPDEST PUSH1 0x0 PUSH2 0x4994 PUSH1 0x10 DUP4 PUSH2 0x5298 JUMP JUMPDEST SWAP2 POP PUSH2 0x499F DUP3 PUSH2 0x59AE JUMP JUMPDEST PUSH1 0x20 DUP3 ADD SWAP1 POP SWAP2 SWAP1 POP JUMP JUMPDEST PUSH1 0x0 PUSH2 0x49B7 PUSH1 0x17 DUP4 PUSH2 0x5298 JUMP JUMPDEST SWAP2 POP PUSH2 0x49C2 DUP3 PUSH2 0x59D7 JUMP JUMPDEST PUSH1 0x20 DUP3 ADD SWAP1 POP SWAP2 SWAP1 POP JUMP JUMPDEST PUSH1 0x0 PUSH2 0x49DA PUSH1 0x2E DUP4 PUSH2 0x5298 JUMP JUMPDEST SWAP2 POP PUSH2 0x49E5 DUP3 PUSH2 0x5A00 JUMP JUMPDEST PUSH1 0x40 DUP3 ADD SWAP1 POP SWAP2 SWAP1 POP JUMP JUMPDEST PUSH1 0x0 PUSH2 0x49FD PUSH1 0x19 DUP4 PUSH2 0x5298 JUMP JUMPDEST SWAP2 POP PUSH2 0x4A08 DUP3 PUSH2 0x5A4F JUMP JUMPDEST PUSH1 0x20 DUP3 ADD SWAP1 POP SWAP2 SWAP1 POP JUMP JUMPDEST PUSH1 0x0 PUSH2 0x4A20 PUSH1 0x21 DUP4 PUSH2 0x5298 JUMP JUMPDEST SWAP2 POP PUSH2 0x4A2B DUP3 PUSH2 0x5A78 JUMP JUMPDEST PUSH1 0x40 DUP3 ADD SWAP1 POP SWAP2 SWAP1 POP JUMP JUMPDEST PUSH1 0x0 PUSH2 0x4A43 PUSH1 0x20 DUP4 PUSH2 0x5298 JUMP JUMPDEST SWAP2 POP PUSH2 0x4A4E DUP3 PUSH2 0x5AC7 JUMP JUMPDEST PUSH1 0x20 DUP3 ADD SWAP1 POP SWAP2 SWAP1 POP JUMP JUMPDEST PUSH1 0x0 PUSH2 0x4A66 PUSH1 0x15 DUP4 PUSH2 0x5298 JUMP JUMPDEST SWAP2 POP PUSH2 0x4A71 DUP3 PUSH2 0x5AF0 JUMP JUMPDEST PUSH1 0x20 DUP3 ADD SWAP1 POP SWAP2 SWAP1 POP JUMP JUMPDEST PUSH1 0x0 PUSH2 0x4A89 PUSH1 0x1B DUP4 PUSH2 0x5298 JUMP JUMPDEST SWAP2 POP PUSH2 0x4A94 DUP3 PUSH2 0x5B19 JUMP JUMPDEST PUSH1 0x20 DUP3 ADD SWAP1 POP SWAP2 SWAP1 POP JUMP JUMPDEST PUSH1 0x0 PUSH2 0x4AAC PUSH1 0x0 DUP4 PUSH2 0x528D JUMP JUMPDEST SWAP2 POP PUSH2 0x4AB7 DUP3 PUSH2 0x5B42 JUMP JUMPDEST PUSH1 0x0 DUP3 ADD SWAP1 POP SWAP2 SWAP1 POP JUMP JUMPDEST PUSH1 0x0 PUSH2 0x4ACF PUSH1 0x0 DUP4 PUSH2 0x52A9 JUMP JUMPDEST SWAP2 POP PUSH2 0x4ADA DUP3 PUSH2 0x5B42 JUMP JUMPDEST PUSH1 0x0 DUP3 ADD SWAP1 POP SWAP2 SWAP1 POP JUMP JUMPDEST PUSH1 0x0 PUSH2 0x4AF2 PUSH1 0x1A DUP4 PUSH2 0x5298 JUMP JUMPDEST SWAP2 POP PUSH2 0x4AFD DUP3 PUSH2 0x5B45 JUMP JUMPDEST PUSH1 0x20 DUP3 ADD SWAP1 POP SWAP2 SWAP1 POP JUMP JUMPDEST PUSH1 0x0 PUSH2 0x4B15 PUSH1 0x2B DUP4 PUSH2 0x5298 JUMP JUMPDEST SWAP2 POP PUSH2 0x4B20 DUP3 PUSH2 0x5B6E JUMP JUMPDEST PUSH1 0x40 DUP3 ADD SWAP1 POP SWAP2 SWAP1 POP JUMP JUMPDEST PUSH1 0x0 PUSH2 0x4B38 PUSH1 0x15 DUP4 PUSH2 0x5298 JUMP JUMPDEST SWAP2 POP PUSH2 0x4B43 DUP3 PUSH2 0x5BBD JUMP JUMPDEST PUSH1 0x20 DUP3 ADD SWAP1 POP SWAP2 SWAP1 POP JUMP JUMPDEST PUSH1 0x0 PUSH2 0x4B5B PUSH1 0x36 DUP4 PUSH2 0x5298 JUMP JUMPDEST SWAP2 POP PUSH2 0x4B66 DUP3 PUSH2 0x5BE6 JUMP JUMPDEST PUSH1 0x40 DUP3 ADD SWAP1 POP SWAP2 SWAP1 POP JUMP JUMPDEST PUSH1 0x0 PUSH2 0x4B7E PUSH1 0x1F DUP4 PUSH2 0x5298 JUMP JUMPDEST SWAP2 POP PUSH2 0x4B89 DUP3 PUSH2 0x5C35 JUMP JUMPDEST PUSH1 0x20 DUP3 ADD SWAP1 POP SWAP2 SWAP1 POP JUMP JUMPDEST PUSH1 0x0 PUSH2 0x4BA1 PUSH1 0x11 DUP4 PUSH2 0x5298 JUMP JUMPDEST SWAP2 POP PUSH2 0x4BAC DUP3 PUSH2 0x5C5E JUMP JUMPDEST PUSH1 0x20 DUP3 ADD SWAP1 POP SWAP2 SWAP1 POP JUMP JUMPDEST PUSH1 0x0 PUSH2 0x4BC4 PUSH1 0x22 DUP4 PUSH2 0x5298 JUMP JUMPDEST SWAP2 POP PUSH2 0x4BCF DUP3 PUSH2 0x5C87 JUMP JUMPDEST PUSH1 0x40 DUP3 ADD SWAP1 POP SWAP2 SWAP1 POP JUMP JUMPDEST PUSH2 0x4BE3 DUP2 PUSH2 0x54AB JUMP JUMPDEST DUP3 MSTORE POP POP JUMP JUMPDEST PUSH2 0x4BF2 DUP2 PUSH2 0x54E7 JUMP JUMPDEST DUP3 MSTORE POP POP JUMP JUMPDEST PUSH1 0x0 PUSH2 0x4C04 DUP3 DUP5 PUSH2 0x4718 JUMP JUMPDEST PUSH1 0x6 DUP3 ADD SWAP2 POP DUP2 SWAP1 POP SWAP3 SWAP2 POP POP JUMP JUMPDEST PUSH1 0x0 PUSH2 0x4C1F DUP3 DUP5 PUSH2 0x472F JUMP JUMPDEST SWAP2 POP DUP2 SWAP1 POP SWAP3 SWAP2 POP POP JUMP JUMPDEST PUSH1 0x0 PUSH2 0x4C36 DUP3 DUP5 PUSH2 0x47D5 JUMP JUMPDEST SWAP2 POP DUP2 SWAP1 POP SWAP3 SWAP2 POP POP JUMP JUMPDEST PUSH1 0x0 PUSH2 0x4C4C DUP3 PUSH2 0x4A9F JUMP JUMPDEST SWAP2 POP DUP2 SWAP1 POP SWAP2 SWAP1 POP JUMP JUMPDEST PUSH1 0x0 PUSH2 0x4C61 DUP3 PUSH2 0x4AC2 JUMP JUMPDEST SWAP2 POP DUP2 SWAP1 POP SWAP2 SWAP1 POP JUMP JUMPDEST PUSH1 0x0 PUSH1 0x20 DUP3 ADD SWAP1 POP PUSH2 0x4C80 PUSH1 0x0 DUP4 ADD DUP5 PUSH2 0x468D JUMP JUMPDEST SWAP3 SWAP2 POP POP JUMP JUMPDEST PUSH1 0x0 PUSH1 0x40 DUP3 ADD SWAP1 POP PUSH2 0x4C9B PUSH1 0x0 DUP4 ADD DUP6 PUSH2 0x468D JUMP JUMPDEST PUSH2 0x4CA8 PUSH1 0x20 DUP4 ADD DUP5 PUSH2 0x4BDA JUMP JUMPDEST SWAP4 SWAP3 POP POP POP JUMP JUMPDEST PUSH1 0x0 PUSH1 0x40 DUP3 ADD SWAP1 POP PUSH2 0x4CC4 PUSH1 0x0 DUP4 ADD DUP6 PUSH2 0x468D JUMP JUMPDEST PUSH2 0x4CD1 PUSH1 0x20 DUP4 ADD DUP5 PUSH2 0x4BE9 JUMP JUMPDEST SWAP4 SWAP3 POP POP POP JUMP JUMPDEST PUSH1 0x0 PUSH1 0xE0 DUP3 ADD SWAP1 POP PUSH2 0x4CED PUSH1 0x0 DUP4 ADD DUP11 PUSH2 0x468D JUMP JUMPDEST PUSH2 0x4CFA PUSH1 0x20 DUP4 ADD DUP10 PUSH2 0x4BE9 JUMP JUMPDEST PUSH2 0x4D07 PUSH1 0x40 DUP4 ADD DUP9 PUSH2 0x4BE9 JUMP JUMPDEST PUSH2 0x4D14 PUSH1 0x60 DUP4 ADD DUP8 PUSH2 0x4BE9 JUMP JUMPDEST PUSH2 0x4D21 PUSH1 0x80 DUP4 ADD DUP7 PUSH2 0x4BE9 JUMP JUMPDEST PUSH2 0x4D2E PUSH1 0xA0 DUP4 ADD DUP6 PUSH2 0x46FA JUMP JUMPDEST PUSH2 0x4D3B PUSH1 0xC0 DUP4 ADD DUP5 PUSH2 0x4BE9 JUMP JUMPDEST SWAP9 SWAP8 POP POP POP POP POP POP POP POP JUMP JUMPDEST PUSH1 0x0 PUSH1 0x20 DUP3 ADD SWAP1 POP DUP2 DUP2 SUB PUSH1 0x0 DUP4 ADD MSTORE PUSH2 0x4D61 DUP2 DUP5 PUSH2 0x469C JUMP JUMPDEST SWAP1 POP SWAP3 SWAP2 POP POP JUMP JUMPDEST PUSH1 0x0 PUSH1 0x20 DUP3 ADD SWAP1 POP PUSH2 0x4D7E PUSH1 0x0 DUP4 ADD DUP5 PUSH2 0x46FA JUMP JUMPDEST SWAP3 SWAP2 POP POP JUMP JUMPDEST PUSH1 0x0 PUSH1 0x20 DUP3 ADD SWAP1 POP PUSH2 0x4D99 PUSH1 0x0 DUP4 ADD DUP5 PUSH2 0x4709 JUMP JUMPDEST SWAP3 SWAP2 POP POP JUMP JUMPDEST PUSH1 0x0 PUSH1 0x40 DUP3 ADD SWAP1 POP PUSH2 0x4DB4 PUSH1 0x0 DUP4 ADD DUP6 PUSH2 0x4709 JUMP JUMPDEST PUSH2 0x4DC1 PUSH1 0x20 DUP4 ADD DUP5 PUSH2 0x4BE9 JUMP JUMPDEST SWAP4 SWAP3 POP POP POP JUMP JUMPDEST PUSH1 0x0 PUSH1 0x20 DUP3 ADD SWAP1 POP PUSH2 0x4DDD PUSH1 0x0 DUP4 ADD DUP5 PUSH2 0x4760 JUMP JUMPDEST SWAP3 SWAP2 POP POP JUMP JUMPDEST PUSH1 0x0 PUSH1 0x20 DUP3 ADD SWAP1 POP PUSH2 0x4DF8 PUSH1 0x0 DUP4 ADD DUP5 PUSH2 0x476F JUMP JUMPDEST SWAP3 SWAP2 POP POP JUMP JUMPDEST PUSH1 0x0 PUSH1 0x20 DUP3 ADD SWAP1 POP PUSH2 0x4E13 PUSH1 0x0 DUP4 ADD DUP5 PUSH2 0x477E JUMP JUMPDEST SWAP3 SWAP2 POP POP JUMP JUMPDEST PUSH1 0x0 PUSH1 0x20 DUP3 ADD SWAP1 POP PUSH2 0x4E2E PUSH1 0x0 DUP4 ADD DUP5 PUSH2 0x478D JUMP JUMPDEST SWAP3 SWAP2 POP POP JUMP JUMPDEST PUSH1 0x0 PUSH1 0x20 DUP3 ADD SWAP1 POP DUP2 DUP2 SUB PUSH1 0x0 DUP4 ADD MSTORE PUSH2 0x4E4E DUP2 DUP5 PUSH2 0x479C JUMP JUMPDEST SWAP1 POP SWAP3 SWAP2 POP POP JUMP JUMPDEST PUSH1 0x0 PUSH1 0x20 DUP3 ADD SWAP1 POP DUP2 DUP2 SUB PUSH1 0x0 DUP4 ADD MSTORE PUSH2 0x4E6F DUP2 PUSH2 0x4806 JUMP JUMPDEST SWAP1 POP SWAP2 SWAP1 POP JUMP JUMPDEST PUSH1 0x0 PUSH1 0x20 DUP3 ADD SWAP1 POP DUP2 DUP2 SUB PUSH1 0x0 DUP4 ADD MSTORE PUSH2 0x4E8F DUP2 PUSH2 0x4829 JUMP JUMPDEST SWAP1 POP SWAP2 SWAP1 POP JUMP JUMPDEST PUSH1 0x0 PUSH1 0x20 DUP3 ADD SWAP1 POP DUP2 DUP2 SUB PUSH1 0x0 DUP4 ADD MSTORE PUSH2 0x4EAF DUP2 PUSH2 0x484C JUMP JUMPDEST SWAP1 POP SWAP2 SWAP1 POP JUMP JUMPDEST PUSH1 0x0 PUSH1 0x20 DUP3 ADD SWAP1 POP DUP2 DUP2 SUB PUSH1 0x0 DUP4 ADD MSTORE PUSH2 0x4ECF DUP2 PUSH2 0x486F JUMP JUMPDEST SWAP1 POP SWAP2 SWAP1 POP JUMP JUMPDEST PUSH1 0x0 PUSH1 0x20 DUP3 ADD SWAP1 POP DUP2 DUP2 SUB PUSH1 0x0 DUP4 ADD MSTORE PUSH2 0x4EEF DUP2 PUSH2 0x4892 JUMP JUMPDEST SWAP1 POP SWAP2 SWAP1 POP JUMP JUMPDEST PUSH1 0x0 PUSH1 0x20 DUP3 ADD SWAP1 POP DUP2 DUP2 SUB PUSH1 0x0 DUP4 ADD MSTORE PUSH2 0x4F0F DUP2 PUSH2 0x48B5 JUMP JUMPDEST SWAP1 POP SWAP2 SWAP1 POP JUMP JUMPDEST PUSH1 0x0 PUSH1 0x20 DUP3 ADD SWAP1 POP DUP2 DUP2 SUB PUSH1 0x0 DUP4 ADD MSTORE PUSH2 0x4F2F DUP2 PUSH2 0x48D8 JUMP JUMPDEST SWAP1 POP SWAP2 SWAP1 POP JUMP JUMPDEST PUSH1 0x0 PUSH1 0x20 DUP3 ADD SWAP1 POP DUP2 DUP2 SUB PUSH1 0x0 DUP4 ADD MSTORE PUSH2 0x4F4F DUP2 PUSH2 0x48FB JUMP JUMPDEST SWAP1 POP SWAP2 SWAP1 POP JUMP JUMPDEST PUSH1 0x0 PUSH1 0x20 DUP3 ADD SWAP1 POP DUP2 DUP2 SUB PUSH1 0x0 DUP4 ADD MSTORE PUSH2 0x4F6F DUP2 PUSH2 0x491E JUMP JUMPDEST SWAP1 POP SWAP2 SWAP1 POP JUMP JUMPDEST PUSH1 0x0 PUSH1 0x20 DUP3 ADD SWAP1 POP DUP2 DUP2 SUB PUSH1 0x0 DUP4 ADD MSTORE PUSH2 0x4F8F DUP2 PUSH2 0x4941 JUMP JUMPDEST SWAP1 POP SWAP2 SWAP1 POP JUMP JUMPDEST PUSH1 0x0 PUSH1 0x20 DUP3 ADD SWAP1 POP DUP2 DUP2 SUB PUSH1 0x0 DUP4 ADD MSTORE PUSH2 0x4FAF DUP2 PUSH2 0x4964 JUMP JUMPDEST SWAP1 POP SWAP2 SWAP1 POP JUMP JUMPDEST PUSH1 0x0 PUSH1 0x20 DUP3 ADD SWAP1 POP DUP2 DUP2 SUB PUSH1 0x0 DUP4 ADD MSTORE PUSH2 0x4FCF DUP2 PUSH2 0x4987 JUMP JUMPDEST SWAP1 POP SWAP2 SWAP1 POP JUMP JUMPDEST PUSH1 0x0 PUSH1 0x20 DUP3 ADD SWAP1 POP DUP2 DUP2 SUB PUSH1 0x0 DUP4 ADD MSTORE PUSH2 0x4FEF DUP2 PUSH2 0x49AA JUMP JUMPDEST SWAP1 POP SWAP2 SWAP1 POP JUMP JUMPDEST PUSH1 0x0 PUSH1 0x20 DUP3 ADD SWAP1 POP DUP2 DUP2 SUB PUSH1 0x0 DUP4 ADD MSTORE PUSH2 0x500F DUP2 PUSH2 0x49CD JUMP JUMPDEST SWAP1 POP SWAP2 SWAP1 POP JUMP JUMPDEST PUSH1 0x0 PUSH1 0x20 DUP3 ADD SWAP1 POP DUP2 DUP2 SUB PUSH1 0x0 DUP4 ADD MSTORE PUSH2 0x502F DUP2 PUSH2 0x49F0 JUMP JUMPDEST SWAP1 POP SWAP2 SWAP1 POP JUMP JUMPDEST PUSH1 0x0 PUSH1 0x20 DUP3 ADD SWAP1 POP DUP2 DUP2 SUB PUSH1 0x0 DUP4 ADD MSTORE PUSH2 0x504F DUP2 PUSH2 0x4A13 JUMP JUMPDEST SWAP1 POP SWAP2 SWAP1 POP JUMP JUMPDEST PUSH1 0x0 PUSH1 0x20 DUP3 ADD SWAP1 POP DUP2 DUP2 SUB PUSH1 0x0 DUP4 ADD MSTORE PUSH2 0x506F DUP2 PUSH2 0x4A36 JUMP JUMPDEST SWAP1 POP SWAP2 SWAP1 POP JUMP JUMPDEST PUSH1 0x0 PUSH1 0x20 DUP3 ADD SWAP1 POP DUP2 DUP2 SUB PUSH1 0x0 DUP4 ADD MSTORE PUSH2 0x508F DUP2 PUSH2 0x4A59 JUMP JUMPDEST SWAP1 POP SWAP2 SWAP1 POP JUMP JUMPDEST PUSH1 0x0 PUSH1 0x20 DUP3 ADD SWAP1 POP DUP2 DUP2 SUB PUSH1 0x0 DUP4 ADD MSTORE PUSH2 0x50AF DUP2 PUSH2 0x4A7C JUMP JUMPDEST SWAP1 POP SWAP2 SWAP1 POP JUMP JUMPDEST PUSH1 0x0 PUSH1 0x20 DUP3 ADD SWAP1 POP DUP2 DUP2 SUB PUSH1 0x0 DUP4 ADD MSTORE PUSH2 0x50CF DUP2 PUSH2 0x4AE5 JUMP JUMPDEST SWAP1 POP SWAP2 SWAP1 POP JUMP JUMPDEST PUSH1 0x0 PUSH1 0x20 DUP3 ADD SWAP1 POP DUP2 DUP2 SUB PUSH1 0x0 DUP4 ADD MSTORE PUSH2 0x50EF DUP2 PUSH2 0x4B08 JUMP JUMPDEST SWAP1 POP SWAP2 SWAP1 POP JUMP JUMPDEST PUSH1 0x0 PUSH1 0x20 DUP3 ADD SWAP1 POP DUP2 DUP2 SUB PUSH1 0x0 DUP4 ADD MSTORE PUSH2 0x510F DUP2 PUSH2 0x4B2B JUMP JUMPDEST SWAP1 POP SWAP2 SWAP1 POP JUMP JUMPDEST PUSH1 0x0 PUSH1 0x20 DUP3 ADD SWAP1 POP DUP2 DUP2 SUB PUSH1 0x0 DUP4 ADD MSTORE PUSH2 0x512F DUP2 PUSH2 0x4B4E JUMP JUMPDEST SWAP1 POP SWAP2 SWAP1 POP JUMP JUMPDEST PUSH1 0x0 PUSH1 0x20 DUP3 ADD SWAP1 POP DUP2 DUP2 SUB PUSH1 0x0 DUP4 ADD MSTORE PUSH2 0x514F DUP2 PUSH2 0x4B71 JUMP JUMPDEST SWAP1 POP SWAP2 SWAP1 POP JUMP JUMPDEST PUSH1 0x0 PUSH1 0x20 DUP3 ADD SWAP1 POP DUP2 DUP2 SUB PUSH1 0x0 DUP4 ADD MSTORE PUSH2 0x516F DUP2 PUSH2 0x4B94 JUMP JUMPDEST SWAP1 POP SWAP2 SWAP1 POP JUMP JUMPDEST PUSH1 0x0 PUSH1 0x20 DUP3 ADD SWAP1 POP DUP2 DUP2 SUB PUSH1 0x0 DUP4 ADD MSTORE PUSH2 0x518F DUP2 PUSH2 0x4BB7 JUMP JUMPDEST SWAP1 POP SWAP2 SWAP1 POP JUMP JUMPDEST PUSH1 0x0 PUSH1 0x20 DUP3 ADD SWAP1 POP PUSH2 0x51AB PUSH1 0x0 DUP4 ADD DUP5 PUSH2 0x4BE9 JUMP JUMPDEST SWAP3 SWAP2 POP POP JUMP JUMPDEST PUSH1 0x0 PUSH1 0x60 DUP3 ADD SWAP1 POP PUSH2 0x51C6 PUSH1 0x0 DUP4 ADD DUP7 PUSH2 0x4BE9 JUMP JUMPDEST PUSH2 0x51D3 PUSH1 0x20 DUP4 ADD DUP6 PUSH2 0x4BE9 JUMP JUMPDEST PUSH2 0x51E0 PUSH1 0x40 DUP4 ADD DUP5 PUSH2 0x4BE9 JUMP JUMPDEST SWAP5 SWAP4 POP POP POP POP JUMP JUMPDEST PUSH1 0x0 PUSH2 0x51F2 PUSH2 0x5203 JUMP JUMPDEST SWAP1 POP PUSH2 0x51FE DUP3 DUP3 PUSH2 0x5602 JUMP JUMPDEST SWAP2 SWAP1 POP JUMP JUMPDEST PUSH1 0x0 PUSH1 0x40 MLOAD SWAP1 POP SWAP1 JUMP JUMPDEST PUSH1 0x0 PUSH8 0xFFFFFFFFFFFFFFFF DUP3 GT ISZERO PUSH2 0x5228 JUMPI PUSH2 0x5227 PUSH2 0x5713 JUMP JUMPDEST JUMPDEST PUSH2 0x5231 DUP3 PUSH2 0x5742 JUMP JUMPDEST SWAP1 POP PUSH1 0x20 DUP2 ADD SWAP1 POP SWAP2 SWAP1 POP JUMP JUMPDEST PUSH1 0x0 DUP2 SWAP1 POP PUSH1 0x20 DUP3 ADD SWAP1 POP SWAP2 SWAP1 POP JUMP JUMPDEST PUSH1 0x0 DUP2 MLOAD SWAP1 POP SWAP2 SWAP1 POP JUMP JUMPDEST PUSH1 0x0 DUP2 MLOAD SWAP1 POP SWAP2 SWAP1 POP JUMP JUMPDEST PUSH1 0x0 DUP2 MLOAD SWAP1 POP SWAP2 SWAP1 POP JUMP JUMPDEST PUSH1 0x0 PUSH1 0x20 DUP3 ADD SWAP1 POP SWAP2 SWAP1 POP JUMP JUMPDEST PUSH1 0x0 DUP3 DUP3 MSTORE PUSH1 0x20 DUP3 ADD SWAP1 POP SWAP3 SWAP2 POP POP JUMP JUMPDEST PUSH1 0x0 DUP2 SWAP1 POP SWAP3 SWAP2 POP POP JUMP JUMPDEST PUSH1 0x0 DUP3 DUP3 MSTORE PUSH1 0x20 DUP3 ADD SWAP1 POP SWAP3 SWAP2 POP POP JUMP JUMPDEST PUSH1 0x0 DUP2 SWAP1 POP SWAP3 SWAP2 POP POP JUMP JUMPDEST PUSH1 0x0 PUSH2 0x52BF DUP3 PUSH2 0x54E7 JUMP JUMPDEST SWAP2 POP PUSH2 0x52CA DUP4 PUSH2 0x54E7 JUMP JUMPDEST SWAP3 POP DUP3 PUSH32 0xFFFFFFFFFFFFFFFFFFFFFFFFFFFFFFFFFFFFFFFFFFFFFFFFFFFFFFFFFFFFFFFF SUB DUP3 GT ISZERO PUSH2 0x52FF JUMPI PUSH2 0x52FE PUSH2 0x5686 JUMP JUMPDEST JUMPDEST DUP3 DUP3 ADD SWAP1 POP SWAP3 SWAP2 POP POP JUMP JUMPDEST PUSH1 0x0 PUSH2 0x5315 DUP3 PUSH2 0x54F1 JUMP JUMPDEST SWAP2 POP PUSH2 0x5320 DUP4 PUSH2 0x54F1 JUMP JUMPDEST SWAP3 POP DUP3 PUSH6 0xFFFFFFFFFFFF SUB DUP3 GT ISZERO PUSH2 0x533B JUMPI PUSH2 0x533A PUSH2 0x5686 JUMP JUMPDEST JUMPDEST DUP3 DUP3 ADD SWAP1 POP SWAP3 SWAP2 POP POP JUMP JUMPDEST PUSH1 0x0 PUSH2 0x5351 DUP3 PUSH2 0x54E7 JUMP JUMPDEST SWAP2 POP PUSH2 0x535C DUP4 PUSH2 0x54E7 JUMP JUMPDEST SWAP3 POP DUP3 PUSH2 0x536C JUMPI PUSH2 0x536B PUSH2 0x56B5 JUMP JUMPDEST JUMPDEST DUP3 DUP3 DIV SWAP1 POP SWAP3 SWAP2 POP POP JUMP JUMPDEST PUSH1 0x0 PUSH2 0x5382 DUP3 PUSH2 0x54E7 JUMP JUMPDEST SWAP2 POP PUSH2 0x538D DUP4 PUSH2 0x54E7 JUMP JUMPDEST SWAP3 POP DUP2 PUSH32 0xFFFFFFFFFFFFFFFFFFFFFFFFFFFFFFFFFFFFFFFFFFFFFFFFFFFFFFFFFFFFFFFF DIV DUP4 GT DUP3 ISZERO ISZERO AND ISZERO PUSH2 0x53C6 JUMPI PUSH2 0x53C5 PUSH2 0x5686 JUMP JUMPDEST JUMPDEST DUP3 DUP3 MUL SWAP1 POP SWAP3 SWAP2 POP POP JUMP JUMPDEST PUSH1 0x0 PUSH2 0x53DC DUP3 PUSH2 0x54F1 JUMP JUMPDEST SWAP2 POP PUSH2 0x53E7 DUP4 PUSH2 0x54F1 JUMP JUMPDEST SWAP3 POP DUP2 PUSH6 0xFFFFFFFFFFFF DIV DUP4 GT DUP3 ISZERO ISZERO AND ISZERO PUSH2 0x5406 JUMPI PUSH2 0x5405 PUSH2 0x5686 JUMP JUMPDEST JUMPDEST DUP3 DUP3 MUL SWAP1 POP SWAP3 SWAP2 POP POP JUMP JUMPDEST PUSH1 0x0 PUSH2 0x541C DUP3 PUSH2 0x54E7 JUMP JUMPDEST SWAP2 POP PUSH2 0x5427 DUP4 PUSH2 0x54E7 JUMP JUMPDEST SWAP3 POP DUP3 DUP3 LT ISZERO PUSH2 0x543A JUMPI PUSH2 0x5439 PUSH2 0x5686 JUMP JUMPDEST JUMPDEST DUP3 DUP3 SUB SWAP1 POP SWAP3 SWAP2 POP POP JUMP JUMPDEST PUSH1 0x0 PUSH2 0x5450 DUP3 PUSH2 0x54C7 JUMP JUMPDEST SWAP1 POP SWAP2 SWAP1 POP JUMP JUMPDEST PUSH1 0x0 DUP2 ISZERO ISZERO SWAP1 POP SWAP2 SWAP1 POP JUMP JUMPDEST PUSH1 0x0 DUP2 SWAP1 POP SWAP2 SWAP1 POP JUMP JUMPDEST PUSH1 0x0 PUSH32 0xFFFFFFFFFFFF0000000000000000000000000000000000000000000000000000 DUP3 AND SWAP1 POP SWAP2 SWAP1 POP JUMP JUMPDEST PUSH1 0x0 PUSH2 0x54A4 DUP3 PUSH2 0x5445 JUMP JUMPDEST SWAP1 POP SWAP2 SWAP1 POP JUMP JUMPDEST PUSH1 0x0 PUSH16 0xFFFFFFFFFFFFFFFFFFFFFFFFFFFFFFFF DUP3 AND SWAP1 POP SWAP2 SWAP1 POP JUMP JUMPDEST PUSH1 0x0 PUSH20 0xFFFFFFFFFFFFFFFFFFFFFFFFFFFFFFFFFFFFFFFF DUP3 AND SWAP1 POP SWAP2 SWAP1 POP JUMP JUMPDEST PUSH1 0x0 DUP2 SWAP1 POP SWAP2 SWAP1 POP JUMP JUMPDEST PUSH1 0x0 PUSH6 0xFFFFFFFFFFFF DUP3 AND SWAP1 POP SWAP2 SWAP1 POP JUMP JUMPDEST PUSH1 0x0 PUSH1 0xFF DUP3 AND SWAP1 POP SWAP2 SWAP1 POP JUMP JUMPDEST PUSH1 0x0 PUSH2 0x551B DUP3 PUSH2 0x5522 JUMP JUMPDEST SWAP1 POP SWAP2 SWAP1 POP JUMP JUMPDEST PUSH1 0x0 PUSH2 0x552D DUP3 PUSH2 0x54C7 JUMP JUMPDEST SWAP1 POP SWAP2 SWAP1 POP JUMP JUMPDEST PUSH1 0x0 PUSH2 0x553F DUP3 PUSH2 0x5546 JUMP JUMPDEST SWAP1 POP SWAP2 SWAP1 POP JUMP JUMPDEST PUSH1 0x0 PUSH2 0x5551 DUP3 PUSH2 0x54C7 JUMP JUMPDEST SWAP1 POP SWAP2 SWAP1 POP JUMP JUMPDEST PUSH1 0x0 PUSH2 0x5563 DUP3 PUSH2 0x556A JUMP JUMPDEST SWAP1 POP SWAP2 SWAP1 POP JUMP JUMPDEST PUSH1 0x0 PUSH2 0x5575 DUP3 PUSH2 0x54C7 JUMP JUMPDEST SWAP1 POP SWAP2 SWAP1 POP JUMP JUMPDEST PUSH1 0x0 PUSH2 0x5587 DUP3 PUSH2 0x5503 JUMP JUMPDEST SWAP1 POP SWAP2 SWAP1 POP JUMP JUMPDEST DUP3 DUP2 DUP4 CALLDATACOPY PUSH1 0x0 DUP4 DUP4 ADD MSTORE POP POP POP JUMP JUMPDEST PUSH1 0x0 JUMPDEST DUP4 DUP2 LT ISZERO PUSH2 0x55BB JUMPI DUP1 DUP3 ADD MLOAD DUP2 DUP5 ADD MSTORE PUSH1 0x20 DUP2 ADD SWAP1 POP PUSH2 0x55A0 JUMP JUMPDEST DUP4 DUP2 GT ISZERO PUSH2 0x55CA JUMPI PUSH1 0x0 DUP5 DUP5 ADD MSTORE JUMPDEST POP POP POP POP JUMP JUMPDEST PUSH1 0x0 PUSH1 0x2 DUP3 DIV SWAP1 POP PUSH1 0x1 DUP3 AND DUP1 PUSH2 0x55E8 JUMPI PUSH1 0x7F DUP3 AND SWAP2 POP JUMPDEST PUSH1 0x20 DUP3 LT DUP2 EQ ISZERO PUSH2 0x55FC JUMPI PUSH2 0x55FB PUSH2 0x56E4 JUMP JUMPDEST JUMPDEST POP SWAP2 SWAP1 POP JUMP JUMPDEST PUSH2 0x560B DUP3 PUSH2 0x5742 JUMP JUMPDEST DUP2 ADD DUP2 DUP2 LT PUSH8 0xFFFFFFFFFFFFFFFF DUP3 GT OR ISZERO PUSH2 0x562A JUMPI PUSH2 0x5629 PUSH2 0x5713 JUMP JUMPDEST JUMPDEST DUP1 PUSH1 0x40 MSTORE POP POP POP JUMP JUMPDEST PUSH1 0x0 PUSH2 0x563E DUP3 PUSH2 0x54E7 JUMP JUMPDEST SWAP2 POP PUSH32 0xFFFFFFFFFFFFFFFFFFFFFFFFFFFFFFFFFFFFFFFFFFFFFFFFFFFFFFFFFFFFFFFF DUP3 EQ ISZERO PUSH2 0x5671 JUMPI PUSH2 0x5670 PUSH2 0x5686 JUMP JUMPDEST JUMPDEST PUSH1 0x1 DUP3 ADD SWAP1 POP SWAP2 SWAP1 POP JUMP JUMPDEST PUSH1 0x0 DUP2 SWAP1 POP SWAP2 SWAP1 POP JUMP JUMPDEST PUSH32 0x4E487B7100000000000000000000000000000000000000000000000000000000 PUSH1 0x0 MSTORE PUSH1 0x11 PUSH1 0x4 MSTORE PUSH1 0x24 PUSH1 0x0 REVERT JUMPDEST PUSH32 0x4E487B7100000000000000000000000000000000000000000000000000000000 PUSH1 0x0 MSTORE PUSH1 0x12 PUSH1 0x4 MSTORE PUSH1 0x24 PUSH1 0x0 REVERT JUMPDEST PUSH32 0x4E487B7100000000000000000000000000000000000000000000000000000000 PUSH1 0x0 MSTORE PUSH1 0x22 PUSH1 0x4 MSTORE PUSH1 0x24 PUSH1 0x0 REVERT JUMPDEST PUSH32 0x4E487B7100000000000000000000000000000000000000000000000000000000 PUSH1 0x0 MSTORE PUSH1 0x41 PUSH1 0x4 MSTORE PUSH1 0x24 PUSH1 0x0 REVERT JUMPDEST PUSH1 0x0 PUSH1 0x1F NOT PUSH1 0x1F DUP4 ADD AND SWAP1 POP SWAP2 SWAP1 POP JUMP JUMPDEST PUSH32 0x43726F77646C6F616E207374696C6C206F70656E000000000000000000000000 PUSH1 0x0 DUP3 ADD MSTORE POP JUMP JUMPDEST PUSH32 0x5573657220686173206E6F20616E792072657761726473000000000000000000 PUSH1 0x0 DUP3 ADD MSTORE POP JUMP JUMPDEST PUSH32 0x4C6F636B696E6720706572696F6420686173206E6F7420796574207061737365 PUSH1 0x0 DUP3 ADD MSTORE PUSH32 0x6400000000000000000000000000000000000000000000000000000000000000 PUSH1 0x20 DUP3 ADD MSTORE POP JUMP JUMPDEST PUSH32 0x526566657272616C20636F646573206861766520616C7265616479206265656E PUSH1 0x0 DUP3 ADD MSTORE PUSH32 0x2075736564206279207573657200000000000000000000000000000000000000 PUSH1 0x20 DUP3 ADD MSTORE POP JUMP JUMPDEST PUSH32 0x4E6F20616E7920756E7374616B65730000000000000000000000000000000000 PUSH1 0x0 DUP3 ADD MSTORE POP JUMP JUMPDEST PUSH32 0x4F776E61626C653A206E6577206F776E657220697320746865207A65726F2061 PUSH1 0x0 DUP3 ADD MSTORE PUSH32 0x6464726573730000000000000000000000000000000000000000000000000000 PUSH1 0x20 DUP3 ADD MSTORE POP JUMP JUMPDEST PUSH32 0x526566657272616C20636F6465206973206E6F74206163746976650000000000 PUSH1 0x0 DUP3 ADD MSTORE POP JUMP JUMPDEST PUSH32 0x4572726F7220647572696E67206D696E74206141535452000000000000000000 PUSH1 0x0 DUP3 ADD MSTORE POP JUMP JUMPDEST PUSH32 0x416464726573733A20756E61626C6520746F2073656E642076616C75652C2072 PUSH1 0x0 DUP3 ADD MSTORE PUSH32 0x6563697069656E74206D61792068617665207265766572746564000000000000 PUSH1 0x20 DUP3 ADD MSTORE POP JUMP JUMPDEST PUSH32 0x4E656564206D6F72652041535452000000000000000000000000000000000000 PUSH1 0x0 DUP3 ADD MSTORE POP JUMP JUMPDEST PUSH32 0x416464726573733A20696E73756666696369656E742062616C616E6365000000 PUSH1 0x0 DUP3 ADD MSTORE POP JUMP JUMPDEST PUSH32 0x43726F77646C6F616E20636C6F73656400000000000000000000000000000000 PUSH1 0x0 DUP3 ADD MSTORE POP JUMP JUMPDEST PUSH32 0x4E6F7420656E6F75676820657261732070617373656421000000000000000000 PUSH1 0x0 DUP3 ADD MSTORE POP JUMP JUMPDEST PUSH32 0x496E697469616C697A61626C653A20636F6E747261637420697320616C726561 PUSH1 0x0 DUP3 ADD MSTORE PUSH32 0x647920696E697469616C697A6564000000000000000000000000000000000000 PUSH1 0x20 DUP3 ADD MSTORE POP JUMP JUMPDEST PUSH32 0x4E6F7420656E6F75676820746F6B656E7320746F206275726E00000000000000 PUSH1 0x0 DUP3 ADD MSTORE POP JUMP JUMPDEST PUSH32 0x4E6F7420656E6F7567682066756E647320696E20756E626F6E64656420706F6F PUSH1 0x0 DUP3 ADD MSTORE PUSH32 0x6C00000000000000000000000000000000000000000000000000000000000000 PUSH1 0x20 DUP3 ADD MSTORE POP JUMP JUMPDEST PUSH32 0x4F776E61626C653A2063616C6C6572206973206E6F7420746865206F776E6572 PUSH1 0x0 DUP3 ADD MSTORE POP JUMP JUMPDEST PUSH32 0x5573657220616C726561647920726566657272616C0000000000000000000000 PUSH1 0x0 DUP3 ADD MSTORE POP JUMP JUMPDEST PUSH32 0x416C6C207265776172647320616C726561647920636C61696D65640000000000 PUSH1 0x0 DUP3 ADD MSTORE POP JUMP JUMPDEST POP JUMP JUMPDEST PUSH32 0x5769746864726177616C20616C726561647920636C61696D6564000000000000 PUSH1 0x0 DUP3 ADD MSTORE POP JUMP JUMPDEST PUSH32 0x496E697469616C697A61626C653A20636F6E7472616374206973206E6F742069 PUSH1 0x0 DUP3 ADD MSTORE PUSH32 0x6E697469616C697A696E67000000000000000000000000000000000000000000 PUSH1 0x20 DUP3 ADD MSTORE POP JUMP JUMPDEST PUSH32 0x5573657220686173206E6F20616E792061415354520000000000000000000000 PUSH1 0x0 DUP3 ADD MSTORE POP JUMP JUMPDEST PUSH32 0x54686572652077617320616C726561647920676C6F62616C556E7374616B6520 PUSH1 0x0 DUP3 ADD MSTORE PUSH32 0x696E207468697320706572696F64206F662074696D6500000000000000000000 PUSH1 0x20 DUP3 ADD MSTORE POP JUMP JUMPDEST PUSH32 0x5265656E7472616E637947756172643A207265656E7472616E742063616C6C00 PUSH1 0x0 DUP3 ADD MSTORE POP JUMP JUMPDEST PUSH32 0x546F6F206C61726765206465706F736974000000000000000000000000000000 PUSH1 0x0 DUP3 ADD MSTORE POP JUMP JUMPDEST PUSH32 0x56657374696E6720706572696F6420686173206E6F7420737461727465642079 PUSH1 0x0 DUP3 ADD MSTORE PUSH32 0x6574000000000000000000000000000000000000000000000000000000000000 PUSH1 0x20 DUP3 ADD MSTORE POP JUMP JUMPDEST PUSH2 0x5CDF DUP2 PUSH2 0x5445 JUMP JUMPDEST DUP2 EQ PUSH2 0x5CEA JUMPI PUSH1 0x0 DUP1 REVERT JUMPDEST POP JUMP JUMPDEST PUSH2 0x5CF6 DUP2 PUSH2 0x5457 JUMP JUMPDEST DUP2 EQ PUSH2 0x5D01 JUMPI PUSH1 0x0 DUP1 REVERT JUMPDEST POP JUMP JUMPDEST PUSH2 0x5D0D DUP2 PUSH2 0x5463 JUMP JUMPDEST DUP2 EQ PUSH2 0x5D18 JUMPI PUSH1 0x0 DUP1 REVERT JUMPDEST POP JUMP JUMPDEST PUSH2 0x5D24 DUP2 PUSH2 0x5499 JUMP JUMPDEST DUP2 EQ PUSH2 0x5D2F JUMPI PUSH1 0x0 DUP1 REVERT JUMPDEST POP JUMP JUMPDEST PUSH2 0x5D3B DUP2 PUSH2 0x54E7 JUMP JUMPDEST DUP2 EQ PUSH2 0x5D46 JUMPI PUSH1 0x0 DUP1 REVERT JUMPDEST POP JUMP INVALID LOG2 PUSH5 0x6970667358 0x22 SLT KECCAK256 RETURNDATACOPY 0xDE BALANCE 0xE7 0x28 DUP6 0xD0 EXP CALLDATACOPY LOG4 LOG0 0x21 0xEE DUP4 0x4D PUSH10 0x620990BD1B7DC9F793BD 0x28 SWAP9 0x4E CALL 0xE3 PUSH23 0x64736F6C63430008040033000000000000000000000000 "
		},
		"gasEstimates": {
			"creation": {
				"codeDepositCost": "4787000",
				"executionCost": "65649",
				"totalCost": "4852649"
			},
			"external": {
				"ALGM_REWARDS_AMOUNT()": "1264",
				"MAX_AMOUNT()": "1196",
				"MIN_AMOUNT()": "1218",
				"aastr()": "1370",
				"addrToUsedRef(address)": "infinite",
				"algm()": "1370",
				"becomeReferral(address)": "infinite",
				"burnToken(address,uint256)": "infinite",
				"claimDappStakingRewards()": "infinite",
				"claimRewards()": "infinite",
				"claimingTxLimit()": "1199",
				"closeCrowdloan()": "infinite",
				"closed()": "1311",
				"crowdLoanCloseTime()": "1197",
				"currentEra()": "infinite",
				"dappsStaking()": "1367",
				"getStakers()": "infinite",
				"getTotalAvailableRewards()": "infinite",
				"getUserAvailableRewards(address)": "infinite",
				"globalUnstakeAdmin()": "infinite",
				"initialize(address,address,address,address,address)": "infinite",
				"isActiveRef(string)": "infinite",
				"isRefUsedByAddress(address)": "1657",
				"isStaker(address)": "1614",
				"lastStakingRewardsClaimedEra()": "1219",
				"lastUnstaked()": "1197",
				"liquidStakingAddr()": "1347",
				"mintToken(address,uint256)": "infinite",
				"owner()": "1356",
				"refToOwner(string)": "infinite",
				"renounceOwnership()": "24489",
				"resetData()": "infinite",
				"sendALGM(address,uint256)": "infinite",
				"setALGMRewardsAmount(uint256)": "21453",
				"setClaimingTxLimit(uint256)": "23013",
				"setDappsStakingAddress(address)": "22353",
				"setLockingPeriod(uint256)": "21503",
				"setMaxMinAmounts(uint256,uint256)": "infinite",
				"setVestingParams(uint256,uint256,uint256,bool,uint256)": "infinite",
				"slicesPassed()": "infinite",
				"stake()": "infinite",
				"stake(string)": "infinite",
				"stakers(uint256)": "2488",
				"stakes(address)": "1628",
				"sumToUnstake()": "1240",
				"switchClosed()": "23003",
				"totalStaked()": "1241",
				"totalStakingRewards()": "1219",
				"transferOwnership(address)": "24835",
				"unbondedPool()": "1241",
				"unstake()": "infinite",
				"userClaimedSlices(address)": "1603",
				"vesting()": "1325",
				"vestingParams()": "infinite",
				"withdraw(uint256)": "infinite",
				"withdrawBlock()": "1220",
				"withdrawStakingRewardsAdmin()": "infinite",
				"withdrawals(address,uint256)": "infinite"
			},
			"internal": {
				"_getRef(address)": "infinite",
				"_getVestingId()": "infinite",
				"_globalUnstake()": "infinite",
				"_globalWithdraw(uint256)": "infinite",
				"_userShare(address)": "infinite"
			}
		},
		"methodIdentifiers": {
			"ALGM_REWARDS_AMOUNT()": "2941bc29",
			"MAX_AMOUNT()": "d40dc870",
			"MIN_AMOUNT()": "ddbcb5fa",
			"aastr()": "77734a66",
			"addrToUsedRef(address)": "34294447",
			"algm()": "2e415702",
			"becomeReferral(address)": "6ed83c5b",
			"burnToken(address,uint256)": "d1df306c",
			"claimDappStakingRewards()": "ea87e3ff",
			"claimRewards()": "372500ab",
			"claimingTxLimit()": "00179fbd",
			"closeCrowdloan()": "6adb930c",
			"closed()": "597e1fb5",
			"crowdLoanCloseTime()": "bfb9ba0c",
			"currentEra()": "973628f6",
			"dappsStaking()": "f8293403",
			"getStakers()": "43352d61",
			"getTotalAvailableRewards()": "eef09740",
			"getUserAvailableRewards(address)": "9db29340",
			"globalUnstakeAdmin()": "68b0216e",
			"initialize(address,address,address,address,address)": "1459457a",
			"isActiveRef(string)": "6bf10cf2",
			"isRefUsedByAddress(address)": "620cc15c",
			"isStaker(address)": "6f1e8533",
			"lastStakingRewardsClaimedEra()": "8037ecd3",
			"lastUnstaked()": "5495ec81",
			"liquidStakingAddr()": "a6d953b7",
			"mintToken(address,uint256)": "79c65068",
			"owner()": "8da5cb5b",
			"refToOwner(string)": "3d8ab5b1",
			"renounceOwnership()": "715018a6",
			"resetData()": "478c4e0e",
			"sendALGM(address,uint256)": "e5c1f211",
			"setALGMRewardsAmount(uint256)": "22456682",
			"setClaimingTxLimit(uint256)": "42debbab",
			"setDappsStakingAddress(address)": "69d3bcc2",
			"setLockingPeriod(uint256)": "26b321d1",
			"setMaxMinAmounts(uint256,uint256)": "c803e58a",
			"setVestingParams(uint256,uint256,uint256,bool,uint256)": "8f6db5fa",
			"slicesPassed()": "d31dbab6",
			"stake()": "3a4b66f1",
			"stake(string)": "46f45b8d",
			"stakers(uint256)": "fd5e6dd1",
			"stakes(address)": "16934fc4",
			"sumToUnstake()": "a25b7e49",
			"switchClosed()": "d1a32c39",
			"totalStaked()": "817b1cd2",
			"totalStakingRewards()": "93ef357a",
			"transferOwnership(address)": "f2fde38b",
			"unbondedPool()": "c71367b5",
			"unstake()": "2def6620",
			"userClaimedSlices(address)": "9fdb8c93",
			"vesting()": "44c63eec",
			"vestingParams()": "c4b02908",
			"withdraw(uint256)": "2e1a7d4d",
			"withdrawBlock()": "24025b19",
			"withdrawStakingRewardsAdmin()": "53d64ee0",
			"withdrawals(address,uint256)": "422b1077"
		}
	},
	"abi": [
		{
			"anonymous": false,
			"inputs": [
				{
					"indexed": true,
					"internalType": "uint256",
					"name": "era",
					"type": "uint256"
				},
				{
					"indexed": false,
					"internalType": "uint256",
					"name": "amount",
					"type": "uint256"
				}
			],
			"name": "ClaimDappsStakingRewards",
			"type": "event"
		},
		{
			"anonymous": false,
			"inputs": [
				{
					"indexed": false,
					"internalType": "address",
					"name": "user",
					"type": "address"
				},
				{
					"indexed": false,
					"internalType": "uint256",
					"name": "rewardsToClaim",
					"type": "uint256"
				}
			],
			"name": "ClaimRewards",
			"type": "event"
		},
		{
			"anonymous": false,
			"inputs": [
				{
					"indexed": true,
					"internalType": "uint256",
					"name": "era",
					"type": "uint256"
				},
				{
					"indexed": true,
					"internalType": "bytes",
					"name": "reason",
					"type": "bytes"
				}
			],
			"name": "ClaimStakerError",
			"type": "event"
		},
		{
			"anonymous": false,
			"inputs": [
				{
					"indexed": true,
					"internalType": "uint256",
					"name": "era",
					"type": "uint256"
				},
				{
					"indexed": false,
					"internalType": "uint256",
					"name": "lastClaimed",
					"type": "uint256"
				}
			],
			"name": "ClaimStakerSuccess",
			"type": "event"
		},
		{
			"anonymous": false,
			"inputs": [
				{
					"indexed": false,
					"internalType": "uint256",
					"name": "closeTime",
					"type": "uint256"
				}
			],
			"name": "CloseCrowdloanAndStartVesting",
			"type": "event"
		},
		{
			"anonymous": false,
			"inputs": [
				{
					"indexed": true,
					"internalType": "address",
					"name": "who",
					"type": "address"
				},
				{
					"indexed": true,
					"internalType": "uint256",
					"name": "era",
					"type": "uint256"
				},
				{
					"indexed": true,
					"internalType": "uint256",
					"name": "sumToUnstake",
					"type": "uint256"
				}
			],
			"name": "GlobalUnstake",
			"type": "event"
		},
		{
			"anonymous": false,
			"inputs": [
				{
					"indexed": true,
					"internalType": "address",
					"name": "who",
					"type": "address"
				},
				{
					"indexed": true,
					"internalType": "uint256",
					"name": "era",
					"type": "uint256"
				},
				{
					"indexed": false,
					"internalType": "uint256",
					"name": "amount",
					"type": "uint256"
				}
			],
			"name": "GlobalWithdraw",
			"type": "event"
		},
		{
			"anonymous": false,
			"inputs": [
				{
					"indexed": false,
					"internalType": "uint8",
					"name": "version",
					"type": "uint8"
				}
			],
			"name": "Initialized",
			"type": "event"
		},
		{
			"anonymous": false,
			"inputs": [
				{
					"indexed": true,
					"internalType": "address",
					"name": "previousOwner",
					"type": "address"
				},
				{
					"indexed": true,
					"internalType": "address",
					"name": "newOwner",
					"type": "address"
				}
			],
			"name": "OwnershipTransferred",
			"type": "event"
		},
		{
			"anonymous": false,
			"inputs": [
				{
					"indexed": true,
					"internalType": "address",
					"name": "sender",
					"type": "address"
				},
				{
					"indexed": true,
					"internalType": "uint256",
					"name": "val",
					"type": "uint256"
				}
			],
			"name": "SetClaimingTxLimit",
			"type": "event"
		},
		{
			"anonymous": false,
			"inputs": [
				{
					"indexed": true,
					"internalType": "address",
					"name": "user",
					"type": "address"
				},
				{
					"indexed": false,
					"internalType": "uint256",
					"name": "amount",
					"type": "uint256"
				},
				{
					"indexed": true,
					"internalType": "string",
					"name": "refCode",
					"type": "string"
				}
			],
			"name": "Stake",
			"type": "event"
		},
		{
			"anonymous": false,
			"inputs": [
				{
					"indexed": true,
					"internalType": "uint256",
					"name": "sum2unstake",
					"type": "uint256"
				},
				{
					"indexed": true,
					"internalType": "uint256",
					"name": "era",
					"type": "uint256"
				},
				{
					"indexed": true,
					"internalType": "bytes",
					"name": "reason",
					"type": "bytes"
				}
			],
			"name": "UnbondAndUnstakeError",
			"type": "event"
		},
		{
			"anonymous": false,
			"inputs": [
				{
					"indexed": true,
					"internalType": "uint256",
					"name": "era",
					"type": "uint256"
				},
				{
					"indexed": false,
					"internalType": "uint256",
					"name": "sum2unstake",
					"type": "uint256"
				}
			],
			"name": "UnbondAndUnstakeSuccess",
			"type": "event"
		},
		{
			"anonymous": false,
			"inputs": [
				{
					"indexed": true,
					"internalType": "address",
					"name": "user",
					"type": "address"
				},
				{
					"indexed": true,
					"internalType": "uint256",
					"name": "amount",
					"type": "uint256"
				},
				{
					"indexed": true,
					"internalType": "uint256",
					"name": "era",
					"type": "uint256"
				}
			],
			"name": "Unstake",
			"type": "event"
		},
		{
			"anonymous": false,
			"inputs": [
				{
					"indexed": true,
					"internalType": "address",
					"name": "user",
					"type": "address"
				},
				{
					"indexed": false,
					"internalType": "uint256",
					"name": "amount",
					"type": "uint256"
				}
			],
			"name": "WithdrawStakingRewards",
			"type": "event"
		},
		{
			"anonymous": false,
			"inputs": [
				{
					"indexed": true,
					"internalType": "uint256",
					"name": "_era",
					"type": "uint256"
				},
				{
					"indexed": true,
					"internalType": "bytes",
					"name": "reason",
					"type": "bytes"
				}
			],
			"name": "WithdrawUnbondedError",
			"type": "event"
		},
		{
			"anonymous": false,
			"inputs": [
				{
					"indexed": true,
					"internalType": "uint256",
					"name": "_era",
					"type": "uint256"
				}
			],
			"name": "WithdrawUnbondedSuccess",
			"type": "event"
		},
		{
			"anonymous": false,
			"inputs": [
				{
					"indexed": true,
					"internalType": "address",
					"name": "user",
					"type": "address"
				},
				{
					"indexed": false,
					"internalType": "uint256",
					"name": "val",
					"type": "uint256"
				}
			],
			"name": "Withdrawn",
			"type": "event"
		},
		{
			"inputs": [],
			"name": "ALGM_REWARDS_AMOUNT",
			"outputs": [
				{
					"internalType": "uint256",
					"name": "",
					"type": "uint256"
				}
			],
			"stateMutability": "view",
			"type": "function"
		},
		{
			"inputs": [],
			"name": "MAX_AMOUNT",
			"outputs": [
				{
					"internalType": "uint256",
					"name": "",
					"type": "uint256"
				}
			],
			"stateMutability": "view",
			"type": "function"
		},
		{
			"inputs": [],
			"name": "MIN_AMOUNT",
			"outputs": [
				{
					"internalType": "uint256",
					"name": "",
					"type": "uint256"
				}
			],
			"stateMutability": "view",
			"type": "function"
		},
		{
			"inputs": [],
			"name": "aastr",
			"outputs": [
				{
					"internalType": "contract IERC20Plus",
					"name": "",
					"type": "address"
				}
			],
			"stateMutability": "view",
			"type": "function"
		},
		{
			"inputs": [
				{
					"internalType": "address",
					"name": "",
					"type": "address"
				}
			],
			"name": "addrToUsedRef",
			"outputs": [
				{
					"internalType": "string",
					"name": "",
					"type": "string"
				}
			],
			"stateMutability": "view",
			"type": "function"
		},
		{
			"inputs": [],
			"name": "algm",
			"outputs": [
				{
					"internalType": "contract IERC20Plus",
					"name": "",
					"type": "address"
				}
			],
			"stateMutability": "view",
			"type": "function"
		},
		{
			"inputs": [
				{
					"internalType": "address",
					"name": "_user",
					"type": "address"
				}
			],
			"name": "becomeReferral",
			"outputs": [
				{
					"internalType": "string",
					"name": "ref",
					"type": "string"
				}
			],
			"stateMutability": "nonpayable",
			"type": "function"
		},
		{
			"inputs": [
				{
					"internalType": "address",
					"name": "to",
					"type": "address"
				},
				{
					"internalType": "uint256",
					"name": "amount",
					"type": "uint256"
				}
			],
			"name": "burnToken",
			"outputs": [],
			"stateMutability": "nonpayable",
			"type": "function"
		},
		{
			"inputs": [],
			"name": "claimDappStakingRewards",
			"outputs": [],
			"stateMutability": "nonpayable",
			"type": "function"
		},
		{
			"inputs": [],
			"name": "claimRewards",
			"outputs": [],
			"stateMutability": "nonpayable",
			"type": "function"
		},
		{
			"inputs": [],
			"name": "claimingTxLimit",
			"outputs": [
				{
					"internalType": "uint256",
					"name": "",
					"type": "uint256"
				}
			],
			"stateMutability": "view",
			"type": "function"
		},
		{
			"inputs": [],
			"name": "closeCrowdloan",
			"outputs": [],
			"stateMutability": "nonpayable",
			"type": "function"
		},
		{
			"inputs": [],
			"name": "closed",
			"outputs": [
				{
					"internalType": "bool",
					"name": "",
					"type": "bool"
				}
			],
			"stateMutability": "view",
			"type": "function"
		},
		{
			"inputs": [],
			"name": "crowdLoanCloseTime",
			"outputs": [
				{
					"internalType": "uint256",
					"name": "",
					"type": "uint256"
				}
			],
			"stateMutability": "view",
			"type": "function"
		},
		{
			"inputs": [],
			"name": "currentEra",
			"outputs": [
				{
					"internalType": "uint256",
					"name": "",
					"type": "uint256"
				}
			],
			"stateMutability": "view",
			"type": "function"
		},
		{
			"inputs": [],
			"name": "dappsStaking",
			"outputs": [
				{
					"internalType": "contract DappsStaking",
					"name": "",
					"type": "address"
				}
			],
			"stateMutability": "view",
			"type": "function"
		},
		{
			"inputs": [],
			"name": "getStakers",
			"outputs": [
				{
					"internalType": "address[]",
					"name": "",
					"type": "address[]"
				}
			],
			"stateMutability": "view",
			"type": "function"
		},
		{
			"inputs": [],
			"name": "getTotalAvailableRewards",
			"outputs": [
				{
					"internalType": "uint256",
					"name": "",
					"type": "uint256"
				}
			],
			"stateMutability": "view",
			"type": "function"
		},
		{
			"inputs": [
				{
					"internalType": "address",
					"name": "_user",
					"type": "address"
				}
			],
			"name": "getUserAvailableRewards",
			"outputs": [
				{
					"internalType": "uint256",
					"name": "",
					"type": "uint256"
				}
			],
			"stateMutability": "view",
			"type": "function"
		},
		{
			"inputs": [],
			"name": "globalUnstakeAdmin",
			"outputs": [],
			"stateMutability": "nonpayable",
			"type": "function"
		},
		{
			"inputs": [
				{
					"internalType": "contract ALGMVesting",
					"name": "_vesting",
					"type": "address"
				},
				{
					"internalType": "address",
					"name": "_liquidStakingAddr",
					"type": "address"
				},
				{
					"internalType": "address",
					"name": "_aastr",
					"type": "address"
				},
				{
					"internalType": "address",
					"name": "_algm",
					"type": "address"
				},
				{
					"internalType": "address",
					"name": "_dappsStaking",
					"type": "address"
				}
			],
			"name": "initialize",
			"outputs": [],
			"stateMutability": "nonpayable",
			"type": "function"
		},
		{
			"inputs": [
				{
					"internalType": "string",
					"name": "",
					"type": "string"
				}
			],
			"name": "isActiveRef",
			"outputs": [
				{
					"internalType": "bool",
					"name": "",
					"type": "bool"
				}
			],
			"stateMutability": "view",
			"type": "function"
		},
		{
			"inputs": [
				{
					"internalType": "address",
					"name": "",
					"type": "address"
				}
			],
			"name": "isRefUsedByAddress",
			"outputs": [
				{
					"internalType": "bool",
					"name": "",
					"type": "bool"
				}
			],
			"stateMutability": "view",
			"type": "function"
		},
		{
			"inputs": [
				{
					"internalType": "address",
					"name": "",
					"type": "address"
				}
			],
			"name": "isStaker",
			"outputs": [
				{
					"internalType": "bool",
					"name": "",
					"type": "bool"
				}
			],
			"stateMutability": "view",
			"type": "function"
		},
		{
			"inputs": [],
			"name": "lastStakingRewardsClaimedEra",
			"outputs": [
				{
					"internalType": "uint256",
					"name": "",
					"type": "uint256"
				}
			],
			"stateMutability": "view",
			"type": "function"
		},
		{
			"inputs": [],
			"name": "lastUnstaked",
			"outputs": [
				{
					"internalType": "uint256",
					"name": "",
					"type": "uint256"
				}
			],
			"stateMutability": "view",
			"type": "function"
		},
		{
			"inputs": [],
			"name": "liquidStakingAddr",
			"outputs": [
				{
					"internalType": "address",
					"name": "",
					"type": "address"
				}
			],
			"stateMutability": "view",
			"type": "function"
		},
		{
			"inputs": [
				{
					"internalType": "address",
					"name": "to",
					"type": "address"
				},
				{
					"internalType": "uint256",
					"name": "amount",
					"type": "uint256"
				}
			],
			"name": "mintToken",
			"outputs": [],
			"stateMutability": "nonpayable",
			"type": "function"
		},
		{
			"inputs": [],
			"name": "owner",
			"outputs": [
				{
					"internalType": "address",
					"name": "",
					"type": "address"
				}
			],
			"stateMutability": "view",
			"type": "function"
		},
		{
			"inputs": [
				{
					"internalType": "string",
					"name": "",
					"type": "string"
				}
			],
			"name": "refToOwner",
			"outputs": [
				{
					"internalType": "address",
					"name": "",
					"type": "address"
				}
			],
			"stateMutability": "view",
			"type": "function"
		},
		{
			"inputs": [],
			"name": "renounceOwnership",
			"outputs": [],
			"stateMutability": "nonpayable",
			"type": "function"
		},
		{
			"inputs": [],
			"name": "resetData",
			"outputs": [],
			"stateMutability": "nonpayable",
			"type": "function"
		},
		{
			"inputs": [
				{
					"internalType": "address",
					"name": "to",
					"type": "address"
				},
				{
					"internalType": "uint256",
					"name": "amount",
					"type": "uint256"
				}
			],
			"name": "sendALGM",
			"outputs": [],
			"stateMutability": "nonpayable",
			"type": "function"
		},
		{
			"inputs": [
				{
					"internalType": "uint256",
					"name": "_amount",
					"type": "uint256"
				}
			],
			"name": "setALGMRewardsAmount",
			"outputs": [],
			"stateMutability": "nonpayable",
			"type": "function"
		},
		{
			"inputs": [
				{
					"internalType": "uint256",
					"name": "_val",
					"type": "uint256"
				}
			],
			"name": "setClaimingTxLimit",
			"outputs": [],
			"stateMutability": "nonpayable",
			"type": "function"
		},
		{
			"inputs": [
				{
					"internalType": "address",
					"name": "addr",
					"type": "address"
				}
			],
			"name": "setDappsStakingAddress",
			"outputs": [],
			"stateMutability": "nonpayable",
			"type": "function"
		},
		{
			"inputs": [
				{
					"internalType": "uint256",
					"name": "_lockingPeriod",
					"type": "uint256"
				}
			],
			"name": "setLockingPeriod",
			"outputs": [],
			"stateMutability": "nonpayable",
			"type": "function"
		},
		{
			"inputs": [
				{
					"internalType": "uint256",
					"name": "_maxAmount",
					"type": "uint256"
				},
				{
					"internalType": "uint256",
					"name": "_minAmount",
					"type": "uint256"
				}
			],
			"name": "setMaxMinAmounts",
			"outputs": [],
			"stateMutability": "nonpayable",
			"type": "function"
		},
		{
			"inputs": [
				{
					"internalType": "uint256",
					"name": "_cliff",
					"type": "uint256"
				},
				{
					"internalType": "uint256",
					"name": "_duration",
					"type": "uint256"
				},
				{
					"internalType": "uint256",
					"name": "_slicePeriod",
					"type": "uint256"
				},
				{
					"internalType": "bool",
					"name": "_revocable",
					"type": "bool"
				},
				{
					"internalType": "uint256",
					"name": "_amount",
					"type": "uint256"
				}
			],
			"name": "setVestingParams",
			"outputs": [],
			"stateMutability": "nonpayable",
			"type": "function"
		},
		{
			"inputs": [],
			"name": "slicesPassed",
			"outputs": [
				{
					"internalType": "uint256",
					"name": "",
					"type": "uint256"
				}
			],
			"stateMutability": "view",
			"type": "function"
		},
		{
			"inputs": [],
			"name": "stake",
			"outputs": [],
			"stateMutability": "payable",
			"type": "function"
		},
		{
			"inputs": [
				{
					"internalType": "string",
					"name": "_ref",
					"type": "string"
				}
			],
			"name": "stake",
			"outputs": [],
			"stateMutability": "payable",
			"type": "function"
		},
		{
			"inputs": [
				{
					"internalType": "uint256",
					"name": "",
					"type": "uint256"
				}
			],
			"name": "stakers",
			"outputs": [
				{
					"internalType": "address",
					"name": "",
					"type": "address"
				}
			],
			"stateMutability": "view",
			"type": "function"
		},
		{
			"inputs": [
				{
					"internalType": "address",
					"name": "",
					"type": "address"
				}
			],
			"name": "stakes",
			"outputs": [
				{
					"internalType": "uint256",
					"name": "",
					"type": "uint256"
				}
			],
			"stateMutability": "view",
			"type": "function"
		},
		{
			"inputs": [],
			"name": "sumToUnstake",
			"outputs": [
				{
					"internalType": "uint256",
					"name": "",
					"type": "uint256"
				}
			],
			"stateMutability": "view",
			"type": "function"
		},
		{
			"inputs": [],
			"name": "switchClosed",
			"outputs": [],
			"stateMutability": "nonpayable",
			"type": "function"
		},
		{
			"inputs": [],
			"name": "totalStaked",
			"outputs": [
				{
					"internalType": "uint256",
					"name": "",
					"type": "uint256"
				}
			],
			"stateMutability": "view",
			"type": "function"
		},
		{
			"inputs": [],
			"name": "totalStakingRewards",
			"outputs": [
				{
					"internalType": "uint256",
					"name": "",
					"type": "uint256"
				}
			],
			"stateMutability": "view",
			"type": "function"
		},
		{
			"inputs": [
				{
					"internalType": "address",
					"name": "newOwner",
					"type": "address"
				}
			],
			"name": "transferOwnership",
			"outputs": [],
			"stateMutability": "nonpayable",
			"type": "function"
		},
		{
			"inputs": [],
			"name": "unbondedPool",
			"outputs": [
				{
					"internalType": "uint256",
					"name": "",
					"type": "uint256"
				}
			],
			"stateMutability": "view",
			"type": "function"
		},
		{
			"inputs": [],
			"name": "unstake",
			"outputs": [],
			"stateMutability": "nonpayable",
			"type": "function"
		},
		{
			"inputs": [
				{
					"internalType": "address",
					"name": "",
					"type": "address"
				}
			],
			"name": "userClaimedSlices",
			"outputs": [
				{
					"internalType": "uint256",
					"name": "",
					"type": "uint256"
				}
			],
			"stateMutability": "view",
			"type": "function"
		},
		{
			"inputs": [],
			"name": "vesting",
			"outputs": [
				{
					"internalType": "contract ALGMVesting",
					"name": "",
					"type": "address"
				}
			],
			"stateMutability": "view",
			"type": "function"
		},
		{
			"inputs": [],
			"name": "vestingParams",
			"outputs": [
				{
					"internalType": "address",
					"name": "beneficiary",
					"type": "address"
				},
				{
					"internalType": "uint256",
					"name": "cliff",
					"type": "uint256"
				},
				{
					"internalType": "uint256",
					"name": "startTime",
					"type": "uint256"
				},
				{
					"internalType": "uint256",
					"name": "duration",
					"type": "uint256"
				},
				{
					"internalType": "uint256",
					"name": "slicePeriod",
					"type": "uint256"
				},
				{
					"internalType": "bool",
					"name": "revocable",
					"type": "bool"
				},
				{
					"internalType": "uint256",
					"name": "amount",
					"type": "uint256"
				}
			],
			"stateMutability": "view",
			"type": "function"
		},
		{
			"inputs": [
				{
					"internalType": "uint256",
					"name": "_id",
					"type": "uint256"
				}
			],
			"name": "withdraw",
			"outputs": [],
			"stateMutability": "nonpayable",
			"type": "function"
		},
		{
			"inputs": [],
			"name": "withdrawBlock",
			"outputs": [
				{
					"internalType": "uint256",
					"name": "",
					"type": "uint256"
				}
			],
			"stateMutability": "view",
			"type": "function"
		},
		{
			"inputs": [],
			"name": "withdrawStakingRewardsAdmin",
			"outputs": [],
			"stateMutability": "nonpayable",
			"type": "function"
		},
		{
			"inputs": [
				{
					"internalType": "address",
					"name": "",
					"type": "address"
				},
				{
					"internalType": "uint256",
					"name": "",
					"type": "uint256"
				}
			],
			"name": "withdrawals",
			"outputs": [
				{
					"internalType": "uint256",
					"name": "val",
					"type": "uint256"
				},
				{
					"internalType": "uint256",
					"name": "eraReq",
					"type": "uint256"
				},
				{
					"internalType": "uint256",
					"name": "lag",
					"type": "uint256"
				}
			],
			"stateMutability": "view",
			"type": "function"
		},
		{
			"stateMutability": "payable",
			"type": "receive"
		}
	]
}